{
  "_format": "hh-sol-artifact-1",
  "contractName": "Nude",
  "sourceName": "contracts/Nude.sol",
  "abi": [
    {
      "inputs": [],
      "stateMutability": "nonpayable",
      "type": "constructor"
    },
    {
      "anonymous": false,
      "inputs": [
        {
          "indexed": true,
          "internalType": "address",
          "name": "owner",
          "type": "address"
        },
        {
          "indexed": true,
          "internalType": "address",
          "name": "spender",
          "type": "address"
        },
        {
          "indexed": false,
          "internalType": "uint256",
          "name": "value",
          "type": "uint256"
        }
      ],
      "name": "Approval",
      "type": "event"
    },
    {
      "anonymous": false,
      "inputs": [
        {
          "indexed": true,
          "internalType": "address",
          "name": "delegator",
          "type": "address"
        },
        {
          "indexed": true,
          "internalType": "address",
          "name": "fromDelegate",
          "type": "address"
        },
        {
          "indexed": true,
          "internalType": "address",
          "name": "toDelegate",
          "type": "address"
        }
      ],
      "name": "DelegateChanged",
      "type": "event"
    },
    {
      "anonymous": false,
      "inputs": [
        {
          "indexed": true,
          "internalType": "address",
          "name": "delegate",
          "type": "address"
        },
        {
          "indexed": false,
          "internalType": "uint256",
          "name": "previousBalance",
          "type": "uint256"
        },
        {
          "indexed": false,
          "internalType": "uint256",
          "name": "newBalance",
          "type": "uint256"
        }
      ],
      "name": "DelegateVotesChanged",
      "type": "event"
    },
    {
      "anonymous": false,
      "inputs": [
        {
          "indexed": true,
          "internalType": "address",
          "name": "previousOwner",
          "type": "address"
        },
        {
          "indexed": true,
          "internalType": "address",
          "name": "newOwner",
          "type": "address"
        }
      ],
      "name": "OwnershipTransferred",
      "type": "event"
    },
    {
      "anonymous": false,
      "inputs": [
        {
          "indexed": false,
          "internalType": "address",
          "name": "_buyer",
          "type": "address"
        },
        {
          "indexed": false,
          "internalType": "uint256",
          "name": "_amount",
          "type": "uint256"
        }
      ],
      "name": "Sell",
      "type": "event"
    },
    {
      "anonymous": false,
      "inputs": [
        {
          "indexed": true,
          "internalType": "address",
          "name": "from",
          "type": "address"
        },
        {
          "indexed": true,
          "internalType": "address",
          "name": "to",
          "type": "address"
        },
        {
          "indexed": false,
          "internalType": "uint256",
          "name": "value",
          "type": "uint256"
        }
      ],
      "name": "Transfer",
      "type": "event"
    },
    {
      "inputs": [],
      "name": "DOMAIN_SEPARATOR",
      "outputs": [
        {
          "internalType": "bytes32",
          "name": "",
          "type": "bytes32"
        }
      ],
      "stateMutability": "view",
      "type": "function"
    },
    {
      "inputs": [
        {
          "internalType": "address",
          "name": "owner",
          "type": "address"
        },
        {
          "internalType": "address",
          "name": "spender",
          "type": "address"
        }
      ],
      "name": "allowance",
      "outputs": [
        {
          "internalType": "uint256",
          "name": "",
          "type": "uint256"
        }
      ],
      "stateMutability": "view",
      "type": "function"
    },
    {
      "inputs": [
        {
          "internalType": "address",
          "name": "spender",
          "type": "address"
        },
        {
          "internalType": "uint256",
          "name": "amount",
          "type": "uint256"
        }
      ],
      "name": "approve",
      "outputs": [
        {
          "internalType": "bool",
          "name": "",
          "type": "bool"
        }
      ],
      "stateMutability": "nonpayable",
      "type": "function"
    },
    {
      "inputs": [
        {
          "internalType": "uint256",
          "name": "tokenId",
          "type": "uint256"
        }
      ],
      "name": "approveAndBuyNFT",
      "outputs": [],
      "stateMutability": "nonpayable",
      "type": "function"
    },
    {
      "inputs": [
        {
          "internalType": "address",
          "name": "account",
          "type": "address"
        }
      ],
      "name": "balanceOf",
      "outputs": [
        {
          "internalType": "uint256",
          "name": "",
          "type": "uint256"
        }
      ],
      "stateMutability": "view",
      "type": "function"
    },
    {
      "inputs": [
        {
          "internalType": "uint256",
          "name": "_numberOfTokens",
          "type": "uint256"
        }
      ],
      "name": "buyTokens",
      "outputs": [],
      "stateMutability": "payable",
      "type": "function"
    },
    {
      "inputs": [
        {
          "internalType": "address",
          "name": "account",
          "type": "address"
        },
        {
          "internalType": "uint32",
          "name": "pos",
          "type": "uint32"
        }
      ],
      "name": "checkpoints",
      "outputs": [
        {
          "components": [
            {
              "internalType": "uint32",
              "name": "fromBlock",
              "type": "uint32"
            },
            {
              "internalType": "uint224",
              "name": "votes",
              "type": "uint224"
            }
          ],
          "internalType": "struct ERC20Votes.Checkpoint",
          "name": "",
          "type": "tuple"
        }
      ],
      "stateMutability": "view",
      "type": "function"
    },
    {
      "inputs": [],
      "name": "decimals",
      "outputs": [
        {
          "internalType": "uint8",
          "name": "",
          "type": "uint8"
        }
      ],
      "stateMutability": "view",
      "type": "function"
    },
    {
      "inputs": [
        {
          "internalType": "address",
          "name": "spender",
          "type": "address"
        },
        {
          "internalType": "uint256",
          "name": "subtractedValue",
          "type": "uint256"
        }
      ],
      "name": "decreaseAllowance",
      "outputs": [
        {
          "internalType": "bool",
          "name": "",
          "type": "bool"
        }
      ],
      "stateMutability": "nonpayable",
      "type": "function"
    },
    {
      "inputs": [
        {
          "internalType": "address",
          "name": "delegatee",
          "type": "address"
        }
      ],
      "name": "delegate",
      "outputs": [],
      "stateMutability": "nonpayable",
      "type": "function"
    },
    {
      "inputs": [
        {
          "internalType": "address",
          "name": "delegatee",
          "type": "address"
        },
        {
          "internalType": "uint256",
          "name": "nonce",
          "type": "uint256"
        },
        {
          "internalType": "uint256",
          "name": "expiry",
          "type": "uint256"
        },
        {
          "internalType": "uint8",
          "name": "v",
          "type": "uint8"
        },
        {
          "internalType": "bytes32",
          "name": "r",
          "type": "bytes32"
        },
        {
          "internalType": "bytes32",
          "name": "s",
          "type": "bytes32"
        }
      ],
      "name": "delegateBySig",
      "outputs": [],
      "stateMutability": "nonpayable",
      "type": "function"
    },
    {
      "inputs": [
        {
          "internalType": "address",
          "name": "account",
          "type": "address"
        }
      ],
      "name": "delegates",
      "outputs": [
        {
          "internalType": "address",
          "name": "",
          "type": "address"
        }
      ],
      "stateMutability": "view",
      "type": "function"
    },
    {
      "inputs": [
        {
          "internalType": "uint256",
          "name": "blockNumber",
          "type": "uint256"
        }
      ],
      "name": "getPastTotalSupply",
      "outputs": [
        {
          "internalType": "uint256",
          "name": "",
          "type": "uint256"
        }
      ],
      "stateMutability": "view",
      "type": "function"
    },
    {
      "inputs": [
        {
          "internalType": "address",
          "name": "account",
          "type": "address"
        },
        {
          "internalType": "uint256",
          "name": "blockNumber",
          "type": "uint256"
        }
      ],
      "name": "getPastVotes",
      "outputs": [
        {
          "internalType": "uint256",
          "name": "",
          "type": "uint256"
        }
      ],
      "stateMutability": "view",
      "type": "function"
    },
    {
      "inputs": [
        {
          "internalType": "address",
          "name": "account",
          "type": "address"
        }
      ],
      "name": "getVotes",
      "outputs": [
        {
          "internalType": "uint256",
          "name": "",
          "type": "uint256"
        }
      ],
      "stateMutability": "view",
      "type": "function"
    },
    {
      "inputs": [
        {
          "internalType": "address",
          "name": "spender",
          "type": "address"
        },
        {
          "internalType": "uint256",
          "name": "addedValue",
          "type": "uint256"
        }
      ],
      "name": "increaseAllowance",
      "outputs": [
        {
          "internalType": "bool",
          "name": "",
          "type": "bool"
        }
      ],
      "stateMutability": "nonpayable",
      "type": "function"
    },
    {
      "inputs": [],
      "name": "initialSupply",
      "outputs": [
        {
          "internalType": "uint256",
          "name": "",
          "type": "uint256"
        }
      ],
      "stateMutability": "view",
      "type": "function"
    },
    {
      "inputs": [],
      "name": "name",
      "outputs": [
        {
          "internalType": "string",
          "name": "",
          "type": "string"
        }
      ],
      "stateMutability": "view",
      "type": "function"
    },
    {
      "inputs": [
        {
          "internalType": "address",
          "name": "owner",
          "type": "address"
        }
      ],
      "name": "nonces",
      "outputs": [
        {
          "internalType": "uint256",
          "name": "",
          "type": "uint256"
        }
      ],
      "stateMutability": "view",
      "type": "function"
    },
    {
      "inputs": [
        {
          "internalType": "address",
          "name": "account",
          "type": "address"
        }
      ],
      "name": "numCheckpoints",
      "outputs": [
        {
          "internalType": "uint32",
          "name": "",
          "type": "uint32"
        }
      ],
      "stateMutability": "view",
      "type": "function"
    },
    {
      "inputs": [],
      "name": "owner",
      "outputs": [
        {
          "internalType": "address",
          "name": "",
          "type": "address"
        }
      ],
      "stateMutability": "view",
      "type": "function"
    },
    {
      "inputs": [
        {
          "internalType": "address",
          "name": "owner",
          "type": "address"
        },
        {
          "internalType": "address",
          "name": "spender",
          "type": "address"
        },
        {
          "internalType": "uint256",
          "name": "value",
          "type": "uint256"
        },
        {
          "internalType": "uint256",
          "name": "deadline",
          "type": "uint256"
        },
        {
          "internalType": "uint8",
          "name": "v",
          "type": "uint8"
        },
        {
          "internalType": "bytes32",
          "name": "r",
          "type": "bytes32"
        },
        {
          "internalType": "bytes32",
          "name": "s",
          "type": "bytes32"
        }
      ],
      "name": "permit",
      "outputs": [],
      "stateMutability": "nonpayable",
      "type": "function"
    },
    {
      "inputs": [],
      "name": "renounceOwnership",
      "outputs": [],
      "stateMutability": "nonpayable",
      "type": "function"
    },
    {
      "inputs": [
        {
          "internalType": "address",
          "name": "dexAddress",
          "type": "address"
        }
      ],
      "name": "setNudeDex",
      "outputs": [],
      "stateMutability": "nonpayable",
      "type": "function"
    },
    {
      "inputs": [],
      "name": "symbol",
      "outputs": [
        {
          "internalType": "string",
          "name": "",
          "type": "string"
        }
      ],
      "stateMutability": "view",
      "type": "function"
    },
    {
      "inputs": [],
      "name": "tax",
      "outputs": [
        {
          "internalType": "uint8",
          "name": "",
          "type": "uint8"
        }
      ],
      "stateMutability": "view",
      "type": "function"
    },
    {
      "inputs": [],
      "name": "tokenRate",
      "outputs": [
        {
          "internalType": "uint256",
          "name": "",
          "type": "uint256"
        }
      ],
      "stateMutability": "view",
      "type": "function"
    },
    {
      "inputs": [],
      "name": "tokensSold",
      "outputs": [
        {
          "internalType": "uint256",
          "name": "",
          "type": "uint256"
        }
      ],
      "stateMutability": "view",
      "type": "function"
    },
    {
      "inputs": [],
      "name": "totalSupply",
      "outputs": [
        {
          "internalType": "uint256",
          "name": "",
          "type": "uint256"
        }
      ],
      "stateMutability": "view",
      "type": "function"
    },
    {
      "inputs": [
        {
          "internalType": "address",
          "name": "to",
          "type": "address"
        },
        {
          "internalType": "uint256",
          "name": "amount",
          "type": "uint256"
        }
      ],
      "name": "transfer",
      "outputs": [
        {
          "internalType": "bool",
          "name": "",
          "type": "bool"
        }
      ],
      "stateMutability": "nonpayable",
      "type": "function"
    },
    {
      "inputs": [
        {
          "internalType": "address",
          "name": "from",
          "type": "address"
        },
        {
          "internalType": "address",
          "name": "to",
          "type": "address"
        },
        {
          "internalType": "uint256",
          "name": "amount",
          "type": "uint256"
        }
      ],
      "name": "transferFrom",
      "outputs": [
        {
          "internalType": "bool",
          "name": "",
          "type": "bool"
        }
      ],
      "stateMutability": "nonpayable",
      "type": "function"
    },
    {
      "inputs": [
        {
          "internalType": "address",
          "name": "newOwner",
          "type": "address"
        }
      ],
      "name": "transferOwnership",
      "outputs": [],
      "stateMutability": "nonpayable",
      "type": "function"
    },
    {
      "inputs": [
        {
          "internalType": "address",
          "name": "from",
          "type": "address"
        },
        {
          "internalType": "address",
          "name": "to",
          "type": "address"
        },
        {
          "internalType": "uint256",
          "name": "amount",
          "type": "uint256"
        }
      ],
      "name": "transferTokens",
      "outputs": [],
      "stateMutability": "nonpayable",
      "type": "function"
    }
  ],
  "bytecode": "0x6101406040526304277dc9600b55600a600d55600e805460ff60a01b1916600560a11b1790553480156200003257600080fd5b50604051806040016040528060048152602001634e75646560e01b81525080604051806040016040528060018152602001603160f81b815250604051806040016040528060048152602001634e75646560e01b815250604051806040016040528060048152602001634e55444560e01b8152508160039080519060200190620000bd929190620007f2565b508051620000d3906004906020840190620007f2565b5050825160209384012082519284019290922060e08390526101008190524660a0818152604080517f8b73c3c69bb8fe3d512ecc4cf759cc79239f7b179b0ffacaa9a75d522b39400f818901819052818301979097526060810194909452608080850193909352308483018190528151808603909301835260c094850190915281519190960120905292909252610120525062000172905033620001a0565b6200019a33620001856012600a620009a1565b600b54620001949190620009b2565b620001f2565b62000a5b565b600a80546001600160a01b038381166001600160a01b0319831681179093556040519116919082907f8be0079c531659141344cd1fd0a4f28419497f9722a3daafe3b4186f6b6457e090600090a35050565b6200020982826200020d60201b620010cb1760201c565b5050565b620002248282620002c460201b6200115b1760201c565b6001600160e01b0362000238620003b38216565b1115620002a55760405162461bcd60e51b815260206004820152603060248201527f4552433230566f7465733a20746f74616c20737570706c79207269736b73206f60448201526f766572666c6f77696e6720766f74657360801b60648201526084015b60405180910390fd5b620002be600962001246620003b960201b1783620003d0565b50505050565b6001600160a01b0382166200031c5760405162461bcd60e51b815260206004820152601f60248201527f45524332303a206d696e7420746f20746865207a65726f20616464726573730060448201526064016200029c565b8060026000828254620003309190620009d4565b90915550506001600160a01b038216600090815260208190526040812080548392906200035f908490620009d4565b90915550506040518181526001600160a01b038316906000907fddf252ad1be2c89b69c2b068fc378daa952ba7f163c4a11628f55a4df523b3ef9060200160405180910390a3620002096000838362000587565b60025490565b6000620003c78284620009d4565b90505b92915050565b825460009081908015620004225785620003ec600183620009ef565b81548110620003ff57620003ff62000a09565b60009182526020909120015464010000000090046001600160e01b031662000425565b60005b6001600160e01b031692506200043c83858760201c565b9150600081118015620004805750438662000459600184620009ef565b815481106200046c576200046c62000a09565b60009182526020909120015463ffffffff16145b15620004f4576200049c826200059f60201b620012521760201c565b86620004aa600184620009ef565b81548110620004bd57620004bd62000a09565b9060005260206000200160000160046101000a8154816001600160e01b0302191690836001600160e01b0316021790555062000579565b85604051806040016040528062000516436200060e60201b620012bf1760201c565b63ffffffff16815260200162000537856200059f60201b620012521760201c565b6001600160e01b0390811690915282546001810184556000938452602093849020835194909301519091166401000000000263ffffffff909316929092179101555b50935093915050565b505050565b620005828383836200067560201b620013241760201c565b60006001600160e01b038211156200060a5760405162461bcd60e51b815260206004820152602760248201527f53616665436173743a2076616c756520646f65736e27742066697420696e20326044820152663234206269747360c81b60648201526084016200029c565b5090565b600063ffffffff8211156200060a5760405162461bcd60e51b815260206004820152602660248201527f53616665436173743a2076616c756520646f65736e27742066697420696e203360448201526532206269747360d01b60648201526084016200029c565b6200068d8383836200058260201b62000c8b1760201c565b6001600160a01b038381166000908152600760205260408082205485841683529120546200058292918216911683818314801590620006cc5750600081115b1562000582576001600160a01b0383161562000759576001600160a01b038316600090815260086020908152604082208291620007169190620007e4901b620013561785620003d0565b91509150846001600160a01b031660008051602062002f1883398151915283836040516200074e929190918252602082015260400190565b60405180910390a250505b6001600160a01b0382161562000582576001600160a01b0382166000908152600860209081526040822082916200079d9190620003b9901b620012461785620003d0565b91509150836001600160a01b031660008051602062002f188339815191528383604051620007d5929190918252602082015260400190565b60405180910390a25050505050565b6000620003c78284620009ef565b828054620008009062000a1f565b90600052602060002090601f0160209004810192826200082457600085556200086f565b82601f106200083f57805160ff19168380011785556200086f565b828001600101855582156200086f579182015b828111156200086f57825182559160200191906001019062000852565b506200060a9291505b808211156200060a576000815560010162000878565b634e487b7160e01b600052601160045260246000fd5b600181815b80851115620008e5578160001904821115620008c957620008c96200088e565b80851615620008d757918102915b93841c9390800290620008a9565b509250929050565b600082620008fe57506001620003ca565b816200090d57506000620003ca565b8160018114620009265760028114620009315762000951565b6001915050620003ca565b60ff8411156200094557620009456200088e565b50506001821b620003ca565b5060208310610133831016604e8410600b841016171562000976575081810a620003ca565b620009828383620008a4565b80600019048211156200099957620009996200088e565b029392505050565b6000620003c760ff841683620008ed565b6000816000190483118215151615620009cf57620009cf6200088e565b500290565b60008219821115620009ea57620009ea6200088e565b500190565b60008282101562000a045762000a046200088e565b500390565b634e487b7160e01b600052603260045260246000fd5b600181811c9082168062000a3457607f821691505b60208210810362000a5557634e487b7160e01b600052602260045260246000fd5b50919050565b60805160a05160c05160e051610100516101205161246d62000aab6000396000611758015260006117a701526000611782015260006116db015260006117050152600061172f015261246d6000f3fe6080604052600436106101ee5760003560e01c806370a082311161010d578063a457c2d7116100a0578063d505accf1161006f578063d505accf146105a0578063dd62ed3e146105c0578063e8e42475146105e0578063f1127ed814610600578063f2fde38b1461064a57600080fd5b8063a457c2d714610520578063a64b6e5f14610540578063a9059cbb14610560578063c3cda5201461058057600080fd5b80638e539e8c116100dc5780638e539e8c146104aa57806395d89b41146104ca57806399c8d556146104df5780639ab24eb01461050057600080fd5b806370a0823114610421578063715018a6146104575780637ecebe001461046c5780638da5cb5b1461048c57600080fd5b8063378dc3dc11610185578063518ab2a811610154578063518ab2a814610365578063587cde1e1461037b5780635c19a95c146103cc5780636fcfff45146103ec57600080fd5b8063378dc3dc146102ef57806338ece2a61461030557806339509351146103255780633a46b1a81461034557600080fd5b8063313ce567116101c1578063313ce5671461028d57806331711884146102af5780633610724e146102c55780633644e515146102da57600080fd5b806306fdde03146101f3578063095ea7b31461021e57806318160ddd1461024e57806323b872dd1461026d575b600080fd5b3480156101ff57600080fd5b5061020861066a565b6040516102159190611f9a565b60405180910390f35b34801561022a57600080fd5b5061023e61023936600461200b565b6106fc565b6040519015158152602001610215565b34801561025a57600080fd5b506002545b604051908152602001610215565b34801561027957600080fd5b5061023e610288366004612035565b610716565b34801561029957600080fd5b5060125b60405160ff9091168152602001610215565b3480156102bb57600080fd5b5061025f600d5481565b6102d86102d3366004612071565b61073a565b005b3480156102e657600080fd5b5061025f610869565b3480156102fb57600080fd5b5061025f600b5481565b34801561031157600080fd5b506102d8610320366004612071565b610878565b34801561033157600080fd5b5061023e61034036600461200b565b610992565b34801561035157600080fd5b5061025f61036036600461200b565b6109b4565b34801561037157600080fd5b5061025f600c5481565b34801561038757600080fd5b506103b461039636600461208a565b6001600160a01b039081166000908152600760205260409020541690565b6040516001600160a01b039091168152602001610215565b3480156103d857600080fd5b506102d86103e736600461208a565b610a2e565b3480156103f857600080fd5b5061040c61040736600461208a565b610a3b565b60405163ffffffff9091168152602001610215565b34801561042d57600080fd5b5061025f61043c36600461208a565b6001600160a01b031660009081526020819052604090205490565b34801561046357600080fd5b506102d8610a5d565b34801561047857600080fd5b5061025f61048736600461208a565b610a93565b34801561049857600080fd5b50600a546001600160a01b03166103b4565b3480156104b657600080fd5b5061025f6104c5366004612071565b610ab1565b3480156104d657600080fd5b50610208610b0d565b3480156104eb57600080fd5b50600e5461029d90600160a01b900460ff1681565b34801561050c57600080fd5b5061025f61051b36600461208a565b610b1c565b34801561052c57600080fd5b5061023e61053b36600461200b565b610ba3565b34801561054c57600080fd5b506102d861055b366004612035565b610c1e565b34801561056c57600080fd5b5061023e61057b36600461200b565b610c90565b34801561058c57600080fd5b506102d861059b3660046120b6565b610c9e565b3480156105ac57600080fd5b506102d86105bb36600461210e565b610dd4565b3480156105cc57600080fd5b5061025f6105db366004612178565b610f38565b3480156105ec57600080fd5b506102d86105fb36600461208a565b610f63565b34801561060c57600080fd5b5061062061061b3660046121ab565b610faf565b60408051825163ffffffff1681526020928301516001600160e01b03169281019290925201610215565b34801561065657600080fd5b506102d861066536600461208a565b611033565b606060038054610679906121eb565b80601f01602080910402602001604051908101604052809291908181526020018280546106a5906121eb565b80156106f25780601f106106c7576101008083540402835291602001916106f2565b820191906000526020600020905b8154815290600101906020018083116106d557829003601f168201915b5050505050905090565b60003361070a818585611362565b60019150505b92915050565b600033610724858285611486565b61072f8585856114fa565b506001949350505050565b6107466012600a612319565b6107509082612328565b600d5461075d9034612328565b146107a25760405162461bcd60e51b815260206004820152601060248201526f139bdd08195e1858dd08185b5bdd5b9d60821b60448201526064015b60405180910390fd5b806107b861043c600a546001600160a01b031690565b10156107fa5760405162461bcd60e51b81526020600482015260116024820152704e6f7420656e6f75676820746f6b656e7360781b6044820152606401610799565b61081661080f600a546001600160a01b031690565b33836114fa565b80600c60008282546108289190612347565b909155505060408051338152602081018390527f5e5e995ce3133561afceaa51a9a154d5db228cd7525d34df5185582c18d3df09910160405180910390a150565b60006108736116ce565b905090565b600e54604051630e75722360e41b8152600481018390526000916001600160a01b03169063e757223090602401602060405180830381865afa1580156108c2573d6000803e3d6000fd5b505050506040513d601f19601f820116820180604052508101906108e6919061235f565b600e54909150610929906001600160a01b0381169060649061091290600160a01b900460ff1682612378565b61091f9060ff1685612328565b610239919061239d565b50600e5460405163382833dd60e21b8152600481018490523360248201526001600160a01b039091169063e0a0cf7490604401600060405180830381600087803b15801561097657600080fd5b505af115801561098a573d6000803e3d6000fd5b505050505050565b60003361070a8185856109a58383610f38565b6109af9190612347565b611362565b6000438210610a055760405162461bcd60e51b815260206004820152601f60248201527f4552433230566f7465733a20626c6f636b206e6f7420796574206d696e6564006044820152606401610799565b6001600160a01b0383166000908152600860205260409020610a2790836117f5565b9392505050565b610a3833826118b2565b50565b6001600160a01b038116600090815260086020526040812054610710906112bf565b600a546001600160a01b03163314610a875760405162461bcd60e51b8152600401610799906123bf565b610a91600061192b565b565b6001600160a01b038116600090815260056020526040812054610710565b6000438210610b025760405162461bcd60e51b815260206004820152601f60248201527f4552433230566f7465733a20626c6f636b206e6f7420796574206d696e6564006044820152606401610799565b6107106009836117f5565b606060048054610679906121eb565b6001600160a01b0381166000908152600860205260408120548015610b90576001600160a01b0383166000908152600860205260409020610b5e6001836123f4565b81548110610b6e57610b6e61240b565b60009182526020909120015464010000000090046001600160e01b0316610b93565b60005b6001600160e01b03169392505050565b60003381610bb18286610f38565b905083811015610c115760405162461bcd60e51b815260206004820152602560248201527f45524332303a2064656372656173656420616c6c6f77616e63652062656c6f77604482015264207a65726f60d81b6064820152608401610799565b61072f8286868403611362565b80610c3e846001600160a01b031660009081526020819052604090205490565b1015610c805760405162461bcd60e51b81526020600482015260116024820152704e6f7420656e6f75676820746f6b656e7360781b6044820152606401610799565b610c8b8383836114fa565b505050565b60003361070a8185856114fa565b83421115610cee5760405162461bcd60e51b815260206004820152601d60248201527f4552433230566f7465733a207369676e617475726520657870697265640000006044820152606401610799565b604080517fe48329057bfd03d55e49b547132e39cffd9c1820ad7b9d4c5307691425d15adf60208201526001600160a01b038816918101919091526060810186905260808101859052600090610d6890610d609060a0016040516020818303038152906040528051906020012061197d565b8585856119cb565b9050610d73816119f3565b8614610dc15760405162461bcd60e51b815260206004820152601960248201527f4552433230566f7465733a20696e76616c6964206e6f6e6365000000000000006044820152606401610799565b610dcb81886118b2565b50505050505050565b83421115610e245760405162461bcd60e51b815260206004820152601d60248201527f45524332305065726d69743a206578706972656420646561646c696e650000006044820152606401610799565b60007f6e71edae12b1b97f4d1f60370fef10105fa2faae0126114a169c64845d6126c9888888610e538c6119f3565b6040805160208101969096526001600160a01b0394851690860152929091166060840152608083015260a082015260c0810186905260e0016040516020818303038152906040528051906020012090506000610eae8261197d565b90506000610ebe828787876119cb565b9050896001600160a01b0316816001600160a01b031614610f215760405162461bcd60e51b815260206004820152601e60248201527f45524332305065726d69743a20696e76616c6964207369676e617475726500006044820152606401610799565b610f2c8a8a8a611362565b50505050505050505050565b6001600160a01b03918216600090815260016020908152604080832093909416825291909152205490565b600a546001600160a01b03163314610f8d5760405162461bcd60e51b8152600401610799906123bf565b600e80546001600160a01b0319166001600160a01b0392909216919091179055565b60408051808201909152600080825260208201526001600160a01b0383166000908152600860205260409020805463ffffffff8416908110610ff357610ff361240b565b60009182526020918290206040805180820190915291015463ffffffff8116825264010000000090046001600160e01b0316918101919091529392505050565b600a546001600160a01b0316331461105d5760405162461bcd60e51b8152600401610799906123bf565b6001600160a01b0381166110c25760405162461bcd60e51b815260206004820152602660248201527f4f776e61626c653a206e6577206f776e657220697320746865207a65726f206160448201526564647265737360d01b6064820152608401610799565b610a388161192b565b6110d5828261115b565b6002546001600160e01b0310156111475760405162461bcd60e51b815260206004820152603060248201527f4552433230566f7465733a20746f74616c20737570706c79207269736b73206f60448201526f766572666c6f77696e6720766f74657360801b6064820152608401610799565b611155600961124683611a1b565b50505050565b6001600160a01b0382166111b15760405162461bcd60e51b815260206004820152601f60248201527f45524332303a206d696e7420746f20746865207a65726f2061646472657373006044820152606401610799565b80600260008282546111c39190612347565b90915550506001600160a01b038216600090815260208190526040812080548392906111f0908490612347565b90915550506040518181526001600160a01b038316906000907fddf252ad1be2c89b69c2b068fc378daa952ba7f163c4a11628f55a4df523b3ef9060200160405180910390a361124260008383611b94565b5050565b6000610a278284612347565b60006001600160e01b038211156112bb5760405162461bcd60e51b815260206004820152602760248201527f53616665436173743a2076616c756520646f65736e27742066697420696e20326044820152663234206269747360c81b6064820152608401610799565b5090565b600063ffffffff8211156112bb5760405162461bcd60e51b815260206004820152602660248201527f53616665436173743a2076616c756520646f65736e27742066697420696e203360448201526532206269747360d01b6064820152608401610799565b6001600160a01b03838116600090815260076020526040808220548584168352912054610c8b92918216911683611b9f565b6000610a2782846123f4565b6001600160a01b0383166113c45760405162461bcd60e51b8152602060048201526024808201527f45524332303a20617070726f76652066726f6d20746865207a65726f206164646044820152637265737360e01b6064820152608401610799565b6001600160a01b0382166114255760405162461bcd60e51b815260206004820152602260248201527f45524332303a20617070726f766520746f20746865207a65726f206164647265604482015261737360f01b6064820152608401610799565b6001600160a01b0383811660008181526001602090815260408083209487168084529482529182902085905590518481527f8c5be1e5ebec7d5bd14f71427d1e84f3dd0314c0f7b2291e5b200ac8c7c3b925910160405180910390a3505050565b60006114928484610f38565b9050600019811461115557818110156114ed5760405162461bcd60e51b815260206004820152601d60248201527f45524332303a20696e73756666696369656e7420616c6c6f77616e63650000006044820152606401610799565b6111558484848403611362565b6001600160a01b03831661155e5760405162461bcd60e51b815260206004820152602560248201527f45524332303a207472616e736665722066726f6d20746865207a65726f206164604482015264647265737360d81b6064820152608401610799565b6001600160a01b0382166115c05760405162461bcd60e51b815260206004820152602360248201527f45524332303a207472616e7366657220746f20746865207a65726f206164647260448201526265737360e81b6064820152608401610799565b6001600160a01b038316600090815260208190526040902054818110156116385760405162461bcd60e51b815260206004820152602660248201527f45524332303a207472616e7366657220616d6f756e7420657863656564732062604482015265616c616e636560d01b6064820152608401610799565b6001600160a01b0380851660009081526020819052604080822085850390559185168152908120805484929061166f908490612347565b92505081905550826001600160a01b0316846001600160a01b03167fddf252ad1be2c89b69c2b068fc378daa952ba7f163c4a11628f55a4df523b3ef846040516116bb91815260200190565b60405180910390a3611155848484611b94565b6000306001600160a01b037f00000000000000000000000000000000000000000000000000000000000000001614801561172757507f000000000000000000000000000000000000000000000000000000000000000046145b1561175157507f000000000000000000000000000000000000000000000000000000000000000090565b50604080517f00000000000000000000000000000000000000000000000000000000000000006020808301919091527f0000000000000000000000000000000000000000000000000000000000000000828401527f000000000000000000000000000000000000000000000000000000000000000060608301524660808301523060a0808401919091528351808403909101815260c0909201909252805191012090565b8154600090815b818110156118595760006118108284611cdc565b9050848682815481106118255761182561240b565b60009182526020909120015463ffffffff16111561184557809250611853565b611850816001612347565b91505b506117fc565b811561189d578461186b6001846123f4565b8154811061187b5761187b61240b565b60009182526020909120015464010000000090046001600160e01b03166118a0565b60005b6001600160e01b031695945050505050565b6001600160a01b038281166000818152600760208181526040808420805485845282862054949093528787166001600160a01b03198416811790915590519190951694919391928592917f3134e8a2e6d97e929a7e54011ea5485d7d196dd5f0ba4d4ef95803e8e3fc257f9190a4611155828483611b9f565b600a80546001600160a01b038381166001600160a01b0319831681179093556040519116919082907f8be0079c531659141344cd1fd0a4f28419497f9722a3daafe3b4186f6b6457e090600090a35050565b600061071061198a6116ce565b8360405161190160f01b6020820152602281018390526042810182905260009060620160405160208183030381529060405280519060200120905092915050565b60008060006119dc87878787611cf7565b915091506119e981611de4565b5095945050505050565b6001600160a01b03811660009081526005602052604090208054600181018255905b50919050565b825460009081908015611a665785611a346001836123f4565b81548110611a4457611a4461240b565b60009182526020909120015464010000000090046001600160e01b0316611a69565b60005b6001600160e01b03169250611a8283858763ffffffff16565b9150600081118015611ac057504386611a9c6001846123f4565b81548110611aac57611aac61240b565b60009182526020909120015463ffffffff16145b15611b2057611ace82611252565b86611ada6001846123f4565b81548110611aea57611aea61240b565b9060005260206000200160000160046101000a8154816001600160e01b0302191690836001600160e01b03160217905550611b8b565b856040518060400160405280611b35436112bf565b63ffffffff168152602001611b4985611252565b6001600160e01b0390811690915282546001810184556000938452602093849020835194909301519091166401000000000263ffffffff909316929092179101555b50935093915050565b610c8b838383611324565b816001600160a01b0316836001600160a01b031614158015611bc15750600081115b15610c8b576001600160a01b03831615611c4f576001600160a01b03831660009081526008602052604081208190611bfc9061135685611a1b565b91509150846001600160a01b03167fdec2bacdd2f05b59de34da9b523dff8be42e5e38e818c82fdb0bae774387a7248383604051611c44929190918252602082015260400190565b60405180910390a250505b6001600160a01b03821615610c8b576001600160a01b03821660009081526008602052604081208190611c859061124685611a1b565b91509150836001600160a01b03167fdec2bacdd2f05b59de34da9b523dff8be42e5e38e818c82fdb0bae774387a7248383604051611ccd929190918252602082015260400190565b60405180910390a25050505050565b6000611ceb600284841861239d565b610a2790848416612347565b6000807f7fffffffffffffffffffffffffffffff5d576e7357a4501ddfe92f46681b20a0831115611d2e5750600090506003611ddb565b8460ff16601b14158015611d4657508460ff16601c14155b15611d575750600090506004611ddb565b6040805160008082526020820180845289905260ff881692820192909252606081018690526080810185905260019060a0016020604051602081039080840390855afa158015611dab573d6000803e3d6000fd5b5050604051601f1901519150506001600160a01b038116611dd457600060019250925050611ddb565b9150600090505b94509492505050565b6000816004811115611df857611df8612421565b03611e005750565b6001816004811115611e1457611e14612421565b03611e615760405162461bcd60e51b815260206004820152601860248201527f45434453413a20696e76616c6964207369676e617475726500000000000000006044820152606401610799565b6002816004811115611e7557611e75612421565b03611ec25760405162461bcd60e51b815260206004820152601f60248201527f45434453413a20696e76616c6964207369676e6174757265206c656e677468006044820152606401610799565b6003816004811115611ed657611ed6612421565b03611f2e5760405162461bcd60e51b815260206004820152602260248201527f45434453413a20696e76616c6964207369676e6174757265202773272076616c604482015261756560f01b6064820152608401610799565b6004816004811115611f4257611f42612421565b03610a385760405162461bcd60e51b815260206004820152602260248201527f45434453413a20696e76616c6964207369676e6174757265202776272076616c604482015261756560f01b6064820152608401610799565b600060208083528351808285015260005b81811015611fc757858101830151858201604001528201611fab565b81811115611fd9576000604083870101525b50601f01601f1916929092016040019392505050565b80356001600160a01b038116811461200657600080fd5b919050565b6000806040838503121561201e57600080fd5b61202783611fef565b946020939093013593505050565b60008060006060848603121561204a57600080fd5b61205384611fef565b925061206160208501611fef565b9150604084013590509250925092565b60006020828403121561208357600080fd5b5035919050565b60006020828403121561209c57600080fd5b610a2782611fef565b803560ff8116811461200657600080fd5b60008060008060008060c087890312156120cf57600080fd5b6120d887611fef565b955060208701359450604087013593506120f4606088016120a5565b92506080870135915060a087013590509295509295509295565b600080600080600080600060e0888a03121561212957600080fd5b61213288611fef565b965061214060208901611fef565b9550604088013594506060880135935061215c608089016120a5565b925060a0880135915060c0880135905092959891949750929550565b6000806040838503121561218b57600080fd5b61219483611fef565b91506121a260208401611fef565b90509250929050565b600080604083850312156121be57600080fd5b6121c783611fef565b9150602083013563ffffffff811681146121e057600080fd5b809150509250929050565b600181811c908216806121ff57607f821691505b602082108103611a1557634e487b7160e01b600052602260045260246000fd5b634e487b7160e01b600052601160045260246000fd5b600181815b808511156122705781600019048211156122565761225661221f565b8085161561226357918102915b93841c939080029061223a565b509250929050565b60008261228757506001610710565b8161229457506000610710565b81600181146122aa57600281146122b4576122d0565b6001915050610710565b60ff8411156122c5576122c561221f565b50506001821b610710565b5060208310610133831016604e8410600b84101617156122f3575081810a610710565b6122fd8383612235565b80600019048211156123115761231161221f565b029392505050565b6000610a2760ff841683612278565b60008160001904831182151516156123425761234261221f565b500290565b6000821982111561235a5761235a61221f565b500190565b60006020828403121561237157600080fd5b5051919050565b600060ff821660ff84168060ff038211156123955761239561221f565b019392505050565b6000826123ba57634e487b7160e01b600052601260045260246000fd5b500490565b6020808252818101527f4f776e61626c653a2063616c6c6572206973206e6f7420746865206f776e6572604082015260600190565b6000828210156124065761240661221f565b500390565b634e487b7160e01b600052603260045260246000fd5b634e487b7160e01b600052602160045260246000fdfea26469706673582212209132e3ab086a3ab340519c683e36c54a7d307dc2bb399deb27070fbd81bd790664736f6c634300080e0033dec2bacdd2f05b59de34da9b523dff8be42e5e38e818c82fdb0bae774387a724",
  "linkReferences": {},
  "deployedLinkReferences": {}
}