{
  "_format": "hh-sol-artifact-1",
  "contractName": "NudeNFT",
  "sourceName": "contracts/NudeNFT.sol",
  "abi": [
    {
      "inputs": [],
      "stateMutability": "nonpayable",
      "type": "constructor"
    },
    {
      "anonymous": false,
      "inputs": [
        {
          "indexed": true,
          "internalType": "address",
          "name": "owner",
          "type": "address"
        },
        {
          "indexed": true,
          "internalType": "address",
          "name": "approved",
          "type": "address"
        },
        {
          "indexed": true,
          "internalType": "uint256",
          "name": "tokenId",
          "type": "uint256"
        }
      ],
      "name": "Approval",
      "type": "event"
    },
    {
      "anonymous": false,
      "inputs": [
        {
          "indexed": true,
          "internalType": "address",
          "name": "owner",
          "type": "address"
        },
        {
          "indexed": true,
          "internalType": "address",
          "name": "operator",
          "type": "address"
        },
        {
          "indexed": false,
          "internalType": "bool",
          "name": "approved",
          "type": "bool"
        }
      ],
      "name": "ApprovalForAll",
      "type": "event"
    },
    {
      "anonymous": false,
      "inputs": [
        {
          "indexed": false,
          "internalType": "address",
          "name": "recipient",
          "type": "address"
        },
        {
          "indexed": false,
          "internalType": "uint256",
          "name": "tokenId",
          "type": "uint256"
        },
        {
          "indexed": false,
          "internalType": "string",
          "name": "tokenURI",
          "type": "string"
        }
      ],
      "name": "MintNFT",
      "type": "event"
    },
    {
      "anonymous": false,
      "inputs": [
        {
          "indexed": true,
          "internalType": "address",
          "name": "previousOwner",
          "type": "address"
        },
        {
          "indexed": true,
          "internalType": "address",
          "name": "newOwner",
          "type": "address"
        }
      ],
      "name": "OwnershipTransferred",
      "type": "event"
    },
    {
      "anonymous": false,
      "inputs": [
        {
          "indexed": true,
          "internalType": "address",
          "name": "from",
          "type": "address"
        },
        {
          "indexed": true,
          "internalType": "address",
          "name": "to",
          "type": "address"
        },
        {
          "indexed": true,
          "internalType": "uint256",
          "name": "tokenId",
          "type": "uint256"
        }
      ],
      "name": "Transfer",
      "type": "event"
    },
    {
      "inputs": [
        {
          "internalType": "address",
          "name": "to",
          "type": "address"
        },
        {
          "internalType": "uint256",
          "name": "tokenId",
          "type": "uint256"
        }
      ],
      "name": "approve",
      "outputs": [],
      "stateMutability": "nonpayable",
      "type": "function"
    },
    {
      "inputs": [
        {
          "internalType": "uint256",
          "name": "tokenId",
          "type": "uint256"
        },
        {
          "internalType": "uint256",
          "name": "price",
          "type": "uint256"
        }
      ],
      "name": "approveAndTransferToDEX",
      "outputs": [],
      "stateMutability": "nonpayable",
      "type": "function"
    },
    {
      "inputs": [
        {
          "internalType": "address",
          "name": "owner",
          "type": "address"
        }
      ],
      "name": "balanceOf",
      "outputs": [
        {
          "internalType": "uint256",
          "name": "",
          "type": "uint256"
        }
      ],
      "stateMutability": "view",
      "type": "function"
    },
    {
      "inputs": [
        {
          "internalType": "uint256",
          "name": "tokenId",
          "type": "uint256"
        }
      ],
      "name": "getApproved",
      "outputs": [
        {
          "internalType": "address",
          "name": "",
          "type": "address"
        }
      ],
      "stateMutability": "view",
      "type": "function"
    },
    {
      "inputs": [
        {
          "internalType": "address",
          "name": "owner",
          "type": "address"
        },
        {
          "internalType": "address",
          "name": "operator",
          "type": "address"
        }
      ],
      "name": "isApprovedForAll",
      "outputs": [
        {
          "internalType": "bool",
          "name": "",
          "type": "bool"
        }
      ],
      "stateMutability": "view",
      "type": "function"
    },
    {
      "inputs": [
        {
          "internalType": "address",
          "name": "recipient",
          "type": "address"
        },
        {
          "internalType": "string",
          "name": "tokenURI",
          "type": "string"
        }
      ],
      "name": "mintNFT",
      "outputs": [
        {
          "internalType": "uint256",
          "name": "",
          "type": "uint256"
        }
      ],
      "stateMutability": "nonpayable",
      "type": "function"
    },
    {
      "inputs": [],
      "name": "name",
      "outputs": [
        {
          "internalType": "string",
          "name": "",
          "type": "string"
        }
      ],
      "stateMutability": "view",
      "type": "function"
    },
    {
      "inputs": [],
      "name": "owner",
      "outputs": [
        {
          "internalType": "address",
          "name": "",
          "type": "address"
        }
      ],
      "stateMutability": "view",
      "type": "function"
    },
    {
      "inputs": [
        {
          "internalType": "uint256",
          "name": "tokenId",
          "type": "uint256"
        }
      ],
      "name": "ownerOf",
      "outputs": [
        {
          "internalType": "address",
          "name": "",
          "type": "address"
        }
      ],
      "stateMutability": "view",
      "type": "function"
    },
    {
      "inputs": [],
      "name": "renounceOwnership",
      "outputs": [],
      "stateMutability": "nonpayable",
      "type": "function"
    },
    {
      "inputs": [
        {
          "internalType": "address",
          "name": "from",
          "type": "address"
        },
        {
          "internalType": "address",
          "name": "to",
          "type": "address"
        },
        {
          "internalType": "uint256",
          "name": "tokenId",
          "type": "uint256"
        }
      ],
      "name": "safeTransferFrom",
      "outputs": [],
      "stateMutability": "nonpayable",
      "type": "function"
    },
    {
      "inputs": [
        {
          "internalType": "address",
          "name": "from",
          "type": "address"
        },
        {
          "internalType": "address",
          "name": "to",
          "type": "address"
        },
        {
          "internalType": "uint256",
          "name": "tokenId",
          "type": "uint256"
        },
        {
          "internalType": "bytes",
          "name": "_data",
          "type": "bytes"
        }
      ],
      "name": "safeTransferFrom",
      "outputs": [],
      "stateMutability": "nonpayable",
      "type": "function"
    },
    {
      "inputs": [
        {
          "internalType": "address",
          "name": "operator",
          "type": "address"
        },
        {
          "internalType": "bool",
          "name": "approved",
          "type": "bool"
        }
      ],
      "name": "setApprovalForAll",
      "outputs": [],
      "stateMutability": "nonpayable",
      "type": "function"
    },
    {
      "inputs": [
        {
          "internalType": "address",
          "name": "dexAddress",
          "type": "address"
        }
      ],
      "name": "setNudeDex",
      "outputs": [],
      "stateMutability": "nonpayable",
      "type": "function"
    },
    {
      "inputs": [
        {
          "internalType": "bytes4",
          "name": "interfaceId",
          "type": "bytes4"
        }
      ],
      "name": "supportsInterface",
      "outputs": [
        {
          "internalType": "bool",
          "name": "",
          "type": "bool"
        }
      ],
      "stateMutability": "view",
      "type": "function"
    },
    {
      "inputs": [],
      "name": "symbol",
      "outputs": [
        {
          "internalType": "string",
          "name": "",
          "type": "string"
        }
      ],
      "stateMutability": "view",
      "type": "function"
    },
    {
      "inputs": [
        {
          "internalType": "uint256",
          "name": "tokenId",
          "type": "uint256"
        }
      ],
      "name": "tokenURI",
      "outputs": [
        {
          "internalType": "string",
          "name": "",
          "type": "string"
        }
      ],
      "stateMutability": "view",
      "type": "function"
    },
    {
      "inputs": [
        {
          "internalType": "address",
          "name": "from",
          "type": "address"
        },
        {
          "internalType": "address",
          "name": "to",
          "type": "address"
        },
        {
          "internalType": "uint256",
          "name": "tokenId",
          "type": "uint256"
        }
      ],
      "name": "transferFrom",
      "outputs": [],
      "stateMutability": "nonpayable",
      "type": "function"
    },
    {
      "inputs": [
        {
          "internalType": "address",
          "name": "newOwner",
          "type": "address"
        }
      ],
      "name": "transferOwnership",
      "outputs": [],
      "stateMutability": "nonpayable",
      "type": "function"
    }
  ],
  "bytecode": "0x60806040523480156200001157600080fd5b5060405180604001604052806007815260200166139d591953919560ca1b815250604051806040016040528060078152602001661395511153919560ca1b81525081600090805190602001906200006a9291906200010b565b508051620000809060019060208401906200010b565b5050506200009d62000097620000b560201b60201c565b620000b9565b600980546001600160a01b03191633179055620001ed565b3390565b600780546001600160a01b038381166001600160a01b0319831681179093556040519116919082907f8be0079c531659141344cd1fd0a4f28419497f9722a3daafe3b4186f6b6457e090600090a35050565b8280546200011990620001b1565b90600052602060002090601f0160209004810192826200013d576000855562000188565b82601f106200015857805160ff191683800117855562000188565b8280016001018555821562000188579182015b82811115620001885782518255916020019190600101906200016b565b50620001969291506200019a565b5090565b5b808211156200019657600081556001016200019b565b600181811c90821680620001c657607f821691505b602082108103620001e757634e487b7160e01b600052602260045260246000fd5b50919050565b611b1280620001fd6000396000f3fe608060405234801561001057600080fd5b50600436106101215760003560e01c80638da5cb5b116100ad578063c87b56dd11610071578063c87b56dd14610257578063e8e424751461026a578063e985e9c51461027d578063eacabe14146102b9578063f2fde38b146102cc57600080fd5b80638da5cb5b1461020557806395d89b4114610216578063a22cb4651461021e578063abe4079114610231578063b88d4fde1461024457600080fd5b806323b872dd116100f457806323b872dd146101a357806342842e0e146101b65780636352211e146101c957806370a08231146101dc578063715018a6146101fd57600080fd5b806301ffc9a71461012657806306fdde031461014e578063081812fc14610163578063095ea7b31461018e575b600080fd5b610139610134366004611526565b6102df565b60405190151581526020015b60405180910390f35b610156610331565b604051610145919061159b565b6101766101713660046115ae565b6103c3565b6040516001600160a01b039091168152602001610145565b6101a161019c3660046115e3565b610450565b005b6101a16101b136600461160d565b610565565b6101a16101c436600461160d565b610596565b6101766101d73660046115ae565b6105b1565b6101ef6101ea366004611649565b610628565b604051908152602001610145565b6101a16106af565b6007546001600160a01b0316610176565b6101566106e5565b6101a161022c366004611664565b6106f4565b6101a161023f3660046116a0565b610703565b6101a161025236600461174e565b610823565b6101566102653660046115ae565b61085b565b6101a1610278366004611649565b610866565b61013961028b3660046117ca565b6001600160a01b03918216600090815260056020908152604080832093909416825291909152205460ff1690565b6101ef6102c73660046117fd565b6108b2565b6101a16102da366004611649565b610925565b60006001600160e01b031982166380ac58cd60e01b148061031057506001600160e01b03198216635b5e139f60e01b145b8061032b57506301ffc9a760e01b6001600160e01b03198316145b92915050565b6060600080546103409061185f565b80601f016020809104026020016040519081016040528092919081815260200182805461036c9061185f565b80156103b95780601f1061038e576101008083540402835291602001916103b9565b820191906000526020600020905b81548152906001019060200180831161039c57829003601f168201915b5050505050905090565b60006103ce826109c0565b6104345760405162461bcd60e51b815260206004820152602c60248201527f4552433732313a20617070726f76656420717565727920666f72206e6f6e657860448201526b34b9ba32b73a103a37b5b2b760a11b60648201526084015b60405180910390fd5b506000908152600460205260409020546001600160a01b031690565b600061045b826105b1565b9050806001600160a01b0316836001600160a01b0316036104c85760405162461bcd60e51b815260206004820152602160248201527f4552433732313a20617070726f76616c20746f2063757272656e74206f776e656044820152603960f91b606482015260840161042b565b336001600160a01b03821614806104e457506104e4813361028b565b6105565760405162461bcd60e51b815260206004820152603860248201527f4552433732313a20617070726f76652063616c6c6572206973206e6f74206f7760448201527f6e6572206e6f7220617070726f76656420666f7220616c6c0000000000000000606482015260840161042b565b61056083836109dd565b505050565b61056f3382610a4b565b61058b5760405162461bcd60e51b815260040161042b90611899565b610560838383610b35565b61056083838360405180602001604052806000815250610823565b6000818152600260205260408120546001600160a01b03168061032b5760405162461bcd60e51b815260206004820152602960248201527f4552433732313a206f776e657220717565727920666f72206e6f6e657869737460448201526832b73a103a37b5b2b760b91b606482015260840161042b565b60006001600160a01b0382166106935760405162461bcd60e51b815260206004820152602a60248201527f4552433732313a2062616c616e636520717565727920666f7220746865207a65604482015269726f206164647265737360b01b606482015260840161042b565b506001600160a01b031660009081526003602052604090205490565b6007546001600160a01b031633146106d95760405162461bcd60e51b815260040161042b906118ea565b6106e36000610cd1565b565b6060600180546103409061185f565b6106ff338383610d23565b5050565b3361070d836105b1565b6001600160a01b0316146107525760405162461bcd60e51b815260206004820152600c60248201526b1b9bdd081e5bdd5c881b999d60a21b604482015260640161042b565b600a546001600160a01b031661079e5760405162461bcd60e51b815260206004820152601160248201527019195e081b9bdd081cd95d1d5c081e595d607a1b604482015260640161042b565b600a546107b4906001600160a01b0316836109dd565b600a546040516342dd6c5960e01b815260048101849052602481018390523360448201526001600160a01b03909116906342dd6c5990606401600060405180830381600087803b15801561080757600080fd5b505af115801561081b573d6000803e3d6000fd5b505050505050565b61082d3383610a4b565b6108495760405162461bcd60e51b815260040161042b90611899565b61085584848484610df1565b50505050565b606061032b82610e24565b6007546001600160a01b031633146108905760405162461bcd60e51b815260040161042b906118ea565b600a80546001600160a01b0319166001600160a01b0392909216919091179055565b60006108c2600880546001019055565b60006108cd60085490565b90506108d98482610f92565b6108e38184610fac565b7f86094769a8d8b54a575d56650097d483bd4ecdeb3c8dd7ac9ac20df1e0d5ae038482856040516109169392919061191f565b60405180910390a19392505050565b6007546001600160a01b0316331461094f5760405162461bcd60e51b815260040161042b906118ea565b6001600160a01b0381166109b45760405162461bcd60e51b815260206004820152602660248201527f4f776e61626c653a206e6577206f776e657220697320746865207a65726f206160448201526564647265737360d01b606482015260840161042b565b6109bd81610cd1565b50565b6000908152600260205260409020546001600160a01b0316151590565b600081815260046020526040902080546001600160a01b0319166001600160a01b0384169081179091558190610a12826105b1565b6001600160a01b03167f8c5be1e5ebec7d5bd14f71427d1e84f3dd0314c0f7b2291e5b200ac8c7c3b92560405160405180910390a45050565b6000610a56826109c0565b610ab75760405162461bcd60e51b815260206004820152602c60248201527f4552433732313a206f70657261746f7220717565727920666f72206e6f6e657860448201526b34b9ba32b73a103a37b5b2b760a11b606482015260840161042b565b6000610ac2836105b1565b9050806001600160a01b0316846001600160a01b03161480610b0957506001600160a01b0380821660009081526005602090815260408083209388168352929052205460ff165b80610b2d5750836001600160a01b0316610b22846103c3565b6001600160a01b0316145b949350505050565b826001600160a01b0316610b48826105b1565b6001600160a01b031614610bac5760405162461bcd60e51b815260206004820152602560248201527f4552433732313a207472616e736665722066726f6d20696e636f72726563742060448201526437bbb732b960d91b606482015260840161042b565b6001600160a01b038216610c0e5760405162461bcd60e51b8152602060048201526024808201527f4552433732313a207472616e7366657220746f20746865207a65726f206164646044820152637265737360e01b606482015260840161042b565b610c196000826109dd565b6001600160a01b0383166000908152600360205260408120805460019290610c42908490611965565b90915550506001600160a01b0382166000908152600360205260408120805460019290610c7090849061197c565b909155505060008181526002602052604080822080546001600160a01b0319166001600160a01b0386811691821790925591518493918716917fddf252ad1be2c89b69c2b068fc378daa952ba7f163c4a11628f55a4df523b3ef91a4505050565b600780546001600160a01b038381166001600160a01b0319831681179093556040519116919082907f8be0079c531659141344cd1fd0a4f28419497f9722a3daafe3b4186f6b6457e090600090a35050565b816001600160a01b0316836001600160a01b031603610d845760405162461bcd60e51b815260206004820152601960248201527f4552433732313a20617070726f766520746f2063616c6c657200000000000000604482015260640161042b565b6001600160a01b03838116600081815260056020908152604080832094871680845294825291829020805460ff191686151590811790915591519182527f17307eab39ab6107e8899845ad3d59bd9653f200f220920489ca2b5937696c31910160405180910390a3505050565b610dfc848484610b35565b610e0884848484611037565b6108555760405162461bcd60e51b815260040161042b90611994565b6060610e2f826109c0565b610e955760405162461bcd60e51b815260206004820152603160248201527f45524337323155524953746f726167653a2055524920717565727920666f72206044820152703737b732bc34b9ba32b73a103a37b5b2b760791b606482015260840161042b565b60008281526006602052604081208054610eae9061185f565b80601f0160208091040260200160405190810160405280929190818152602001828054610eda9061185f565b8015610f275780601f10610efc57610100808354040283529160200191610f27565b820191906000526020600020905b815481529060010190602001808311610f0a57829003601f168201915b505050505090506000610f4560408051602081019091526000815290565b90508051600003610f57575092915050565b815115610f89578082604051602001610f719291906119e6565b60405160208183030381529060405292505050919050565b610b2d84611138565b6106ff828260405180602001604052806000815250611210565b610fb5826109c0565b6110185760405162461bcd60e51b815260206004820152602e60248201527f45524337323155524953746f726167653a2055524920736574206f66206e6f6e60448201526d32bc34b9ba32b73a103a37b5b2b760911b606482015260840161042b565b6000828152600660209081526040909120825161056092840190611477565b60006001600160a01b0384163b1561112d57604051630a85bd0160e11b81526001600160a01b0385169063150b7a029061107b903390899088908890600401611a15565b6020604051808303816000875af19250505080156110b6575060408051601f3d908101601f191682019092526110b391810190611a52565b60015b611113573d8080156110e4576040519150601f19603f3d011682016040523d82523d6000602084013e6110e9565b606091505b50805160000361110b5760405162461bcd60e51b815260040161042b90611994565b805181602001fd5b6001600160e01b031916630a85bd0160e11b149050610b2d565b506001949350505050565b6060611143826109c0565b6111a75760405162461bcd60e51b815260206004820152602f60248201527f4552433732314d657461646174613a2055524920717565727920666f72206e6f60448201526e3732bc34b9ba32b73a103a37b5b2b760891b606482015260840161042b565b60006111be60408051602081019091526000815290565b905060008151116111de5760405180602001604052806000815250611209565b806111e884611243565b6040516020016111f99291906119e6565b6040516020818303038152906040525b9392505050565b61121a8383611344565b6112276000848484611037565b6105605760405162461bcd60e51b815260040161042b90611994565b60608160000361126a5750506040805180820190915260018152600360fc1b602082015290565b8160005b8115611294578061127e81611a6f565b915061128d9050600a83611a9e565b915061126e565b60008167ffffffffffffffff8111156112af576112af6116c2565b6040519080825280601f01601f1916602001820160405280156112d9576020820181803683370190505b5090505b8415610b2d576112ee600183611965565b91506112fb600a86611ab2565b61130690603061197c565b60f81b81838151811061131b5761131b611ac6565b60200101906001600160f81b031916908160001a90535061133d600a86611a9e565b94506112dd565b6001600160a01b03821661139a5760405162461bcd60e51b815260206004820181905260248201527f4552433732313a206d696e7420746f20746865207a65726f2061646472657373604482015260640161042b565b6113a3816109c0565b156113f05760405162461bcd60e51b815260206004820152601c60248201527f4552433732313a20746f6b656e20616c7265616479206d696e74656400000000604482015260640161042b565b6001600160a01b038216600090815260036020526040812080546001929061141990849061197c565b909155505060008181526002602052604080822080546001600160a01b0319166001600160a01b03861690811790915590518392907fddf252ad1be2c89b69c2b068fc378daa952ba7f163c4a11628f55a4df523b3ef908290a45050565b8280546114839061185f565b90600052602060002090601f0160209004810192826114a557600085556114eb565b82601f106114be57805160ff19168380011785556114eb565b828001600101855582156114eb579182015b828111156114eb5782518255916020019190600101906114d0565b506114f79291506114fb565b5090565b5b808211156114f757600081556001016114fc565b6001600160e01b0319811681146109bd57600080fd5b60006020828403121561153857600080fd5b813561120981611510565b60005b8381101561155e578181015183820152602001611546565b838111156108555750506000910152565b60008151808452611587816020860160208601611543565b601f01601f19169290920160200192915050565b602081526000611209602083018461156f565b6000602082840312156115c057600080fd5b5035919050565b80356001600160a01b03811681146115de57600080fd5b919050565b600080604083850312156115f657600080fd5b6115ff836115c7565b946020939093013593505050565b60008060006060848603121561162257600080fd5b61162b846115c7565b9250611639602085016115c7565b9150604084013590509250925092565b60006020828403121561165b57600080fd5b611209826115c7565b6000806040838503121561167757600080fd5b611680836115c7565b91506020830135801515811461169557600080fd5b809150509250929050565b600080604083850312156116b357600080fd5b50508035926020909101359150565b634e487b7160e01b600052604160045260246000fd5b600067ffffffffffffffff808411156116f3576116f36116c2565b604051601f8501601f19908116603f0116810190828211818310171561171b5761171b6116c2565b8160405280935085815286868601111561173457600080fd5b858560208301376000602087830101525050509392505050565b6000806000806080858703121561176457600080fd5b61176d856115c7565b935061177b602086016115c7565b925060408501359150606085013567ffffffffffffffff81111561179e57600080fd5b8501601f810187136117af57600080fd5b6117be878235602084016116d8565b91505092959194509250565b600080604083850312156117dd57600080fd5b6117e6836115c7565b91506117f4602084016115c7565b90509250929050565b6000806040838503121561181057600080fd5b611819836115c7565b9150602083013567ffffffffffffffff81111561183557600080fd5b8301601f8101851361184657600080fd5b611855858235602084016116d8565b9150509250929050565b600181811c9082168061187357607f821691505b60208210810361189357634e487b7160e01b600052602260045260246000fd5b50919050565b60208082526031908201527f4552433732313a207472616e736665722063616c6c6572206973206e6f74206f6040820152701ddb995c881b9bdc88185c1c1c9bdd9959607a1b606082015260800190565b6020808252818101527f4f776e61626c653a2063616c6c6572206973206e6f7420746865206f776e6572604082015260600190565b60018060a01b0384168152826020820152606060408201526000611946606083018461156f565b95945050505050565b634e487b7160e01b600052601160045260246000fd5b6000828210156119775761197761194f565b500390565b6000821982111561198f5761198f61194f565b500190565b60208082526032908201527f4552433732313a207472616e7366657220746f206e6f6e20455243373231526560408201527131b2b4bb32b91034b6b83632b6b2b73a32b960711b606082015260800190565b600083516119f8818460208801611543565b835190830190611a0c818360208801611543565b01949350505050565b6001600160a01b0385811682528416602082015260408101839052608060608201819052600090611a489083018461156f565b9695505050505050565b600060208284031215611a6457600080fd5b815161120981611510565b600060018201611a8157611a8161194f565b5060010190565b634e487b7160e01b600052601260045260246000fd5b600082611aad57611aad611a88565b500490565b600082611ac157611ac1611a88565b500690565b634e487b7160e01b600052603260045260246000fdfea2646970667358221220a4ce8645d8aad83f90fb5dd9e5ff16080dd9a404ec662f6bbe8629adea03a53664736f6c634300080e0033",
  "linkReferences": {},
  "deployedLinkReferences": {}
}