{
  "_format": "hh-sol-artifact-1",
  "contractName": "Nude",
  "sourceName": "contracts/Nude.sol",
  "abi": [
    {
      "inputs": [],
      "stateMutability": "nonpayable",
      "type": "constructor"
    },
    {
      "anonymous": false,
      "inputs": [
        {
          "indexed": true,
          "internalType": "address",
          "name": "owner",
          "type": "address"
        },
        {
          "indexed": true,
          "internalType": "address",
          "name": "spender",
          "type": "address"
        },
        {
          "indexed": false,
          "internalType": "uint256",
          "name": "value",
          "type": "uint256"
        }
      ],
      "name": "Approval",
      "type": "event"
    },
    {
      "anonymous": false,
      "inputs": [
        {
          "indexed": true,
          "internalType": "address",
          "name": "from",
          "type": "address"
        },
        {
          "indexed": true,
          "internalType": "address",
          "name": "to",
          "type": "address"
        },
        {
          "indexed": false,
          "internalType": "uint256",
          "name": "value",
          "type": "uint256"
        }
      ],
      "name": "Transfer",
      "type": "event"
    },
    {
      "inputs": [
        {
          "internalType": "address",
          "name": "owner",
          "type": "address"
        },
        {
          "internalType": "address",
          "name": "spender",
          "type": "address"
        }
      ],
      "name": "allowance",
      "outputs": [
        {
          "internalType": "uint256",
          "name": "",
          "type": "uint256"
        }
      ],
      "stateMutability": "view",
      "type": "function"
    },
    {
      "inputs": [
        {
          "internalType": "address",
          "name": "spender",
          "type": "address"
        },
        {
          "internalType": "uint256",
          "name": "amount",
          "type": "uint256"
        }
      ],
      "name": "approve",
      "outputs": [
        {
          "internalType": "bool",
          "name": "",
          "type": "bool"
        }
      ],
      "stateMutability": "nonpayable",
      "type": "function"
    },
    {
      "inputs": [
        {
          "internalType": "address",
          "name": "account",
          "type": "address"
        }
      ],
      "name": "balanceOf",
      "outputs": [
        {
          "internalType": "uint256",
          "name": "",
          "type": "uint256"
        }
      ],
      "stateMutability": "view",
      "type": "function"
    },
    {
      "inputs": [],
      "name": "decimals",
      "outputs": [
        {
          "internalType": "uint8",
          "name": "",
          "type": "uint8"
        }
      ],
      "stateMutability": "view",
      "type": "function"
    },
    {
      "inputs": [
        {
          "internalType": "address",
          "name": "spender",
          "type": "address"
        },
        {
          "internalType": "uint256",
          "name": "subtractedValue",
          "type": "uint256"
        }
      ],
      "name": "decreaseAllowance",
      "outputs": [
        {
          "internalType": "bool",
          "name": "",
          "type": "bool"
        }
      ],
      "stateMutability": "nonpayable",
      "type": "function"
    },
    {
      "inputs": [
        {
          "internalType": "address",
          "name": "spender",
          "type": "address"
        },
        {
          "internalType": "uint256",
          "name": "addedValue",
          "type": "uint256"
        }
      ],
      "name": "increaseAllowance",
      "outputs": [
        {
          "internalType": "bool",
          "name": "",
          "type": "bool"
        }
      ],
      "stateMutability": "nonpayable",
      "type": "function"
    },
    {
      "inputs": [],
      "name": "initialSupply",
      "outputs": [
        {
          "internalType": "uint256",
          "name": "",
          "type": "uint256"
        }
      ],
      "stateMutability": "view",
      "type": "function"
    },
    {
      "inputs": [],
      "name": "name",
      "outputs": [
        {
          "internalType": "string",
          "name": "",
          "type": "string"
        }
      ],
      "stateMutability": "view",
      "type": "function"
    },
    {
      "inputs": [],
      "name": "symbol",
      "outputs": [
        {
          "internalType": "string",
          "name": "",
          "type": "string"
        }
      ],
      "stateMutability": "view",
      "type": "function"
    },
    {
      "inputs": [],
      "name": "totalSupply",
      "outputs": [
        {
          "internalType": "uint256",
          "name": "",
          "type": "uint256"
        }
      ],
      "stateMutability": "view",
      "type": "function"
    },
    {
      "inputs": [
        {
          "internalType": "address",
          "name": "recipient",
          "type": "address"
        },
        {
          "internalType": "uint256",
          "name": "amount",
          "type": "uint256"
        }
      ],
      "name": "transfer",
      "outputs": [
        {
          "internalType": "bool",
          "name": "",
          "type": "bool"
        }
      ],
      "stateMutability": "nonpayable",
      "type": "function"
    },
    {
      "inputs": [
        {
          "internalType": "address",
          "name": "sender",
          "type": "address"
        },
        {
          "internalType": "address",
          "name": "recipient",
          "type": "address"
        },
        {
          "internalType": "uint256",
          "name": "amount",
          "type": "uint256"
        }
      ],
      "name": "transferFrom",
      "outputs": [
        {
          "internalType": "bool",
          "name": "",
          "type": "bool"
        }
      ],
      "stateMutability": "nonpayable",
      "type": "function"
    }
  ],
  "bytecode": "0x60806040526304277dc96006553480156200001957600080fd5b506040518060400160405280600481526020017f4e756465000000000000000000000000000000000000000000000000000000008152506040518060400160405280600481526020017f4e5544450000000000000000000000000000000000000000000000000000000081525081600390805190602001906200009e929190620002cb565b508060049080519060200190620000b7929190620002cb565b505050620000f833620000cf6200013f60201b60201c565b600a620000dd919062000515565b600654620000ec919062000566565b6200014860201b60201c565b33600560006101000a81548173ffffffffffffffffffffffffffffffffffffffff021916908373ffffffffffffffffffffffffffffffffffffffff1602179055506200073a565b60006012905090565b600073ffffffffffffffffffffffffffffffffffffffff168273ffffffffffffffffffffffffffffffffffffffff161415620001bb576040517f08c379a0000000000000000000000000000000000000000000000000000000008152600401620001b29062000628565b60405180910390fd5b620001cf60008383620002c160201b60201c565b8060026000828254620001e391906200064a565b92505081905550806000808473ffffffffffffffffffffffffffffffffffffffff1673ffffffffffffffffffffffffffffffffffffffff16815260200190815260200160002060008282546200023a91906200064a565b925050819055508173ffffffffffffffffffffffffffffffffffffffff16600073ffffffffffffffffffffffffffffffffffffffff167fddf252ad1be2c89b69c2b068fc378daa952ba7f163c4a11628f55a4df523b3ef83604051620002a19190620006b8565b60405180910390a3620002bd60008383620002c660201b60201c565b5050565b505050565b505050565b828054620002d99062000704565b90600052602060002090601f016020900481019282620002fd576000855562000349565b82601f106200031857805160ff191683800117855562000349565b8280016001018555821562000349579182015b82811115620003485782518255916020019190600101906200032b565b5b5090506200035891906200035c565b5090565b5b80821115620003775760008160009055506001016200035d565b5090565b7f4e487b7100000000000000000000000000000000000000000000000000000000600052601160045260246000fd5b60008160011c9050919050565b6000808291508390505b60018511156200040957808604811115620003e157620003e06200037b565b5b6001851615620003f15780820291505b80810290506200040185620003aa565b9450620003c1565b94509492505050565b600082620004245760019050620004f7565b81620004345760009050620004f7565b81600181146200044d576002811462000458576200048e565b6001915050620004f7565b60ff8411156200046d576200046c6200037b565b5b8360020a9150848211156200048757620004866200037b565b5b50620004f7565b5060208310610133831016604e8410600b8410161715620004c85782820a905083811115620004c257620004c16200037b565b5b620004f7565b620004d78484846001620003b7565b92509050818404811115620004f157620004f06200037b565b5b81810290505b9392505050565b6000819050919050565b600060ff82169050919050565b60006200052282620004fe565b91506200052f8362000508565b92506200055e7fffffffffffffffffffffffffffffffffffffffffffffffffffffffffffffffff848462000412565b905092915050565b60006200057382620004fe565b91506200058083620004fe565b9250817fffffffffffffffffffffffffffffffffffffffffffffffffffffffffffffffff0483118215151615620005bc57620005bb6200037b565b5b828202905092915050565b600082825260208201905092915050565b7f45524332303a206d696e7420746f20746865207a65726f206164647265737300600082015250565b600062000610601f83620005c7565b91506200061d82620005d8565b602082019050919050565b60006020820190508181036000830152620006438162000601565b9050919050565b60006200065782620004fe565b91506200066483620004fe565b9250827fffffffffffffffffffffffffffffffffffffffffffffffffffffffffffffffff038211156200069c576200069b6200037b565b5b828201905092915050565b620006b281620004fe565b82525050565b6000602082019050620006cf6000830184620006a7565b92915050565b7f4e487b7100000000000000000000000000000000000000000000000000000000600052602260045260246000fd5b600060028204905060018216806200071d57607f821691505b60208210811415620007345762000733620006d5565b5b50919050565b6113d9806200074a6000396000f3fe608060405234801561001057600080fd5b50600436106100b45760003560e01c80633950935111610071578063395093511461019157806370a08231146101c157806395d89b41146101f1578063a457c2d71461020f578063a9059cbb1461023f578063dd62ed3e1461026f576100b4565b806306fdde03146100b9578063095ea7b3146100d757806318160ddd1461010757806323b872dd14610125578063313ce56714610155578063378dc3dc14610173575b600080fd5b6100c161029f565b6040516100ce9190610c6d565b60405180910390f35b6100f160048036038101906100ec9190610d28565b610331565b6040516100fe9190610d83565b60405180910390f35b61010f61034f565b60405161011c9190610dad565b60405180910390f35b61013f600480360381019061013a9190610dc8565b610359565b60405161014c9190610d83565b60405180910390f35b61015d610451565b60405161016a9190610e37565b60405180910390f35b61017b61045a565b6040516101889190610dad565b60405180910390f35b6101ab60048036038101906101a69190610d28565b610460565b6040516101b89190610d83565b60405180910390f35b6101db60048036038101906101d69190610e52565b61050c565b6040516101e89190610dad565b60405180910390f35b6101f9610554565b6040516102069190610c6d565b60405180910390f35b61022960048036038101906102249190610d28565b6105e6565b6040516102369190610d83565b60405180910390f35b61025960048036038101906102549190610d28565b6106d1565b6040516102669190610d83565b60405180910390f35b61028960048036038101906102849190610e7f565b6106ef565b6040516102969190610dad565b60405180910390f35b6060600380546102ae90610eee565b80601f01602080910402602001604051908101604052809291908181526020018280546102da90610eee565b80156103275780601f106102fc57610100808354040283529160200191610327565b820191906000526020600020905b81548152906001019060200180831161030a57829003601f168201915b5050505050905090565b600061034561033e610776565b848461077e565b6001905092915050565b6000600254905090565b6000610366848484610949565b6000600160008673ffffffffffffffffffffffffffffffffffffffff1673ffffffffffffffffffffffffffffffffffffffff16815260200190815260200160002060006103b1610776565b73ffffffffffffffffffffffffffffffffffffffff1673ffffffffffffffffffffffffffffffffffffffff16815260200190815260200160002054905082811015610431576040517f08c379a000000000000000000000000000000000000000000000000000000000815260040161042890610f92565b60405180910390fd5b6104458561043d610776565b85840361077e565b60019150509392505050565b60006012905090565b60065481565b600061050261046d610776565b84846001600061047b610776565b73ffffffffffffffffffffffffffffffffffffffff1673ffffffffffffffffffffffffffffffffffffffff16815260200190815260200160002060008873ffffffffffffffffffffffffffffffffffffffff1673ffffffffffffffffffffffffffffffffffffffff168152602001908152602001600020546104fd9190610fe1565b61077e565b6001905092915050565b60008060008373ffffffffffffffffffffffffffffffffffffffff1673ffffffffffffffffffffffffffffffffffffffff168152602001908152602001600020549050919050565b60606004805461056390610eee565b80601f016020809104026020016040519081016040528092919081815260200182805461058f90610eee565b80156105dc5780601f106105b1576101008083540402835291602001916105dc565b820191906000526020600020905b8154815290600101906020018083116105bf57829003601f168201915b5050505050905090565b600080600160006105f5610776565b73ffffffffffffffffffffffffffffffffffffffff1673ffffffffffffffffffffffffffffffffffffffff16815260200190815260200160002060008573ffffffffffffffffffffffffffffffffffffffff1673ffffffffffffffffffffffffffffffffffffffff168152602001908152602001600020549050828110156106b2576040517f08c379a00000000000000000000000000000000000000000000000000000000081526004016106a9906110a9565b60405180910390fd5b6106c66106bd610776565b8585840361077e565b600191505092915050565b60006106e56106de610776565b8484610949565b6001905092915050565b6000600160008473ffffffffffffffffffffffffffffffffffffffff1673ffffffffffffffffffffffffffffffffffffffff16815260200190815260200160002060008373ffffffffffffffffffffffffffffffffffffffff1673ffffffffffffffffffffffffffffffffffffffff16815260200190815260200160002054905092915050565b600033905090565b600073ffffffffffffffffffffffffffffffffffffffff168373ffffffffffffffffffffffffffffffffffffffff1614156107ee576040517f08c379a00000000000000000000000000000000000000000000000000000000081526004016107e59061113b565b60405180910390fd5b600073ffffffffffffffffffffffffffffffffffffffff168273ffffffffffffffffffffffffffffffffffffffff16141561085e576040517f08c379a0000000000000000000000000000000000000000000000000000000008152600401610855906111cd565b60405180910390fd5b80600160008573ffffffffffffffffffffffffffffffffffffffff1673ffffffffffffffffffffffffffffffffffffffff16815260200190815260200160002060008473ffffffffffffffffffffffffffffffffffffffff1673ffffffffffffffffffffffffffffffffffffffff168152602001908152602001600020819055508173ffffffffffffffffffffffffffffffffffffffff168373ffffffffffffffffffffffffffffffffffffffff167f8c5be1e5ebec7d5bd14f71427d1e84f3dd0314c0f7b2291e5b200ac8c7c3b9258360405161093c9190610dad565b60405180910390a3505050565b600073ffffffffffffffffffffffffffffffffffffffff168373ffffffffffffffffffffffffffffffffffffffff1614156109b9576040517f08c379a00000000000000000000000000000000000000000000000000000000081526004016109b09061125f565b60405180910390fd5b600073ffffffffffffffffffffffffffffffffffffffff168273ffffffffffffffffffffffffffffffffffffffff161415610a29576040517f08c379a0000000000000000000000000000000000000000000000000000000008152600401610a20906112f1565b60405180910390fd5b610a34838383610bca565b60008060008573ffffffffffffffffffffffffffffffffffffffff1673ffffffffffffffffffffffffffffffffffffffff16815260200190815260200160002054905081811015610aba576040517f08c379a0000000000000000000000000000000000000000000000000000000008152600401610ab190611383565b60405180910390fd5b8181036000808673ffffffffffffffffffffffffffffffffffffffff1673ffffffffffffffffffffffffffffffffffffffff16815260200190815260200160002081905550816000808573ffffffffffffffffffffffffffffffffffffffff1673ffffffffffffffffffffffffffffffffffffffff1681526020019081526020016000206000828254610b4d9190610fe1565b925050819055508273ffffffffffffffffffffffffffffffffffffffff168473ffffffffffffffffffffffffffffffffffffffff167fddf252ad1be2c89b69c2b068fc378daa952ba7f163c4a11628f55a4df523b3ef84604051610bb19190610dad565b60405180910390a3610bc4848484610bcf565b50505050565b505050565b505050565b600081519050919050565b600082825260208201905092915050565b60005b83811015610c0e578082015181840152602081019050610bf3565b83811115610c1d576000848401525b50505050565b6000601f19601f8301169050919050565b6000610c3f82610bd4565b610c498185610bdf565b9350610c59818560208601610bf0565b610c6281610c23565b840191505092915050565b60006020820190508181036000830152610c878184610c34565b905092915050565b600080fd5b600073ffffffffffffffffffffffffffffffffffffffff82169050919050565b6000610cbf82610c94565b9050919050565b610ccf81610cb4565b8114610cda57600080fd5b50565b600081359050610cec81610cc6565b92915050565b6000819050919050565b610d0581610cf2565b8114610d1057600080fd5b50565b600081359050610d2281610cfc565b92915050565b60008060408385031215610d3f57610d3e610c8f565b5b6000610d4d85828601610cdd565b9250506020610d5e85828601610d13565b9150509250929050565b60008115159050919050565b610d7d81610d68565b82525050565b6000602082019050610d986000830184610d74565b92915050565b610da781610cf2565b82525050565b6000602082019050610dc26000830184610d9e565b92915050565b600080600060608486031215610de157610de0610c8f565b5b6000610def86828701610cdd565b9350506020610e0086828701610cdd565b9250506040610e1186828701610d13565b9150509250925092565b600060ff82169050919050565b610e3181610e1b565b82525050565b6000602082019050610e4c6000830184610e28565b92915050565b600060208284031215610e6857610e67610c8f565b5b6000610e7684828501610cdd565b91505092915050565b60008060408385031215610e9657610e95610c8f565b5b6000610ea485828601610cdd565b9250506020610eb585828601610cdd565b9150509250929050565b7f4e487b7100000000000000000000000000000000000000000000000000000000600052602260045260246000fd5b60006002820490506001821680610f0657607f821691505b60208210811415610f1a57610f19610ebf565b5b50919050565b7f45524332303a207472616e7366657220616d6f756e742065786365656473206160008201527f6c6c6f77616e6365000000000000000000000000000000000000000000000000602082015250565b6000610f7c602883610bdf565b9150610f8782610f20565b604082019050919050565b60006020820190508181036000830152610fab81610f6f565b9050919050565b7f4e487b7100000000000000000000000000000000000000000000000000000000600052601160045260246000fd5b6000610fec82610cf2565b9150610ff783610cf2565b9250827fffffffffffffffffffffffffffffffffffffffffffffffffffffffffffffffff0382111561102c5761102b610fb2565b5b828201905092915050565b7f45524332303a2064656372656173656420616c6c6f77616e63652062656c6f7760008201527f207a65726f000000000000000000000000000000000000000000000000000000602082015250565b6000611093602583610bdf565b915061109e82611037565b604082019050919050565b600060208201905081810360008301526110c281611086565b9050919050565b7f45524332303a20617070726f76652066726f6d20746865207a65726f2061646460008201527f7265737300000000000000000000000000000000000000000000000000000000602082015250565b6000611125602483610bdf565b9150611130826110c9565b604082019050919050565b6000602082019050818103600083015261115481611118565b9050919050565b7f45524332303a20617070726f766520746f20746865207a65726f20616464726560008201527f7373000000000000000000000000000000000000000000000000000000000000602082015250565b60006111b7602283610bdf565b91506111c28261115b565b604082019050919050565b600060208201905081810360008301526111e6816111aa565b9050919050565b7f45524332303a207472616e736665722066726f6d20746865207a65726f20616460008201527f6472657373000000000000000000000000000000000000000000000000000000602082015250565b6000611249602583610bdf565b9150611254826111ed565b604082019050919050565b600060208201905081810360008301526112788161123c565b9050919050565b7f45524332303a207472616e7366657220746f20746865207a65726f206164647260008201527f6573730000000000000000000000000000000000000000000000000000000000602082015250565b60006112db602383610bdf565b91506112e68261127f565b604082019050919050565b6000602082019050818103600083015261130a816112ce565b9050919050565b7f45524332303a207472616e7366657220616d6f756e742065786365656473206260008201527f616c616e63650000000000000000000000000000000000000000000000000000602082015250565b600061136d602683610bdf565b915061137882611311565b604082019050919050565b6000602082019050818103600083015261139c81611360565b905091905056fea26469706673582212209c1da721e3861d6e2f6d799cfbfb60c7c04e0dd115b07df0409abcb9b997631d64736f6c634300080b0033",
  "linkReferences": {},
  "deployedLinkReferences": {}
}