{
    "_format": "hh-sol-artifact-1",
    "contractName": "NudeNFT",
    "sourceName": "contracts/NudeNFT.sol",
    "abi": [
        {
            "inputs": [],
            "stateMutability": "nonpayable",
            "type": "constructor"
        },
        {
            "anonymous": false,
            "inputs": [
                {
                    "indexed": true,
                    "internalType": "address",
                    "name": "owner",
                    "type": "address"
                },
                {
                    "indexed": true,
                    "internalType": "address",
                    "name": "approved",
                    "type": "address"
                },
                {
                    "indexed": true,
                    "internalType": "uint256",
                    "name": "tokenId",
                    "type": "uint256"
                }
            ],
            "name": "Approval",
            "type": "event"
        },
        {
            "anonymous": false,
            "inputs": [
                {
                    "indexed": true,
                    "internalType": "address",
                    "name": "owner",
                    "type": "address"
                },
                {
                    "indexed": true,
                    "internalType": "address",
                    "name": "operator",
                    "type": "address"
                },
                {
                    "indexed": false,
                    "internalType": "bool",
                    "name": "approved",
                    "type": "bool"
                }
            ],
            "name": "ApprovalForAll",
            "type": "event"
        },
        {
            "anonymous": false,
            "inputs": [
                {
                    "indexed": false,
                    "internalType": "uint256",
                    "name": "tokenId",
                    "type": "uint256"
                },
                {
                    "indexed": false,
                    "internalType": "address",
                    "name": "buyer",
                    "type": "address"
                },
                {
                    "indexed": false,
                    "internalType": "address",
                    "name": "seller",
                    "type": "address"
                },
                {
                    "indexed": false,
                    "internalType": "uint256",
                    "name": "price",
                    "type": "uint256"
                }
            ],
            "name": "BuyNFT",
            "type": "event"
        },
        {
            "anonymous": false,
            "inputs": [
                {
                    "indexed": false,
                    "internalType": "address",
                    "name": "recipient",
                    "type": "address"
                },
                {
                    "indexed": false,
                    "internalType": "uint256",
                    "name": "tokenId",
                    "type": "uint256"
                },
                {
                    "indexed": false,
                    "internalType": "string",
                    "name": "tokenURI",
                    "type": "string"
                },
                {
                    "indexed": false,
                    "internalType": "uint256",
                    "name": "price",
                    "type": "uint256"
                }
            ],
            "name": "MintNFT",
            "type": "event"
        },
        {
            "anonymous": false,
            "inputs": [
                {
                    "indexed": true,
                    "internalType": "address",
                    "name": "previousOwner",
                    "type": "address"
                },
                {
                    "indexed": true,
                    "internalType": "address",
                    "name": "newOwner",
                    "type": "address"
                }
            ],
            "name": "OwnershipTransferred",
            "type": "event"
        },
        {
            "anonymous": false,
            "inputs": [
                {
                    "indexed": true,
                    "internalType": "address",
                    "name": "from",
                    "type": "address"
                },
                {
                    "indexed": true,
                    "internalType": "address",
                    "name": "to",
                    "type": "address"
                },
                {
                    "indexed": true,
                    "internalType": "uint256",
                    "name": "tokenId",
                    "type": "uint256"
                }
            ],
            "name": "Transfer",
            "type": "event"
        },
        {
            "inputs": [
                {
                    "internalType": "address",
                    "name": "to",
                    "type": "address"
                },
                {
                    "internalType": "uint256",
                    "name": "tokenId",
                    "type": "uint256"
                }
            ],
            "name": "approve",
            "outputs": [],
            "stateMutability": "nonpayable",
            "type": "function"
        },
        {
            "inputs": [
                {
                    "internalType": "address",
                    "name": "owner",
                    "type": "address"
                }
            ],
            "name": "balanceOf",
            "outputs": [
                {
                    "internalType": "uint256",
                    "name": "",
                    "type": "uint256"
                }
            ],
            "stateMutability": "view",
            "type": "function"
        },
        {
            "inputs": [
                {
                    "internalType": "uint256",
                    "name": "tokenId",
                    "type": "uint256"
                }
            ],
            "name": "buyNFT",
            "outputs": [],
            "stateMutability": "payable",
            "type": "function"
        },
        {
            "inputs": [
                {
                    "internalType": "uint256",
                    "name": "tokenId",
                    "type": "uint256"
                }
            ],
            "name": "getApproved",
            "outputs": [
                {
                    "internalType": "address",
                    "name": "",
                    "type": "address"
                }
            ],
            "stateMutability": "view",
            "type": "function"
        },
        {
            "inputs": [
                {
                    "internalType": "uint256",
                    "name": "tokenId",
                    "type": "uint256"
                }
            ],
            "name": "getPrice",
            "outputs": [
                {
                    "internalType": "uint256",
                    "name": "",
                    "type": "uint256"
                }
            ],
            "stateMutability": "view",
            "type": "function"
        },
        {
            "inputs": [
                {
                    "internalType": "address",
                    "name": "owner",
                    "type": "address"
                },
                {
                    "internalType": "address",
                    "name": "operator",
                    "type": "address"
                }
            ],
            "name": "isApprovedForAll",
            "outputs": [
                {
                    "internalType": "bool",
                    "name": "",
                    "type": "bool"
                }
            ],
            "stateMutability": "view",
            "type": "function"
        },
        {
            "inputs": [
                {
                    "internalType": "address",
                    "name": "recipient",
                    "type": "address"
                },
                {
                    "internalType": "string",
                    "name": "tokenURI",
                    "type": "string"
                },
                {
                    "internalType": "uint256",
                    "name": "price",
                    "type": "uint256"
                }
            ],
            "name": "mintNFT",
            "outputs": [
                {
                    "internalType": "uint256",
                    "name": "",
                    "type": "uint256"
                }
            ],
            "stateMutability": "nonpayable",
            "type": "function"
        },
        {
            "inputs": [],
            "name": "name",
            "outputs": [
                {
                    "internalType": "string",
                    "name": "",
                    "type": "string"
                }
            ],
            "stateMutability": "view",
            "type": "function"
        },
        {
            "inputs": [],
            "name": "owner",
            "outputs": [
                {
                    "internalType": "address",
                    "name": "",
                    "type": "address"
                }
            ],
            "stateMutability": "view",
            "type": "function"
        },
        {
            "inputs": [
                {
                    "internalType": "uint256",
                    "name": "tokenId",
                    "type": "uint256"
                }
            ],
            "name": "ownerOf",
            "outputs": [
                {
                    "internalType": "address",
                    "name": "",
                    "type": "address"
                }
            ],
            "stateMutability": "view",
            "type": "function"
        },
        {
            "inputs": [],
            "name": "renounceOwnership",
            "outputs": [],
            "stateMutability": "nonpayable",
            "type": "function"
        },
        {
            "inputs": [
                {
                    "internalType": "address",
                    "name": "from",
                    "type": "address"
                },
                {
                    "internalType": "address",
                    "name": "to",
                    "type": "address"
                },
                {
                    "internalType": "uint256",
                    "name": "tokenId",
                    "type": "uint256"
                }
            ],
            "name": "safeTransferFrom",
            "outputs": [],
            "stateMutability": "nonpayable",
            "type": "function"
        },
        {
            "inputs": [
                {
                    "internalType": "address",
                    "name": "from",
                    "type": "address"
                },
                {
                    "internalType": "address",
                    "name": "to",
                    "type": "address"
                },
                {
                    "internalType": "uint256",
                    "name": "tokenId",
                    "type": "uint256"
                },
                {
                    "internalType": "bytes",
                    "name": "_data",
                    "type": "bytes"
                }
            ],
            "name": "safeTransferFrom",
            "outputs": [],
            "stateMutability": "nonpayable",
            "type": "function"
        },
        {
            "inputs": [
                {
                    "internalType": "address",
                    "name": "operator",
                    "type": "address"
                },
                {
                    "internalType": "bool",
                    "name": "approved",
                    "type": "bool"
                }
            ],
            "name": "setApprovalForAll",
            "outputs": [],
            "stateMutability": "nonpayable",
            "type": "function"
        },
        {
            "inputs": [
                {
                    "internalType": "bytes4",
                    "name": "interfaceId",
                    "type": "bytes4"
                }
            ],
            "name": "supportsInterface",
            "outputs": [
                {
                    "internalType": "bool",
                    "name": "",
                    "type": "bool"
                }
            ],
            "stateMutability": "view",
            "type": "function"
        },
        {
            "inputs": [],
            "name": "symbol",
            "outputs": [
                {
                    "internalType": "string",
                    "name": "",
                    "type": "string"
                }
            ],
            "stateMutability": "view",
            "type": "function"
        },
        {
            "inputs": [],
            "name": "tax",
            "outputs": [
                {
                    "internalType": "uint8",
                    "name": "",
                    "type": "uint8"
                }
            ],
            "stateMutability": "view",
            "type": "function"
        },
        {
            "inputs": [
                {
                    "internalType": "uint256",
                    "name": "tokenId",
                    "type": "uint256"
                }
            ],
            "name": "tokenURI",
            "outputs": [
                {
                    "internalType": "string",
                    "name": "",
                    "type": "string"
                }
            ],
            "stateMutability": "view",
            "type": "function"
        },
        {
            "inputs": [
                {
                    "internalType": "address",
                    "name": "from",
                    "type": "address"
                },
                {
                    "internalType": "address",
                    "name": "to",
                    "type": "address"
                },
                {
                    "internalType": "uint256",
                    "name": "tokenId",
                    "type": "uint256"
                }
            ],
            "name": "transferFrom",
            "outputs": [],
            "stateMutability": "nonpayable",
            "type": "function"
        },
        {
            "inputs": [
                {
                    "internalType": "address",
                    "name": "newOwner",
                    "type": "address"
                }
            ],
            "name": "transferOwnership",
            "outputs": [],
            "stateMutability": "nonpayable",
            "type": "function"
        }
    ],
    "bytecode": "0x60806040526045600a60146101000a81548160ff021916908360ff1602179055503480156200002d57600080fd5b506040518060400160405280600781526020017f4e7564654e4654000000000000000000000000000000000000000000000000008152506040518060400160405280600781526020017f4e5544454e4654000000000000000000000000000000000000000000000000008152508160009080519060200190620000b292919062000203565b508060019080519060200190620000cb92919062000203565b505050620000ee620000e26200013560201b60201c565b6200013d60201b60201c565b33600a60006101000a81548173ffffffffffffffffffffffffffffffffffffffff021916908373ffffffffffffffffffffffffffffffffffffffff16021790555062000318565b600033905090565b6000600760009054906101000a900473ffffffffffffffffffffffffffffffffffffffff16905081600760006101000a81548173ffffffffffffffffffffffffffffffffffffffff021916908373ffffffffffffffffffffffffffffffffffffffff1602179055508173ffffffffffffffffffffffffffffffffffffffff168173ffffffffffffffffffffffffffffffffffffffff167f8be0079c531659141344cd1fd0a4f28419497f9722a3daafe3b4186f6b6457e060405160405180910390a35050565b8280546200021190620002e2565b90600052602060002090601f01602090048101928262000235576000855562000281565b82601f106200025057805160ff191683800117855562000281565b8280016001018555821562000281579182015b828111156200028057825182559160200191906001019062000263565b5b50905062000290919062000294565b5090565b5b80821115620002af57600081600090555060010162000295565b5090565b7f4e487b7100000000000000000000000000000000000000000000000000000000600052602260045260246000fd5b60006002820490506001821680620002fb57607f821691505b60208210811415620003125762000311620002b3565b5b50919050565b6136a480620003286000396000f3fe60806040526004361061011f5760003560e01c8063715018a6116100a0578063b88d4fde11610064578063b88d4fde146103d8578063c87b56dd14610401578063e75722301461043e578063e985e9c51461047b578063f2fde38b146104b85761011f565b8063715018a6146103175780638da5cb5b1461032e57806395d89b411461035957806399c8d55614610384578063a22cb465146103af5761011f565b806323b872dd116100e757806323b872dd1461022f57806342842e0e1461025857806351ed8288146102815780636352211e1461029d57806370a08231146102da5761011f565b806301ffc9a71461012457806306fdde0314610161578063081812fc1461018c57806308598df0146101c9578063095ea7b314610206575b600080fd5b34801561013057600080fd5b5061014b60048036038101906101469190612050565b6104e1565b6040516101589190612098565b60405180910390f35b34801561016d57600080fd5b506101766105c3565b604051610183919061214c565b60405180910390f35b34801561019857600080fd5b506101b360048036038101906101ae91906121a4565b610655565b6040516101c09190612212565b60405180910390f35b3480156101d557600080fd5b506101f060048036038101906101eb919061238e565b6106da565b6040516101fd919061240c565b60405180910390f35b34801561021257600080fd5b5061022d60048036038101906102289190612427565b6107aa565b005b34801561023b57600080fd5b5061025660048036038101906102519190612467565b6108c2565b005b34801561026457600080fd5b5061027f600480360381019061027a9190612467565b610922565b005b61029b600480360381019061029691906121a4565b610942565b005b3480156102a957600080fd5b506102c460048036038101906102bf91906121a4565b610a7b565b6040516102d19190612212565b60405180910390f35b3480156102e657600080fd5b5061030160048036038101906102fc91906124ba565b610b2d565b60405161030e919061240c565b60405180910390f35b34801561032357600080fd5b5061032c610be5565b005b34801561033a57600080fd5b50610343610c6d565b6040516103509190612212565b60405180910390f35b34801561036557600080fd5b5061036e610c97565b60405161037b919061214c565b60405180910390f35b34801561039057600080fd5b50610399610d29565b6040516103a69190612503565b60405180910390f35b3480156103bb57600080fd5b506103d660048036038101906103d1919061254a565b610d3c565b005b3480156103e457600080fd5b506103ff60048036038101906103fa919061262b565b610d52565b005b34801561040d57600080fd5b50610428600480360381019061042391906121a4565b610db4565b604051610435919061214c565b60405180910390f35b34801561044a57600080fd5b50610465600480360381019061046091906121a4565b610dc6565b604051610472919061240c565b60405180910390f35b34801561048757600080fd5b506104a2600480360381019061049d91906126ae565b610e39565b6040516104af9190612098565b60405180910390f35b3480156104c457600080fd5b506104df60048036038101906104da91906124ba565b610ecd565b005b60007f80ac58cd000000000000000000000000000000000000000000000000000000007bffffffffffffffffffffffffffffffffffffffffffffffffffffffff1916827bffffffffffffffffffffffffffffffffffffffffffffffffffffffff191614806105ac57507f5b5e139f000000000000000000000000000000000000000000000000000000007bffffffffffffffffffffffffffffffffffffffffffffffffffffffff1916827bffffffffffffffffffffffffffffffffffffffffffffffffffffffff1916145b806105bc57506105bb82610fc5565b5b9050919050565b6060600080546105d29061271d565b80601f01602080910402602001604051908101604052809291908181526020018280546105fe9061271d565b801561064b5780601f106106205761010080835404028352916020019161064b565b820191906000526020600020905b81548152906001019060200180831161062e57829003601f168201915b5050505050905090565b60006106608261102f565b61069f576040517f08c379a0000000000000000000000000000000000000000000000000000000008152600401610696906127c1565b60405180910390fd5b6004600083815260200190815260200160002060009054906101000a900473ffffffffffffffffffffffffffffffffffffffff169050919050565b600080821161071e576040517f08c379a00000000000000000000000000000000000000000000000000000000081526004016107159061282d565b60405180910390fd5b610728600861109b565b600061073460086110b1565b905061074085826110bf565b61074a81856110dd565b8260096000838152602001908152602001600020819055507f3fead86277f7a7b9bd5a10401873b6a897c726b075cb36a531f20985fcc898f285828686604051610797949392919061284d565b60405180910390a1809150509392505050565b60006107b582610a7b565b90508073ffffffffffffffffffffffffffffffffffffffff168373ffffffffffffffffffffffffffffffffffffffff161415610826576040517f08c379a000000000000000000000000000000000000000000000000000000000815260040161081d9061290b565b60405180910390fd5b8073ffffffffffffffffffffffffffffffffffffffff16610845611151565b73ffffffffffffffffffffffffffffffffffffffff16148061087457506108738161086e611151565b610e39565b5b6108b3576040517f08c379a00000000000000000000000000000000000000000000000000000000081526004016108aa9061299d565b60405180910390fd5b6108bd8383611159565b505050565b6108d36108cd611151565b82611212565b610912576040517f08c379a000000000000000000000000000000000000000000000000000000000815260040161090990612a2f565b60405180910390fd5b61091d8383836112f0565b505050565b61093d83838360405180602001604052806000815250610d52565b505050565b6009600082815260200190815260200160002054341015610998576040517f08c379a000000000000000000000000000000000000000000000000000000000815260040161098f90612a9b565b60405180910390fd5b6109ab6109a482610a7b565b3383610922565b6109b481610a7b565b73ffffffffffffffffffffffffffffffffffffffff166108fc6103e8600a60149054906101000a900460ff1660ff166109ed9190612b27565b61ffff16346109fc9190612b58565b34610a079190612bb2565b9081150290604051600060405180830381858888f19350505050158015610a32573d6000803e3d6000fd5b507f8fbb312813b34e3ab8dadf410f0cfe0d221cb7dff6eb3def72f03dee5bef7d908133610a5f84610a7b565b34604051610a709493929190612be6565b60405180910390a150565b6000806002600084815260200190815260200160002060009054906101000a900473ffffffffffffffffffffffffffffffffffffffff169050600073ffffffffffffffffffffffffffffffffffffffff168173ffffffffffffffffffffffffffffffffffffffff161415610b24576040517f08c379a0000000000000000000000000000000000000000000000000000000008152600401610b1b90612c9d565b60405180910390fd5b80915050919050565b60008073ffffffffffffffffffffffffffffffffffffffff168273ffffffffffffffffffffffffffffffffffffffff161415610b9e576040517f08c379a0000000000000000000000000000000000000000000000000000000008152600401610b9590612d2f565b60405180910390fd5b600360008373ffffffffffffffffffffffffffffffffffffffff1673ffffffffffffffffffffffffffffffffffffffff168152602001908152602001600020549050919050565b610bed611151565b73ffffffffffffffffffffffffffffffffffffffff16610c0b610c6d565b73ffffffffffffffffffffffffffffffffffffffff1614610c61576040517f08c379a0000000000000000000000000000000000000000000000000000000008152600401610c5890612d9b565b60405180910390fd5b610c6b6000611557565b565b6000600760009054906101000a900473ffffffffffffffffffffffffffffffffffffffff16905090565b606060018054610ca69061271d565b80601f0160208091040260200160405190810160405280929190818152602001828054610cd29061271d565b8015610d1f5780601f10610cf457610100808354040283529160200191610d1f565b820191906000526020600020905b815481529060010190602001808311610d0257829003601f168201915b5050505050905090565b600a60149054906101000a900460ff1681565b610d4e610d47611151565b838361161d565b5050565b610d63610d5d611151565b83611212565b610da2576040517f08c379a0000000000000000000000000000000000000000000000000000000008152600401610d9990612a2f565b60405180910390fd5b610dae8484848461178a565b50505050565b6060610dbf826117e6565b9050919050565b60008060096000848152602001908152602001600020541415610e1e576040517f08c379a0000000000000000000000000000000000000000000000000000000008152600401610e1590612e07565b60405180910390fd5b60096000838152602001908152602001600020549050919050565b6000600560008473ffffffffffffffffffffffffffffffffffffffff1673ffffffffffffffffffffffffffffffffffffffff16815260200190815260200160002060008373ffffffffffffffffffffffffffffffffffffffff1673ffffffffffffffffffffffffffffffffffffffff16815260200190815260200160002060009054906101000a900460ff16905092915050565b610ed5611151565b73ffffffffffffffffffffffffffffffffffffffff16610ef3610c6d565b73ffffffffffffffffffffffffffffffffffffffff1614610f49576040517f08c379a0000000000000000000000000000000000000000000000000000000008152600401610f4090612d9b565b60405180910390fd5b600073ffffffffffffffffffffffffffffffffffffffff168173ffffffffffffffffffffffffffffffffffffffff161415610fb9576040517f08c379a0000000000000000000000000000000000000000000000000000000008152600401610fb090612e99565b60405180910390fd5b610fc281611557565b50565b60007f01ffc9a7000000000000000000000000000000000000000000000000000000007bffffffffffffffffffffffffffffffffffffffffffffffffffffffff1916827bffffffffffffffffffffffffffffffffffffffffffffffffffffffff1916149050919050565b60008073ffffffffffffffffffffffffffffffffffffffff166002600084815260200190815260200160002060009054906101000a900473ffffffffffffffffffffffffffffffffffffffff1673ffffffffffffffffffffffffffffffffffffffff1614159050919050565b6001816000016000828254019250508190555050565b600081600001549050919050565b6110d9828260405180602001604052806000815250611938565b5050565b6110e68261102f565b611125576040517f08c379a000000000000000000000000000000000000000000000000000000000815260040161111c90612f2b565b60405180910390fd5b8060066000848152602001908152602001600020908051906020019061114c929190611f41565b505050565b600033905090565b816004600083815260200190815260200160002060006101000a81548173ffffffffffffffffffffffffffffffffffffffff021916908373ffffffffffffffffffffffffffffffffffffffff160217905550808273ffffffffffffffffffffffffffffffffffffffff166111cc83610a7b565b73ffffffffffffffffffffffffffffffffffffffff167f8c5be1e5ebec7d5bd14f71427d1e84f3dd0314c0f7b2291e5b200ac8c7c3b92560405160405180910390a45050565b600061121d8261102f565b61125c576040517f08c379a000000000000000000000000000000000000000000000000000000000815260040161125390612fbd565b60405180910390fd5b600061126783610a7b565b90508073ffffffffffffffffffffffffffffffffffffffff168473ffffffffffffffffffffffffffffffffffffffff1614806112d657508373ffffffffffffffffffffffffffffffffffffffff166112be84610655565b73ffffffffffffffffffffffffffffffffffffffff16145b806112e757506112e68185610e39565b5b91505092915050565b8273ffffffffffffffffffffffffffffffffffffffff1661131082610a7b565b73ffffffffffffffffffffffffffffffffffffffff1614611366576040517f08c379a000000000000000000000000000000000000000000000000000000000815260040161135d9061304f565b60405180910390fd5b600073ffffffffffffffffffffffffffffffffffffffff168273ffffffffffffffffffffffffffffffffffffffff1614156113d6576040517f08c379a00000000000000000000000000000000000000000000000000000000081526004016113cd906130e1565b60405180910390fd5b6113e1838383611993565b6113ec600082611159565b6001600360008573ffffffffffffffffffffffffffffffffffffffff1673ffffffffffffffffffffffffffffffffffffffff168152602001908152602001600020600082825461143c9190612bb2565b925050819055506001600360008473ffffffffffffffffffffffffffffffffffffffff1673ffffffffffffffffffffffffffffffffffffffff16815260200190815260200160002060008282546114939190613101565b92505081905550816002600083815260200190815260200160002060006101000a81548173ffffffffffffffffffffffffffffffffffffffff021916908373ffffffffffffffffffffffffffffffffffffffff160217905550808273ffffffffffffffffffffffffffffffffffffffff168473ffffffffffffffffffffffffffffffffffffffff167fddf252ad1be2c89b69c2b068fc378daa952ba7f163c4a11628f55a4df523b3ef60405160405180910390a4611552838383611998565b505050565b6000600760009054906101000a900473ffffffffffffffffffffffffffffffffffffffff16905081600760006101000a81548173ffffffffffffffffffffffffffffffffffffffff021916908373ffffffffffffffffffffffffffffffffffffffff1602179055508173ffffffffffffffffffffffffffffffffffffffff168173ffffffffffffffffffffffffffffffffffffffff167f8be0079c531659141344cd1fd0a4f28419497f9722a3daafe3b4186f6b6457e060405160405180910390a35050565b8173ffffffffffffffffffffffffffffffffffffffff168373ffffffffffffffffffffffffffffffffffffffff16141561168c576040517f08c379a0000000000000000000000000000000000000000000000000000000008152600401611683906131a3565b60405180910390fd5b80600560008573ffffffffffffffffffffffffffffffffffffffff1673ffffffffffffffffffffffffffffffffffffffff16815260200190815260200160002060008473ffffffffffffffffffffffffffffffffffffffff1673ffffffffffffffffffffffffffffffffffffffff16815260200190815260200160002060006101000a81548160ff0219169083151502179055508173ffffffffffffffffffffffffffffffffffffffff168373ffffffffffffffffffffffffffffffffffffffff167f17307eab39ab6107e8899845ad3d59bd9653f200f220920489ca2b5937696c318360405161177d9190612098565b60405180910390a3505050565b6117958484846112f0565b6117a18484848461199d565b6117e0576040517f08c379a00000000000000000000000000000000000000000000000000000000081526004016117d790613235565b60405180910390fd5b50505050565b60606117f18261102f565b611830576040517f08c379a0000000000000000000000000000000000000000000000000000000008152600401611827906132c7565b60405180910390fd5b60006006600084815260200190815260200160002080546118509061271d565b80601f016020809104026020016040519081016040528092919081815260200182805461187c9061271d565b80156118c95780601f1061189e576101008083540402835291602001916118c9565b820191906000526020600020905b8154815290600101906020018083116118ac57829003601f168201915b5050505050905060006118da611b25565b90506000815114156118f0578192505050611933565b60008251111561192557808260405160200161190d929190613323565b60405160208183030381529060405292505050611933565b61192e84611b3c565b925050505b919050565b6119428383611be3565b61194f600084848461199d565b61198e576040517f08c379a000000000000000000000000000000000000000000000000000000000815260040161198590613235565b60405180910390fd5b505050565b505050565b505050565b60006119be8473ffffffffffffffffffffffffffffffffffffffff16611dbd565b15611b18578373ffffffffffffffffffffffffffffffffffffffff1663150b7a026119e7611151565b8786866040518563ffffffff1660e01b8152600401611a09949392919061339c565b6020604051808303816000875af1925050508015611a4557506040513d601f19601f82011682018060405250810190611a4291906133fd565b60015b611ac8573d8060008114611a75576040519150601f19603f3d011682016040523d82523d6000602084013e611a7a565b606091505b50600081511415611ac0576040517f08c379a0000000000000000000000000000000000000000000000000000000008152600401611ab790613235565b60405180910390fd5b805181602001fd5b63150b7a0260e01b7bffffffffffffffffffffffffffffffffffffffffffffffffffffffff1916817bffffffffffffffffffffffffffffffffffffffffffffffffffffffff191614915050611b1d565b600190505b949350505050565b606060405180602001604052806000815250905090565b6060611b478261102f565b611b86576040517f08c379a0000000000000000000000000000000000000000000000000000000008152600401611b7d9061349c565b60405180910390fd5b6000611b90611b25565b90506000815111611bb05760405180602001604052806000815250611bdb565b80611bba84611de0565b604051602001611bcb929190613323565b6040516020818303038152906040525b915050919050565b600073ffffffffffffffffffffffffffffffffffffffff168273ffffffffffffffffffffffffffffffffffffffff161415611c53576040517f08c379a0000000000000000000000000000000000000000000000000000000008152600401611c4a90613508565b60405180910390fd5b611c5c8161102f565b15611c9c576040517f08c379a0000000000000000000000000000000000000000000000000000000008152600401611c9390613574565b60405180910390fd5b611ca860008383611993565b6001600360008473ffffffffffffffffffffffffffffffffffffffff1673ffffffffffffffffffffffffffffffffffffffff1681526020019081526020016000206000828254611cf89190613101565b92505081905550816002600083815260200190815260200160002060006101000a81548173ffffffffffffffffffffffffffffffffffffffff021916908373ffffffffffffffffffffffffffffffffffffffff160217905550808273ffffffffffffffffffffffffffffffffffffffff16600073ffffffffffffffffffffffffffffffffffffffff167fddf252ad1be2c89b69c2b068fc378daa952ba7f163c4a11628f55a4df523b3ef60405160405180910390a4611db960008383611998565b5050565b6000808273ffffffffffffffffffffffffffffffffffffffff163b119050919050565b60606000821415611e28576040518060400160405280600181526020017f30000000000000000000000000000000000000000000000000000000000000008152509050611f3c565b600082905060005b60008214611e5a578080611e4390613594565b915050600a82611e5391906135dd565b9150611e30565b60008167ffffffffffffffff811115611e7657611e75612263565b5b6040519080825280601f01601f191660200182016040528015611ea85781602001600182028036833780820191505090505b5090505b60008514611f3557600182611ec19190612bb2565b9150600a85611ed0919061360e565b6030611edc9190613101565b60f81b818381518110611ef257611ef161363f565b5b60200101907effffffffffffffffffffffffffffffffffffffffffffffffffffffffffffff1916908160001a905350600a85611f2e91906135dd565b9450611eac565b8093505050505b919050565b828054611f4d9061271d565b90600052602060002090601f016020900481019282611f6f5760008555611fb6565b82601f10611f8857805160ff1916838001178555611fb6565b82800160010185558215611fb6579182015b82811115611fb5578251825591602001919060010190611f9a565b5b509050611fc39190611fc7565b5090565b5b80821115611fe0576000816000905550600101611fc8565b5090565b6000604051905090565b600080fd5b600080fd5b60007fffffffff0000000000000000000000000000000000000000000000000000000082169050919050565b61202d81611ff8565b811461203857600080fd5b50565b60008135905061204a81612024565b92915050565b60006020828403121561206657612065611fee565b5b60006120748482850161203b565b91505092915050565b60008115159050919050565b6120928161207d565b82525050565b60006020820190506120ad6000830184612089565b92915050565b600081519050919050565b600082825260208201905092915050565b60005b838110156120ed5780820151818401526020810190506120d2565b838111156120fc576000848401525b50505050565b6000601f19601f8301169050919050565b600061211e826120b3565b61212881856120be565b93506121388185602086016120cf565b61214181612102565b840191505092915050565b600060208201905081810360008301526121668184612113565b905092915050565b6000819050919050565b6121818161216e565b811461218c57600080fd5b50565b60008135905061219e81612178565b92915050565b6000602082840312156121ba576121b9611fee565b5b60006121c88482850161218f565b91505092915050565b600073ffffffffffffffffffffffffffffffffffffffff82169050919050565b60006121fc826121d1565b9050919050565b61220c816121f1565b82525050565b60006020820190506122276000830184612203565b92915050565b612236816121f1565b811461224157600080fd5b50565b6000813590506122538161222d565b92915050565b600080fd5b600080fd5b7f4e487b7100000000000000000000000000000000000000000000000000000000600052604160045260246000fd5b61229b82612102565b810181811067ffffffffffffffff821117156122ba576122b9612263565b5b80604052505050565b60006122cd611fe4565b90506122d98282612292565b919050565b600067ffffffffffffffff8211156122f9576122f8612263565b5b61230282612102565b9050602081019050919050565b82818337600083830152505050565b600061233161232c846122de565b6122c3565b90508281526020810184848401111561234d5761234c61225e565b5b61235884828561230f565b509392505050565b600082601f83011261237557612374612259565b5b813561238584826020860161231e565b91505092915050565b6000806000606084860312156123a7576123a6611fee565b5b60006123b586828701612244565b935050602084013567ffffffffffffffff8111156123d6576123d5611ff3565b5b6123e286828701612360565b92505060406123f38682870161218f565b9150509250925092565b6124068161216e565b82525050565b600060208201905061242160008301846123fd565b92915050565b6000806040838503121561243e5761243d611fee565b5b600061244c85828601612244565b925050602061245d8582860161218f565b9150509250929050565b6000806000606084860312156124805761247f611fee565b5b600061248e86828701612244565b935050602061249f86828701612244565b92505060406124b08682870161218f565b9150509250925092565b6000602082840312156124d0576124cf611fee565b5b60006124de84828501612244565b91505092915050565b600060ff82169050919050565b6124fd816124e7565b82525050565b600060208201905061251860008301846124f4565b92915050565b6125278161207d565b811461253257600080fd5b50565b6000813590506125448161251e565b92915050565b6000806040838503121561256157612560611fee565b5b600061256f85828601612244565b925050602061258085828601612535565b9150509250929050565b600067ffffffffffffffff8211156125a5576125a4612263565b5b6125ae82612102565b9050602081019050919050565b60006125ce6125c98461258a565b6122c3565b9050828152602081018484840111156125ea576125e961225e565b5b6125f584828561230f565b509392505050565b600082601f83011261261257612611612259565b5b81356126228482602086016125bb565b91505092915050565b6000806000806080858703121561264557612644611fee565b5b600061265387828801612244565b945050602061266487828801612244565b93505060406126758782880161218f565b925050606085013567ffffffffffffffff81111561269657612695611ff3565b5b6126a2878288016125fd565b91505092959194509250565b600080604083850312156126c5576126c4611fee565b5b60006126d385828601612244565b92505060206126e485828601612244565b9150509250929050565b7f4e487b7100000000000000000000000000000000000000000000000000000000600052602260045260246000fd5b6000600282049050600182168061273557607f821691505b60208210811415612749576127486126ee565b5b50919050565b7f4552433732313a20617070726f76656420717565727920666f72206e6f6e657860008201527f697374656e7420746f6b656e0000000000000000000000000000000000000000602082015250565b60006127ab602c836120be565b91506127b68261274f565b604082019050919050565b600060208201905081810360008301526127da8161279e565b9050919050565b7f5072696365206d7573742062652067726561746572207468616e203000000000600082015250565b6000612817601c836120be565b9150612822826127e1565b602082019050919050565b600060208201905081810360008301526128468161280a565b9050919050565b60006080820190506128626000830187612203565b61286f60208301866123fd565b81810360408301526128818185612113565b905061289060608301846123fd565b95945050505050565b7f4552433732313a20617070726f76616c20746f2063757272656e74206f776e6560008201527f7200000000000000000000000000000000000000000000000000000000000000602082015250565b60006128f56021836120be565b915061290082612899565b604082019050919050565b60006020820190508181036000830152612924816128e8565b9050919050565b7f4552433732313a20617070726f76652063616c6c6572206973206e6f74206f7760008201527f6e6572206e6f7220617070726f76656420666f7220616c6c0000000000000000602082015250565b60006129876038836120be565b91506129928261292b565b604082019050919050565b600060208201905081810360008301526129b68161297a565b9050919050565b7f4552433732313a207472616e736665722063616c6c6572206973206e6f74206f60008201527f776e6572206e6f7220617070726f766564000000000000000000000000000000602082015250565b6000612a196031836120be565b9150612a24826129bd565b604082019050919050565b60006020820190508181036000830152612a4881612a0c565b9050919050565b7f496e73756666696369656e74206777656920666f722070757263686173650000600082015250565b6000612a85601e836120be565b9150612a9082612a4f565b602082019050919050565b60006020820190508181036000830152612ab481612a78565b9050919050565b600061ffff82169050919050565b7f4e487b7100000000000000000000000000000000000000000000000000000000600052601260045260246000fd5b7f4e487b7100000000000000000000000000000000000000000000000000000000600052601160045260246000fd5b6000612b3282612abb565b9150612b3d83612abb565b925082612b4d57612b4c612ac9565b5b828204905092915050565b6000612b638261216e565b9150612b6e8361216e565b9250817fffffffffffffffffffffffffffffffffffffffffffffffffffffffffffffffff0483118215151615612ba757612ba6612af8565b5b828202905092915050565b6000612bbd8261216e565b9150612bc88361216e565b925082821015612bdb57612bda612af8565b5b828203905092915050565b6000608082019050612bfb60008301876123fd565b612c086020830186612203565b612c156040830185612203565b612c2260608301846123fd565b95945050505050565b7f4552433732313a206f776e657220717565727920666f72206e6f6e657869737460008201527f656e7420746f6b656e0000000000000000000000000000000000000000000000602082015250565b6000612c876029836120be565b9150612c9282612c2b565b604082019050919050565b60006020820190508181036000830152612cb681612c7a565b9050919050565b7f4552433732313a2062616c616e636520717565727920666f7220746865207a6560008201527f726f206164647265737300000000000000000000000000000000000000000000602082015250565b6000612d19602a836120be565b9150612d2482612cbd565b604082019050919050565b60006020820190508181036000830152612d4881612d0c565b9050919050565b7f4f776e61626c653a2063616c6c6572206973206e6f7420746865206f776e6572600082015250565b6000612d856020836120be565b9150612d9082612d4f565b602082019050919050565b60006020820190508181036000830152612db481612d78565b9050919050565b7f546f6b656e20707269636520646f6573206e6f74206578697374000000000000600082015250565b6000612df1601a836120be565b9150612dfc82612dbb565b602082019050919050565b60006020820190508181036000830152612e2081612de4565b9050919050565b7f4f776e61626c653a206e6577206f776e657220697320746865207a65726f206160008201527f6464726573730000000000000000000000000000000000000000000000000000602082015250565b6000612e836026836120be565b9150612e8e82612e27565b604082019050919050565b60006020820190508181036000830152612eb281612e76565b9050919050565b7f45524337323155524953746f726167653a2055524920736574206f66206e6f6e60008201527f6578697374656e7420746f6b656e000000000000000000000000000000000000602082015250565b6000612f15602e836120be565b9150612f2082612eb9565b604082019050919050565b60006020820190508181036000830152612f4481612f08565b9050919050565b7f4552433732313a206f70657261746f7220717565727920666f72206e6f6e657860008201527f697374656e7420746f6b656e0000000000000000000000000000000000000000602082015250565b6000612fa7602c836120be565b9150612fb282612f4b565b604082019050919050565b60006020820190508181036000830152612fd681612f9a565b9050919050565b7f4552433732313a207472616e736665722066726f6d20696e636f72726563742060008201527f6f776e6572000000000000000000000000000000000000000000000000000000602082015250565b60006130396025836120be565b915061304482612fdd565b604082019050919050565b600060208201905081810360008301526130688161302c565b9050919050565b7f4552433732313a207472616e7366657220746f20746865207a65726f2061646460008201527f7265737300000000000000000000000000000000000000000000000000000000602082015250565b60006130cb6024836120be565b91506130d68261306f565b604082019050919050565b600060208201905081810360008301526130fa816130be565b9050919050565b600061310c8261216e565b91506131178361216e565b9250827fffffffffffffffffffffffffffffffffffffffffffffffffffffffffffffffff0382111561314c5761314b612af8565b5b828201905092915050565b7f4552433732313a20617070726f766520746f2063616c6c657200000000000000600082015250565b600061318d6019836120be565b915061319882613157565b602082019050919050565b600060208201905081810360008301526131bc81613180565b9050919050565b7f4552433732313a207472616e7366657220746f206e6f6e20455243373231526560008201527f63656976657220696d706c656d656e7465720000000000000000000000000000602082015250565b600061321f6032836120be565b915061322a826131c3565b604082019050919050565b6000602082019050818103600083015261324e81613212565b9050919050565b7f45524337323155524953746f726167653a2055524920717565727920666f722060008201527f6e6f6e6578697374656e7420746f6b656e000000000000000000000000000000602082015250565b60006132b16031836120be565b91506132bc82613255565b604082019050919050565b600060208201905081810360008301526132e0816132a4565b9050919050565b600081905092915050565b60006132fd826120b3565b61330781856132e7565b93506133178185602086016120cf565b80840191505092915050565b600061332f82856132f2565b915061333b82846132f2565b91508190509392505050565b600081519050919050565b600082825260208201905092915050565b600061336e82613347565b6133788185613352565b93506133888185602086016120cf565b61339181612102565b840191505092915050565b60006080820190506133b16000830187612203565b6133be6020830186612203565b6133cb60408301856123fd565b81810360608301526133dd8184613363565b905095945050505050565b6000815190506133f781612024565b92915050565b60006020828403121561341357613412611fee565b5b6000613421848285016133e8565b91505092915050565b7f4552433732314d657461646174613a2055524920717565727920666f72206e6f60008201527f6e6578697374656e7420746f6b656e0000000000000000000000000000000000602082015250565b6000613486602f836120be565b91506134918261342a565b604082019050919050565b600060208201905081810360008301526134b581613479565b9050919050565b7f4552433732313a206d696e7420746f20746865207a65726f2061646472657373600082015250565b60006134f26020836120be565b91506134fd826134bc565b602082019050919050565b60006020820190508181036000830152613521816134e5565b9050919050565b7f4552433732313a20746f6b656e20616c7265616479206d696e74656400000000600082015250565b600061355e601c836120be565b915061356982613528565b602082019050919050565b6000602082019050818103600083015261358d81613551565b9050919050565b600061359f8261216e565b91507fffffffffffffffffffffffffffffffffffffffffffffffffffffffffffffffff8214156135d2576135d1612af8565b5b600182019050919050565b60006135e88261216e565b91506135f38361216e565b92508261360357613602612ac9565b5b828204905092915050565b60006136198261216e565b91506136248361216e565b92508261363457613633612ac9565b5b828206905092915050565b7f4e487b7100000000000000000000000000000000000000000000000000000000600052603260045260246000fdfea26469706673582212203dcee83d62b56f119f2ad09b3c1ef8d640287ba91ca96b95226df5f642a0c31f64736f6c634300080b0033",
    "linkReferences": {},
    "deployedLinkReferences": {}
}