{
  "_format": "hh-sol-artifact-1",
  "contractName": "NudeDEX",
  "sourceName": "contracts/NudeDEX.sol",
  "abi": [
    {
      "inputs": [
        {
          "internalType": "address",
          "name": "_nude",
          "type": "address"
        },
        {
          "internalType": "address",
          "name": "_nudeNFT",
          "type": "address"
        }
      ],
      "stateMutability": "nonpayable",
      "type": "constructor"
    },
    {
      "anonymous": false,
      "inputs": [
        {
          "indexed": false,
          "internalType": "address",
          "name": "owner",
          "type": "address"
        },
        {
          "indexed": false,
          "internalType": "uint256",
          "name": "tokenId",
          "type": "uint256"
        },
        {
          "indexed": false,
          "internalType": "uint256",
          "name": "price",
          "type": "uint256"
        }
      ],
      "name": "OnSaleNFT",
      "type": "event"
    },
    {
      "anonymous": false,
      "inputs": [
        {
          "indexed": true,
          "internalType": "address",
          "name": "previousOwner",
          "type": "address"
        },
        {
          "indexed": true,
          "internalType": "address",
          "name": "newOwner",
          "type": "address"
        }
      ],
      "name": "OwnershipTransferred",
      "type": "event"
    },
    {
      "anonymous": false,
      "inputs": [
        {
          "indexed": false,
          "internalType": "address",
          "name": "owner",
          "type": "address"
        },
        {
          "indexed": false,
          "internalType": "uint256",
          "name": "tokenId",
          "type": "uint256"
        }
      ],
      "name": "TakeDownNFT",
      "type": "event"
    },
    {
      "anonymous": false,
      "inputs": [
        {
          "indexed": false,
          "internalType": "address",
          "name": "buyer",
          "type": "address"
        },
        {
          "indexed": false,
          "internalType": "address",
          "name": "seller",
          "type": "address"
        },
        {
          "indexed": false,
          "internalType": "uint256",
          "name": "tokenId",
          "type": "uint256"
        },
        {
          "indexed": false,
          "internalType": "uint256",
          "name": "price",
          "type": "uint256"
        }
      ],
      "name": "Trade",
      "type": "event"
    },
    {
      "inputs": [
        {
          "internalType": "uint256",
          "name": "tokenId",
          "type": "uint256"
        }
      ],
      "name": "getLastTradePrice",
      "outputs": [
        {
          "internalType": "uint256",
          "name": "",
          "type": "uint256"
        }
      ],
      "stateMutability": "view",
      "type": "function"
    },
    {
      "inputs": [
        {
          "internalType": "uint256",
          "name": "tokenId",
          "type": "uint256"
        }
      ],
      "name": "getPrice",
      "outputs": [
        {
          "internalType": "uint256",
          "name": "",
          "type": "uint256"
        }
      ],
      "stateMutability": "view",
      "type": "function"
    },
    {
      "inputs": [],
      "name": "getTax",
      "outputs": [
        {
          "internalType": "uint8",
          "name": "",
          "type": "uint8"
        }
      ],
      "stateMutability": "view",
      "type": "function"
    },
    {
      "inputs": [
        {
          "internalType": "address",
          "name": "",
          "type": "address"
        },
        {
          "internalType": "address",
          "name": "",
          "type": "address"
        },
        {
          "internalType": "uint256",
          "name": "",
          "type": "uint256"
        },
        {
          "internalType": "bytes",
          "name": "",
          "type": "bytes"
        }
      ],
      "name": "onERC721Received",
      "outputs": [
        {
          "internalType": "bytes4",
          "name": "",
          "type": "bytes4"
        }
      ],
      "stateMutability": "pure",
      "type": "function"
    },
    {
      "inputs": [
        {
          "internalType": "uint256",
          "name": "tokenId",
          "type": "uint256"
        },
        {
          "internalType": "uint256",
          "name": "price",
          "type": "uint256"
        },
        {
          "internalType": "address",
          "name": "seller",
          "type": "address"
        }
      ],
      "name": "onSale",
      "outputs": [],
      "stateMutability": "nonpayable",
      "type": "function"
    },
    {
      "inputs": [],
      "name": "owner",
      "outputs": [
        {
          "internalType": "address",
          "name": "",
          "type": "address"
        }
      ],
      "stateMutability": "view",
      "type": "function"
    },
    {
      "inputs": [],
      "name": "renounceOwnership",
      "outputs": [],
      "stateMutability": "nonpayable",
      "type": "function"
    },
    {
      "inputs": [
        {
          "internalType": "address",
          "name": "_nudeNFT",
          "type": "address"
        }
      ],
      "name": "setNudeNFTAddress",
      "outputs": [],
      "stateMutability": "nonpayable",
      "type": "function"
    },
    {
      "inputs": [
        {
          "internalType": "address",
          "name": "_nude",
          "type": "address"
        }
      ],
      "name": "setNudeTokenAddress",
      "outputs": [],
      "stateMutability": "nonpayable",
      "type": "function"
    },
    {
      "inputs": [
        {
          "internalType": "uint8",
          "name": "_tax",
          "type": "uint8"
        }
      ],
      "name": "setTax",
      "outputs": [],
      "stateMutability": "nonpayable",
      "type": "function"
    },
    {
      "inputs": [
        {
          "internalType": "uint256",
          "name": "tokenId",
          "type": "uint256"
        }
      ],
      "name": "takeDown",
      "outputs": [],
      "stateMutability": "nonpayable",
      "type": "function"
    },
    {
      "inputs": [
        {
          "internalType": "uint256",
          "name": "tokenId",
          "type": "uint256"
        },
        {
          "internalType": "address",
          "name": "buyer",
          "type": "address"
        }
      ],
      "name": "trade",
      "outputs": [],
      "stateMutability": "nonpayable",
      "type": "function"
    },
    {
      "inputs": [
        {
          "internalType": "address",
          "name": "newOwner",
          "type": "address"
        }
      ],
      "name": "transferOwnership",
      "outputs": [],
      "stateMutability": "nonpayable",
      "type": "function"
    },
    {
      "inputs": [
        {
          "internalType": "uint256",
          "name": "amount",
          "type": "uint256"
        }
      ],
      "name": "withdraw",
      "outputs": [],
      "stateMutability": "nonpayable",
      "type": "function"
    }
  ],
  "bytecode": "0x60806040526002805460ff60a01b1916600560a11b17905534801561002357600080fd5b50604051620013f1380380620013f1833981016040819052610044916100ea565b61004d3361007e565b600180546001600160a01b039384166001600160a01b0319918216179091556002805492909316911617905561011d565b600080546001600160a01b038381166001600160a01b0319831681178455604051919092169283917f8be0079c531659141344cd1fd0a4f28419497f9722a3daafe3b4186f6b6457e09190a35050565b80516001600160a01b03811681146100e557600080fd5b919050565b600080604083850312156100fd57600080fd5b610106836100ce565b9150610114602084016100ce565b90509250929050565b6112c4806200012d6000396000f3fe608060405234801561001057600080fd5b50600436106100ea5760003560e01c80638da5cb5b1161008c578063c202ea4c11610066578063c202ea4c14610209578063e0a0cf741461021c578063e75722301461022f578063f2fde38b1461024257600080fd5b80638da5cb5b146101ba578063ad1443f0146101d5578063b96cfa68146101e857600080fd5b806342dd6c59116100c857806342dd6c591461016d57806354b762a614610180578063715018a61461019f57806386e63450146101a757600080fd5b8063150b7a02146100ef5780632e1a7d4d14610145578063352ccd521461015a575b600080fd5b6101276100fd366004610ff9565b7f150b7a023d4804d13e8c85fb27262cb750cf6ba9f9dd3bb30d90f482ceeb4b1f95945050505050565b6040516001600160e01b031990911681526020015b60405180910390f35b610158610153366004611098565b610255565b005b6101586101683660046110b1565b61046f565b61015861017b3660046110d5565b6104bb565b600254600160a01b900460ff1660405160ff909116815260200161013c565b61015861069d565b6101586101b5366004611098565b6106d3565b6000546040516001600160a01b03909116815260200161013c565b6101586101e33660046110b1565b6108c6565b6101fb6101f6366004611098565b610912565b60405190815260200161013c565b61015861021736600461110e565b610982565b61015861022a366004611131565b6109cc565b6101fb61023d366004611098565b610e89565b6101586102503660046110b1565b610ef9565b6000546001600160a01b031633146102885760405162461bcd60e51b815260040161027f90611161565b60405180910390fd5b6001546040516370a0823160e01b815230600482015282916001600160a01b0316906370a0823190602401602060405180830381865afa1580156102d0573d6000803e3d6000fd5b505050506040513d601f19601f820116820180604052508101906102f49190611196565b10156103425760405162461bcd60e51b815260206004820152601d60248201527f4e6f7420656e6f75676820746f6b656e7320746f207769746864726177000000604482015260640161027f565b6001546001600160a01b031663095ea7b36103656000546001600160a01b031690565b6040516001600160e01b031960e084901b1681526001600160a01b039091166004820152602481018490526044016020604051808303816000875af11580156103b2573d6000803e3d6000fd5b505050506040513d601f19601f820116820180604052508101906103d691906111af565b506001546001600160a01b031663a9059cbb6103fa6000546001600160a01b031690565b6040516001600160e01b031960e084901b1681526001600160a01b039091166004820152602481018490526044016020604051808303816000875af1158015610447573d6000803e3d6000fd5b505050506040513d601f19601f8201168201806040525081019061046b91906111af565b5050565b6000546001600160a01b031633146104995760405162461bcd60e51b815260040161027f90611161565b600180546001600160a01b0319166001600160a01b0392909216919091179055565b6000821161050b5760405162461bcd60e51b815260206004820152601c60248201527f5072696365206d7573742062652067726561746572207468616e203000000000604482015260640161027f565b6002546040516331a9108f60e11b81526004810185905233916001600160a01b031690636352211e90602401602060405180830381865afa158015610554573d6000803e3d6000fd5b505050506040513d601f19601f8201168201806040525081019061057891906111d1565b6001600160a01b0316146105bd5760405162461bcd60e51b815260206004820152600c60248201526b139bdd081e5bdd5c8813919560a21b604482015260640161027f565b600254604051632142170760e11b81526001600160a01b03909116906342842e0e906105f1908490309088906004016111ee565b600060405180830381600087803b15801561060b57600080fd5b505af115801561061f573d6000803e3d6000fd5b505050600084815260056020908152604080832080546001600160a01b0319166001600160a01b0387169081179091556004835292819020869055805192835290820186905281018490527fc0d0f63528062762033cd269b4370cf3f5fbd4e76a6f28c4b8d86bec493556b2915060600160405180910390a1505050565b6000546001600160a01b031633146106c75760405162461bcd60e51b815260040161027f90611161565b6106d16000610f94565b565b6000818152600560205260409020546001600160a01b031615801590610706575060008181526004602052604090205415155b6107445760405162461bcd60e51b815260206004820152600f60248201526e4e4654206e6f74206f6e2073616c6560881b604482015260640161027f565b6000818152600560205260409020546001600160a01b031633146107995760405162461bcd60e51b815260206004820152600c60248201526b139bdd081e5bdd5c8813919560a21b604482015260640161027f565b60025460405163095ea7b360e01b8152336004820152602481018390526001600160a01b039091169063095ea7b390604401600060405180830381600087803b1580156107e557600080fd5b505af11580156107f9573d6000803e3d6000fd5b5050600254604051632142170760e11b81526001600160a01b0390911692506342842e0e9150610831903090339086906004016111ee565b600060405180830381600087803b15801561084b57600080fd5b505af115801561085f573d6000803e3d6000fd5b505050600082815260056020908152604080832080546001600160a01b0319169055600482528083209290925581513381529081018490527f7860a08244f8005093c4ef6d0fcc0af1c7f589ccdc00d56c31afa9c6501d2ccb92500160405180910390a150565b6000546001600160a01b031633146108f05760405162461bcd60e51b815260040161027f90611161565b600280546001600160a01b0319166001600160a01b0392909216919091179055565b600081815260036020526040812054810361096f5760405162461bcd60e51b815260206004820152601f60248201527f4c61737420747261646520707269636520646f6573206e6f7420657869737400604482015260640161027f565b5060009081526003602052604090205490565b6000546001600160a01b031633146109ac5760405162461bcd60e51b815260040161027f90611161565b6002805460ff909216600160a01b0260ff60a01b19909216919091179055565b6000828152600560205260409020546001600160a01b0316158015906109ff575060008281526004602052604090205415155b610a3d5760405162461bcd60e51b815260206004820152600f60248201526e4e4654206e6f74206f6e2073616c6560881b604482015260640161027f565b6000828152600460209081526040808320546005909252909120546001600160a01b0390811690831603610ab35760405162461bcd60e51b815260206004820152601a60248201527f596f752063616e27742062757920796f7572206f776e204e4654000000000000604482015260640161027f565b600254606490610acd90600160a01b900460ff1682611228565b610ada9060ff168361124d565b610ae4919061126c565b6001546040516370a0823160e01b81526001600160a01b038581166004830152909116906370a0823190602401602060405180830381865afa158015610b2e573d6000803e3d6000fd5b505050506040513d601f19601f82011682018060405250810190610b529190611196565b1015610ba05760405162461bcd60e51b815260206004820152601c60248201527f4e6f7420656e6f75676820746f6b656e7320746f20627579206e667400000000604482015260640161027f565b6001546002546001600160a01b03909116906323b872dd9084903090606490610bd390600160a01b900460ff1682611228565b610be09060ff168761124d565b610bea919061126c565b6040518463ffffffff1660e01b8152600401610c08939291906111ee565b6020604051808303816000875af1158015610c27573d6000803e3d6000fd5b505050506040513d601f19601f82011682018060405250810190610c4b91906111af565b506000838152600560205260409081902054600154915163095ea7b360e01b81526001600160a01b03918216600482018190526024820185905292919091169063095ea7b3906044016020604051808303816000875af1158015610cb3573d6000803e3d6000fd5b505050506040513d601f19601f82011682018060405250810190610cd791906111af565b5060015460405163a9059cbb60e01b81526001600160a01b038381166004830152602482018590529091169063a9059cbb906044016020604051808303816000875af1158015610d2b573d6000803e3d6000fd5b505050506040513d601f19601f82011682018060405250810190610d4f91906111af565b5060025460405163095ea7b360e01b81526001600160a01b038581166004830152602482018790529091169063095ea7b390604401600060405180830381600087803b158015610d9e57600080fd5b505af1158015610db2573d6000803e3d6000fd5b5050600254604051632142170760e11b81526001600160a01b0390911692506342842e0e9150610dea903090879089906004016111ee565b600060405180830381600087803b158015610e0457600080fd5b505af1158015610e18573d6000803e3d6000fd5b50505060008581526003602090815260409182902085905581516001600160a01b038088168252851691810191909152908101869052606081018490527f4b5796113f074ebf8f11d5bcdeb6349b2fbe47abed78419cdcdbbc15c6fcf845915060800160405180910390a150505050565b6000818152600460205260408120548103610ee65760405162461bcd60e51b815260206004820152601860248201527f4e465420707269636520646f6573206e6f742065786973740000000000000000604482015260640161027f565b5060009081526004602052604090205490565b6000546001600160a01b03163314610f235760405162461bcd60e51b815260040161027f90611161565b6001600160a01b038116610f885760405162461bcd60e51b815260206004820152602660248201527f4f776e61626c653a206e6577206f776e657220697320746865207a65726f206160448201526564647265737360d01b606482015260840161027f565b610f9181610f94565b50565b600080546001600160a01b038381166001600160a01b0319831681178455604051919092169283917f8be0079c531659141344cd1fd0a4f28419497f9722a3daafe3b4186f6b6457e09190a35050565b6001600160a01b0381168114610f9157600080fd5b60008060008060006080868803121561101157600080fd5b853561101c81610fe4565b9450602086013561102c81610fe4565b935060408601359250606086013567ffffffffffffffff8082111561105057600080fd5b818801915088601f83011261106457600080fd5b81358181111561107357600080fd5b89602082850101111561108557600080fd5b9699959850939650602001949392505050565b6000602082840312156110aa57600080fd5b5035919050565b6000602082840312156110c357600080fd5b81356110ce81610fe4565b9392505050565b6000806000606084860312156110ea57600080fd5b8335925060208401359150604084013561110381610fe4565b809150509250925092565b60006020828403121561112057600080fd5b813560ff811681146110ce57600080fd5b6000806040838503121561114457600080fd5b82359150602083013561115681610fe4565b809150509250929050565b6020808252818101527f4f776e61626c653a2063616c6c6572206973206e6f7420746865206f776e6572604082015260600190565b6000602082840312156111a857600080fd5b5051919050565b6000602082840312156111c157600080fd5b815180151581146110ce57600080fd5b6000602082840312156111e357600080fd5b81516110ce81610fe4565b6001600160a01b039384168152919092166020820152604081019190915260600190565b634e487b7160e01b600052601160045260246000fd5b600060ff821660ff84168060ff0382111561124557611245611212565b019392505050565b600081600019048311821515161561126757611267611212565b500290565b60008261128957634e487b7160e01b600052601260045260246000fd5b50049056fea26469706673582212208e1951a50010ac912da1900433b013cf87a712b9bcc945a4a95a5bd45ef004d364736f6c634300080e0033",
  "linkReferences": {},
  "deployedLinkReferences": {}
}