{
    "_format": "hh-sol-artifact-1",
    "contractName": "NudeNFT",
    "sourceName": "contracts/NudeNFT.sol",
    "abi": [
        {
            "inputs": [
                {
                    "internalType": "address",
                    "name": "_nude",
                    "type": "address"
                }
            ],
            "stateMutability": "nonpayable",
            "type": "constructor"
        },
        {
            "anonymous": false,
            "inputs": [
                {
                    "indexed": true,
                    "internalType": "address",
                    "name": "owner",
                    "type": "address"
                },
                {
                    "indexed": true,
                    "internalType": "address",
                    "name": "approved",
                    "type": "address"
                },
                {
                    "indexed": true,
                    "internalType": "uint256",
                    "name": "tokenId",
                    "type": "uint256"
                }
            ],
            "name": "Approval",
            "type": "event"
        },
        {
            "anonymous": false,
            "inputs": [
                {
                    "indexed": true,
                    "internalType": "address",
                    "name": "owner",
                    "type": "address"
                },
                {
                    "indexed": true,
                    "internalType": "address",
                    "name": "operator",
                    "type": "address"
                },
                {
                    "indexed": false,
                    "internalType": "bool",
                    "name": "approved",
                    "type": "bool"
                }
            ],
            "name": "ApprovalForAll",
            "type": "event"
        },
        {
            "anonymous": false,
            "inputs": [
                {
                    "indexed": false,
                    "internalType": "uint256",
                    "name": "tokenId",
                    "type": "uint256"
                },
                {
                    "indexed": false,
                    "internalType": "address",
                    "name": "buyer",
                    "type": "address"
                },
                {
                    "indexed": false,
                    "internalType": "address",
                    "name": "seller",
                    "type": "address"
                },
                {
                    "indexed": false,
                    "internalType": "uint256",
                    "name": "price",
                    "type": "uint256"
                }
            ],
            "name": "BuyNFT",
            "type": "event"
        },
        {
            "anonymous": false,
            "inputs": [
                {
                    "indexed": false,
                    "internalType": "uint256",
                    "name": "tokenId",
                    "type": "uint256"
                },
                {
                    "indexed": false,
                    "internalType": "address",
                    "name": "buyer",
                    "type": "address"
                },
                {
                    "indexed": false,
                    "internalType": "address",
                    "name": "seller",
                    "type": "address"
                },
                {
                    "indexed": false,
                    "internalType": "uint256",
                    "name": "price",
                    "type": "uint256"
                }
            ],
            "name": "BuyNFTwithToken",
            "type": "event"
        },
        {
            "anonymous": false,
            "inputs": [
                {
                    "indexed": false,
                    "internalType": "address",
                    "name": "recipient",
                    "type": "address"
                },
                {
                    "indexed": false,
                    "internalType": "uint256",
                    "name": "tokenId",
                    "type": "uint256"
                },
                {
                    "indexed": false,
                    "internalType": "string",
                    "name": "tokenURI",
                    "type": "string"
                },
                {
                    "indexed": false,
                    "internalType": "uint256",
                    "name": "price",
                    "type": "uint256"
                }
            ],
            "name": "MintNFT",
            "type": "event"
        },
        {
            "anonymous": false,
            "inputs": [
                {
                    "indexed": true,
                    "internalType": "address",
                    "name": "previousOwner",
                    "type": "address"
                },
                {
                    "indexed": true,
                    "internalType": "address",
                    "name": "newOwner",
                    "type": "address"
                }
            ],
            "name": "OwnershipTransferred",
            "type": "event"
        },
        {
            "anonymous": false,
            "inputs": [
                {
                    "indexed": true,
                    "internalType": "address",
                    "name": "from",
                    "type": "address"
                },
                {
                    "indexed": true,
                    "internalType": "address",
                    "name": "to",
                    "type": "address"
                },
                {
                    "indexed": true,
                    "internalType": "uint256",
                    "name": "tokenId",
                    "type": "uint256"
                }
            ],
            "name": "Transfer",
            "type": "event"
        },
        {
            "inputs": [
                {
                    "internalType": "address",
                    "name": "to",
                    "type": "address"
                },
                {
                    "internalType": "uint256",
                    "name": "tokenId",
                    "type": "uint256"
                }
            ],
            "name": "approve",
            "outputs": [],
            "stateMutability": "nonpayable",
            "type": "function"
        },
        {
            "inputs": [
                {
                    "internalType": "address",
                    "name": "owner",
                    "type": "address"
                }
            ],
            "name": "balanceOf",
            "outputs": [
                {
                    "internalType": "uint256",
                    "name": "",
                    "type": "uint256"
                }
            ],
            "stateMutability": "view",
            "type": "function"
        },
        {
            "inputs": [
                {
                    "internalType": "uint256",
                    "name": "tokenId",
                    "type": "uint256"
                }
            ],
            "name": "buyNFT",
            "outputs": [],
            "stateMutability": "payable",
            "type": "function"
        },
        {
            "inputs": [
                {
                    "internalType": "uint256",
                    "name": "tokenId",
                    "type": "uint256"
                }
            ],
            "name": "buyNFTwithToken",
            "outputs": [],
            "stateMutability": "nonpayable",
            "type": "function"
        },
        {
            "inputs": [
                {
                    "internalType": "uint256",
                    "name": "tokenId",
                    "type": "uint256"
                }
            ],
            "name": "getApproved",
            "outputs": [
                {
                    "internalType": "address",
                    "name": "",
                    "type": "address"
                }
            ],
            "stateMutability": "view",
            "type": "function"
        },
        {
            "inputs": [
                {
                    "internalType": "uint256",
                    "name": "tokenId",
                    "type": "uint256"
                }
            ],
            "name": "getPrice",
            "outputs": [
                {
                    "internalType": "uint256",
                    "name": "",
                    "type": "uint256"
                }
            ],
            "stateMutability": "view",
            "type": "function"
        },
        {
            "inputs": [
                {
                    "internalType": "address",
                    "name": "owner",
                    "type": "address"
                },
                {
                    "internalType": "address",
                    "name": "operator",
                    "type": "address"
                }
            ],
            "name": "isApprovedForAll",
            "outputs": [
                {
                    "internalType": "bool",
                    "name": "",
                    "type": "bool"
                }
            ],
            "stateMutability": "view",
            "type": "function"
        },
        {
            "inputs": [
                {
                    "internalType": "address",
                    "name": "recipient",
                    "type": "address"
                },
                {
                    "internalType": "string",
                    "name": "tokenURI",
                    "type": "string"
                },
                {
                    "internalType": "uint256",
                    "name": "price",
                    "type": "uint256"
                }
            ],
            "name": "mintNFT",
            "outputs": [
                {
                    "internalType": "uint256",
                    "name": "",
                    "type": "uint256"
                }
            ],
            "stateMutability": "nonpayable",
            "type": "function"
        },
        {
            "inputs": [],
            "name": "name",
            "outputs": [
                {
                    "internalType": "string",
                    "name": "",
                    "type": "string"
                }
            ],
            "stateMutability": "view",
            "type": "function"
        },
        {
            "inputs": [],
            "name": "owner",
            "outputs": [
                {
                    "internalType": "address",
                    "name": "",
                    "type": "address"
                }
            ],
            "stateMutability": "view",
            "type": "function"
        },
        {
            "inputs": [
                {
                    "internalType": "uint256",
                    "name": "tokenId",
                    "type": "uint256"
                }
            ],
            "name": "ownerOf",
            "outputs": [
                {
                    "internalType": "address",
                    "name": "",
                    "type": "address"
                }
            ],
            "stateMutability": "view",
            "type": "function"
        },
        {
            "inputs": [],
            "name": "renounceOwnership",
            "outputs": [],
            "stateMutability": "nonpayable",
            "type": "function"
        },
        {
            "inputs": [
                {
                    "internalType": "address",
                    "name": "from",
                    "type": "address"
                },
                {
                    "internalType": "address",
                    "name": "to",
                    "type": "address"
                },
                {
                    "internalType": "uint256",
                    "name": "tokenId",
                    "type": "uint256"
                }
            ],
            "name": "safeTransferFrom",
            "outputs": [],
            "stateMutability": "nonpayable",
            "type": "function"
        },
        {
            "inputs": [
                {
                    "internalType": "address",
                    "name": "from",
                    "type": "address"
                },
                {
                    "internalType": "address",
                    "name": "to",
                    "type": "address"
                },
                {
                    "internalType": "uint256",
                    "name": "tokenId",
                    "type": "uint256"
                },
                {
                    "internalType": "bytes",
                    "name": "_data",
                    "type": "bytes"
                }
            ],
            "name": "safeTransferFrom",
            "outputs": [],
            "stateMutability": "nonpayable",
            "type": "function"
        },
        {
            "inputs": [
                {
                    "internalType": "address",
                    "name": "operator",
                    "type": "address"
                },
                {
                    "internalType": "bool",
                    "name": "approved",
                    "type": "bool"
                }
            ],
            "name": "setApprovalForAll",
            "outputs": [],
            "stateMutability": "nonpayable",
            "type": "function"
        },
        {
            "inputs": [
                {
                    "internalType": "bytes4",
                    "name": "interfaceId",
                    "type": "bytes4"
                }
            ],
            "name": "supportsInterface",
            "outputs": [
                {
                    "internalType": "bool",
                    "name": "",
                    "type": "bool"
                }
            ],
            "stateMutability": "view",
            "type": "function"
        },
        {
            "inputs": [],
            "name": "symbol",
            "outputs": [
                {
                    "internalType": "string",
                    "name": "",
                    "type": "string"
                }
            ],
            "stateMutability": "view",
            "type": "function"
        },
        {
            "inputs": [],
            "name": "tax",
            "outputs": [
                {
                    "internalType": "uint8",
                    "name": "",
                    "type": "uint8"
                }
            ],
            "stateMutability": "view",
            "type": "function"
        },
        {
            "inputs": [
                {
                    "internalType": "uint256",
                    "name": "tokenId",
                    "type": "uint256"
                }
            ],
            "name": "tokenURI",
            "outputs": [
                {
                    "internalType": "string",
                    "name": "",
                    "type": "string"
                }
            ],
            "stateMutability": "view",
            "type": "function"
        },
        {
            "inputs": [
                {
                    "internalType": "address",
                    "name": "from",
                    "type": "address"
                },
                {
                    "internalType": "address",
                    "name": "to",
                    "type": "address"
                },
                {
                    "internalType": "uint256",
                    "name": "tokenId",
                    "type": "uint256"
                }
            ],
            "name": "transferFrom",
            "outputs": [],
            "stateMutability": "nonpayable",
            "type": "function"
        },
        {
            "inputs": [
                {
                    "internalType": "address",
                    "name": "newOwner",
                    "type": "address"
                }
            ],
            "name": "transferOwnership",
            "outputs": [],
            "stateMutability": "nonpayable",
            "type": "function"
        }
    ],
    "bytecode": "0x60806040526045600a60146101000a81548160ff021916908360ff1602179055503480156200002d57600080fd5b5060405162003f2c38038062003f2c833981810160405281019062000053919062000384565b6040518060400160405280600781526020017f4e7564654e4654000000000000000000000000000000000000000000000000008152506040518060400160405280600781526020017f4e5544454e4654000000000000000000000000000000000000000000000000008152508160009080519060200190620000d79291906200026a565b508060019080519060200190620000f09291906200026a565b50505062000113620001076200019c60201b60201c565b620001a460201b60201c565b80600b60006101000a81548173ffffffffffffffffffffffffffffffffffffffff021916908373ffffffffffffffffffffffffffffffffffffffff16021790555033600a60006101000a81548173ffffffffffffffffffffffffffffffffffffffff021916908373ffffffffffffffffffffffffffffffffffffffff160217905550506200041a565b600033905090565b6000600760009054906101000a900473ffffffffffffffffffffffffffffffffffffffff16905081600760006101000a81548173ffffffffffffffffffffffffffffffffffffffff021916908373ffffffffffffffffffffffffffffffffffffffff1602179055508173ffffffffffffffffffffffffffffffffffffffff168173ffffffffffffffffffffffffffffffffffffffff167f8be0079c531659141344cd1fd0a4f28419497f9722a3daafe3b4186f6b6457e060405160405180910390a35050565b8280546200027890620003e5565b90600052602060002090601f0160209004810192826200029c5760008555620002e8565b82601f10620002b757805160ff1916838001178555620002e8565b82800160010185558215620002e8579182015b82811115620002e7578251825591602001919060010190620002ca565b5b509050620002f79190620002fb565b5090565b5b8082111562000316576000816000905550600101620002fc565b5090565b600080fd5b600073ffffffffffffffffffffffffffffffffffffffff82169050919050565b60006200034c826200031f565b9050919050565b6200035e816200033f565b81146200036a57600080fd5b50565b6000815190506200037e8162000353565b92915050565b6000602082840312156200039d576200039c6200031a565b5b6000620003ad848285016200036d565b91505092915050565b7f4e487b7100000000000000000000000000000000000000000000000000000000600052602260045260246000fd5b60006002820490506001821680620003fe57607f821691505b602082108103620004145762000413620003b6565b5b50919050565b613b02806200042a6000396000f3fe60806040526004361061012a5760003560e01c8063715018a6116100ab578063a22cb4651161006f578063a22cb465146103e3578063b88d4fde1461040c578063c87b56dd14610435578063e757223014610472578063e985e9c5146104af578063f2fde38b146104ec5761012a565b8063715018a61461032257806379610b43146103395780638da5cb5b1461036257806395d89b411461038d57806399c8d556146103b85761012a565b806323b872dd116100f257806323b872dd1461023a57806342842e0e1461026357806351ed82881461028c5780636352211e146102a857806370a08231146102e55761012a565b806301ffc9a71461012f57806306fdde031461016c578063081812fc1461019757806308598df0146101d4578063095ea7b314610211575b600080fd5b34801561013b57600080fd5b506101566004803603810190610151919061235f565b610515565b60405161016391906123a7565b60405180910390f35b34801561017857600080fd5b506101816105f7565b60405161018e919061245b565b60405180910390f35b3480156101a357600080fd5b506101be60048036038101906101b991906124b3565b610689565b6040516101cb9190612521565b60405180910390f35b3480156101e057600080fd5b506101fb60048036038101906101f6919061269d565b61070e565b604051610208919061271b565b60405180910390f35b34801561021d57600080fd5b5061023860048036038101906102339190612736565b6107de565b005b34801561024657600080fd5b50610261600480360381019061025c9190612776565b6108f5565b005b34801561026f57600080fd5b5061028a60048036038101906102859190612776565b610955565b005b6102a660048036038101906102a191906124b3565b610975565b005b3480156102b457600080fd5b506102cf60048036038101906102ca91906124b3565b610b2a565b6040516102dc9190612521565b60405180910390f35b3480156102f157600080fd5b5061030c600480360381019061030791906127c9565b610bdb565b604051610319919061271b565b60405180910390f35b34801561032e57600080fd5b50610337610c92565b005b34801561034557600080fd5b50610360600480360381019061035b91906124b3565b610d1a565b005b34801561036e57600080fd5b50610377610f84565b6040516103849190612521565b60405180910390f35b34801561039957600080fd5b506103a2610fae565b6040516103af919061245b565b60405180910390f35b3480156103c457600080fd5b506103cd611040565b6040516103da9190612812565b60405180910390f35b3480156103ef57600080fd5b5061040a60048036038101906104059190612859565b611053565b005b34801561041857600080fd5b50610433600480360381019061042e919061293a565b611069565b005b34801561044157600080fd5b5061045c600480360381019061045791906124b3565b6110cb565b604051610469919061245b565b60405180910390f35b34801561047e57600080fd5b50610499600480360381019061049491906124b3565b6110dd565b6040516104a6919061271b565b60405180910390f35b3480156104bb57600080fd5b506104d660048036038101906104d191906129bd565b61114f565b6040516104e391906123a7565b60405180910390f35b3480156104f857600080fd5b50610513600480360381019061050e91906127c9565b6111e3565b005b60007f80ac58cd000000000000000000000000000000000000000000000000000000007bffffffffffffffffffffffffffffffffffffffffffffffffffffffff1916827bffffffffffffffffffffffffffffffffffffffffffffffffffffffff191614806105e057507f5b5e139f000000000000000000000000000000000000000000000000000000007bffffffffffffffffffffffffffffffffffffffffffffffffffffffff1916827bffffffffffffffffffffffffffffffffffffffffffffffffffffffff1916145b806105f057506105ef826112da565b5b9050919050565b60606000805461060690612a2c565b80601f016020809104026020016040519081016040528092919081815260200182805461063290612a2c565b801561067f5780601f106106545761010080835404028352916020019161067f565b820191906000526020600020905b81548152906001019060200180831161066257829003601f168201915b5050505050905090565b600061069482611344565b6106d3576040517f08c379a00000000000000000000000000000000000000000000000000000000081526004016106ca90612acf565b60405180910390fd5b6004600083815260200190815260200160002060009054906101000a900473ffffffffffffffffffffffffffffffffffffffff169050919050565b6000808211610752576040517f08c379a000000000000000000000000000000000000000000000000000000000815260040161074990612b3b565b60405180910390fd5b61075c60086113b0565b600061076860086113c6565b905061077485826113d4565b61077e81856113f2565b8260096000838152602001908152602001600020819055507f3fead86277f7a7b9bd5a10401873b6a897c726b075cb36a531f20985fcc898f2858286866040516107cb9493929190612b5b565b60405180910390a1809150509392505050565b60006107e982610b2a565b90508073ffffffffffffffffffffffffffffffffffffffff168373ffffffffffffffffffffffffffffffffffffffff1603610859576040517f08c379a000000000000000000000000000000000000000000000000000000000815260040161085090612c19565b60405180910390fd5b8073ffffffffffffffffffffffffffffffffffffffff16610878611466565b73ffffffffffffffffffffffffffffffffffffffff1614806108a757506108a6816108a1611466565b61114f565b5b6108e6576040517f08c379a00000000000000000000000000000000000000000000000000000000081526004016108dd90612cab565b60405180910390fd5b6108f0838361146e565b505050565b610906610900611466565b82611527565b610945576040517f08c379a000000000000000000000000000000000000000000000000000000000815260040161093c90612d3d565b60405180910390fd5b610950838383611605565b505050565b61097083838360405180602001604052806000815250611069565b505050565b60096000828152602001908152602001600020543410156109cb576040517f08c379a00000000000000000000000000000000000000000000000000000000081526004016109c290612da9565b60405180910390fd5b6109d481610b2a565b73ffffffffffffffffffffffffffffffffffffffff163373ffffffffffffffffffffffffffffffffffffffff1603610a41576040517f08c379a0000000000000000000000000000000000000000000000000000000008152600401610a3890612e15565b60405180910390fd5b6000610a4c82610b2a565b9050610a61610a5a83610b2a565b3384610955565b610a6a82610b2a565b73ffffffffffffffffffffffffffffffffffffffff166108fc6103e8600a60149054906101000a900460ff1660ff16610aa39190612ea1565b61ffff1634610ab29190612ed2565b34610abd9190612f2c565b9081150290604051600060405180830381858888f19350505050158015610ae8573d6000803e3d6000fd5b507f8fbb312813b34e3ab8dadf410f0cfe0d221cb7dff6eb3def72f03dee5bef7d9082338334604051610b1e9493929190612f60565b60405180910390a15050565b6000806002600084815260200190815260200160002060009054906101000a900473ffffffffffffffffffffffffffffffffffffffff169050600073ffffffffffffffffffffffffffffffffffffffff168173ffffffffffffffffffffffffffffffffffffffff1603610bd2576040517f08c379a0000000000000000000000000000000000000000000000000000000008152600401610bc990613017565b60405180910390fd5b80915050919050565b60008073ffffffffffffffffffffffffffffffffffffffff168273ffffffffffffffffffffffffffffffffffffffff1603610c4b576040517f08c379a0000000000000000000000000000000000000000000000000000000008152600401610c42906130a9565b60405180910390fd5b600360008373ffffffffffffffffffffffffffffffffffffffff1673ffffffffffffffffffffffffffffffffffffffff168152602001908152602001600020549050919050565b610c9a611466565b73ffffffffffffffffffffffffffffffffffffffff16610cb8610f84565b73ffffffffffffffffffffffffffffffffffffffff1614610d0e576040517f08c379a0000000000000000000000000000000000000000000000000000000008152600401610d0590613115565b60405180910390fd5b610d18600061186b565b565b610d2381610b2a565b73ffffffffffffffffffffffffffffffffffffffff163373ffffffffffffffffffffffffffffffffffffffff1603610d90576040517f08c379a0000000000000000000000000000000000000000000000000000000008152600401610d8790612e15565b60405180910390fd5b6009600082815260200190815260200160002054600b60009054906101000a900473ffffffffffffffffffffffffffffffffffffffff1673ffffffffffffffffffffffffffffffffffffffff166370a08231336040518263ffffffff1660e01b8152600401610dff9190612521565b602060405180830381865afa158015610e1c573d6000803e3d6000fd5b505050506040513d601f19601f82011682018060405250810190610e40919061314a565b1015610e81576040517f08c379a0000000000000000000000000000000000000000000000000000000008152600401610e78906131c3565b60405180910390fd5b6000610e8c82610b2a565b9050600060096000848152602001908152602001600020549050600b60009054906101000a900473ffffffffffffffffffffffffffffffffffffffff1673ffffffffffffffffffffffffffffffffffffffff1663a64b6e5f3384846040518463ffffffff1660e01b8152600401610f05939291906131e3565b600060405180830381600087803b158015610f1f57600080fd5b505af1158015610f33573d6000803e3d6000fd5b50505050610f42823385610955565b7f8773e845e2b8a76d512a219d11dd5f511d7d16f2a15ff08bc3ceb4c250ae3eea83338484604051610f779493929190612f60565b60405180910390a1505050565b6000600760009054906101000a900473ffffffffffffffffffffffffffffffffffffffff16905090565b606060018054610fbd90612a2c565b80601f0160208091040260200160405190810160405280929190818152602001828054610fe990612a2c565b80156110365780601f1061100b57610100808354040283529160200191611036565b820191906000526020600020905b81548152906001019060200180831161101957829003601f168201915b5050505050905090565b600a60149054906101000a900460ff1681565b61106561105e611466565b8383611931565b5050565b61107a611074611466565b83611527565b6110b9576040517f08c379a00000000000000000000000000000000000000000000000000000000081526004016110b090612d3d565b60405180910390fd5b6110c584848484611a9d565b50505050565b60606110d682611af9565b9050919050565b600080600960008481526020019081526020016000205403611134576040517f08c379a000000000000000000000000000000000000000000000000000000000815260040161112b90613266565b60405180910390fd5b60096000838152602001908152602001600020549050919050565b6000600560008473ffffffffffffffffffffffffffffffffffffffff1673ffffffffffffffffffffffffffffffffffffffff16815260200190815260200160002060008373ffffffffffffffffffffffffffffffffffffffff1673ffffffffffffffffffffffffffffffffffffffff16815260200190815260200160002060009054906101000a900460ff16905092915050565b6111eb611466565b73ffffffffffffffffffffffffffffffffffffffff16611209610f84565b73ffffffffffffffffffffffffffffffffffffffff161461125f576040517f08c379a000000000000000000000000000000000000000000000000000000000815260040161125690613115565b60405180910390fd5b600073ffffffffffffffffffffffffffffffffffffffff168173ffffffffffffffffffffffffffffffffffffffff16036112ce576040517f08c379a00000000000000000000000000000000000000000000000000000000081526004016112c5906132f8565b60405180910390fd5b6112d78161186b565b50565b60007f01ffc9a7000000000000000000000000000000000000000000000000000000007bffffffffffffffffffffffffffffffffffffffffffffffffffffffff1916827bffffffffffffffffffffffffffffffffffffffffffffffffffffffff1916149050919050565b60008073ffffffffffffffffffffffffffffffffffffffff166002600084815260200190815260200160002060009054906101000a900473ffffffffffffffffffffffffffffffffffffffff1673ffffffffffffffffffffffffffffffffffffffff1614159050919050565b6001816000016000828254019250508190555050565b600081600001549050919050565b6113ee828260405180602001604052806000815250611c4a565b5050565b6113fb82611344565b61143a576040517f08c379a00000000000000000000000000000000000000000000000000000000081526004016114319061338a565b60405180910390fd5b80600660008481526020019081526020016000209080519060200190611461929190612250565b505050565b600033905090565b816004600083815260200190815260200160002060006101000a81548173ffffffffffffffffffffffffffffffffffffffff021916908373ffffffffffffffffffffffffffffffffffffffff160217905550808273ffffffffffffffffffffffffffffffffffffffff166114e183610b2a565b73ffffffffffffffffffffffffffffffffffffffff167f8c5be1e5ebec7d5bd14f71427d1e84f3dd0314c0f7b2291e5b200ac8c7c3b92560405160405180910390a45050565b600061153282611344565b611571576040517f08c379a00000000000000000000000000000000000000000000000000000000081526004016115689061341c565b60405180910390fd5b600061157c83610b2a565b90508073ffffffffffffffffffffffffffffffffffffffff168473ffffffffffffffffffffffffffffffffffffffff1614806115be57506115bd818561114f565b5b806115fc57508373ffffffffffffffffffffffffffffffffffffffff166115e484610689565b73ffffffffffffffffffffffffffffffffffffffff16145b91505092915050565b8273ffffffffffffffffffffffffffffffffffffffff1661162582610b2a565b73ffffffffffffffffffffffffffffffffffffffff161461167b576040517f08c379a0000000000000000000000000000000000000000000000000000000008152600401611672906134ae565b60405180910390fd5b600073ffffffffffffffffffffffffffffffffffffffff168273ffffffffffffffffffffffffffffffffffffffff16036116ea576040517f08c379a00000000000000000000000000000000000000000000000000000000081526004016116e190613540565b60405180910390fd5b6116f5838383611ca5565b61170060008261146e565b6001600360008573ffffffffffffffffffffffffffffffffffffffff1673ffffffffffffffffffffffffffffffffffffffff16815260200190815260200160002060008282546117509190612f2c565b925050819055506001600360008473ffffffffffffffffffffffffffffffffffffffff1673ffffffffffffffffffffffffffffffffffffffff16815260200190815260200160002060008282546117a79190613560565b92505081905550816002600083815260200190815260200160002060006101000a81548173ffffffffffffffffffffffffffffffffffffffff021916908373ffffffffffffffffffffffffffffffffffffffff160217905550808273ffffffffffffffffffffffffffffffffffffffff168473ffffffffffffffffffffffffffffffffffffffff167fddf252ad1be2c89b69c2b068fc378daa952ba7f163c4a11628f55a4df523b3ef60405160405180910390a4611866838383611caa565b505050565b6000600760009054906101000a900473ffffffffffffffffffffffffffffffffffffffff16905081600760006101000a81548173ffffffffffffffffffffffffffffffffffffffff021916908373ffffffffffffffffffffffffffffffffffffffff1602179055508173ffffffffffffffffffffffffffffffffffffffff168173ffffffffffffffffffffffffffffffffffffffff167f8be0079c531659141344cd1fd0a4f28419497f9722a3daafe3b4186f6b6457e060405160405180910390a35050565b8173ffffffffffffffffffffffffffffffffffffffff168373ffffffffffffffffffffffffffffffffffffffff160361199f576040517f08c379a000000000000000000000000000000000000000000000000000000000815260040161199690613602565b60405180910390fd5b80600560008573ffffffffffffffffffffffffffffffffffffffff1673ffffffffffffffffffffffffffffffffffffffff16815260200190815260200160002060008473ffffffffffffffffffffffffffffffffffffffff1673ffffffffffffffffffffffffffffffffffffffff16815260200190815260200160002060006101000a81548160ff0219169083151502179055508173ffffffffffffffffffffffffffffffffffffffff168373ffffffffffffffffffffffffffffffffffffffff167f17307eab39ab6107e8899845ad3d59bd9653f200f220920489ca2b5937696c3183604051611a9091906123a7565b60405180910390a3505050565b611aa8848484611605565b611ab484848484611caf565b611af3576040517f08c379a0000000000000000000000000000000000000000000000000000000008152600401611aea90613694565b60405180910390fd5b50505050565b6060611b0482611344565b611b43576040517f08c379a0000000000000000000000000000000000000000000000000000000008152600401611b3a90613726565b60405180910390fd5b6000600660008481526020019081526020016000208054611b6390612a2c565b80601f0160208091040260200160405190810160405280929190818152602001828054611b8f90612a2c565b8015611bdc5780601f10611bb157610100808354040283529160200191611bdc565b820191906000526020600020905b815481529060010190602001808311611bbf57829003601f168201915b505050505090506000611bed611e36565b90506000815103611c02578192505050611c45565b600082511115611c37578082604051602001611c1f929190613782565b60405160208183030381529060405292505050611c45565b611c4084611e4d565b925050505b919050565b611c548383611ef4565b611c616000848484611caf565b611ca0576040517f08c379a0000000000000000000000000000000000000000000000000000000008152600401611c9790613694565b60405180910390fd5b505050565b505050565b505050565b6000611cd08473ffffffffffffffffffffffffffffffffffffffff166120cd565b15611e29578373ffffffffffffffffffffffffffffffffffffffff1663150b7a02611cf9611466565b8786866040518563ffffffff1660e01b8152600401611d1b94939291906137fb565b6020604051808303816000875af1925050508015611d5757506040513d601f19601f82011682018060405250810190611d54919061385c565b60015b611dd9573d8060008114611d87576040519150601f19603f3d011682016040523d82523d6000602084013e611d8c565b606091505b506000815103611dd1576040517f08c379a0000000000000000000000000000000000000000000000000000000008152600401611dc890613694565b60405180910390fd5b805181602001fd5b63150b7a0260e01b7bffffffffffffffffffffffffffffffffffffffffffffffffffffffff1916817bffffffffffffffffffffffffffffffffffffffffffffffffffffffff191614915050611e2e565b600190505b949350505050565b606060405180602001604052806000815250905090565b6060611e5882611344565b611e97576040517f08c379a0000000000000000000000000000000000000000000000000000000008152600401611e8e906138fb565b60405180910390fd5b6000611ea1611e36565b90506000815111611ec15760405180602001604052806000815250611eec565b80611ecb846120f0565b604051602001611edc929190613782565b6040516020818303038152906040525b915050919050565b600073ffffffffffffffffffffffffffffffffffffffff168273ffffffffffffffffffffffffffffffffffffffff1603611f63576040517f08c379a0000000000000000000000000000000000000000000000000000000008152600401611f5a90613967565b60405180910390fd5b611f6c81611344565b15611fac576040517f08c379a0000000000000000000000000000000000000000000000000000000008152600401611fa3906139d3565b60405180910390fd5b611fb860008383611ca5565b6001600360008473ffffffffffffffffffffffffffffffffffffffff1673ffffffffffffffffffffffffffffffffffffffff16815260200190815260200160002060008282546120089190613560565b92505081905550816002600083815260200190815260200160002060006101000a81548173ffffffffffffffffffffffffffffffffffffffff021916908373ffffffffffffffffffffffffffffffffffffffff160217905550808273ffffffffffffffffffffffffffffffffffffffff16600073ffffffffffffffffffffffffffffffffffffffff167fddf252ad1be2c89b69c2b068fc378daa952ba7f163c4a11628f55a4df523b3ef60405160405180910390a46120c960008383611caa565b5050565b6000808273ffffffffffffffffffffffffffffffffffffffff163b119050919050565b606060008203612137576040518060400160405280600181526020017f3000000000000000000000000000000000000000000000000000000000000000815250905061224b565b600082905060005b60008214612169578080612152906139f3565b915050600a826121629190613a3b565b915061213f565b60008167ffffffffffffffff81111561218557612184612572565b5b6040519080825280601f01601f1916602001820160405280156121b75781602001600182028036833780820191505090505b5090505b60008514612244576001826121d09190612f2c565b9150600a856121df9190613a6c565b60306121eb9190613560565b60f81b81838151811061220157612200613a9d565b5b60200101907effffffffffffffffffffffffffffffffffffffffffffffffffffffffffffff1916908160001a905350600a8561223d9190613a3b565b94506121bb565b8093505050505b919050565b82805461225c90612a2c565b90600052602060002090601f01602090048101928261227e57600085556122c5565b82601f1061229757805160ff19168380011785556122c5565b828001600101855582156122c5579182015b828111156122c45782518255916020019190600101906122a9565b5b5090506122d291906122d6565b5090565b5b808211156122ef5760008160009055506001016122d7565b5090565b6000604051905090565b600080fd5b600080fd5b60007fffffffff0000000000000000000000000000000000000000000000000000000082169050919050565b61233c81612307565b811461234757600080fd5b50565b60008135905061235981612333565b92915050565b600060208284031215612375576123746122fd565b5b60006123838482850161234a565b91505092915050565b60008115159050919050565b6123a18161238c565b82525050565b60006020820190506123bc6000830184612398565b92915050565b600081519050919050565b600082825260208201905092915050565b60005b838110156123fc5780820151818401526020810190506123e1565b8381111561240b576000848401525b50505050565b6000601f19601f8301169050919050565b600061242d826123c2565b61243781856123cd565b93506124478185602086016123de565b61245081612411565b840191505092915050565b600060208201905081810360008301526124758184612422565b905092915050565b6000819050919050565b6124908161247d565b811461249b57600080fd5b50565b6000813590506124ad81612487565b92915050565b6000602082840312156124c9576124c86122fd565b5b60006124d78482850161249e565b91505092915050565b600073ffffffffffffffffffffffffffffffffffffffff82169050919050565b600061250b826124e0565b9050919050565b61251b81612500565b82525050565b60006020820190506125366000830184612512565b92915050565b61254581612500565b811461255057600080fd5b50565b6000813590506125628161253c565b92915050565b600080fd5b600080fd5b7f4e487b7100000000000000000000000000000000000000000000000000000000600052604160045260246000fd5b6125aa82612411565b810181811067ffffffffffffffff821117156125c9576125c8612572565b5b80604052505050565b60006125dc6122f3565b90506125e882826125a1565b919050565b600067ffffffffffffffff82111561260857612607612572565b5b61261182612411565b9050602081019050919050565b82818337600083830152505050565b600061264061263b846125ed565b6125d2565b90508281526020810184848401111561265c5761265b61256d565b5b61266784828561261e565b509392505050565b600082601f83011261268457612683612568565b5b813561269484826020860161262d565b91505092915050565b6000806000606084860312156126b6576126b56122fd565b5b60006126c486828701612553565b935050602084013567ffffffffffffffff8111156126e5576126e4612302565b5b6126f18682870161266f565b92505060406127028682870161249e565b9150509250925092565b6127158161247d565b82525050565b6000602082019050612730600083018461270c565b92915050565b6000806040838503121561274d5761274c6122fd565b5b600061275b85828601612553565b925050602061276c8582860161249e565b9150509250929050565b60008060006060848603121561278f5761278e6122fd565b5b600061279d86828701612553565b93505060206127ae86828701612553565b92505060406127bf8682870161249e565b9150509250925092565b6000602082840312156127df576127de6122fd565b5b60006127ed84828501612553565b91505092915050565b600060ff82169050919050565b61280c816127f6565b82525050565b60006020820190506128276000830184612803565b92915050565b6128368161238c565b811461284157600080fd5b50565b6000813590506128538161282d565b92915050565b600080604083850312156128705761286f6122fd565b5b600061287e85828601612553565b925050602061288f85828601612844565b9150509250929050565b600067ffffffffffffffff8211156128b4576128b3612572565b5b6128bd82612411565b9050602081019050919050565b60006128dd6128d884612899565b6125d2565b9050828152602081018484840111156128f9576128f861256d565b5b61290484828561261e565b509392505050565b600082601f83011261292157612920612568565b5b81356129318482602086016128ca565b91505092915050565b60008060008060808587031215612954576129536122fd565b5b600061296287828801612553565b945050602061297387828801612553565b93505060406129848782880161249e565b925050606085013567ffffffffffffffff8111156129a5576129a4612302565b5b6129b18782880161290c565b91505092959194509250565b600080604083850312156129d4576129d36122fd565b5b60006129e285828601612553565b92505060206129f385828601612553565b9150509250929050565b7f4e487b7100000000000000000000000000000000000000000000000000000000600052602260045260246000fd5b60006002820490506001821680612a4457607f821691505b602082108103612a5757612a566129fd565b5b50919050565b7f4552433732313a20617070726f76656420717565727920666f72206e6f6e657860008201527f697374656e7420746f6b656e0000000000000000000000000000000000000000602082015250565b6000612ab9602c836123cd565b9150612ac482612a5d565b604082019050919050565b60006020820190508181036000830152612ae881612aac565b9050919050565b7f5072696365206d7573742062652067726561746572207468616e203000000000600082015250565b6000612b25601c836123cd565b9150612b3082612aef565b602082019050919050565b60006020820190508181036000830152612b5481612b18565b9050919050565b6000608082019050612b706000830187612512565b612b7d602083018661270c565b8181036040830152612b8f8185612422565b9050612b9e606083018461270c565b95945050505050565b7f4552433732313a20617070726f76616c20746f2063757272656e74206f776e6560008201527f7200000000000000000000000000000000000000000000000000000000000000602082015250565b6000612c036021836123cd565b9150612c0e82612ba7565b604082019050919050565b60006020820190508181036000830152612c3281612bf6565b9050919050565b7f4552433732313a20617070726f76652063616c6c6572206973206e6f74206f7760008201527f6e6572206e6f7220617070726f76656420666f7220616c6c0000000000000000602082015250565b6000612c956038836123cd565b9150612ca082612c39565b604082019050919050565b60006020820190508181036000830152612cc481612c88565b9050919050565b7f4552433732313a207472616e736665722063616c6c6572206973206e6f74206f60008201527f776e6572206e6f7220617070726f766564000000000000000000000000000000602082015250565b6000612d276031836123cd565b9150612d3282612ccb565b604082019050919050565b60006020820190508181036000830152612d5681612d1a565b9050919050565b7f496e73756666696369656e74206777656920666f722070757263686173650000600082015250565b6000612d93601e836123cd565b9150612d9e82612d5d565b602082019050919050565b60006020820190508181036000830152612dc281612d86565b9050919050565b7f596f752063616e6e6f742062757920796f7572206f776e204e46540000000000600082015250565b6000612dff601b836123cd565b9150612e0a82612dc9565b602082019050919050565b60006020820190508181036000830152612e2e81612df2565b9050919050565b600061ffff82169050919050565b7f4e487b7100000000000000000000000000000000000000000000000000000000600052601260045260246000fd5b7f4e487b7100000000000000000000000000000000000000000000000000000000600052601160045260246000fd5b6000612eac82612e35565b9150612eb783612e35565b925082612ec757612ec6612e43565b5b828204905092915050565b6000612edd8261247d565b9150612ee88361247d565b9250817fffffffffffffffffffffffffffffffffffffffffffffffffffffffffffffffff0483118215151615612f2157612f20612e72565b5b828202905092915050565b6000612f378261247d565b9150612f428361247d565b925082821015612f5557612f54612e72565b5b828203905092915050565b6000608082019050612f75600083018761270c565b612f826020830186612512565b612f8f6040830185612512565b612f9c606083018461270c565b95945050505050565b7f4552433732313a206f776e657220717565727920666f72206e6f6e657869737460008201527f656e7420746f6b656e0000000000000000000000000000000000000000000000602082015250565b60006130016029836123cd565b915061300c82612fa5565b604082019050919050565b6000602082019050818103600083015261303081612ff4565b9050919050565b7f4552433732313a2062616c616e636520717565727920666f7220746865207a6560008201527f726f206164647265737300000000000000000000000000000000000000000000602082015250565b6000613093602a836123cd565b915061309e82613037565b604082019050919050565b600060208201905081810360008301526130c281613086565b9050919050565b7f4f776e61626c653a2063616c6c6572206973206e6f7420746865206f776e6572600082015250565b60006130ff6020836123cd565b915061310a826130c9565b602082019050919050565b6000602082019050818103600083015261312e816130f2565b9050919050565b60008151905061314481612487565b92915050565b6000602082840312156131605761315f6122fd565b5b600061316e84828501613135565b91505092915050565b7f496e73756666696369656e74204e55444520666f722070757263686173650000600082015250565b60006131ad601e836123cd565b91506131b882613177565b602082019050919050565b600060208201905081810360008301526131dc816131a0565b9050919050565b60006060820190506131f86000830186612512565b6132056020830185612512565b613212604083018461270c565b949350505050565b7f546f6b656e20707269636520646f6573206e6f74206578697374000000000000600082015250565b6000613250601a836123cd565b915061325b8261321a565b602082019050919050565b6000602082019050818103600083015261327f81613243565b9050919050565b7f4f776e61626c653a206e6577206f776e657220697320746865207a65726f206160008201527f6464726573730000000000000000000000000000000000000000000000000000602082015250565b60006132e26026836123cd565b91506132ed82613286565b604082019050919050565b60006020820190508181036000830152613311816132d5565b9050919050565b7f45524337323155524953746f726167653a2055524920736574206f66206e6f6e60008201527f6578697374656e7420746f6b656e000000000000000000000000000000000000602082015250565b6000613374602e836123cd565b915061337f82613318565b604082019050919050565b600060208201905081810360008301526133a381613367565b9050919050565b7f4552433732313a206f70657261746f7220717565727920666f72206e6f6e657860008201527f697374656e7420746f6b656e0000000000000000000000000000000000000000602082015250565b6000613406602c836123cd565b9150613411826133aa565b604082019050919050565b60006020820190508181036000830152613435816133f9565b9050919050565b7f4552433732313a207472616e736665722066726f6d20696e636f72726563742060008201527f6f776e6572000000000000000000000000000000000000000000000000000000602082015250565b60006134986025836123cd565b91506134a38261343c565b604082019050919050565b600060208201905081810360008301526134c78161348b565b9050919050565b7f4552433732313a207472616e7366657220746f20746865207a65726f2061646460008201527f7265737300000000000000000000000000000000000000000000000000000000602082015250565b600061352a6024836123cd565b9150613535826134ce565b604082019050919050565b600060208201905081810360008301526135598161351d565b9050919050565b600061356b8261247d565b91506135768361247d565b9250827fffffffffffffffffffffffffffffffffffffffffffffffffffffffffffffffff038211156135ab576135aa612e72565b5b828201905092915050565b7f4552433732313a20617070726f766520746f2063616c6c657200000000000000600082015250565b60006135ec6019836123cd565b91506135f7826135b6565b602082019050919050565b6000602082019050818103600083015261361b816135df565b9050919050565b7f4552433732313a207472616e7366657220746f206e6f6e20455243373231526560008201527f63656976657220696d706c656d656e7465720000000000000000000000000000602082015250565b600061367e6032836123cd565b915061368982613622565b604082019050919050565b600060208201905081810360008301526136ad81613671565b9050919050565b7f45524337323155524953746f726167653a2055524920717565727920666f722060008201527f6e6f6e6578697374656e7420746f6b656e000000000000000000000000000000602082015250565b60006137106031836123cd565b915061371b826136b4565b604082019050919050565b6000602082019050818103600083015261373f81613703565b9050919050565b600081905092915050565b600061375c826123c2565b6137668185613746565b93506137768185602086016123de565b80840191505092915050565b600061378e8285613751565b915061379a8284613751565b91508190509392505050565b600081519050919050565b600082825260208201905092915050565b60006137cd826137a6565b6137d781856137b1565b93506137e78185602086016123de565b6137f081612411565b840191505092915050565b60006080820190506138106000830187612512565b61381d6020830186612512565b61382a604083018561270c565b818103606083015261383c81846137c2565b905095945050505050565b60008151905061385681612333565b92915050565b600060208284031215613872576138716122fd565b5b600061388084828501613847565b91505092915050565b7f4552433732314d657461646174613a2055524920717565727920666f72206e6f60008201527f6e6578697374656e7420746f6b656e0000000000000000000000000000000000602082015250565b60006138e5602f836123cd565b91506138f082613889565b604082019050919050565b60006020820190508181036000830152613914816138d8565b9050919050565b7f4552433732313a206d696e7420746f20746865207a65726f2061646472657373600082015250565b60006139516020836123cd565b915061395c8261391b565b602082019050919050565b6000602082019050818103600083015261398081613944565b9050919050565b7f4552433732313a20746f6b656e20616c7265616479206d696e74656400000000600082015250565b60006139bd601c836123cd565b91506139c882613987565b602082019050919050565b600060208201905081810360008301526139ec816139b0565b9050919050565b60006139fe8261247d565b91507fffffffffffffffffffffffffffffffffffffffffffffffffffffffffffffffff8203613a3057613a2f612e72565b5b600182019050919050565b6000613a468261247d565b9150613a518361247d565b925082613a6157613a60612e43565b5b828204905092915050565b6000613a778261247d565b9150613a828361247d565b925082613a9257613a91612e43565b5b828206905092915050565b7f4e487b7100000000000000000000000000000000000000000000000000000000600052603260045260246000fdfea2646970667358221220cdbe1215bc578744d0c02cf37d8af4b11dc6bb8782c0582509694745b6a4d52364736f6c634300080e0033",
    "linkReferences": {},
    "deployedLinkReferences": {}
}