{
  "_format": "hh-sol-artifact-1",
  "contractName": "Nude",
  "sourceName": "contracts/Nude.sol",
  "abi": [
    {
      "inputs": [],
      "stateMutability": "nonpayable",
      "type": "constructor"
    },
    {
      "anonymous": false,
      "inputs": [
        {
          "indexed": true,
          "internalType": "address",
          "name": "owner",
          "type": "address"
        },
        {
          "indexed": true,
          "internalType": "address",
          "name": "spender",
          "type": "address"
        },
        {
          "indexed": false,
          "internalType": "uint256",
          "name": "value",
          "type": "uint256"
        }
      ],
      "name": "Approval",
      "type": "event"
    },
    {
      "anonymous": false,
      "inputs": [
        {
          "indexed": true,
          "internalType": "address",
          "name": "previousOwner",
          "type": "address"
        },
        {
          "indexed": true,
          "internalType": "address",
          "name": "newOwner",
          "type": "address"
        }
      ],
      "name": "OwnershipTransferred",
      "type": "event"
    },
    {
      "anonymous": false,
      "inputs": [
        {
          "indexed": false,
          "internalType": "address",
          "name": "_buyer",
          "type": "address"
        },
        {
          "indexed": false,
          "internalType": "uint256",
          "name": "_amount",
          "type": "uint256"
        }
      ],
      "name": "Sell",
      "type": "event"
    },
    {
      "anonymous": false,
      "inputs": [
        {
          "indexed": true,
          "internalType": "address",
          "name": "from",
          "type": "address"
        },
        {
          "indexed": true,
          "internalType": "address",
          "name": "to",
          "type": "address"
        },
        {
          "indexed": false,
          "internalType": "uint256",
          "name": "value",
          "type": "uint256"
        }
      ],
      "name": "Transfer",
      "type": "event"
    },
    {
      "inputs": [
        {
          "internalType": "address",
          "name": "owner",
          "type": "address"
        },
        {
          "internalType": "address",
          "name": "spender",
          "type": "address"
        }
      ],
      "name": "allowance",
      "outputs": [
        {
          "internalType": "uint256",
          "name": "",
          "type": "uint256"
        }
      ],
      "stateMutability": "view",
      "type": "function"
    },
    {
      "inputs": [
        {
          "internalType": "address",
          "name": "spender",
          "type": "address"
        },
        {
          "internalType": "uint256",
          "name": "amount",
          "type": "uint256"
        }
      ],
      "name": "approve",
      "outputs": [
        {
          "internalType": "bool",
          "name": "",
          "type": "bool"
        }
      ],
      "stateMutability": "nonpayable",
      "type": "function"
    },
    {
      "inputs": [
        {
          "internalType": "uint256",
          "name": "tokenId",
          "type": "uint256"
        }
      ],
      "name": "approveAndBuyNFT",
      "outputs": [],
      "stateMutability": "nonpayable",
      "type": "function"
    },
    {
      "inputs": [
        {
          "internalType": "address",
          "name": "account",
          "type": "address"
        }
      ],
      "name": "balanceOf",
      "outputs": [
        {
          "internalType": "uint256",
          "name": "",
          "type": "uint256"
        }
      ],
      "stateMutability": "view",
      "type": "function"
    },
    {
      "inputs": [
        {
          "internalType": "uint256",
          "name": "_numberOfTokens",
          "type": "uint256"
        }
      ],
      "name": "buyTokens",
      "outputs": [],
      "stateMutability": "payable",
      "type": "function"
    },
    {
      "inputs": [],
      "name": "decimals",
      "outputs": [
        {
          "internalType": "uint8",
          "name": "",
          "type": "uint8"
        }
      ],
      "stateMutability": "view",
      "type": "function"
    },
    {
      "inputs": [
        {
          "internalType": "address",
          "name": "spender",
          "type": "address"
        },
        {
          "internalType": "uint256",
          "name": "subtractedValue",
          "type": "uint256"
        }
      ],
      "name": "decreaseAllowance",
      "outputs": [
        {
          "internalType": "bool",
          "name": "",
          "type": "bool"
        }
      ],
      "stateMutability": "nonpayable",
      "type": "function"
    },
    {
      "inputs": [
        {
          "internalType": "address",
          "name": "spender",
          "type": "address"
        },
        {
          "internalType": "uint256",
          "name": "addedValue",
          "type": "uint256"
        }
      ],
      "name": "increaseAllowance",
      "outputs": [
        {
          "internalType": "bool",
          "name": "",
          "type": "bool"
        }
      ],
      "stateMutability": "nonpayable",
      "type": "function"
    },
    {
      "inputs": [],
      "name": "initialSupply",
      "outputs": [
        {
          "internalType": "uint256",
          "name": "",
          "type": "uint256"
        }
      ],
      "stateMutability": "view",
      "type": "function"
    },
    {
      "inputs": [],
      "name": "name",
      "outputs": [
        {
          "internalType": "string",
          "name": "",
          "type": "string"
        }
      ],
      "stateMutability": "view",
      "type": "function"
    },
    {
      "inputs": [],
      "name": "owner",
      "outputs": [
        {
          "internalType": "address",
          "name": "",
          "type": "address"
        }
      ],
      "stateMutability": "view",
      "type": "function"
    },
    {
      "inputs": [],
      "name": "renounceOwnership",
      "outputs": [],
      "stateMutability": "nonpayable",
      "type": "function"
    },
    {
      "inputs": [
        {
          "internalType": "address",
          "name": "dexAddress",
          "type": "address"
        }
      ],
      "name": "setNudeDex",
      "outputs": [],
      "stateMutability": "nonpayable",
      "type": "function"
    },
    {
      "inputs": [],
      "name": "symbol",
      "outputs": [
        {
          "internalType": "string",
          "name": "",
          "type": "string"
        }
      ],
      "stateMutability": "view",
      "type": "function"
    },
    {
      "inputs": [],
      "name": "tax",
      "outputs": [
        {
          "internalType": "uint8",
          "name": "",
          "type": "uint8"
        }
      ],
      "stateMutability": "view",
      "type": "function"
    },
    {
      "inputs": [],
      "name": "tokenRate",
      "outputs": [
        {
          "internalType": "uint256",
          "name": "",
          "type": "uint256"
        }
      ],
      "stateMutability": "view",
      "type": "function"
    },
    {
      "inputs": [],
      "name": "tokensSold",
      "outputs": [
        {
          "internalType": "uint256",
          "name": "",
          "type": "uint256"
        }
      ],
      "stateMutability": "view",
      "type": "function"
    },
    {
      "inputs": [],
      "name": "totalSupply",
      "outputs": [
        {
          "internalType": "uint256",
          "name": "",
          "type": "uint256"
        }
      ],
      "stateMutability": "view",
      "type": "function"
    },
    {
      "inputs": [
        {
          "internalType": "address",
          "name": "to",
          "type": "address"
        },
        {
          "internalType": "uint256",
          "name": "amount",
          "type": "uint256"
        }
      ],
      "name": "transfer",
      "outputs": [
        {
          "internalType": "bool",
          "name": "",
          "type": "bool"
        }
      ],
      "stateMutability": "nonpayable",
      "type": "function"
    },
    {
      "inputs": [
        {
          "internalType": "address",
          "name": "from",
          "type": "address"
        },
        {
          "internalType": "address",
          "name": "to",
          "type": "address"
        },
        {
          "internalType": "uint256",
          "name": "amount",
          "type": "uint256"
        }
      ],
      "name": "transferFrom",
      "outputs": [
        {
          "internalType": "bool",
          "name": "",
          "type": "bool"
        }
      ],
      "stateMutability": "nonpayable",
      "type": "function"
    },
    {
      "inputs": [
        {
          "internalType": "address",
          "name": "newOwner",
          "type": "address"
        }
      ],
      "name": "transferOwnership",
      "outputs": [],
      "stateMutability": "nonpayable",
      "type": "function"
    },
    {
      "inputs": [
        {
          "internalType": "address",
          "name": "from",
          "type": "address"
        },
        {
          "internalType": "address",
          "name": "to",
          "type": "address"
        },
        {
          "internalType": "uint256",
          "name": "amount",
          "type": "uint256"
        }
      ],
      "name": "transferTokens",
      "outputs": [],
      "stateMutability": "nonpayable",
      "type": "function"
    }
  ],
  "bytecode": "0x60806040526304277dc9600655600a600855600a600960146101000a81548160ff021916908360ff1602179055503480156200003a57600080fd5b506040518060400160405280600481526020017f4e756465000000000000000000000000000000000000000000000000000000008152506040518060400160405280600481526020017f4e554445000000000000000000000000000000000000000000000000000000008152508160039080519060200190620000bf92919062000398565b508060049080519060200190620000d892919062000398565b505050620000fb620000ef6200013f60201b60201c565b6200014760201b60201c565b6200013933620001106200020d60201b60201c565b600a6200011e9190620005e2565b6006546200012d919062000633565b6200021660201b60201c565b62000806565b600033905090565b6000600560009054906101000a900473ffffffffffffffffffffffffffffffffffffffff16905081600560006101000a81548173ffffffffffffffffffffffffffffffffffffffff021916908373ffffffffffffffffffffffffffffffffffffffff1602179055508173ffffffffffffffffffffffffffffffffffffffff168173ffffffffffffffffffffffffffffffffffffffff167f8be0079c531659141344cd1fd0a4f28419497f9722a3daafe3b4186f6b6457e060405160405180910390a35050565b60006012905090565b600073ffffffffffffffffffffffffffffffffffffffff168273ffffffffffffffffffffffffffffffffffffffff160362000288576040517f08c379a00000000000000000000000000000000000000000000000000000000081526004016200027f90620006f5565b60405180910390fd5b6200029c600083836200038e60201b60201c565b8060026000828254620002b0919062000717565b92505081905550806000808473ffffffffffffffffffffffffffffffffffffffff1673ffffffffffffffffffffffffffffffffffffffff168152602001908152602001600020600082825462000307919062000717565b925050819055508173ffffffffffffffffffffffffffffffffffffffff16600073ffffffffffffffffffffffffffffffffffffffff167fddf252ad1be2c89b69c2b068fc378daa952ba7f163c4a11628f55a4df523b3ef836040516200036e919062000785565b60405180910390a36200038a600083836200039360201b60201c565b5050565b505050565b505050565b828054620003a690620007d1565b90600052602060002090601f016020900481019282620003ca576000855562000416565b82601f10620003e557805160ff191683800117855562000416565b8280016001018555821562000416579182015b8281111562000415578251825591602001919060010190620003f8565b5b50905062000425919062000429565b5090565b5b80821115620004445760008160009055506001016200042a565b5090565b7f4e487b7100000000000000000000000000000000000000000000000000000000600052601160045260246000fd5b60008160011c9050919050565b6000808291508390505b6001851115620004d657808604811115620004ae57620004ad62000448565b5b6001851615620004be5780820291505b8081029050620004ce8562000477565b94506200048e565b94509492505050565b600082620004f15760019050620005c4565b81620005015760009050620005c4565b81600181146200051a576002811462000525576200055b565b6001915050620005c4565b60ff8411156200053a576200053962000448565b5b8360020a91508482111562000554576200055362000448565b5b50620005c4565b5060208310610133831016604e8410600b8410161715620005955782820a9050838111156200058f576200058e62000448565b5b620005c4565b620005a4848484600162000484565b92509050818404811115620005be57620005bd62000448565b5b81810290505b9392505050565b6000819050919050565b600060ff82169050919050565b6000620005ef82620005cb565b9150620005fc83620005d5565b92506200062b7fffffffffffffffffffffffffffffffffffffffffffffffffffffffffffffffff8484620004df565b905092915050565b60006200064082620005cb565b91506200064d83620005cb565b9250817fffffffffffffffffffffffffffffffffffffffffffffffffffffffffffffffff048311821515161562000689576200068862000448565b5b828202905092915050565b600082825260208201905092915050565b7f45524332303a206d696e7420746f20746865207a65726f206164647265737300600082015250565b6000620006dd601f8362000694565b9150620006ea82620006a5565b602082019050919050565b600060208201905081810360008301526200071081620006ce565b9050919050565b60006200072482620005cb565b91506200073183620005cb565b9250827fffffffffffffffffffffffffffffffffffffffffffffffffffffffffffffffff0382111562000769576200076862000448565b5b828201905092915050565b6200077f81620005cb565b82525050565b60006020820190506200079c600083018462000774565b92915050565b7f4e487b7100000000000000000000000000000000000000000000000000000000600052602260045260246000fd5b60006002820490506001821680620007ea57607f821691505b6020821081036200080057620007ff620007a2565b5b50919050565b6120c680620008166000396000f3fe6080604052600436106101355760003560e01c806370a08231116100ab578063a457c2d71161006f578063a457c2d71461040d578063a64b6e5f1461044a578063a9059cbb14610473578063dd62ed3e146104b0578063e8e42475146104ed578063f2fde38b1461051657610135565b806370a0823114610338578063715018a6146103755780638da5cb5b1461038c57806395d89b41146103b757806399c8d556146103e257610135565b806331711884116100fd57806331711884146102355780633610724e14610260578063378dc3dc1461027c57806338ece2a6146102a757806339509351146102d0578063518ab2a81461030d57610135565b806306fdde031461013a578063095ea7b31461016557806318160ddd146101a257806323b872dd146101cd578063313ce5671461020a575b600080fd5b34801561014657600080fd5b5061014f61053f565b60405161015c9190611451565b60405180910390f35b34801561017157600080fd5b5061018c6004803603810190610187919061150c565b6105d1565b6040516101999190611567565b60405180910390f35b3480156101ae57600080fd5b506101b76105f4565b6040516101c49190611591565b60405180910390f35b3480156101d957600080fd5b506101f460048036038101906101ef91906115ac565b6105fe565b6040516102019190611567565b60405180910390f35b34801561021657600080fd5b5061021f61062d565b60405161022c919061161b565b60405180910390f35b34801561024157600080fd5b5061024a610636565b6040516102579190611591565b60405180910390f35b61027a60048036038101906102759190611636565b61063c565b005b34801561028857600080fd5b50610291610762565b60405161029e9190611591565b60405180910390f35b3480156102b357600080fd5b506102ce60048036038101906102c99190611636565b610768565b005b3480156102dc57600080fd5b506102f760048036038101906102f2919061150c565b6108fd565b6040516103049190611567565b60405180910390f35b34801561031957600080fd5b50610322610934565b60405161032f9190611591565b60405180910390f35b34801561034457600080fd5b5061035f600480360381019061035a9190611663565b61093a565b60405161036c9190611591565b60405180910390f35b34801561038157600080fd5b5061038a610982565b005b34801561039857600080fd5b506103a1610a0a565b6040516103ae919061169f565b60405180910390f35b3480156103c357600080fd5b506103cc610a34565b6040516103d99190611451565b60405180910390f35b3480156103ee57600080fd5b506103f7610ac6565b604051610404919061161b565b60405180910390f35b34801561041957600080fd5b50610434600480360381019061042f919061150c565b610ad9565b6040516104419190611567565b60405180910390f35b34801561045657600080fd5b50610471600480360381019061046c91906115ac565b610b50565b005b34801561047f57600080fd5b5061049a6004803603810190610495919061150c565b610bab565b6040516104a79190611567565b60405180910390f35b3480156104bc57600080fd5b506104d760048036038101906104d291906116ba565b610bce565b6040516104e49190611591565b60405180910390f35b3480156104f957600080fd5b50610514600480360381019061050f9190611663565b610c55565b005b34801561052257600080fd5b5061053d60048036038101906105389190611663565b610d15565b005b60606003805461054e90611729565b80601f016020809104026020016040519081016040528092919081815260200182805461057a90611729565b80156105c75780601f1061059c576101008083540402835291602001916105c7565b820191906000526020600020905b8154815290600101906020018083116105aa57829003601f168201915b5050505050905090565b6000806105dc610e0c565b90506105e9818585610e14565b600191505092915050565b6000600254905090565b600080610609610e0c565b9050610616858285610fdd565b610621858585611069565b60019150509392505050565b60006012905090565b60085481565b61064461062d565b600a61065091906118bc565b8161065b9190611907565b600854346106699190611907565b146106a9576040517f08c379a00000000000000000000000000000000000000000000000000000000081526004016106a0906119ad565b60405180910390fd5b806106ba6106b5610a0a565b61093a565b10156106fb576040517f08c379a00000000000000000000000000000000000000000000000000000000081526004016106f290611a19565b60405180910390fd5b61070d610706610a0a565b3383611069565b806007600082825461071f9190611a39565b925050819055507f5e5e995ce3133561afceaa51a9a154d5db228cd7525d34df5185582c18d3df093382604051610757929190611a8f565b60405180910390a150565b60065481565b6000600960009054906101000a900473ffffffffffffffffffffffffffffffffffffffff1673ffffffffffffffffffffffffffffffffffffffff1663e7572230836040518263ffffffff1660e01b81526004016107c59190611591565b602060405180830381865afa1580156107e2573d6000803e3d6000fd5b505050506040513d601f19601f820116820180604052508101906108069190611acd565b9050610869600960009054906101000a900473ffffffffffffffffffffffffffffffffffffffff166064600960149054906101000a900460ff16606461084c9190611afa565b60ff168461085a9190611907565b6108649190611b60565b6105d1565b50600960009054906101000a900473ffffffffffffffffffffffffffffffffffffffff1673ffffffffffffffffffffffffffffffffffffffff1663e0a0cf7483336040518363ffffffff1660e01b81526004016108c7929190611b91565b600060405180830381600087803b1580156108e157600080fd5b505af11580156108f5573d6000803e3d6000fd5b505050505050565b600080610908610e0c565b905061092981858561091a8589610bce565b6109249190611a39565b610e14565b600191505092915050565b60075481565b60008060008373ffffffffffffffffffffffffffffffffffffffff1673ffffffffffffffffffffffffffffffffffffffff168152602001908152602001600020549050919050565b61098a610e0c565b73ffffffffffffffffffffffffffffffffffffffff166109a8610a0a565b73ffffffffffffffffffffffffffffffffffffffff16146109fe576040517f08c379a00000000000000000000000000000000000000000000000000000000081526004016109f590611c06565b60405180910390fd5b610a0860006112e8565b565b6000600560009054906101000a900473ffffffffffffffffffffffffffffffffffffffff16905090565b606060048054610a4390611729565b80601f0160208091040260200160405190810160405280929190818152602001828054610a6f90611729565b8015610abc5780601f10610a9157610100808354040283529160200191610abc565b820191906000526020600020905b815481529060010190602001808311610a9f57829003601f168201915b5050505050905090565b600960149054906101000a900460ff1681565b600080610ae4610e0c565b90506000610af28286610bce565b905083811015610b37576040517f08c379a0000000000000000000000000000000000000000000000000000000008152600401610b2e90611c98565b60405180910390fd5b610b448286868403610e14565b60019250505092915050565b80610b5a8461093a565b1015610b9b576040517f08c379a0000000000000000000000000000000000000000000000000000000008152600401610b9290611a19565b60405180910390fd5b610ba6838383611069565b505050565b600080610bb6610e0c565b9050610bc3818585611069565b600191505092915050565b6000600160008473ffffffffffffffffffffffffffffffffffffffff1673ffffffffffffffffffffffffffffffffffffffff16815260200190815260200160002060008373ffffffffffffffffffffffffffffffffffffffff1673ffffffffffffffffffffffffffffffffffffffff16815260200190815260200160002054905092915050565b610c5d610e0c565b73ffffffffffffffffffffffffffffffffffffffff16610c7b610a0a565b73ffffffffffffffffffffffffffffffffffffffff1614610cd1576040517f08c379a0000000000000000000000000000000000000000000000000000000008152600401610cc890611c06565b60405180910390fd5b80600960006101000a81548173ffffffffffffffffffffffffffffffffffffffff021916908373ffffffffffffffffffffffffffffffffffffffff16021790555050565b610d1d610e0c565b73ffffffffffffffffffffffffffffffffffffffff16610d3b610a0a565b73ffffffffffffffffffffffffffffffffffffffff1614610d91576040517f08c379a0000000000000000000000000000000000000000000000000000000008152600401610d8890611c06565b60405180910390fd5b600073ffffffffffffffffffffffffffffffffffffffff168173ffffffffffffffffffffffffffffffffffffffff1603610e00576040517f08c379a0000000000000000000000000000000000000000000000000000000008152600401610df790611d2a565b60405180910390fd5b610e09816112e8565b50565b600033905090565b600073ffffffffffffffffffffffffffffffffffffffff168373ffffffffffffffffffffffffffffffffffffffff1603610e83576040517f08c379a0000000000000000000000000000000000000000000000000000000008152600401610e7a90611dbc565b60405180910390fd5b600073ffffffffffffffffffffffffffffffffffffffff168273ffffffffffffffffffffffffffffffffffffffff1603610ef2576040517f08c379a0000000000000000000000000000000000000000000000000000000008152600401610ee990611e4e565b60405180910390fd5b80600160008573ffffffffffffffffffffffffffffffffffffffff1673ffffffffffffffffffffffffffffffffffffffff16815260200190815260200160002060008473ffffffffffffffffffffffffffffffffffffffff1673ffffffffffffffffffffffffffffffffffffffff168152602001908152602001600020819055508173ffffffffffffffffffffffffffffffffffffffff168373ffffffffffffffffffffffffffffffffffffffff167f8c5be1e5ebec7d5bd14f71427d1e84f3dd0314c0f7b2291e5b200ac8c7c3b92583604051610fd09190611591565b60405180910390a3505050565b6000610fe98484610bce565b90507fffffffffffffffffffffffffffffffffffffffffffffffffffffffffffffffff81146110635781811015611055576040517f08c379a000000000000000000000000000000000000000000000000000000000815260040161104c90611eba565b60405180910390fd5b6110628484848403610e14565b5b50505050565b600073ffffffffffffffffffffffffffffffffffffffff168373ffffffffffffffffffffffffffffffffffffffff16036110d8576040517f08c379a00000000000000000000000000000000000000000000000000000000081526004016110cf90611f4c565b60405180910390fd5b600073ffffffffffffffffffffffffffffffffffffffff168273ffffffffffffffffffffffffffffffffffffffff1603611147576040517f08c379a000000000000000000000000000000000000000000000000000000000815260040161113e90611fde565b60405180910390fd5b6111528383836113ae565b60008060008573ffffffffffffffffffffffffffffffffffffffff1673ffffffffffffffffffffffffffffffffffffffff168152602001908152602001600020549050818110156111d8576040517f08c379a00000000000000000000000000000000000000000000000000000000081526004016111cf90612070565b60405180910390fd5b8181036000808673ffffffffffffffffffffffffffffffffffffffff1673ffffffffffffffffffffffffffffffffffffffff16815260200190815260200160002081905550816000808573ffffffffffffffffffffffffffffffffffffffff1673ffffffffffffffffffffffffffffffffffffffff168152602001908152602001600020600082825461126b9190611a39565b925050819055508273ffffffffffffffffffffffffffffffffffffffff168473ffffffffffffffffffffffffffffffffffffffff167fddf252ad1be2c89b69c2b068fc378daa952ba7f163c4a11628f55a4df523b3ef846040516112cf9190611591565b60405180910390a36112e28484846113b3565b50505050565b6000600560009054906101000a900473ffffffffffffffffffffffffffffffffffffffff16905081600560006101000a81548173ffffffffffffffffffffffffffffffffffffffff021916908373ffffffffffffffffffffffffffffffffffffffff1602179055508173ffffffffffffffffffffffffffffffffffffffff168173ffffffffffffffffffffffffffffffffffffffff167f8be0079c531659141344cd1fd0a4f28419497f9722a3daafe3b4186f6b6457e060405160405180910390a35050565b505050565b505050565b600081519050919050565b600082825260208201905092915050565b60005b838110156113f25780820151818401526020810190506113d7565b83811115611401576000848401525b50505050565b6000601f19601f8301169050919050565b6000611423826113b8565b61142d81856113c3565b935061143d8185602086016113d4565b61144681611407565b840191505092915050565b6000602082019050818103600083015261146b8184611418565b905092915050565b600080fd5b600073ffffffffffffffffffffffffffffffffffffffff82169050919050565b60006114a382611478565b9050919050565b6114b381611498565b81146114be57600080fd5b50565b6000813590506114d0816114aa565b92915050565b6000819050919050565b6114e9816114d6565b81146114f457600080fd5b50565b600081359050611506816114e0565b92915050565b6000806040838503121561152357611522611473565b5b6000611531858286016114c1565b9250506020611542858286016114f7565b9150509250929050565b60008115159050919050565b6115618161154c565b82525050565b600060208201905061157c6000830184611558565b92915050565b61158b816114d6565b82525050565b60006020820190506115a66000830184611582565b92915050565b6000806000606084860312156115c5576115c4611473565b5b60006115d3868287016114c1565b93505060206115e4868287016114c1565b92505060406115f5868287016114f7565b9150509250925092565b600060ff82169050919050565b611615816115ff565b82525050565b6000602082019050611630600083018461160c565b92915050565b60006020828403121561164c5761164b611473565b5b600061165a848285016114f7565b91505092915050565b60006020828403121561167957611678611473565b5b6000611687848285016114c1565b91505092915050565b61169981611498565b82525050565b60006020820190506116b46000830184611690565b92915050565b600080604083850312156116d1576116d0611473565b5b60006116df858286016114c1565b92505060206116f0858286016114c1565b9150509250929050565b7f4e487b7100000000000000000000000000000000000000000000000000000000600052602260045260246000fd5b6000600282049050600182168061174157607f821691505b602082108103611754576117536116fa565b5b50919050565b7f4e487b7100000000000000000000000000000000000000000000000000000000600052601160045260246000fd5b60008160011c9050919050565b6000808291508390505b60018511156117e0578086048111156117bc576117bb61175a565b5b60018516156117cb5780820291505b80810290506117d985611789565b94506117a0565b94509492505050565b6000826117f957600190506118b5565b8161180757600090506118b5565b816001811461181d576002811461182757611856565b60019150506118b5565b60ff8411156118395761183861175a565b5b8360020a9150848211156118505761184f61175a565b5b506118b5565b5060208310610133831016604e8410600b841016171561188b5782820a9050838111156118865761188561175a565b5b6118b5565b6118988484846001611796565b925090508184048111156118af576118ae61175a565b5b81810290505b9392505050565b60006118c7826114d6565b91506118d2836115ff565b92506118ff7fffffffffffffffffffffffffffffffffffffffffffffffffffffffffffffffff84846117e9565b905092915050565b6000611912826114d6565b915061191d836114d6565b9250817fffffffffffffffffffffffffffffffffffffffffffffffffffffffffffffffff04831182151516156119565761195561175a565b5b828202905092915050565b7f4e6f7420657861637420616d6f756e7400000000000000000000000000000000600082015250565b60006119976010836113c3565b91506119a282611961565b602082019050919050565b600060208201905081810360008301526119c68161198a565b9050919050565b7f4e6f7420656e6f75676820746f6b656e73000000000000000000000000000000600082015250565b6000611a036011836113c3565b9150611a0e826119cd565b602082019050919050565b60006020820190508181036000830152611a32816119f6565b9050919050565b6000611a44826114d6565b9150611a4f836114d6565b9250827fffffffffffffffffffffffffffffffffffffffffffffffffffffffffffffffff03821115611a8457611a8361175a565b5b828201905092915050565b6000604082019050611aa46000830185611690565b611ab16020830184611582565b9392505050565b600081519050611ac7816114e0565b92915050565b600060208284031215611ae357611ae2611473565b5b6000611af184828501611ab8565b91505092915050565b6000611b05826115ff565b9150611b10836115ff565b92508260ff03821115611b2657611b2561175a565b5b828201905092915050565b7f4e487b7100000000000000000000000000000000000000000000000000000000600052601260045260246000fd5b6000611b6b826114d6565b9150611b76836114d6565b925082611b8657611b85611b31565b5b828204905092915050565b6000604082019050611ba66000830185611582565b611bb36020830184611690565b9392505050565b7f4f776e61626c653a2063616c6c6572206973206e6f7420746865206f776e6572600082015250565b6000611bf06020836113c3565b9150611bfb82611bba565b602082019050919050565b60006020820190508181036000830152611c1f81611be3565b9050919050565b7f45524332303a2064656372656173656420616c6c6f77616e63652062656c6f7760008201527f207a65726f000000000000000000000000000000000000000000000000000000602082015250565b6000611c826025836113c3565b9150611c8d82611c26565b604082019050919050565b60006020820190508181036000830152611cb181611c75565b9050919050565b7f4f776e61626c653a206e6577206f776e657220697320746865207a65726f206160008201527f6464726573730000000000000000000000000000000000000000000000000000602082015250565b6000611d146026836113c3565b9150611d1f82611cb8565b604082019050919050565b60006020820190508181036000830152611d4381611d07565b9050919050565b7f45524332303a20617070726f76652066726f6d20746865207a65726f2061646460008201527f7265737300000000000000000000000000000000000000000000000000000000602082015250565b6000611da66024836113c3565b9150611db182611d4a565b604082019050919050565b60006020820190508181036000830152611dd581611d99565b9050919050565b7f45524332303a20617070726f766520746f20746865207a65726f20616464726560008201527f7373000000000000000000000000000000000000000000000000000000000000602082015250565b6000611e386022836113c3565b9150611e4382611ddc565b604082019050919050565b60006020820190508181036000830152611e6781611e2b565b9050919050565b7f45524332303a20696e73756666696369656e7420616c6c6f77616e6365000000600082015250565b6000611ea4601d836113c3565b9150611eaf82611e6e565b602082019050919050565b60006020820190508181036000830152611ed381611e97565b9050919050565b7f45524332303a207472616e736665722066726f6d20746865207a65726f20616460008201527f6472657373000000000000000000000000000000000000000000000000000000602082015250565b6000611f366025836113c3565b9150611f4182611eda565b604082019050919050565b60006020820190508181036000830152611f6581611f29565b9050919050565b7f45524332303a207472616e7366657220746f20746865207a65726f206164647260008201527f6573730000000000000000000000000000000000000000000000000000000000602082015250565b6000611fc86023836113c3565b9150611fd382611f6c565b604082019050919050565b60006020820190508181036000830152611ff781611fbb565b9050919050565b7f45524332303a207472616e7366657220616d6f756e742065786365656473206260008201527f616c616e63650000000000000000000000000000000000000000000000000000602082015250565b600061205a6026836113c3565b915061206582611ffe565b604082019050919050565b600060208201905081810360008301526120898161204d565b905091905056fea2646970667358221220a96b619dfffe0fd71307b83dfec249b8f870300d79e7870884a08fdab355e15864736f6c634300080e0033",
  "linkReferences": {},
  "deployedLinkReferences": {}
}