{
  "_format": "hh-sol-artifact-1",
  "contractName": "NudeDEX",
  "sourceName": "contracts/NudeDEX.sol",
  "abi": [
    {
      "inputs": [
        {
          "internalType": "address",
          "name": "_nude",
          "type": "address"
        },
        {
          "internalType": "address",
          "name": "_nudeNFT",
          "type": "address"
        }
      ],
      "stateMutability": "nonpayable",
      "type": "constructor"
    },
    {
      "anonymous": false,
      "inputs": [
        {
          "indexed": false,
          "internalType": "address",
          "name": "owner",
          "type": "address"
        },
        {
          "indexed": false,
          "internalType": "uint256",
          "name": "tokenId",
          "type": "uint256"
        },
        {
          "indexed": false,
          "internalType": "uint256",
          "name": "price",
          "type": "uint256"
        }
      ],
      "name": "OnSaleNFT",
      "type": "event"
    },
    {
      "anonymous": false,
      "inputs": [
        {
          "indexed": true,
          "internalType": "address",
          "name": "previousOwner",
          "type": "address"
        },
        {
          "indexed": true,
          "internalType": "address",
          "name": "newOwner",
          "type": "address"
        }
      ],
      "name": "OwnershipTransferred",
      "type": "event"
    },
    {
      "anonymous": false,
      "inputs": [
        {
          "indexed": false,
          "internalType": "address",
          "name": "owner",
          "type": "address"
        },
        {
          "indexed": false,
          "internalType": "uint256",
          "name": "tokenId",
          "type": "uint256"
        }
      ],
      "name": "TakeDownNFT",
      "type": "event"
    },
    {
      "anonymous": false,
      "inputs": [
        {
          "indexed": false,
          "internalType": "address",
          "name": "buyer",
          "type": "address"
        },
        {
          "indexed": false,
          "internalType": "address",
          "name": "seller",
          "type": "address"
        },
        {
          "indexed": false,
          "internalType": "uint256",
          "name": "tokenId",
          "type": "uint256"
        },
        {
          "indexed": false,
          "internalType": "uint256",
          "name": "price",
          "type": "uint256"
        }
      ],
      "name": "Trade",
      "type": "event"
    },
    {
      "inputs": [
        {
          "internalType": "uint256",
          "name": "tokenId",
          "type": "uint256"
        }
      ],
      "name": "getPrice",
      "outputs": [
        {
          "internalType": "uint256",
          "name": "",
          "type": "uint256"
        }
      ],
      "stateMutability": "view",
      "type": "function"
    },
    {
      "inputs": [
        {
          "internalType": "address",
          "name": "",
          "type": "address"
        },
        {
          "internalType": "address",
          "name": "",
          "type": "address"
        },
        {
          "internalType": "uint256",
          "name": "",
          "type": "uint256"
        },
        {
          "internalType": "bytes",
          "name": "",
          "type": "bytes"
        }
      ],
      "name": "onERC721Received",
      "outputs": [
        {
          "internalType": "bytes4",
          "name": "",
          "type": "bytes4"
        }
      ],
      "stateMutability": "pure",
      "type": "function"
    },
    {
      "inputs": [
        {
          "internalType": "uint256",
          "name": "tokenId",
          "type": "uint256"
        },
        {
          "internalType": "uint256",
          "name": "price",
          "type": "uint256"
        }
      ],
      "name": "onSale",
      "outputs": [],
      "stateMutability": "nonpayable",
      "type": "function"
    },
    {
      "inputs": [],
      "name": "owner",
      "outputs": [
        {
          "internalType": "address",
          "name": "",
          "type": "address"
        }
      ],
      "stateMutability": "view",
      "type": "function"
    },
    {
      "inputs": [],
      "name": "renounceOwnership",
      "outputs": [],
      "stateMutability": "nonpayable",
      "type": "function"
    },
    {
      "inputs": [
        {
          "internalType": "address",
          "name": "_nudeNFT",
          "type": "address"
        }
      ],
      "name": "setNudeNFTAddress",
      "outputs": [],
      "stateMutability": "nonpayable",
      "type": "function"
    },
    {
      "inputs": [
        {
          "internalType": "address",
          "name": "_nude",
          "type": "address"
        }
      ],
      "name": "setNudeTokenAddress",
      "outputs": [],
      "stateMutability": "nonpayable",
      "type": "function"
    },
    {
      "inputs": [
        {
          "internalType": "uint256",
          "name": "tokenId",
          "type": "uint256"
        }
      ],
      "name": "takeDown",
      "outputs": [],
      "stateMutability": "nonpayable",
      "type": "function"
    },
    {
      "inputs": [],
      "name": "tax",
      "outputs": [
        {
          "internalType": "uint8",
          "name": "",
          "type": "uint8"
        }
      ],
      "stateMutability": "view",
      "type": "function"
    },
    {
      "inputs": [
        {
          "internalType": "uint256",
          "name": "tokenId",
          "type": "uint256"
        }
      ],
      "name": "trade",
      "outputs": [],
      "stateMutability": "nonpayable",
      "type": "function"
    },
    {
      "inputs": [
        {
          "internalType": "address",
          "name": "newOwner",
          "type": "address"
        }
      ],
      "name": "transferOwnership",
      "outputs": [],
      "stateMutability": "nonpayable",
      "type": "function"
    },
    {
      "inputs": [
        {
          "internalType": "uint256",
          "name": "amount",
          "type": "uint256"
        }
      ],
      "name": "withdraw",
      "outputs": [],
      "stateMutability": "nonpayable",
      "type": "function"
    }
  ],
  "bytecode": "0x6080604052600a600260146101000a81548160ff021916908360ff1602179055503480156200002d57600080fd5b506040516200243e3803806200243e833981810160405281019062000053919062000233565b6200007362000067620000fd60201b60201c565b6200010560201b60201c565b81600160006101000a81548173ffffffffffffffffffffffffffffffffffffffff021916908373ffffffffffffffffffffffffffffffffffffffff16021790555080600260006101000a81548173ffffffffffffffffffffffffffffffffffffffff021916908373ffffffffffffffffffffffffffffffffffffffff16021790555050506200027a565b600033905090565b60008060009054906101000a900473ffffffffffffffffffffffffffffffffffffffff169050816000806101000a81548173ffffffffffffffffffffffffffffffffffffffff021916908373ffffffffffffffffffffffffffffffffffffffff1602179055508173ffffffffffffffffffffffffffffffffffffffff168173ffffffffffffffffffffffffffffffffffffffff167f8be0079c531659141344cd1fd0a4f28419497f9722a3daafe3b4186f6b6457e060405160405180910390a35050565b600080fd5b600073ffffffffffffffffffffffffffffffffffffffff82169050919050565b6000620001fb82620001ce565b9050919050565b6200020d81620001ee565b81146200021957600080fd5b50565b6000815190506200022d8162000202565b92915050565b600080604083850312156200024d576200024c620001c9565b5b60006200025d858286016200021c565b925050602062000270858286016200021c565b9150509250929050565b6121b4806200028a6000396000f3fe608060405234801561001057600080fd5b50600436106100b45760003560e01c80638da5cb5b116100715780638da5cb5b1461016357806399c8d55614610181578063ad1443f01461019f578063df1dd826146101bb578063e7572230146101d7578063f2fde38b14610207576100b4565b8063150b7a02146100b95780632e1a7d4d146100e9578063352ccd52146101055780636c6a648114610121578063715018a61461013d57806386e6345014610147575b600080fd5b6100d360048036038101906100ce9190611827565b610223565b6040516100e091906118ea565b60405180910390f35b61010360048036038101906100fe9190611905565b610251565b005b61011f600480360381019061011a9190611932565b6104fe565b005b61013b6004803603810190610136919061195f565b6105be565b005b610145610a17565b005b610161600480360381019061015c9190611905565b610a9f565b005b61016b610dab565b60405161017891906119ae565b60405180910390f35b610189610dd4565b60405161019691906119e5565b60405180910390f35b6101b960048036038101906101b49190611932565b610de7565b005b6101d560048036038101906101d09190611905565b610ea7565b005b6101f160048036038101906101ec9190611905565b6114ef565b6040516101fe9190611a0f565b60405180910390f35b610221600480360381019061021c9190611932565b611561565b005b60007f150b7a023d4804d13e8c85fb27262cb750cf6ba9f9dd3bb30d90f482ceeb4b1f905095945050505050565b610259611658565b73ffffffffffffffffffffffffffffffffffffffff16610277610dab565b73ffffffffffffffffffffffffffffffffffffffff16146102cd576040517f08c379a00000000000000000000000000000000000000000000000000000000081526004016102c490611a87565b60405180910390fd5b80600160009054906101000a900473ffffffffffffffffffffffffffffffffffffffff1673ffffffffffffffffffffffffffffffffffffffff166370a08231306040518263ffffffff1660e01b815260040161032991906119ae565b602060405180830381865afa158015610346573d6000803e3d6000fd5b505050506040513d601f19601f8201168201806040525081019061036a9190611abc565b10156103ab576040517f08c379a00000000000000000000000000000000000000000000000000000000081526004016103a290611b35565b60405180910390fd5b600160009054906101000a900473ffffffffffffffffffffffffffffffffffffffff1673ffffffffffffffffffffffffffffffffffffffff1663095ea7b36103f1610dab565b836040518363ffffffff1660e01b815260040161040f929190611b55565b6020604051808303816000875af115801561042e573d6000803e3d6000fd5b505050506040513d601f19601f820116820180604052508101906104529190611bb6565b50600160009054906101000a900473ffffffffffffffffffffffffffffffffffffffff1673ffffffffffffffffffffffffffffffffffffffff1663a9059cbb610499610dab565b836040518363ffffffff1660e01b81526004016104b7929190611b55565b6020604051808303816000875af11580156104d6573d6000803e3d6000fd5b505050506040513d601f19601f820116820180604052508101906104fa9190611bb6565b5050565b610506611658565b73ffffffffffffffffffffffffffffffffffffffff16610524610dab565b73ffffffffffffffffffffffffffffffffffffffff161461057a576040517f08c379a000000000000000000000000000000000000000000000000000000000815260040161057190611a87565b60405180910390fd5b80600160006101000a81548173ffffffffffffffffffffffffffffffffffffffff021916908373ffffffffffffffffffffffffffffffffffffffff16021790555050565b60008111610601576040517f08c379a00000000000000000000000000000000000000000000000000000000081526004016105f890611c2f565b60405180910390fd5b3373ffffffffffffffffffffffffffffffffffffffff16600260009054906101000a900473ffffffffffffffffffffffffffffffffffffffff1673ffffffffffffffffffffffffffffffffffffffff16636352211e846040518263ffffffff1660e01b81526004016106739190611a0f565b602060405180830381865afa158015610690573d6000803e3d6000fd5b505050506040513d601f19601f820116820180604052508101906106b49190611c64565b73ffffffffffffffffffffffffffffffffffffffff161461070a576040517f08c379a000000000000000000000000000000000000000000000000000000000815260040161070190611cdd565b60405180910390fd5b6064600260149054906101000a900460ff1660ff168261072a9190611d2c565b6107349190611db5565b600160009054906101000a900473ffffffffffffffffffffffffffffffffffffffff1673ffffffffffffffffffffffffffffffffffffffff166370a08231336040518263ffffffff1660e01b815260040161078f91906119ae565b602060405180830381865afa1580156107ac573d6000803e3d6000fd5b505050506040513d601f19601f820116820180604052508101906107d09190611abc565b1015610811576040517f08c379a000000000000000000000000000000000000000000000000000000000815260040161080890611e32565b60405180910390fd5b600160009054906101000a900473ffffffffffffffffffffffffffffffffffffffff1673ffffffffffffffffffffffffffffffffffffffff166323b872dd33306064600260149054906101000a900460ff1660ff16866108719190611d2c565b61087b9190611db5565b6040518463ffffffff1660e01b815260040161089993929190611e52565b6020604051808303816000875af11580156108b8573d6000803e3d6000fd5b505050506040513d601f19601f820116820180604052508101906108dc9190611bb6565b50600260009054906101000a900473ffffffffffffffffffffffffffffffffffffffff1673ffffffffffffffffffffffffffffffffffffffff166342842e0e3330856040518463ffffffff1660e01b815260040161093c93929190611e52565b600060405180830381600087803b15801561095657600080fd5b505af115801561096a573d6000803e3d6000fd5b50505050336004600084815260200190815260200160002060006101000a81548173ffffffffffffffffffffffffffffffffffffffff021916908373ffffffffffffffffffffffffffffffffffffffff1602179055508060036000848152602001908152602001600020819055507fc0d0f63528062762033cd269b4370cf3f5fbd4e76a6f28c4b8d86bec493556b2338383604051610a0b93929190611e89565b60405180910390a15050565b610a1f611658565b73ffffffffffffffffffffffffffffffffffffffff16610a3d610dab565b73ffffffffffffffffffffffffffffffffffffffff1614610a93576040517f08c379a0000000000000000000000000000000000000000000000000000000008152600401610a8a90611a87565b60405180910390fd5b610a9d6000611660565b565b600073ffffffffffffffffffffffffffffffffffffffff166004600083815260200190815260200160002060009054906101000a900473ffffffffffffffffffffffffffffffffffffffff1673ffffffffffffffffffffffffffffffffffffffff1614158015610b22575060006003600083815260200190815260200160002054115b610b61576040517f08c379a0000000000000000000000000000000000000000000000000000000008152600401610b5890611f0c565b60405180910390fd5b3373ffffffffffffffffffffffffffffffffffffffff166004600083815260200190815260200160002060009054906101000a900473ffffffffffffffffffffffffffffffffffffffff1673ffffffffffffffffffffffffffffffffffffffff1614610c02576040517f08c379a0000000000000000000000000000000000000000000000000000000008152600401610bf990611cdd565b60405180910390fd5b600260009054906101000a900473ffffffffffffffffffffffffffffffffffffffff1673ffffffffffffffffffffffffffffffffffffffff1663095ea7b333836040518363ffffffff1660e01b8152600401610c5f929190611b55565b600060405180830381600087803b158015610c7957600080fd5b505af1158015610c8d573d6000803e3d6000fd5b50505050600260009054906101000a900473ffffffffffffffffffffffffffffffffffffffff1673ffffffffffffffffffffffffffffffffffffffff166342842e0e3033846040518463ffffffff1660e01b8152600401610cf093929190611e52565b600060405180830381600087803b158015610d0a57600080fd5b505af1158015610d1e573d6000803e3d6000fd5b505050506004600082815260200190815260200160002060006101000a81549073ffffffffffffffffffffffffffffffffffffffff021916905560036000828152602001908152602001600020600090557f7860a08244f8005093c4ef6d0fcc0af1c7f589ccdc00d56c31afa9c6501d2ccb3382604051610da0929190611b55565b60405180910390a150565b60008060009054906101000a900473ffffffffffffffffffffffffffffffffffffffff16905090565b600260149054906101000a900460ff1681565b610def611658565b73ffffffffffffffffffffffffffffffffffffffff16610e0d610dab565b73ffffffffffffffffffffffffffffffffffffffff1614610e63576040517f08c379a0000000000000000000000000000000000000000000000000000000008152600401610e5a90611a87565b60405180910390fd5b80600260006101000a81548173ffffffffffffffffffffffffffffffffffffffff021916908373ffffffffffffffffffffffffffffffffffffffff16021790555050565b600073ffffffffffffffffffffffffffffffffffffffff166004600083815260200190815260200160002060009054906101000a900473ffffffffffffffffffffffffffffffffffffffff1673ffffffffffffffffffffffffffffffffffffffff1614158015610f2a575060006003600083815260200190815260200160002054115b610f69576040517f08c379a0000000000000000000000000000000000000000000000000000000008152600401610f6090611f0c565b60405180910390fd5b60006003600083815260200190815260200160002054905060003390506004600084815260200190815260200160002060009054906101000a900473ffffffffffffffffffffffffffffffffffffffff1673ffffffffffffffffffffffffffffffffffffffff168173ffffffffffffffffffffffffffffffffffffffff1603611027576040517f08c379a000000000000000000000000000000000000000000000000000000000815260040161101e90611f78565b60405180910390fd5b6064600260149054906101000a900460ff1660646110459190611f98565b60ff16836110539190611d2c565b61105d9190611db5565b600160009054906101000a900473ffffffffffffffffffffffffffffffffffffffff1673ffffffffffffffffffffffffffffffffffffffff166370a08231836040518263ffffffff1660e01b81526004016110b891906119ae565b602060405180830381865afa1580156110d5573d6000803e3d6000fd5b505050506040513d601f19601f820116820180604052508101906110f99190611abc565b101561113a576040517f08c379a00000000000000000000000000000000000000000000000000000000081526004016111319061201b565b60405180910390fd5b600160009054906101000a900473ffffffffffffffffffffffffffffffffffffffff1673ffffffffffffffffffffffffffffffffffffffff166323b872dd82306064600260149054906101000a900460ff1660646111989190611f98565b60ff16876111a69190611d2c565b6111b09190611db5565b6040518463ffffffff1660e01b81526004016111ce93929190611e52565b6020604051808303816000875af11580156111ed573d6000803e3d6000fd5b505050506040513d601f19601f820116820180604052508101906112119190611bb6565b5060006004600085815260200190815260200160002060009054906101000a900473ffffffffffffffffffffffffffffffffffffffff169050600160009054906101000a900473ffffffffffffffffffffffffffffffffffffffff1673ffffffffffffffffffffffffffffffffffffffff1663095ea7b382856040518363ffffffff1660e01b81526004016112a7929190611b55565b6020604051808303816000875af11580156112c6573d6000803e3d6000fd5b505050506040513d601f19601f820116820180604052508101906112ea9190611bb6565b50600160009054906101000a900473ffffffffffffffffffffffffffffffffffffffff1673ffffffffffffffffffffffffffffffffffffffff1663a9059cbb82856040518363ffffffff1660e01b8152600401611348929190611b55565b6020604051808303816000875af1158015611367573d6000803e3d6000fd5b505050506040513d601f19601f8201168201806040525081019061138b9190611bb6565b50600260009054906101000a900473ffffffffffffffffffffffffffffffffffffffff1673ffffffffffffffffffffffffffffffffffffffff1663095ea7b383866040518363ffffffff1660e01b81526004016113e9929190611b55565b600060405180830381600087803b15801561140357600080fd5b505af1158015611417573d6000803e3d6000fd5b50505050600260009054906101000a900473ffffffffffffffffffffffffffffffffffffffff1673ffffffffffffffffffffffffffffffffffffffff166342842e0e3084876040518463ffffffff1660e01b815260040161147a93929190611e52565b600060405180830381600087803b15801561149457600080fd5b505af11580156114a8573d6000803e3d6000fd5b505050507f4b5796113f074ebf8f11d5bcdeb6349b2fbe47abed78419cdcdbbc15c6fcf845828286866040516114e1949392919061203b565b60405180910390a150505050565b600080600360008481526020019081526020016000205403611546576040517f08c379a000000000000000000000000000000000000000000000000000000000815260040161153d906120cc565b60405180910390fd5b60036000838152602001908152602001600020549050919050565b611569611658565b73ffffffffffffffffffffffffffffffffffffffff16611587610dab565b73ffffffffffffffffffffffffffffffffffffffff16146115dd576040517f08c379a00000000000000000000000000000000000000000000000000000000081526004016115d490611a87565b60405180910390fd5b600073ffffffffffffffffffffffffffffffffffffffff168173ffffffffffffffffffffffffffffffffffffffff160361164c576040517f08c379a00000000000000000000000000000000000000000000000000000000081526004016116439061215e565b60405180910390fd5b61165581611660565b50565b600033905090565b60008060009054906101000a900473ffffffffffffffffffffffffffffffffffffffff169050816000806101000a81548173ffffffffffffffffffffffffffffffffffffffff021916908373ffffffffffffffffffffffffffffffffffffffff1602179055508173ffffffffffffffffffffffffffffffffffffffff168173ffffffffffffffffffffffffffffffffffffffff167f8be0079c531659141344cd1fd0a4f28419497f9722a3daafe3b4186f6b6457e060405160405180910390a35050565b600080fd5b600080fd5b600073ffffffffffffffffffffffffffffffffffffffff82169050919050565b60006117598261172e565b9050919050565b6117698161174e565b811461177457600080fd5b50565b60008135905061178681611760565b92915050565b6000819050919050565b61179f8161178c565b81146117aa57600080fd5b50565b6000813590506117bc81611796565b92915050565b600080fd5b600080fd5b600080fd5b60008083601f8401126117e7576117e66117c2565b5b8235905067ffffffffffffffff811115611804576118036117c7565b5b6020830191508360018202830111156118205761181f6117cc565b5b9250929050565b60008060008060006080868803121561184357611842611724565b5b600061185188828901611777565b955050602061186288828901611777565b9450506040611873888289016117ad565b935050606086013567ffffffffffffffff81111561189457611893611729565b5b6118a0888289016117d1565b92509250509295509295909350565b60007fffffffff0000000000000000000000000000000000000000000000000000000082169050919050565b6118e4816118af565b82525050565b60006020820190506118ff60008301846118db565b92915050565b60006020828403121561191b5761191a611724565b5b6000611929848285016117ad565b91505092915050565b60006020828403121561194857611947611724565b5b600061195684828501611777565b91505092915050565b6000806040838503121561197657611975611724565b5b6000611984858286016117ad565b9250506020611995858286016117ad565b9150509250929050565b6119a88161174e565b82525050565b60006020820190506119c3600083018461199f565b92915050565b600060ff82169050919050565b6119df816119c9565b82525050565b60006020820190506119fa60008301846119d6565b92915050565b611a098161178c565b82525050565b6000602082019050611a246000830184611a00565b92915050565b600082825260208201905092915050565b7f4f776e61626c653a2063616c6c6572206973206e6f7420746865206f776e6572600082015250565b6000611a71602083611a2a565b9150611a7c82611a3b565b602082019050919050565b60006020820190508181036000830152611aa081611a64565b9050919050565b600081519050611ab681611796565b92915050565b600060208284031215611ad257611ad1611724565b5b6000611ae084828501611aa7565b91505092915050565b7f4e6f7420656e6f75676820746f6b656e7320746f207769746864726177000000600082015250565b6000611b1f601d83611a2a565b9150611b2a82611ae9565b602082019050919050565b60006020820190508181036000830152611b4e81611b12565b9050919050565b6000604082019050611b6a600083018561199f565b611b776020830184611a00565b9392505050565b60008115159050919050565b611b9381611b7e565b8114611b9e57600080fd5b50565b600081519050611bb081611b8a565b92915050565b600060208284031215611bcc57611bcb611724565b5b6000611bda84828501611ba1565b91505092915050565b7f5072696365206d7573742062652067726561746572207468616e203000000000600082015250565b6000611c19601c83611a2a565b9150611c2482611be3565b602082019050919050565b60006020820190508181036000830152611c4881611c0c565b9050919050565b600081519050611c5e81611760565b92915050565b600060208284031215611c7a57611c79611724565b5b6000611c8884828501611c4f565b91505092915050565b7f4e6f7420796f7572204e46540000000000000000000000000000000000000000600082015250565b6000611cc7600c83611a2a565b9150611cd282611c91565b602082019050919050565b60006020820190508181036000830152611cf681611cba565b9050919050565b7f4e487b7100000000000000000000000000000000000000000000000000000000600052601160045260246000fd5b6000611d378261178c565b9150611d428361178c565b9250817fffffffffffffffffffffffffffffffffffffffffffffffffffffffffffffffff0483118215151615611d7b57611d7a611cfd565b5b828202905092915050565b7f4e487b7100000000000000000000000000000000000000000000000000000000600052601260045260246000fd5b6000611dc08261178c565b9150611dcb8361178c565b925082611ddb57611dda611d86565b5b828204905092915050565b7f4e6f7420656e6f75676820746f6b656e7320666f722074617800000000000000600082015250565b6000611e1c601983611a2a565b9150611e2782611de6565b602082019050919050565b60006020820190508181036000830152611e4b81611e0f565b9050919050565b6000606082019050611e67600083018661199f565b611e74602083018561199f565b611e816040830184611a00565b949350505050565b6000606082019050611e9e600083018661199f565b611eab6020830185611a00565b611eb86040830184611a00565b949350505050565b7f4e4654206e6f74206f6e2073616c650000000000000000000000000000000000600082015250565b6000611ef6600f83611a2a565b9150611f0182611ec0565b602082019050919050565b60006020820190508181036000830152611f2581611ee9565b9050919050565b7f596f752063616e27742062757920796f7572206f776e204e4654000000000000600082015250565b6000611f62601a83611a2a565b9150611f6d82611f2c565b602082019050919050565b60006020820190508181036000830152611f9181611f55565b9050919050565b6000611fa3826119c9565b9150611fae836119c9565b92508260ff03821115611fc457611fc3611cfd565b5b828201905092915050565b7f4e6f7420656e6f75676820746f6b656e7320746f20627579206e667400000000600082015250565b6000612005601c83611a2a565b915061201082611fcf565b602082019050919050565b6000602082019050818103600083015261203481611ff8565b9050919050565b6000608082019050612050600083018761199f565b61205d602083018661199f565b61206a6040830185611a00565b6120776060830184611a00565b95945050505050565b7f4e465420707269636520646f6573206e6f742065786973740000000000000000600082015250565b60006120b6601883611a2a565b91506120c182612080565b602082019050919050565b600060208201905081810360008301526120e5816120a9565b9050919050565b7f4f776e61626c653a206e6577206f776e657220697320746865207a65726f206160008201527f6464726573730000000000000000000000000000000000000000000000000000602082015250565b6000612148602683611a2a565b9150612153826120ec565b604082019050919050565b600060208201905081810360008301526121778161213b565b905091905056fea2646970667358221220238adc15004d4b58dadc13bc23b2af6e884382f51488a076d4e233c00b5e5e6b64736f6c634300080e0033",
  "linkReferences": {},
  "deployedLinkReferences": {}
}