{
    "_format": "hh-sol-artifact-1",
    "contractName": "NudeNFT",
    "sourceName": "contracts/NudeNFT.sol",
    "abi": [
        {
            "inputs": [],
            "stateMutability": "nonpayable",
            "type": "constructor"
        },
        {
            "anonymous": false,
            "inputs": [
                {
                    "indexed": true,
                    "internalType": "address",
                    "name": "owner",
                    "type": "address"
                },
                {
                    "indexed": true,
                    "internalType": "address",
                    "name": "approved",
                    "type": "address"
                },
                {
                    "indexed": true,
                    "internalType": "uint256",
                    "name": "tokenId",
                    "type": "uint256"
                }
            ],
            "name": "Approval",
            "type": "event"
        },
        {
            "anonymous": false,
            "inputs": [
                {
                    "indexed": true,
                    "internalType": "address",
                    "name": "owner",
                    "type": "address"
                },
                {
                    "indexed": true,
                    "internalType": "address",
                    "name": "operator",
                    "type": "address"
                },
                {
                    "indexed": false,
                    "internalType": "bool",
                    "name": "approved",
                    "type": "bool"
                }
            ],
            "name": "ApprovalForAll",
            "type": "event"
        },
        {
            "anonymous": false,
            "inputs": [
                {
                    "indexed": true,
                    "internalType": "address",
                    "name": "previousOwner",
                    "type": "address"
                },
                {
                    "indexed": true,
                    "internalType": "address",
                    "name": "newOwner",
                    "type": "address"
                }
            ],
            "name": "OwnershipTransferred",
            "type": "event"
        },
        {
            "anonymous": false,
            "inputs": [
                {
                    "indexed": true,
                    "internalType": "address",
                    "name": "from",
                    "type": "address"
                },
                {
                    "indexed": true,
                    "internalType": "address",
                    "name": "to",
                    "type": "address"
                },
                {
                    "indexed": true,
                    "internalType": "uint256",
                    "name": "tokenId",
                    "type": "uint256"
                }
            ],
            "name": "Transfer",
            "type": "event"
        },
        {
            "anonymous": false,
            "inputs": [
                {
                    "indexed": false,
                    "internalType": "address",
                    "name": "recipient",
                    "type": "address"
                },
                {
                    "indexed": false,
                    "internalType": "uint256",
                    "name": "tokenId",
                    "type": "uint256"
                },
                {
                    "indexed": false,
                    "internalType": "string",
                    "name": "tokenURI",
                    "type": "string"
                },
                {
                    "indexed": false,
                    "internalType": "uint256",
                    "name": "price",
                    "type": "uint256"
                }
            ],
            "name": "newNFTMinted",
            "type": "event"
        },
        {
            "inputs": [
                {
                    "internalType": "address",
                    "name": "to",
                    "type": "address"
                },
                {
                    "internalType": "uint256",
                    "name": "tokenId",
                    "type": "uint256"
                }
            ],
            "name": "approve",
            "outputs": [],
            "stateMutability": "nonpayable",
            "type": "function"
        },
        {
            "inputs": [
                {
                    "internalType": "address",
                    "name": "owner",
                    "type": "address"
                }
            ],
            "name": "balanceOf",
            "outputs": [
                {
                    "internalType": "uint256",
                    "name": "",
                    "type": "uint256"
                }
            ],
            "stateMutability": "view",
            "type": "function"
        },
        {
            "inputs": [
                {
                    "internalType": "uint256",
                    "name": "tokenId",
                    "type": "uint256"
                }
            ],
            "name": "buyNFT",
            "outputs": [],
            "stateMutability": "payable",
            "type": "function"
        },
        {
            "inputs": [
                {
                    "internalType": "uint256",
                    "name": "tokenId",
                    "type": "uint256"
                }
            ],
            "name": "getApproved",
            "outputs": [
                {
                    "internalType": "address",
                    "name": "",
                    "type": "address"
                }
            ],
            "stateMutability": "view",
            "type": "function"
        },
        {
            "inputs": [
                {
                    "internalType": "uint256",
                    "name": "tokenId",
                    "type": "uint256"
                }
            ],
            "name": "getPrice",
            "outputs": [
                {
                    "internalType": "uint256",
                    "name": "",
                    "type": "uint256"
                }
            ],
            "stateMutability": "view",
            "type": "function"
        },
        {
            "inputs": [
                {
                    "internalType": "address",
                    "name": "owner",
                    "type": "address"
                },
                {
                    "internalType": "address",
                    "name": "operator",
                    "type": "address"
                }
            ],
            "name": "isApprovedForAll",
            "outputs": [
                {
                    "internalType": "bool",
                    "name": "",
                    "type": "bool"
                }
            ],
            "stateMutability": "view",
            "type": "function"
        },
        {
            "inputs": [
                {
                    "internalType": "address",
                    "name": "recipient",
                    "type": "address"
                },
                {
                    "internalType": "string",
                    "name": "tokenURI",
                    "type": "string"
                },
                {
                    "internalType": "uint256",
                    "name": "price",
                    "type": "uint256"
                }
            ],
            "name": "mintNFT",
            "outputs": [
                {
                    "internalType": "uint256",
                    "name": "",
                    "type": "uint256"
                }
            ],
            "stateMutability": "nonpayable",
            "type": "function"
        },
        {
            "inputs": [],
            "name": "name",
            "outputs": [
                {
                    "internalType": "string",
                    "name": "",
                    "type": "string"
                }
            ],
            "stateMutability": "view",
            "type": "function"
        },
        {
            "inputs": [],
            "name": "owner",
            "outputs": [
                {
                    "internalType": "address",
                    "name": "",
                    "type": "address"
                }
            ],
            "stateMutability": "view",
            "type": "function"
        },
        {
            "inputs": [
                {
                    "internalType": "uint256",
                    "name": "tokenId",
                    "type": "uint256"
                }
            ],
            "name": "ownerOf",
            "outputs": [
                {
                    "internalType": "address",
                    "name": "",
                    "type": "address"
                }
            ],
            "stateMutability": "view",
            "type": "function"
        },
        {
            "inputs": [],
            "name": "renounceOwnership",
            "outputs": [],
            "stateMutability": "nonpayable",
            "type": "function"
        },
        {
            "inputs": [
                {
                    "internalType": "address",
                    "name": "from",
                    "type": "address"
                },
                {
                    "internalType": "address",
                    "name": "to",
                    "type": "address"
                },
                {
                    "internalType": "uint256",
                    "name": "tokenId",
                    "type": "uint256"
                }
            ],
            "name": "safeTransferFrom",
            "outputs": [],
            "stateMutability": "nonpayable",
            "type": "function"
        },
        {
            "inputs": [
                {
                    "internalType": "address",
                    "name": "from",
                    "type": "address"
                },
                {
                    "internalType": "address",
                    "name": "to",
                    "type": "address"
                },
                {
                    "internalType": "uint256",
                    "name": "tokenId",
                    "type": "uint256"
                },
                {
                    "internalType": "bytes",
                    "name": "_data",
                    "type": "bytes"
                }
            ],
            "name": "safeTransferFrom",
            "outputs": [],
            "stateMutability": "nonpayable",
            "type": "function"
        },
        {
            "inputs": [
                {
                    "internalType": "address",
                    "name": "operator",
                    "type": "address"
                },
                {
                    "internalType": "bool",
                    "name": "approved",
                    "type": "bool"
                }
            ],
            "name": "setApprovalForAll",
            "outputs": [],
            "stateMutability": "nonpayable",
            "type": "function"
        },
        {
            "inputs": [
                {
                    "internalType": "bytes4",
                    "name": "interfaceId",
                    "type": "bytes4"
                }
            ],
            "name": "supportsInterface",
            "outputs": [
                {
                    "internalType": "bool",
                    "name": "",
                    "type": "bool"
                }
            ],
            "stateMutability": "view",
            "type": "function"
        },
        {
            "inputs": [],
            "name": "symbol",
            "outputs": [
                {
                    "internalType": "string",
                    "name": "",
                    "type": "string"
                }
            ],
            "stateMutability": "view",
            "type": "function"
        },
        {
            "inputs": [
                {
                    "internalType": "uint256",
                    "name": "tokenId",
                    "type": "uint256"
                }
            ],
            "name": "tokenURI",
            "outputs": [
                {
                    "internalType": "string",
                    "name": "",
                    "type": "string"
                }
            ],
            "stateMutability": "view",
            "type": "function"
        },
        {
            "inputs": [
                {
                    "internalType": "address",
                    "name": "from",
                    "type": "address"
                },
                {
                    "internalType": "address",
                    "name": "to",
                    "type": "address"
                },
                {
                    "internalType": "uint256",
                    "name": "tokenId",
                    "type": "uint256"
                }
            ],
            "name": "transferFrom",
            "outputs": [],
            "stateMutability": "nonpayable",
            "type": "function"
        },
        {
            "inputs": [
                {
                    "internalType": "address",
                    "name": "newOwner",
                    "type": "address"
                }
            ],
            "name": "transferOwnership",
            "outputs": [],
            "stateMutability": "nonpayable",
            "type": "function"
        }
    ],
    "bytecode": "0x60806040523480156200001157600080fd5b506040518060400160405280600781526020017f4e7564654e4654000000000000000000000000000000000000000000000000008152506040518060400160405280600781526020017f4e5544454e465400000000000000000000000000000000000000000000000000815250816000908051906020019062000096929190620001a6565b508060019080519060200190620000af929190620001a6565b505050620000d2620000c6620000d860201b60201c565b620000e060201b60201c565b620002bb565b600033905090565b6000600760009054906101000a900473ffffffffffffffffffffffffffffffffffffffff16905081600760006101000a81548173ffffffffffffffffffffffffffffffffffffffff021916908373ffffffffffffffffffffffffffffffffffffffff1602179055508173ffffffffffffffffffffffffffffffffffffffff168173ffffffffffffffffffffffffffffffffffffffff167f8be0079c531659141344cd1fd0a4f28419497f9722a3daafe3b4186f6b6457e060405160405180910390a35050565b828054620001b49062000285565b90600052602060002090601f016020900481019282620001d8576000855562000224565b82601f10620001f357805160ff191683800117855562000224565b8280016001018555821562000224579182015b828111156200022357825182559160200191906001019062000206565b5b50905062000233919062000237565b5090565b5b808211156200025257600081600090555060010162000238565b5090565b7f4e487b7100000000000000000000000000000000000000000000000000000000600052602260045260246000fd5b600060028204905060018216806200029e57607f821691505b60208210811415620002b557620002b462000256565b5b50919050565b61347980620002cb6000396000f3fe6080604052600436106101145760003560e01c806370a08231116100a0578063b88d4fde11610064578063b88d4fde146103a2578063c87b56dd146103cb578063e757223014610408578063e985e9c514610445578063f2fde38b1461048257610114565b806370a08231146102cf578063715018a61461030c5780638da5cb5b1461032357806395d89b411461034e578063a22cb4651461037957610114565b8063095ea7b3116100e7578063095ea7b3146101fb57806323b872dd1461022457806342842e0e1461024d57806351ed8288146102765780636352211e1461029257610114565b806301ffc9a71461011957806306fdde0314610156578063081812fc1461018157806308598df0146101be575b600080fd5b34801561012557600080fd5b50610140600480360381019061013b9190611f3a565b6104ab565b60405161014d9190611f82565b60405180910390f35b34801561016257600080fd5b5061016b61058d565b6040516101789190612036565b60405180910390f35b34801561018d57600080fd5b506101a860048036038101906101a3919061208e565b61061f565b6040516101b591906120fc565b60405180910390f35b3480156101ca57600080fd5b506101e560048036038101906101e09190612278565b6106a4565b6040516101f291906122f6565b60405180910390f35b34801561020757600080fd5b50610222600480360381019061021d9190612311565b610774565b005b34801561023057600080fd5b5061024b60048036038101906102469190612351565b61088c565b005b34801561025957600080fd5b50610274600480360381019061026f9190612351565b6108ec565b005b610290600480360381019061028b919061208e565b61090c565b005b34801561029e57600080fd5b506102b960048036038101906102b4919061208e565b610978565b6040516102c691906120fc565b60405180910390f35b3480156102db57600080fd5b506102f660048036038101906102f191906123a4565b610a2a565b60405161030391906122f6565b60405180910390f35b34801561031857600080fd5b50610321610ae2565b005b34801561032f57600080fd5b50610338610b6a565b60405161034591906120fc565b60405180910390f35b34801561035a57600080fd5b50610363610b94565b6040516103709190612036565b60405180910390f35b34801561038557600080fd5b506103a0600480360381019061039b91906123fd565b610c26565b005b3480156103ae57600080fd5b506103c960048036038101906103c491906124de565b610c3c565b005b3480156103d757600080fd5b506103f260048036038101906103ed919061208e565b610c9e565b6040516103ff9190612036565b60405180910390f35b34801561041457600080fd5b5061042f600480360381019061042a919061208e565b610cb0565b60405161043c91906122f6565b60405180910390f35b34801561045157600080fd5b5061046c60048036038101906104679190612561565b610d23565b6040516104799190611f82565b60405180910390f35b34801561048e57600080fd5b506104a960048036038101906104a491906123a4565b610db7565b005b60007f80ac58cd000000000000000000000000000000000000000000000000000000007bffffffffffffffffffffffffffffffffffffffffffffffffffffffff1916827bffffffffffffffffffffffffffffffffffffffffffffffffffffffff1916148061057657507f5b5e139f000000000000000000000000000000000000000000000000000000007bffffffffffffffffffffffffffffffffffffffffffffffffffffffff1916827bffffffffffffffffffffffffffffffffffffffffffffffffffffffff1916145b80610586575061058582610eaf565b5b9050919050565b60606000805461059c906125d0565b80601f01602080910402602001604051908101604052809291908181526020018280546105c8906125d0565b80156106155780601f106105ea57610100808354040283529160200191610615565b820191906000526020600020905b8154815290600101906020018083116105f857829003601f168201915b5050505050905090565b600061062a82610f19565b610669576040517f08c379a000000000000000000000000000000000000000000000000000000000815260040161066090612674565b60405180910390fd5b6004600083815260200190815260200160002060009054906101000a900473ffffffffffffffffffffffffffffffffffffffff169050919050565b60008082116106e8576040517f08c379a00000000000000000000000000000000000000000000000000000000081526004016106df906126e0565b60405180910390fd5b6106f26008610f85565b60006106fe6008610f9b565b905061070a8582610fa9565b6107148185610fc7565b8260096000838152602001908152602001600020819055507f7ad3b13b7c3746750560e47a50427c59add26e172574ed9eae86be47839170a3858286866040516107619493929190612700565b60405180910390a1809150509392505050565b600061077f82610978565b90508073ffffffffffffffffffffffffffffffffffffffff168373ffffffffffffffffffffffffffffffffffffffff1614156107f0576040517f08c379a00000000000000000000000000000000000000000000000000000000081526004016107e7906127be565b60405180910390fd5b8073ffffffffffffffffffffffffffffffffffffffff1661080f61103b565b73ffffffffffffffffffffffffffffffffffffffff16148061083e575061083d8161083861103b565b610d23565b5b61087d576040517f08c379a000000000000000000000000000000000000000000000000000000000815260040161087490612850565b60405180910390fd5b6108878383611043565b505050565b61089d61089761103b565b826110fc565b6108dc576040517f08c379a00000000000000000000000000000000000000000000000000000000081526004016108d3906128e2565b60405180910390fd5b6108e78383836111da565b505050565b61090783838360405180602001604052806000815250610c3c565b505050565b6009600082815260200190815260200160002054341015610962576040517f08c379a00000000000000000000000000000000000000000000000000000000081526004016109599061294e565b60405180910390fd5b61097561096e82610978565b33836108ec565b50565b6000806002600084815260200190815260200160002060009054906101000a900473ffffffffffffffffffffffffffffffffffffffff169050600073ffffffffffffffffffffffffffffffffffffffff168173ffffffffffffffffffffffffffffffffffffffff161415610a21576040517f08c379a0000000000000000000000000000000000000000000000000000000008152600401610a18906129e0565b60405180910390fd5b80915050919050565b60008073ffffffffffffffffffffffffffffffffffffffff168273ffffffffffffffffffffffffffffffffffffffff161415610a9b576040517f08c379a0000000000000000000000000000000000000000000000000000000008152600401610a9290612a72565b60405180910390fd5b600360008373ffffffffffffffffffffffffffffffffffffffff1673ffffffffffffffffffffffffffffffffffffffff168152602001908152602001600020549050919050565b610aea61103b565b73ffffffffffffffffffffffffffffffffffffffff16610b08610b6a565b73ffffffffffffffffffffffffffffffffffffffff1614610b5e576040517f08c379a0000000000000000000000000000000000000000000000000000000008152600401610b5590612ade565b60405180910390fd5b610b686000611441565b565b6000600760009054906101000a900473ffffffffffffffffffffffffffffffffffffffff16905090565b606060018054610ba3906125d0565b80601f0160208091040260200160405190810160405280929190818152602001828054610bcf906125d0565b8015610c1c5780601f10610bf157610100808354040283529160200191610c1c565b820191906000526020600020905b815481529060010190602001808311610bff57829003601f168201915b5050505050905090565b610c38610c3161103b565b8383611507565b5050565b610c4d610c4761103b565b836110fc565b610c8c576040517f08c379a0000000000000000000000000000000000000000000000000000000008152600401610c83906128e2565b60405180910390fd5b610c9884848484611674565b50505050565b6060610ca9826116d0565b9050919050565b60008060096000848152602001908152602001600020541415610d08576040517f08c379a0000000000000000000000000000000000000000000000000000000008152600401610cff90612b4a565b60405180910390fd5b60096000838152602001908152602001600020549050919050565b6000600560008473ffffffffffffffffffffffffffffffffffffffff1673ffffffffffffffffffffffffffffffffffffffff16815260200190815260200160002060008373ffffffffffffffffffffffffffffffffffffffff1673ffffffffffffffffffffffffffffffffffffffff16815260200190815260200160002060009054906101000a900460ff16905092915050565b610dbf61103b565b73ffffffffffffffffffffffffffffffffffffffff16610ddd610b6a565b73ffffffffffffffffffffffffffffffffffffffff1614610e33576040517f08c379a0000000000000000000000000000000000000000000000000000000008152600401610e2a90612ade565b60405180910390fd5b600073ffffffffffffffffffffffffffffffffffffffff168173ffffffffffffffffffffffffffffffffffffffff161415610ea3576040517f08c379a0000000000000000000000000000000000000000000000000000000008152600401610e9a90612bdc565b60405180910390fd5b610eac81611441565b50565b60007f01ffc9a7000000000000000000000000000000000000000000000000000000007bffffffffffffffffffffffffffffffffffffffffffffffffffffffff1916827bffffffffffffffffffffffffffffffffffffffffffffffffffffffff1916149050919050565b60008073ffffffffffffffffffffffffffffffffffffffff166002600084815260200190815260200160002060009054906101000a900473ffffffffffffffffffffffffffffffffffffffff1673ffffffffffffffffffffffffffffffffffffffff1614159050919050565b6001816000016000828254019250508190555050565b600081600001549050919050565b610fc3828260405180602001604052806000815250611822565b5050565b610fd082610f19565b61100f576040517f08c379a000000000000000000000000000000000000000000000000000000000815260040161100690612c6e565b60405180910390fd5b80600660008481526020019081526020016000209080519060200190611036929190611e2b565b505050565b600033905090565b816004600083815260200190815260200160002060006101000a81548173ffffffffffffffffffffffffffffffffffffffff021916908373ffffffffffffffffffffffffffffffffffffffff160217905550808273ffffffffffffffffffffffffffffffffffffffff166110b683610978565b73ffffffffffffffffffffffffffffffffffffffff167f8c5be1e5ebec7d5bd14f71427d1e84f3dd0314c0f7b2291e5b200ac8c7c3b92560405160405180910390a45050565b600061110782610f19565b611146576040517f08c379a000000000000000000000000000000000000000000000000000000000815260040161113d90612d00565b60405180910390fd5b600061115183610978565b90508073ffffffffffffffffffffffffffffffffffffffff168473ffffffffffffffffffffffffffffffffffffffff1614806111c057508373ffffffffffffffffffffffffffffffffffffffff166111a88461061f565b73ffffffffffffffffffffffffffffffffffffffff16145b806111d157506111d08185610d23565b5b91505092915050565b8273ffffffffffffffffffffffffffffffffffffffff166111fa82610978565b73ffffffffffffffffffffffffffffffffffffffff1614611250576040517f08c379a000000000000000000000000000000000000000000000000000000000815260040161124790612d92565b60405180910390fd5b600073ffffffffffffffffffffffffffffffffffffffff168273ffffffffffffffffffffffffffffffffffffffff1614156112c0576040517f08c379a00000000000000000000000000000000000000000000000000000000081526004016112b790612e24565b60405180910390fd5b6112cb83838361187d565b6112d6600082611043565b6001600360008573ffffffffffffffffffffffffffffffffffffffff1673ffffffffffffffffffffffffffffffffffffffff16815260200190815260200160002060008282546113269190612e73565b925050819055506001600360008473ffffffffffffffffffffffffffffffffffffffff1673ffffffffffffffffffffffffffffffffffffffff168152602001908152602001600020600082825461137d9190612ea7565b92505081905550816002600083815260200190815260200160002060006101000a81548173ffffffffffffffffffffffffffffffffffffffff021916908373ffffffffffffffffffffffffffffffffffffffff160217905550808273ffffffffffffffffffffffffffffffffffffffff168473ffffffffffffffffffffffffffffffffffffffff167fddf252ad1be2c89b69c2b068fc378daa952ba7f163c4a11628f55a4df523b3ef60405160405180910390a461143c838383611882565b505050565b6000600760009054906101000a900473ffffffffffffffffffffffffffffffffffffffff16905081600760006101000a81548173ffffffffffffffffffffffffffffffffffffffff021916908373ffffffffffffffffffffffffffffffffffffffff1602179055508173ffffffffffffffffffffffffffffffffffffffff168173ffffffffffffffffffffffffffffffffffffffff167f8be0079c531659141344cd1fd0a4f28419497f9722a3daafe3b4186f6b6457e060405160405180910390a35050565b8173ffffffffffffffffffffffffffffffffffffffff168373ffffffffffffffffffffffffffffffffffffffff161415611576576040517f08c379a000000000000000000000000000000000000000000000000000000000815260040161156d90612f49565b60405180910390fd5b80600560008573ffffffffffffffffffffffffffffffffffffffff1673ffffffffffffffffffffffffffffffffffffffff16815260200190815260200160002060008473ffffffffffffffffffffffffffffffffffffffff1673ffffffffffffffffffffffffffffffffffffffff16815260200190815260200160002060006101000a81548160ff0219169083151502179055508173ffffffffffffffffffffffffffffffffffffffff168373ffffffffffffffffffffffffffffffffffffffff167f17307eab39ab6107e8899845ad3d59bd9653f200f220920489ca2b5937696c31836040516116679190611f82565b60405180910390a3505050565b61167f8484846111da565b61168b84848484611887565b6116ca576040517f08c379a00000000000000000000000000000000000000000000000000000000081526004016116c190612fdb565b60405180910390fd5b50505050565b60606116db82610f19565b61171a576040517f08c379a00000000000000000000000000000000000000000000000000000000081526004016117119061306d565b60405180910390fd5b600060066000848152602001908152602001600020805461173a906125d0565b80601f0160208091040260200160405190810160405280929190818152602001828054611766906125d0565b80156117b35780601f10611788576101008083540402835291602001916117b3565b820191906000526020600020905b81548152906001019060200180831161179657829003601f168201915b5050505050905060006117c4611a0f565b90506000815114156117da57819250505061181d565b60008251111561180f5780826040516020016117f79291906130c9565b6040516020818303038152906040529250505061181d565b61181884611a26565b925050505b919050565b61182c8383611acd565b6118396000848484611887565b611878576040517f08c379a000000000000000000000000000000000000000000000000000000000815260040161186f90612fdb565b60405180910390fd5b505050565b505050565b505050565b60006118a88473ffffffffffffffffffffffffffffffffffffffff16611ca7565b15611a02578373ffffffffffffffffffffffffffffffffffffffff1663150b7a026118d161103b565b8786866040518563ffffffff1660e01b81526004016118f39493929190613142565b6020604051808303816000875af192505050801561192f57506040513d601f19601f8201168201806040525081019061192c91906131a3565b60015b6119b2573d806000811461195f576040519150601f19603f3d011682016040523d82523d6000602084013e611964565b606091505b506000815114156119aa576040517f08c379a00000000000000000000000000000000000000000000000000000000081526004016119a190612fdb565b60405180910390fd5b805181602001fd5b63150b7a0260e01b7bffffffffffffffffffffffffffffffffffffffffffffffffffffffff1916817bffffffffffffffffffffffffffffffffffffffffffffffffffffffff191614915050611a07565b600190505b949350505050565b606060405180602001604052806000815250905090565b6060611a3182610f19565b611a70576040517f08c379a0000000000000000000000000000000000000000000000000000000008152600401611a6790613242565b60405180910390fd5b6000611a7a611a0f565b90506000815111611a9a5760405180602001604052806000815250611ac5565b80611aa484611cca565b604051602001611ab59291906130c9565b6040516020818303038152906040525b915050919050565b600073ffffffffffffffffffffffffffffffffffffffff168273ffffffffffffffffffffffffffffffffffffffff161415611b3d576040517f08c379a0000000000000000000000000000000000000000000000000000000008152600401611b34906132ae565b60405180910390fd5b611b4681610f19565b15611b86576040517f08c379a0000000000000000000000000000000000000000000000000000000008152600401611b7d9061331a565b60405180910390fd5b611b926000838361187d565b6001600360008473ffffffffffffffffffffffffffffffffffffffff1673ffffffffffffffffffffffffffffffffffffffff1681526020019081526020016000206000828254611be29190612ea7565b92505081905550816002600083815260200190815260200160002060006101000a81548173ffffffffffffffffffffffffffffffffffffffff021916908373ffffffffffffffffffffffffffffffffffffffff160217905550808273ffffffffffffffffffffffffffffffffffffffff16600073ffffffffffffffffffffffffffffffffffffffff167fddf252ad1be2c89b69c2b068fc378daa952ba7f163c4a11628f55a4df523b3ef60405160405180910390a4611ca360008383611882565b5050565b6000808273ffffffffffffffffffffffffffffffffffffffff163b119050919050565b60606000821415611d12576040518060400160405280600181526020017f30000000000000000000000000000000000000000000000000000000000000008152509050611e26565b600082905060005b60008214611d44578080611d2d9061333a565b915050600a82611d3d91906133b2565b9150611d1a565b60008167ffffffffffffffff811115611d6057611d5f61214d565b5b6040519080825280601f01601f191660200182016040528015611d925781602001600182028036833780820191505090505b5090505b60008514611e1f57600182611dab9190612e73565b9150600a85611dba91906133e3565b6030611dc69190612ea7565b60f81b818381518110611ddc57611ddb613414565b5b60200101907effffffffffffffffffffffffffffffffffffffffffffffffffffffffffffff1916908160001a905350600a85611e1891906133b2565b9450611d96565b8093505050505b919050565b828054611e37906125d0565b90600052602060002090601f016020900481019282611e595760008555611ea0565b82601f10611e7257805160ff1916838001178555611ea0565b82800160010185558215611ea0579182015b82811115611e9f578251825591602001919060010190611e84565b5b509050611ead9190611eb1565b5090565b5b80821115611eca576000816000905550600101611eb2565b5090565b6000604051905090565b600080fd5b600080fd5b60007fffffffff0000000000000000000000000000000000000000000000000000000082169050919050565b611f1781611ee2565b8114611f2257600080fd5b50565b600081359050611f3481611f0e565b92915050565b600060208284031215611f5057611f4f611ed8565b5b6000611f5e84828501611f25565b91505092915050565b60008115159050919050565b611f7c81611f67565b82525050565b6000602082019050611f976000830184611f73565b92915050565b600081519050919050565b600082825260208201905092915050565b60005b83811015611fd7578082015181840152602081019050611fbc565b83811115611fe6576000848401525b50505050565b6000601f19601f8301169050919050565b600061200882611f9d565b6120128185611fa8565b9350612022818560208601611fb9565b61202b81611fec565b840191505092915050565b600060208201905081810360008301526120508184611ffd565b905092915050565b6000819050919050565b61206b81612058565b811461207657600080fd5b50565b60008135905061208881612062565b92915050565b6000602082840312156120a4576120a3611ed8565b5b60006120b284828501612079565b91505092915050565b600073ffffffffffffffffffffffffffffffffffffffff82169050919050565b60006120e6826120bb565b9050919050565b6120f6816120db565b82525050565b600060208201905061211160008301846120ed565b92915050565b612120816120db565b811461212b57600080fd5b50565b60008135905061213d81612117565b92915050565b600080fd5b600080fd5b7f4e487b7100000000000000000000000000000000000000000000000000000000600052604160045260246000fd5b61218582611fec565b810181811067ffffffffffffffff821117156121a4576121a361214d565b5b80604052505050565b60006121b7611ece565b90506121c3828261217c565b919050565b600067ffffffffffffffff8211156121e3576121e261214d565b5b6121ec82611fec565b9050602081019050919050565b82818337600083830152505050565b600061221b612216846121c8565b6121ad565b90508281526020810184848401111561223757612236612148565b5b6122428482856121f9565b509392505050565b600082601f83011261225f5761225e612143565b5b813561226f848260208601612208565b91505092915050565b60008060006060848603121561229157612290611ed8565b5b600061229f8682870161212e565b935050602084013567ffffffffffffffff8111156122c0576122bf611edd565b5b6122cc8682870161224a565b92505060406122dd86828701612079565b9150509250925092565b6122f081612058565b82525050565b600060208201905061230b60008301846122e7565b92915050565b6000806040838503121561232857612327611ed8565b5b60006123368582860161212e565b925050602061234785828601612079565b9150509250929050565b60008060006060848603121561236a57612369611ed8565b5b60006123788682870161212e565b93505060206123898682870161212e565b925050604061239a86828701612079565b9150509250925092565b6000602082840312156123ba576123b9611ed8565b5b60006123c88482850161212e565b91505092915050565b6123da81611f67565b81146123e557600080fd5b50565b6000813590506123f7816123d1565b92915050565b6000806040838503121561241457612413611ed8565b5b60006124228582860161212e565b9250506020612433858286016123e8565b9150509250929050565b600067ffffffffffffffff8211156124585761245761214d565b5b61246182611fec565b9050602081019050919050565b600061248161247c8461243d565b6121ad565b90508281526020810184848401111561249d5761249c612148565b5b6124a88482856121f9565b509392505050565b600082601f8301126124c5576124c4612143565b5b81356124d584826020860161246e565b91505092915050565b600080600080608085870312156124f8576124f7611ed8565b5b60006125068782880161212e565b94505060206125178782880161212e565b935050604061252887828801612079565b925050606085013567ffffffffffffffff81111561254957612548611edd565b5b612555878288016124b0565b91505092959194509250565b6000806040838503121561257857612577611ed8565b5b60006125868582860161212e565b92505060206125978582860161212e565b9150509250929050565b7f4e487b7100000000000000000000000000000000000000000000000000000000600052602260045260246000fd5b600060028204905060018216806125e857607f821691505b602082108114156125fc576125fb6125a1565b5b50919050565b7f4552433732313a20617070726f76656420717565727920666f72206e6f6e657860008201527f697374656e7420746f6b656e0000000000000000000000000000000000000000602082015250565b600061265e602c83611fa8565b915061266982612602565b604082019050919050565b6000602082019050818103600083015261268d81612651565b9050919050565b7f5072696365206d7573742062652067726561746572207468616e203000000000600082015250565b60006126ca601c83611fa8565b91506126d582612694565b602082019050919050565b600060208201905081810360008301526126f9816126bd565b9050919050565b600060808201905061271560008301876120ed565b61272260208301866122e7565b81810360408301526127348185611ffd565b905061274360608301846122e7565b95945050505050565b7f4552433732313a20617070726f76616c20746f2063757272656e74206f776e6560008201527f7200000000000000000000000000000000000000000000000000000000000000602082015250565b60006127a8602183611fa8565b91506127b38261274c565b604082019050919050565b600060208201905081810360008301526127d78161279b565b9050919050565b7f4552433732313a20617070726f76652063616c6c6572206973206e6f74206f7760008201527f6e6572206e6f7220617070726f76656420666f7220616c6c0000000000000000602082015250565b600061283a603883611fa8565b9150612845826127de565b604082019050919050565b600060208201905081810360008301526128698161282d565b9050919050565b7f4552433732313a207472616e736665722063616c6c6572206973206e6f74206f60008201527f776e6572206e6f7220617070726f766564000000000000000000000000000000602082015250565b60006128cc603183611fa8565b91506128d782612870565b604082019050919050565b600060208201905081810360008301526128fb816128bf565b9050919050565b7f496e73756666696369656e74206777656920666f722070757263686173650000600082015250565b6000612938601e83611fa8565b915061294382612902565b602082019050919050565b600060208201905081810360008301526129678161292b565b9050919050565b7f4552433732313a206f776e657220717565727920666f72206e6f6e657869737460008201527f656e7420746f6b656e0000000000000000000000000000000000000000000000602082015250565b60006129ca602983611fa8565b91506129d58261296e565b604082019050919050565b600060208201905081810360008301526129f9816129bd565b9050919050565b7f4552433732313a2062616c616e636520717565727920666f7220746865207a6560008201527f726f206164647265737300000000000000000000000000000000000000000000602082015250565b6000612a5c602a83611fa8565b9150612a6782612a00565b604082019050919050565b60006020820190508181036000830152612a8b81612a4f565b9050919050565b7f4f776e61626c653a2063616c6c6572206973206e6f7420746865206f776e6572600082015250565b6000612ac8602083611fa8565b9150612ad382612a92565b602082019050919050565b60006020820190508181036000830152612af781612abb565b9050919050565b7f546f6b656e20707269636520646f6573206e6f74206578697374000000000000600082015250565b6000612b34601a83611fa8565b9150612b3f82612afe565b602082019050919050565b60006020820190508181036000830152612b6381612b27565b9050919050565b7f4f776e61626c653a206e6577206f776e657220697320746865207a65726f206160008201527f6464726573730000000000000000000000000000000000000000000000000000602082015250565b6000612bc6602683611fa8565b9150612bd182612b6a565b604082019050919050565b60006020820190508181036000830152612bf581612bb9565b9050919050565b7f45524337323155524953746f726167653a2055524920736574206f66206e6f6e60008201527f6578697374656e7420746f6b656e000000000000000000000000000000000000602082015250565b6000612c58602e83611fa8565b9150612c6382612bfc565b604082019050919050565b60006020820190508181036000830152612c8781612c4b565b9050919050565b7f4552433732313a206f70657261746f7220717565727920666f72206e6f6e657860008201527f697374656e7420746f6b656e0000000000000000000000000000000000000000602082015250565b6000612cea602c83611fa8565b9150612cf582612c8e565b604082019050919050565b60006020820190508181036000830152612d1981612cdd565b9050919050565b7f4552433732313a207472616e736665722066726f6d20696e636f72726563742060008201527f6f776e6572000000000000000000000000000000000000000000000000000000602082015250565b6000612d7c602583611fa8565b9150612d8782612d20565b604082019050919050565b60006020820190508181036000830152612dab81612d6f565b9050919050565b7f4552433732313a207472616e7366657220746f20746865207a65726f2061646460008201527f7265737300000000000000000000000000000000000000000000000000000000602082015250565b6000612e0e602483611fa8565b9150612e1982612db2565b604082019050919050565b60006020820190508181036000830152612e3d81612e01565b9050919050565b7f4e487b7100000000000000000000000000000000000000000000000000000000600052601160045260246000fd5b6000612e7e82612058565b9150612e8983612058565b925082821015612e9c57612e9b612e44565b5b828203905092915050565b6000612eb282612058565b9150612ebd83612058565b9250827fffffffffffffffffffffffffffffffffffffffffffffffffffffffffffffffff03821115612ef257612ef1612e44565b5b828201905092915050565b7f4552433732313a20617070726f766520746f2063616c6c657200000000000000600082015250565b6000612f33601983611fa8565b9150612f3e82612efd565b602082019050919050565b60006020820190508181036000830152612f6281612f26565b9050919050565b7f4552433732313a207472616e7366657220746f206e6f6e20455243373231526560008201527f63656976657220696d706c656d656e7465720000000000000000000000000000602082015250565b6000612fc5603283611fa8565b9150612fd082612f69565b604082019050919050565b60006020820190508181036000830152612ff481612fb8565b9050919050565b7f45524337323155524953746f726167653a2055524920717565727920666f722060008201527f6e6f6e6578697374656e7420746f6b656e000000000000000000000000000000602082015250565b6000613057603183611fa8565b915061306282612ffb565b604082019050919050565b600060208201905081810360008301526130868161304a565b9050919050565b600081905092915050565b60006130a382611f9d565b6130ad818561308d565b93506130bd818560208601611fb9565b80840191505092915050565b60006130d58285613098565b91506130e18284613098565b91508190509392505050565b600081519050919050565b600082825260208201905092915050565b6000613114826130ed565b61311e81856130f8565b935061312e818560208601611fb9565b61313781611fec565b840191505092915050565b600060808201905061315760008301876120ed565b61316460208301866120ed565b61317160408301856122e7565b81810360608301526131838184613109565b905095945050505050565b60008151905061319d81611f0e565b92915050565b6000602082840312156131b9576131b8611ed8565b5b60006131c78482850161318e565b91505092915050565b7f4552433732314d657461646174613a2055524920717565727920666f72206e6f60008201527f6e6578697374656e7420746f6b656e0000000000000000000000000000000000602082015250565b600061322c602f83611fa8565b9150613237826131d0565b604082019050919050565b6000602082019050818103600083015261325b8161321f565b9050919050565b7f4552433732313a206d696e7420746f20746865207a65726f2061646472657373600082015250565b6000613298602083611fa8565b91506132a382613262565b602082019050919050565b600060208201905081810360008301526132c78161328b565b9050919050565b7f4552433732313a20746f6b656e20616c7265616479206d696e74656400000000600082015250565b6000613304601c83611fa8565b915061330f826132ce565b602082019050919050565b60006020820190508181036000830152613333816132f7565b9050919050565b600061334582612058565b91507fffffffffffffffffffffffffffffffffffffffffffffffffffffffffffffffff82141561337857613377612e44565b5b600182019050919050565b7f4e487b7100000000000000000000000000000000000000000000000000000000600052601260045260246000fd5b60006133bd82612058565b91506133c883612058565b9250826133d8576133d7613383565b5b828204905092915050565b60006133ee82612058565b91506133f983612058565b92508261340957613408613383565b5b828206905092915050565b7f4e487b7100000000000000000000000000000000000000000000000000000000600052603260045260246000fdfea264697066735822122011cca9a2207a8336f880145be4c6486e0e85748e97eb6edbcdfb3c35c519532664736f6c634300080b0033",
    "linkReferences": {},
    "deployedLinkReferences": {}
}