{
    "_format": "hh-sol-artifact-1",
    "contractName": "Nude",
    "sourceName": "contracts/Nude.sol",
    "abi": [
        {
            "inputs": [],
            "stateMutability": "nonpayable",
            "type": "constructor"
        },
        {
            "anonymous": false,
            "inputs": [
                {
                    "indexed": true,
                    "internalType": "address",
                    "name": "owner",
                    "type": "address"
                },
                {
                    "indexed": true,
                    "internalType": "address",
                    "name": "spender",
                    "type": "address"
                },
                {
                    "indexed": false,
                    "internalType": "uint256",
                    "name": "value",
                    "type": "uint256"
                }
            ],
            "name": "Approval",
            "type": "event"
        },
        {
            "anonymous": false,
            "inputs": [
                {
                    "indexed": true,
                    "internalType": "address",
                    "name": "previousOwner",
                    "type": "address"
                },
                {
                    "indexed": true,
                    "internalType": "address",
                    "name": "newOwner",
                    "type": "address"
                }
            ],
            "name": "OwnershipTransferred",
            "type": "event"
        },
        {
            "anonymous": false,
            "inputs": [
                {
                    "indexed": false,
                    "internalType": "address",
                    "name": "_buyer",
                    "type": "address"
                },
                {
                    "indexed": false,
                    "internalType": "uint256",
                    "name": "_amount",
                    "type": "uint256"
                }
            ],
            "name": "Sell",
            "type": "event"
        },
        {
            "anonymous": false,
            "inputs": [
                {
                    "indexed": true,
                    "internalType": "address",
                    "name": "from",
                    "type": "address"
                },
                {
                    "indexed": true,
                    "internalType": "address",
                    "name": "to",
                    "type": "address"
                },
                {
                    "indexed": false,
                    "internalType": "uint256",
                    "name": "value",
                    "type": "uint256"
                }
            ],
            "name": "Transfer",
            "type": "event"
        },
        {
            "inputs": [
                {
                    "internalType": "address",
                    "name": "owner",
                    "type": "address"
                },
                {
                    "internalType": "address",
                    "name": "spender",
                    "type": "address"
                }
            ],
            "name": "allowance",
            "outputs": [
                {
                    "internalType": "uint256",
                    "name": "",
                    "type": "uint256"
                }
            ],
            "stateMutability": "view",
            "type": "function"
        },
        {
            "inputs": [
                {
                    "internalType": "address",
                    "name": "spender",
                    "type": "address"
                },
                {
                    "internalType": "uint256",
                    "name": "amount",
                    "type": "uint256"
                }
            ],
            "name": "approve",
            "outputs": [
                {
                    "internalType": "bool",
                    "name": "",
                    "type": "bool"
                }
            ],
            "stateMutability": "nonpayable",
            "type": "function"
        },
        {
            "inputs": [
                {
                    "internalType": "address",
                    "name": "account",
                    "type": "address"
                }
            ],
            "name": "balanceOf",
            "outputs": [
                {
                    "internalType": "uint256",
                    "name": "",
                    "type": "uint256"
                }
            ],
            "stateMutability": "view",
            "type": "function"
        },
        {
            "inputs": [
                {
                    "internalType": "uint256",
                    "name": "_numberOfTokens",
                    "type": "uint256"
                }
            ],
            "name": "buyTokens",
            "outputs": [],
            "stateMutability": "payable",
            "type": "function"
        },
        {
            "inputs": [],
            "name": "decimals",
            "outputs": [
                {
                    "internalType": "uint8",
                    "name": "",
                    "type": "uint8"
                }
            ],
            "stateMutability": "view",
            "type": "function"
        },
        {
            "inputs": [
                {
                    "internalType": "address",
                    "name": "spender",
                    "type": "address"
                },
                {
                    "internalType": "uint256",
                    "name": "subtractedValue",
                    "type": "uint256"
                }
            ],
            "name": "decreaseAllowance",
            "outputs": [
                {
                    "internalType": "bool",
                    "name": "",
                    "type": "bool"
                }
            ],
            "stateMutability": "nonpayable",
            "type": "function"
        },
        {
            "inputs": [
                {
                    "internalType": "address",
                    "name": "spender",
                    "type": "address"
                },
                {
                    "internalType": "uint256",
                    "name": "addedValue",
                    "type": "uint256"
                }
            ],
            "name": "increaseAllowance",
            "outputs": [
                {
                    "internalType": "bool",
                    "name": "",
                    "type": "bool"
                }
            ],
            "stateMutability": "nonpayable",
            "type": "function"
        },
        {
            "inputs": [],
            "name": "initialSupply",
            "outputs": [
                {
                    "internalType": "uint256",
                    "name": "",
                    "type": "uint256"
                }
            ],
            "stateMutability": "view",
            "type": "function"
        },
        {
            "inputs": [],
            "name": "name",
            "outputs": [
                {
                    "internalType": "string",
                    "name": "",
                    "type": "string"
                }
            ],
            "stateMutability": "view",
            "type": "function"
        },
        {
            "inputs": [],
            "name": "owner",
            "outputs": [
                {
                    "internalType": "address",
                    "name": "",
                    "type": "address"
                }
            ],
            "stateMutability": "view",
            "type": "function"
        },
        {
            "inputs": [],
            "name": "renounceOwnership",
            "outputs": [],
            "stateMutability": "nonpayable",
            "type": "function"
        },
        {
            "inputs": [
                {
                    "internalType": "uint256",
                    "name": "_rate",
                    "type": "uint256"
                }
            ],
            "name": "setTokenRate",
            "outputs": [],
            "stateMutability": "nonpayable",
            "type": "function"
        },
        {
            "inputs": [],
            "name": "symbol",
            "outputs": [
                {
                    "internalType": "string",
                    "name": "",
                    "type": "string"
                }
            ],
            "stateMutability": "view",
            "type": "function"
        },
        {
            "inputs": [],
            "name": "tokensSold",
            "outputs": [
                {
                    "internalType": "uint256",
                    "name": "",
                    "type": "uint256"
                }
            ],
            "stateMutability": "view",
            "type": "function"
        },
        {
            "inputs": [],
            "name": "totalSupply",
            "outputs": [
                {
                    "internalType": "uint256",
                    "name": "",
                    "type": "uint256"
                }
            ],
            "stateMutability": "view",
            "type": "function"
        },
        {
            "inputs": [
                {
                    "internalType": "address",
                    "name": "to",
                    "type": "address"
                },
                {
                    "internalType": "uint256",
                    "name": "amount",
                    "type": "uint256"
                }
            ],
            "name": "transfer",
            "outputs": [
                {
                    "internalType": "bool",
                    "name": "",
                    "type": "bool"
                }
            ],
            "stateMutability": "nonpayable",
            "type": "function"
        },
        {
            "inputs": [
                {
                    "internalType": "address",
                    "name": "from",
                    "type": "address"
                },
                {
                    "internalType": "address",
                    "name": "to",
                    "type": "address"
                },
                {
                    "internalType": "uint256",
                    "name": "amount",
                    "type": "uint256"
                }
            ],
            "name": "transferFrom",
            "outputs": [
                {
                    "internalType": "bool",
                    "name": "",
                    "type": "bool"
                }
            ],
            "stateMutability": "nonpayable",
            "type": "function"
        },
        {
            "inputs": [
                {
                    "internalType": "address",
                    "name": "newOwner",
                    "type": "address"
                }
            ],
            "name": "transferOwnership",
            "outputs": [],
            "stateMutability": "nonpayable",
            "type": "function"
        },
        {
            "inputs": [
                {
                    "internalType": "address",
                    "name": "from",
                    "type": "address"
                },
                {
                    "internalType": "address",
                    "name": "to",
                    "type": "address"
                },
                {
                    "internalType": "uint256",
                    "name": "amount",
                    "type": "uint256"
                }
            ],
            "name": "transferTokens",
            "outputs": [],
            "stateMutability": "nonpayable",
            "type": "function"
        }
    ],
    "bytecode": "0x60806040526304277dc9600655600a6008553480156200001e57600080fd5b506040518060400160405280600481526020017f4e756465000000000000000000000000000000000000000000000000000000008152506040518060400160405280600481526020017f4e554445000000000000000000000000000000000000000000000000000000008152508160039080519060200190620000a39291906200037c565b508060049080519060200190620000bc9291906200037c565b505050620000df620000d36200012360201b60201c565b6200012b60201b60201c565b6200011d33620000f4620001f160201b60201c565b600a620001029190620005c6565b60065462000111919062000617565b620001fa60201b60201c565b620007ea565b600033905090565b6000600560009054906101000a900473ffffffffffffffffffffffffffffffffffffffff16905081600560006101000a81548173ffffffffffffffffffffffffffffffffffffffff021916908373ffffffffffffffffffffffffffffffffffffffff1602179055508173ffffffffffffffffffffffffffffffffffffffff168173ffffffffffffffffffffffffffffffffffffffff167f8be0079c531659141344cd1fd0a4f28419497f9722a3daafe3b4186f6b6457e060405160405180910390a35050565b60006012905090565b600073ffffffffffffffffffffffffffffffffffffffff168273ffffffffffffffffffffffffffffffffffffffff16036200026c576040517f08c379a00000000000000000000000000000000000000000000000000000000081526004016200026390620006d9565b60405180910390fd5b62000280600083836200037260201b60201c565b8060026000828254620002949190620006fb565b92505081905550806000808473ffffffffffffffffffffffffffffffffffffffff1673ffffffffffffffffffffffffffffffffffffffff1681526020019081526020016000206000828254620002eb9190620006fb565b925050819055508173ffffffffffffffffffffffffffffffffffffffff16600073ffffffffffffffffffffffffffffffffffffffff167fddf252ad1be2c89b69c2b068fc378daa952ba7f163c4a11628f55a4df523b3ef8360405162000352919062000769565b60405180910390a36200036e600083836200037760201b60201c565b5050565b505050565b505050565b8280546200038a90620007b5565b90600052602060002090601f016020900481019282620003ae5760008555620003fa565b82601f10620003c957805160ff1916838001178555620003fa565b82800160010185558215620003fa579182015b82811115620003f9578251825591602001919060010190620003dc565b5b5090506200040991906200040d565b5090565b5b80821115620004285760008160009055506001016200040e565b5090565b7f4e487b7100000000000000000000000000000000000000000000000000000000600052601160045260246000fd5b60008160011c9050919050565b6000808291508390505b6001851115620004ba578086048111156200049257620004916200042c565b5b6001851615620004a25780820291505b8081029050620004b2856200045b565b945062000472565b94509492505050565b600082620004d55760019050620005a8565b81620004e55760009050620005a8565b8160018114620004fe576002811462000509576200053f565b6001915050620005a8565b60ff8411156200051e576200051d6200042c565b5b8360020a9150848211156200053857620005376200042c565b5b50620005a8565b5060208310610133831016604e8410600b8410161715620005795782820a9050838111156200057357620005726200042c565b5b620005a8565b62000588848484600162000468565b92509050818404811115620005a257620005a16200042c565b5b81810290505b9392505050565b6000819050919050565b600060ff82169050919050565b6000620005d382620005af565b9150620005e083620005b9565b92506200060f7fffffffffffffffffffffffffffffffffffffffffffffffffffffffffffffffff8484620004c3565b905092915050565b60006200062482620005af565b91506200063183620005af565b9250817fffffffffffffffffffffffffffffffffffffffffffffffffffffffffffffffff04831182151516156200066d576200066c6200042c565b5b828202905092915050565b600082825260208201905092915050565b7f45524332303a206d696e7420746f20746865207a65726f206164647265737300600082015250565b6000620006c1601f8362000678565b9150620006ce8262000689565b602082019050919050565b60006020820190508181036000830152620006f481620006b2565b9050919050565b60006200070882620005af565b91506200071583620005af565b9250827fffffffffffffffffffffffffffffffffffffffffffffffffffffffffffffffff038211156200074d576200074c6200042c565b5b828201905092915050565b6200076381620005af565b82525050565b600060208201905062000780600083018462000758565b92915050565b7f4e487b7100000000000000000000000000000000000000000000000000000000600052602260045260246000fd5b60006002820490506001821680620007ce57607f821691505b602082108103620007e457620007e362000786565b5b50919050565b611ba080620007fa6000396000f3fe6080604052600436106101145760003560e01c806361241c28116100a0578063a457c2d711610064578063a457c2d714610396578063a64b6e5f146103d3578063a9059cbb146103fc578063dd62ed3e14610439578063f2fde38b1461047657610114565b806361241c28146102c357806370a08231146102ec578063715018a6146103295780638da5cb5b1461034057806395d89b411461036b57610114565b8063313ce567116100e7578063313ce567146101e95780633610724e14610214578063378dc3dc14610230578063395093511461025b578063518ab2a81461029857610114565b806306fdde0314610119578063095ea7b31461014457806318160ddd1461018157806323b872dd146101ac575b600080fd5b34801561012557600080fd5b5061012e61049f565b60405161013b91906111ab565b60405180910390f35b34801561015057600080fd5b5061016b60048036038101906101669190611266565b610531565b60405161017891906112c1565b60405180910390f35b34801561018d57600080fd5b50610196610554565b6040516101a391906112eb565b60405180910390f35b3480156101b857600080fd5b506101d360048036038101906101ce9190611306565b61055e565b6040516101e091906112c1565b60405180910390f35b3480156101f557600080fd5b506101fe61058d565b60405161020b9190611375565b60405180910390f35b61022e60048036038101906102299190611390565b610596565b005b34801561023c57600080fd5b5061024561069e565b60405161025291906112eb565b60405180910390f35b34801561026757600080fd5b50610282600480360381019061027d9190611266565b6106a4565b60405161028f91906112c1565b60405180910390f35b3480156102a457600080fd5b506102ad6106db565b6040516102ba91906112eb565b60405180910390f35b3480156102cf57600080fd5b506102ea60048036038101906102e59190611390565b6106e1565b005b3480156102f857600080fd5b50610313600480360381019061030e91906113bd565b610767565b60405161032091906112eb565b60405180910390f35b34801561033557600080fd5b5061033e6107af565b005b34801561034c57600080fd5b50610355610837565b60405161036291906113f9565b60405180910390f35b34801561037757600080fd5b50610380610861565b60405161038d91906111ab565b60405180910390f35b3480156103a257600080fd5b506103bd60048036038101906103b89190611266565b6108f3565b6040516103ca91906112c1565b60405180910390f35b3480156103df57600080fd5b506103fa60048036038101906103f59190611306565b61096a565b005b34801561040857600080fd5b50610423600480360381019061041e9190611266565b6109c5565b60405161043091906112c1565b60405180910390f35b34801561044557600080fd5b50610460600480360381019061045b9190611414565b6109e8565b60405161046d91906112eb565b60405180910390f35b34801561048257600080fd5b5061049d600480360381019061049891906113bd565b610a6f565b005b6060600380546104ae90611483565b80601f01602080910402602001604051908101604052809291908181526020018280546104da90611483565b80156105275780601f106104fc57610100808354040283529160200191610527565b820191906000526020600020905b81548152906001019060200180831161050a57829003601f168201915b5050505050905090565b60008061053c610b66565b9050610549818585610b6e565b600191505092915050565b6000600254905090565b600080610569610b66565b9050610576858285610d37565b610581858585610dc3565b60019150509392505050565b60006012905090565b600854816105a491906114e3565b34146105e5576040517f08c379a00000000000000000000000000000000000000000000000000000000081526004016105dc90611589565b60405180910390fd5b806105f66105f1610837565b610767565b1015610637576040517f08c379a000000000000000000000000000000000000000000000000000000000815260040161062e906115f5565b60405180910390fd5b610649610642610837565b3383610dc3565b806007600082825461065b9190611615565b925050819055507f5e5e995ce3133561afceaa51a9a154d5db228cd7525d34df5185582c18d3df09338260405161069392919061166b565b60405180910390a150565b60065481565b6000806106af610b66565b90506106d08185856106c185896109e8565b6106cb9190611615565b610b6e565b600191505092915050565b60075481565b6106e9610b66565b73ffffffffffffffffffffffffffffffffffffffff16610707610837565b73ffffffffffffffffffffffffffffffffffffffff161461075d576040517f08c379a0000000000000000000000000000000000000000000000000000000008152600401610754906116e0565b60405180910390fd5b8060088190555050565b60008060008373ffffffffffffffffffffffffffffffffffffffff1673ffffffffffffffffffffffffffffffffffffffff168152602001908152602001600020549050919050565b6107b7610b66565b73ffffffffffffffffffffffffffffffffffffffff166107d5610837565b73ffffffffffffffffffffffffffffffffffffffff161461082b576040517f08c379a0000000000000000000000000000000000000000000000000000000008152600401610822906116e0565b60405180910390fd5b6108356000611042565b565b6000600560009054906101000a900473ffffffffffffffffffffffffffffffffffffffff16905090565b60606004805461087090611483565b80601f016020809104026020016040519081016040528092919081815260200182805461089c90611483565b80156108e95780601f106108be576101008083540402835291602001916108e9565b820191906000526020600020905b8154815290600101906020018083116108cc57829003601f168201915b5050505050905090565b6000806108fe610b66565b9050600061090c82866109e8565b905083811015610951576040517f08c379a000000000000000000000000000000000000000000000000000000000815260040161094890611772565b60405180910390fd5b61095e8286868403610b6e565b60019250505092915050565b8061097484610767565b10156109b5576040517f08c379a00000000000000000000000000000000000000000000000000000000081526004016109ac906115f5565b60405180910390fd5b6109c0838383610dc3565b505050565b6000806109d0610b66565b90506109dd818585610dc3565b600191505092915050565b6000600160008473ffffffffffffffffffffffffffffffffffffffff1673ffffffffffffffffffffffffffffffffffffffff16815260200190815260200160002060008373ffffffffffffffffffffffffffffffffffffffff1673ffffffffffffffffffffffffffffffffffffffff16815260200190815260200160002054905092915050565b610a77610b66565b73ffffffffffffffffffffffffffffffffffffffff16610a95610837565b73ffffffffffffffffffffffffffffffffffffffff1614610aeb576040517f08c379a0000000000000000000000000000000000000000000000000000000008152600401610ae2906116e0565b60405180910390fd5b600073ffffffffffffffffffffffffffffffffffffffff168173ffffffffffffffffffffffffffffffffffffffff1603610b5a576040517f08c379a0000000000000000000000000000000000000000000000000000000008152600401610b5190611804565b60405180910390fd5b610b6381611042565b50565b600033905090565b600073ffffffffffffffffffffffffffffffffffffffff168373ffffffffffffffffffffffffffffffffffffffff1603610bdd576040517f08c379a0000000000000000000000000000000000000000000000000000000008152600401610bd490611896565b60405180910390fd5b600073ffffffffffffffffffffffffffffffffffffffff168273ffffffffffffffffffffffffffffffffffffffff1603610c4c576040517f08c379a0000000000000000000000000000000000000000000000000000000008152600401610c4390611928565b60405180910390fd5b80600160008573ffffffffffffffffffffffffffffffffffffffff1673ffffffffffffffffffffffffffffffffffffffff16815260200190815260200160002060008473ffffffffffffffffffffffffffffffffffffffff1673ffffffffffffffffffffffffffffffffffffffff168152602001908152602001600020819055508173ffffffffffffffffffffffffffffffffffffffff168373ffffffffffffffffffffffffffffffffffffffff167f8c5be1e5ebec7d5bd14f71427d1e84f3dd0314c0f7b2291e5b200ac8c7c3b92583604051610d2a91906112eb565b60405180910390a3505050565b6000610d4384846109e8565b90507fffffffffffffffffffffffffffffffffffffffffffffffffffffffffffffffff8114610dbd5781811015610daf576040517f08c379a0000000000000000000000000000000000000000000000000000000008152600401610da690611994565b60405180910390fd5b610dbc8484848403610b6e565b5b50505050565b600073ffffffffffffffffffffffffffffffffffffffff168373ffffffffffffffffffffffffffffffffffffffff1603610e32576040517f08c379a0000000000000000000000000000000000000000000000000000000008152600401610e2990611a26565b60405180910390fd5b600073ffffffffffffffffffffffffffffffffffffffff168273ffffffffffffffffffffffffffffffffffffffff1603610ea1576040517f08c379a0000000000000000000000000000000000000000000000000000000008152600401610e9890611ab8565b60405180910390fd5b610eac838383611108565b60008060008573ffffffffffffffffffffffffffffffffffffffff1673ffffffffffffffffffffffffffffffffffffffff16815260200190815260200160002054905081811015610f32576040517f08c379a0000000000000000000000000000000000000000000000000000000008152600401610f2990611b4a565b60405180910390fd5b8181036000808673ffffffffffffffffffffffffffffffffffffffff1673ffffffffffffffffffffffffffffffffffffffff16815260200190815260200160002081905550816000808573ffffffffffffffffffffffffffffffffffffffff1673ffffffffffffffffffffffffffffffffffffffff1681526020019081526020016000206000828254610fc59190611615565b925050819055508273ffffffffffffffffffffffffffffffffffffffff168473ffffffffffffffffffffffffffffffffffffffff167fddf252ad1be2c89b69c2b068fc378daa952ba7f163c4a11628f55a4df523b3ef8460405161102991906112eb565b60405180910390a361103c84848461110d565b50505050565b6000600560009054906101000a900473ffffffffffffffffffffffffffffffffffffffff16905081600560006101000a81548173ffffffffffffffffffffffffffffffffffffffff021916908373ffffffffffffffffffffffffffffffffffffffff1602179055508173ffffffffffffffffffffffffffffffffffffffff168173ffffffffffffffffffffffffffffffffffffffff167f8be0079c531659141344cd1fd0a4f28419497f9722a3daafe3b4186f6b6457e060405160405180910390a35050565b505050565b505050565b600081519050919050565b600082825260208201905092915050565b60005b8381101561114c578082015181840152602081019050611131565b8381111561115b576000848401525b50505050565b6000601f19601f8301169050919050565b600061117d82611112565b611187818561111d565b935061119781856020860161112e565b6111a081611161565b840191505092915050565b600060208201905081810360008301526111c58184611172565b905092915050565b600080fd5b600073ffffffffffffffffffffffffffffffffffffffff82169050919050565b60006111fd826111d2565b9050919050565b61120d816111f2565b811461121857600080fd5b50565b60008135905061122a81611204565b92915050565b6000819050919050565b61124381611230565b811461124e57600080fd5b50565b6000813590506112608161123a565b92915050565b6000806040838503121561127d5761127c6111cd565b5b600061128b8582860161121b565b925050602061129c85828601611251565b9150509250929050565b60008115159050919050565b6112bb816112a6565b82525050565b60006020820190506112d660008301846112b2565b92915050565b6112e581611230565b82525050565b600060208201905061130060008301846112dc565b92915050565b60008060006060848603121561131f5761131e6111cd565b5b600061132d8682870161121b565b935050602061133e8682870161121b565b925050604061134f86828701611251565b9150509250925092565b600060ff82169050919050565b61136f81611359565b82525050565b600060208201905061138a6000830184611366565b92915050565b6000602082840312156113a6576113a56111cd565b5b60006113b484828501611251565b91505092915050565b6000602082840312156113d3576113d26111cd565b5b60006113e18482850161121b565b91505092915050565b6113f3816111f2565b82525050565b600060208201905061140e60008301846113ea565b92915050565b6000806040838503121561142b5761142a6111cd565b5b60006114398582860161121b565b925050602061144a8582860161121b565b9150509250929050565b7f4e487b7100000000000000000000000000000000000000000000000000000000600052602260045260246000fd5b6000600282049050600182168061149b57607f821691505b6020821081036114ae576114ad611454565b5b50919050565b7f4e487b7100000000000000000000000000000000000000000000000000000000600052601160045260246000fd5b60006114ee82611230565b91506114f983611230565b9250817fffffffffffffffffffffffffffffffffffffffffffffffffffffffffffffffff0483118215151615611532576115316114b4565b5b828202905092915050565b7f4e6f7420657861637420616d6f756e7400000000000000000000000000000000600082015250565b600061157360108361111d565b915061157e8261153d565b602082019050919050565b600060208201905081810360008301526115a281611566565b9050919050565b7f4e6f7420656e6f75676820746f6b656e73000000000000000000000000000000600082015250565b60006115df60118361111d565b91506115ea826115a9565b602082019050919050565b6000602082019050818103600083015261160e816115d2565b9050919050565b600061162082611230565b915061162b83611230565b9250827fffffffffffffffffffffffffffffffffffffffffffffffffffffffffffffffff038211156116605761165f6114b4565b5b828201905092915050565b600060408201905061168060008301856113ea565b61168d60208301846112dc565b9392505050565b7f4f776e61626c653a2063616c6c6572206973206e6f7420746865206f776e6572600082015250565b60006116ca60208361111d565b91506116d582611694565b602082019050919050565b600060208201905081810360008301526116f9816116bd565b9050919050565b7f45524332303a2064656372656173656420616c6c6f77616e63652062656c6f7760008201527f207a65726f000000000000000000000000000000000000000000000000000000602082015250565b600061175c60258361111d565b915061176782611700565b604082019050919050565b6000602082019050818103600083015261178b8161174f565b9050919050565b7f4f776e61626c653a206e6577206f776e657220697320746865207a65726f206160008201527f6464726573730000000000000000000000000000000000000000000000000000602082015250565b60006117ee60268361111d565b91506117f982611792565b604082019050919050565b6000602082019050818103600083015261181d816117e1565b9050919050565b7f45524332303a20617070726f76652066726f6d20746865207a65726f2061646460008201527f7265737300000000000000000000000000000000000000000000000000000000602082015250565b600061188060248361111d565b915061188b82611824565b604082019050919050565b600060208201905081810360008301526118af81611873565b9050919050565b7f45524332303a20617070726f766520746f20746865207a65726f20616464726560008201527f7373000000000000000000000000000000000000000000000000000000000000602082015250565b600061191260228361111d565b915061191d826118b6565b604082019050919050565b6000602082019050818103600083015261194181611905565b9050919050565b7f45524332303a20696e73756666696369656e7420616c6c6f77616e6365000000600082015250565b600061197e601d8361111d565b915061198982611948565b602082019050919050565b600060208201905081810360008301526119ad81611971565b9050919050565b7f45524332303a207472616e736665722066726f6d20746865207a65726f20616460008201527f6472657373000000000000000000000000000000000000000000000000000000602082015250565b6000611a1060258361111d565b9150611a1b826119b4565b604082019050919050565b60006020820190508181036000830152611a3f81611a03565b9050919050565b7f45524332303a207472616e7366657220746f20746865207a65726f206164647260008201527f6573730000000000000000000000000000000000000000000000000000000000602082015250565b6000611aa260238361111d565b9150611aad82611a46565b604082019050919050565b60006020820190508181036000830152611ad181611a95565b9050919050565b7f45524332303a207472616e7366657220616d6f756e742065786365656473206260008201527f616c616e63650000000000000000000000000000000000000000000000000000602082015250565b6000611b3460268361111d565b9150611b3f82611ad8565b604082019050919050565b60006020820190508181036000830152611b6381611b27565b905091905056fea26469706673582212208f853f6ca57b35ec938915726a6cc461a4514d0d42692a701bdf53765c2b020264736f6c634300080e0033",
    "linkReferences": {},
    "deployedLinkReferences": {}
}