{
  "_format": "hh-sol-artifact-1",
  "contractName": "NudeTimeLock",
  "sourceName": "contracts/NudeDAO.sol",
  "abi": [
    {
      "inputs": [
        {
          "internalType": "uint256",
          "name": "minDelay",
          "type": "uint256"
        },
        {
          "internalType": "address[]",
          "name": "proposers",
          "type": "address[]"
        },
        {
          "internalType": "address[]",
          "name": "executors",
          "type": "address[]"
        }
      ],
      "stateMutability": "nonpayable",
      "type": "constructor"
    },
    {
      "anonymous": false,
      "inputs": [
        {
          "indexed": true,
          "internalType": "bytes32",
          "name": "id",
          "type": "bytes32"
        },
        {
          "indexed": true,
          "internalType": "uint256",
          "name": "index",
          "type": "uint256"
        },
        {
          "indexed": false,
          "internalType": "address",
          "name": "target",
          "type": "address"
        },
        {
          "indexed": false,
          "internalType": "uint256",
          "name": "value",
          "type": "uint256"
        },
        {
          "indexed": false,
          "internalType": "bytes",
          "name": "data",
          "type": "bytes"
        }
      ],
      "name": "CallExecuted",
      "type": "event"
    },
    {
      "anonymous": false,
      "inputs": [
        {
          "indexed": true,
          "internalType": "bytes32",
          "name": "id",
          "type": "bytes32"
        },
        {
          "indexed": true,
          "internalType": "uint256",
          "name": "index",
          "type": "uint256"
        },
        {
          "indexed": false,
          "internalType": "address",
          "name": "target",
          "type": "address"
        },
        {
          "indexed": false,
          "internalType": "uint256",
          "name": "value",
          "type": "uint256"
        },
        {
          "indexed": false,
          "internalType": "bytes",
          "name": "data",
          "type": "bytes"
        },
        {
          "indexed": false,
          "internalType": "bytes32",
          "name": "predecessor",
          "type": "bytes32"
        },
        {
          "indexed": false,
          "internalType": "uint256",
          "name": "delay",
          "type": "uint256"
        }
      ],
      "name": "CallScheduled",
      "type": "event"
    },
    {
      "anonymous": false,
      "inputs": [
        {
          "indexed": true,
          "internalType": "bytes32",
          "name": "id",
          "type": "bytes32"
        }
      ],
      "name": "Cancelled",
      "type": "event"
    },
    {
      "anonymous": false,
      "inputs": [
        {
          "indexed": false,
          "internalType": "uint256",
          "name": "oldDuration",
          "type": "uint256"
        },
        {
          "indexed": false,
          "internalType": "uint256",
          "name": "newDuration",
          "type": "uint256"
        }
      ],
      "name": "MinDelayChange",
      "type": "event"
    },
    {
      "anonymous": false,
      "inputs": [
        {
          "indexed": true,
          "internalType": "bytes32",
          "name": "role",
          "type": "bytes32"
        },
        {
          "indexed": true,
          "internalType": "bytes32",
          "name": "previousAdminRole",
          "type": "bytes32"
        },
        {
          "indexed": true,
          "internalType": "bytes32",
          "name": "newAdminRole",
          "type": "bytes32"
        }
      ],
      "name": "RoleAdminChanged",
      "type": "event"
    },
    {
      "anonymous": false,
      "inputs": [
        {
          "indexed": true,
          "internalType": "bytes32",
          "name": "role",
          "type": "bytes32"
        },
        {
          "indexed": true,
          "internalType": "address",
          "name": "account",
          "type": "address"
        },
        {
          "indexed": true,
          "internalType": "address",
          "name": "sender",
          "type": "address"
        }
      ],
      "name": "RoleGranted",
      "type": "event"
    },
    {
      "anonymous": false,
      "inputs": [
        {
          "indexed": true,
          "internalType": "bytes32",
          "name": "role",
          "type": "bytes32"
        },
        {
          "indexed": true,
          "internalType": "address",
          "name": "account",
          "type": "address"
        },
        {
          "indexed": true,
          "internalType": "address",
          "name": "sender",
          "type": "address"
        }
      ],
      "name": "RoleRevoked",
      "type": "event"
    },
    {
      "inputs": [],
      "name": "CANCELLER_ROLE",
      "outputs": [
        {
          "internalType": "bytes32",
          "name": "",
          "type": "bytes32"
        }
      ],
      "stateMutability": "view",
      "type": "function"
    },
    {
      "inputs": [],
      "name": "DEFAULT_ADMIN_ROLE",
      "outputs": [
        {
          "internalType": "bytes32",
          "name": "",
          "type": "bytes32"
        }
      ],
      "stateMutability": "view",
      "type": "function"
    },
    {
      "inputs": [],
      "name": "EXECUTOR_ROLE",
      "outputs": [
        {
          "internalType": "bytes32",
          "name": "",
          "type": "bytes32"
        }
      ],
      "stateMutability": "view",
      "type": "function"
    },
    {
      "inputs": [],
      "name": "PROPOSER_ROLE",
      "outputs": [
        {
          "internalType": "bytes32",
          "name": "",
          "type": "bytes32"
        }
      ],
      "stateMutability": "view",
      "type": "function"
    },
    {
      "inputs": [],
      "name": "TIMELOCK_ADMIN_ROLE",
      "outputs": [
        {
          "internalType": "bytes32",
          "name": "",
          "type": "bytes32"
        }
      ],
      "stateMutability": "view",
      "type": "function"
    },
    {
      "inputs": [
        {
          "internalType": "bytes32",
          "name": "id",
          "type": "bytes32"
        }
      ],
      "name": "cancel",
      "outputs": [],
      "stateMutability": "nonpayable",
      "type": "function"
    },
    {
      "inputs": [
        {
          "internalType": "address",
          "name": "target",
          "type": "address"
        },
        {
          "internalType": "uint256",
          "name": "value",
          "type": "uint256"
        },
        {
          "internalType": "bytes",
          "name": "data",
          "type": "bytes"
        },
        {
          "internalType": "bytes32",
          "name": "predecessor",
          "type": "bytes32"
        },
        {
          "internalType": "bytes32",
          "name": "salt",
          "type": "bytes32"
        }
      ],
      "name": "execute",
      "outputs": [],
      "stateMutability": "payable",
      "type": "function"
    },
    {
      "inputs": [
        {
          "internalType": "address[]",
          "name": "targets",
          "type": "address[]"
        },
        {
          "internalType": "uint256[]",
          "name": "values",
          "type": "uint256[]"
        },
        {
          "internalType": "bytes[]",
          "name": "payloads",
          "type": "bytes[]"
        },
        {
          "internalType": "bytes32",
          "name": "predecessor",
          "type": "bytes32"
        },
        {
          "internalType": "bytes32",
          "name": "salt",
          "type": "bytes32"
        }
      ],
      "name": "executeBatch",
      "outputs": [],
      "stateMutability": "payable",
      "type": "function"
    },
    {
      "inputs": [],
      "name": "getBlockTimestamp",
      "outputs": [
        {
          "internalType": "uint256",
          "name": "",
          "type": "uint256"
        }
      ],
      "stateMutability": "view",
      "type": "function"
    },
    {
      "inputs": [],
      "name": "getMinDelay",
      "outputs": [
        {
          "internalType": "uint256",
          "name": "duration",
          "type": "uint256"
        }
      ],
      "stateMutability": "view",
      "type": "function"
    },
    {
      "inputs": [
        {
          "internalType": "bytes32",
          "name": "role",
          "type": "bytes32"
        }
      ],
      "name": "getRoleAdmin",
      "outputs": [
        {
          "internalType": "bytes32",
          "name": "",
          "type": "bytes32"
        }
      ],
      "stateMutability": "view",
      "type": "function"
    },
    {
      "inputs": [
        {
          "internalType": "bytes32",
          "name": "id",
          "type": "bytes32"
        }
      ],
      "name": "getTimestamp",
      "outputs": [
        {
          "internalType": "uint256",
          "name": "timestamp",
          "type": "uint256"
        }
      ],
      "stateMutability": "view",
      "type": "function"
    },
    {
      "inputs": [
        {
          "internalType": "bytes32",
          "name": "role",
          "type": "bytes32"
        },
        {
          "internalType": "address",
          "name": "account",
          "type": "address"
        }
      ],
      "name": "grantRole",
      "outputs": [],
      "stateMutability": "nonpayable",
      "type": "function"
    },
    {
      "inputs": [
        {
          "internalType": "bytes32",
          "name": "role",
          "type": "bytes32"
        },
        {
          "internalType": "address",
          "name": "account",
          "type": "address"
        }
      ],
      "name": "hasRole",
      "outputs": [
        {
          "internalType": "bool",
          "name": "",
          "type": "bool"
        }
      ],
      "stateMutability": "view",
      "type": "function"
    },
    {
      "inputs": [
        {
          "internalType": "address",
          "name": "target",
          "type": "address"
        },
        {
          "internalType": "uint256",
          "name": "value",
          "type": "uint256"
        },
        {
          "internalType": "bytes",
          "name": "data",
          "type": "bytes"
        },
        {
          "internalType": "bytes32",
          "name": "predecessor",
          "type": "bytes32"
        },
        {
          "internalType": "bytes32",
          "name": "salt",
          "type": "bytes32"
        }
      ],
      "name": "hashOperation",
      "outputs": [
        {
          "internalType": "bytes32",
          "name": "hash",
          "type": "bytes32"
        }
      ],
      "stateMutability": "pure",
      "type": "function"
    },
    {
      "inputs": [
        {
          "internalType": "address[]",
          "name": "targets",
          "type": "address[]"
        },
        {
          "internalType": "uint256[]",
          "name": "values",
          "type": "uint256[]"
        },
        {
          "internalType": "bytes[]",
          "name": "payloads",
          "type": "bytes[]"
        },
        {
          "internalType": "bytes32",
          "name": "predecessor",
          "type": "bytes32"
        },
        {
          "internalType": "bytes32",
          "name": "salt",
          "type": "bytes32"
        }
      ],
      "name": "hashOperationBatch",
      "outputs": [
        {
          "internalType": "bytes32",
          "name": "hash",
          "type": "bytes32"
        }
      ],
      "stateMutability": "pure",
      "type": "function"
    },
    {
      "inputs": [
        {
          "internalType": "bytes32",
          "name": "id",
          "type": "bytes32"
        }
      ],
      "name": "isOperation",
      "outputs": [
        {
          "internalType": "bool",
          "name": "pending",
          "type": "bool"
        }
      ],
      "stateMutability": "view",
      "type": "function"
    },
    {
      "inputs": [
        {
          "internalType": "bytes32",
          "name": "id",
          "type": "bytes32"
        }
      ],
      "name": "isOperationDone",
      "outputs": [
        {
          "internalType": "bool",
          "name": "done",
          "type": "bool"
        }
      ],
      "stateMutability": "view",
      "type": "function"
    },
    {
      "inputs": [
        {
          "internalType": "bytes32",
          "name": "id",
          "type": "bytes32"
        }
      ],
      "name": "isOperationPending",
      "outputs": [
        {
          "internalType": "bool",
          "name": "pending",
          "type": "bool"
        }
      ],
      "stateMutability": "view",
      "type": "function"
    },
    {
      "inputs": [
        {
          "internalType": "bytes32",
          "name": "id",
          "type": "bytes32"
        }
      ],
      "name": "isOperationReady",
      "outputs": [
        {
          "internalType": "bool",
          "name": "ready",
          "type": "bool"
        }
      ],
      "stateMutability": "view",
      "type": "function"
    },
    {
      "inputs": [
        {
          "internalType": "address",
          "name": "",
          "type": "address"
        },
        {
          "internalType": "address",
          "name": "",
          "type": "address"
        },
        {
          "internalType": "uint256[]",
          "name": "",
          "type": "uint256[]"
        },
        {
          "internalType": "uint256[]",
          "name": "",
          "type": "uint256[]"
        },
        {
          "internalType": "bytes",
          "name": "",
          "type": "bytes"
        }
      ],
      "name": "onERC1155BatchReceived",
      "outputs": [
        {
          "internalType": "bytes4",
          "name": "",
          "type": "bytes4"
        }
      ],
      "stateMutability": "nonpayable",
      "type": "function"
    },
    {
      "inputs": [
        {
          "internalType": "address",
          "name": "",
          "type": "address"
        },
        {
          "internalType": "address",
          "name": "",
          "type": "address"
        },
        {
          "internalType": "uint256",
          "name": "",
          "type": "uint256"
        },
        {
          "internalType": "uint256",
          "name": "",
          "type": "uint256"
        },
        {
          "internalType": "bytes",
          "name": "",
          "type": "bytes"
        }
      ],
      "name": "onERC1155Received",
      "outputs": [
        {
          "internalType": "bytes4",
          "name": "",
          "type": "bytes4"
        }
      ],
      "stateMutability": "nonpayable",
      "type": "function"
    },
    {
      "inputs": [
        {
          "internalType": "address",
          "name": "",
          "type": "address"
        },
        {
          "internalType": "address",
          "name": "",
          "type": "address"
        },
        {
          "internalType": "uint256",
          "name": "",
          "type": "uint256"
        },
        {
          "internalType": "bytes",
          "name": "",
          "type": "bytes"
        }
      ],
      "name": "onERC721Received",
      "outputs": [
        {
          "internalType": "bytes4",
          "name": "",
          "type": "bytes4"
        }
      ],
      "stateMutability": "nonpayable",
      "type": "function"
    },
    {
      "inputs": [
        {
          "internalType": "bytes32",
          "name": "role",
          "type": "bytes32"
        },
        {
          "internalType": "address",
          "name": "account",
          "type": "address"
        }
      ],
      "name": "renounceRole",
      "outputs": [],
      "stateMutability": "nonpayable",
      "type": "function"
    },
    {
      "inputs": [
        {
          "internalType": "bytes32",
          "name": "role",
          "type": "bytes32"
        },
        {
          "internalType": "address",
          "name": "account",
          "type": "address"
        }
      ],
      "name": "revokeRole",
      "outputs": [],
      "stateMutability": "nonpayable",
      "type": "function"
    },
    {
      "inputs": [
        {
          "internalType": "address",
          "name": "target",
          "type": "address"
        },
        {
          "internalType": "uint256",
          "name": "value",
          "type": "uint256"
        },
        {
          "internalType": "bytes",
          "name": "data",
          "type": "bytes"
        },
        {
          "internalType": "bytes32",
          "name": "predecessor",
          "type": "bytes32"
        },
        {
          "internalType": "bytes32",
          "name": "salt",
          "type": "bytes32"
        },
        {
          "internalType": "uint256",
          "name": "delay",
          "type": "uint256"
        }
      ],
      "name": "schedule",
      "outputs": [],
      "stateMutability": "nonpayable",
      "type": "function"
    },
    {
      "inputs": [
        {
          "internalType": "address[]",
          "name": "targets",
          "type": "address[]"
        },
        {
          "internalType": "uint256[]",
          "name": "values",
          "type": "uint256[]"
        },
        {
          "internalType": "bytes[]",
          "name": "payloads",
          "type": "bytes[]"
        },
        {
          "internalType": "bytes32",
          "name": "predecessor",
          "type": "bytes32"
        },
        {
          "internalType": "bytes32",
          "name": "salt",
          "type": "bytes32"
        },
        {
          "internalType": "uint256",
          "name": "delay",
          "type": "uint256"
        }
      ],
      "name": "scheduleBatch",
      "outputs": [],
      "stateMutability": "nonpayable",
      "type": "function"
    },
    {
      "inputs": [
        {
          "internalType": "bytes4",
          "name": "interfaceId",
          "type": "bytes4"
        }
      ],
      "name": "supportsInterface",
      "outputs": [
        {
          "internalType": "bool",
          "name": "",
          "type": "bool"
        }
      ],
      "stateMutability": "view",
      "type": "function"
    },
    {
      "inputs": [
        {
          "internalType": "uint256",
          "name": "newDelay",
          "type": "uint256"
        }
      ],
      "name": "updateDelay",
      "outputs": [],
      "stateMutability": "nonpayable",
      "type": "function"
    },
    {
      "stateMutability": "payable",
      "type": "receive"
    }
  ],
  "bytecode": "0x60806040523480156200001157600080fd5b50604051620022cb380380620022cb8339810160408190526200003491620003fd565b828282620000526000805160206200224b8339815191528062000222565b6200007c6000805160206200226b8339815191526000805160206200224b83398151915262000222565b620000a66000805160206200228b8339815191526000805160206200224b83398151915262000222565b620000d0600080516020620022ab8339815191526000805160206200224b83398151915262000222565b620000eb6000805160206200224b833981519152336200026d565b620001066000805160206200224b833981519152306200026d565b60005b82518110156200018c57620001506000805160206200226b8339815191528483815181106200013c576200013c62000471565b60200260200101516200026d60201b60201c565b62000179600080516020620022ab8339815191528483815181106200013c576200013c62000471565b620001848162000487565b905062000109565b5060005b8151811015620001d657620001c36000805160206200228b8339815191528383815181106200013c576200013c62000471565b620001ce8162000487565b905062000190565b5060028390556040805160008152602081018590527f11c24f4ead16507c69ac467fbd5e4eed5fb5c699626d2cc6d66421df253886d5910160405180910390a1505050505050620004af565b600082815260208190526040808220600101805490849055905190918391839186917fbd79b86ffe0ab8e8776151514217cd7cacd52c909f66475c3af44e129f0b00ff9190a4505050565b6200027982826200027d565b5050565b6000828152602081815260408083206001600160a01b038516845290915290205460ff1662000279576000828152602081815260408083206001600160a01b03851684529091529020805460ff19166001179055620002d93390565b6001600160a01b0316816001600160a01b0316837f2f8788117e7eff1d82e926ec794901d17c78024a50270940304540a733656f0d60405160405180910390a45050565b634e487b7160e01b600052604160045260246000fd5b80516001600160a01b03811681146200034b57600080fd5b919050565b600082601f8301126200036257600080fd5b815160206001600160401b03808311156200038157620003816200031d565b8260051b604051601f19603f83011681018181108482111715620003a957620003a96200031d565b604052938452858101830193838101925087851115620003c857600080fd5b83870191505b84821015620003f257620003e28262000333565b83529183019190830190620003ce565b979650505050505050565b6000806000606084860312156200041357600080fd5b835160208501519093506001600160401b03808211156200043357600080fd5b620004418783880162000350565b935060408601519150808211156200045857600080fd5b50620004678682870162000350565b9150509250925092565b634e487b7160e01b600052603260045260246000fd5b600060018201620004a857634e487b7160e01b600052601160045260246000fd5b5060010190565b611d8c80620004bf6000396000f3fe6080604052600436106101c65760003560e01c8063796b89b9116100f7578063b1c5f42711610095578063d547741f11610064578063d547741f146105a0578063e38335e5146105c0578063f23a6e61146105d3578063f27a0c92146105ff57600080fd5b8063b1c5f42714610507578063bc197c8114610527578063c4d252f514610553578063d45c44351461057357600080fd5b80638f61f4f5116100d15780638f61f4f51461046a57806391d148541461049e578063a217fddf146104be578063b08e51c0146104d357600080fd5b8063796b89b9146104175780638065657f1461042a5780638f2a0bb01461044a57600080fd5b8063248a9ca31161016457806331d507501161013e57806331d507501461039757806336568abe146103b7578063584b153e146103d757806364d62353146103f757600080fd5b8063248a9ca3146103165780632ab0f529146103465780632f2ff15d1461037757600080fd5b80630d3cf6fc116101a05780630d3cf6fc1461026b578063134008d31461029f57806313bc9f20146102b2578063150b7a02146102d257600080fd5b806301d5062a146101d257806301ffc9a7146101f457806307bd02651461022957600080fd5b366101cd57005b600080fd5b3480156101de57600080fd5b506101f26101ed366004611386565b610614565b005b34801561020057600080fd5b5061021461020f3660046113fa565b6106a9565b60405190151581526020015b60405180910390f35b34801561023557600080fd5b5061025d7fd8aa0f3194971a2a116679f7c2090f6939c8d4e01a2a8d7e41d55e5351469e6381565b604051908152602001610220565b34801561027757600080fd5b5061025d7f5f58e3a2316349923ce3780f8d587db2d72378aed66a8261c916544fa6846ca581565b6101f26102ad366004611424565b6106d4565b3480156102be57600080fd5b506102146102cd36600461148f565b61074c565b3480156102de57600080fd5b506102fd6102ed36600461155d565b630a85bd0160e11b949350505050565b6040516001600160e01b03199091168152602001610220565b34801561032257600080fd5b5061025d61033136600461148f565b60009081526020819052604090206001015490565b34801561035257600080fd5b5061021461036136600461148f565b6000908152600160208190526040909120541490565b34801561038357600080fd5b506101f26103923660046115c4565b610772565b3480156103a357600080fd5b506102146103b236600461148f565b61079c565b3480156103c357600080fd5b506101f26103d23660046115c4565b6107b5565b3480156103e357600080fd5b506102146103f236600461148f565b610838565b34801561040357600080fd5b506101f261041236600461148f565b61084e565b34801561042357600080fd5b504261025d565b34801561043657600080fd5b5061025d610445366004611424565b6108f2565b34801561045657600080fd5b506101f2610465366004611634565b610931565b34801561047657600080fd5b5061025d7fb09aa5aeb3702cfd50b6b62bc4532604938f21248a27a1d5ca736082b6819cc181565b3480156104aa57600080fd5b506102146104b93660046115c4565b610a83565b3480156104ca57600080fd5b5061025d600081565b3480156104df57600080fd5b5061025d7ffd643c72710c63c0180259aba6b2d05451e3591a24e58b62239378085726f78381565b34801561051357600080fd5b5061025d6105223660046116e5565b610aac565b34801561053357600080fd5b506102fd61054236600461180c565b63bc197c8160e01b95945050505050565b34801561055f57600080fd5b506101f261056e36600461148f565b610af1565b34801561057f57600080fd5b5061025d61058e36600461148f565b60009081526001602052604090205490565b3480156105ac57600080fd5b506101f26105bb3660046115c4565b610bc6565b6101f26105ce3660046116e5565b610beb565b3480156105df57600080fd5b506102fd6105ee3660046118b5565b63f23a6e6160e01b95945050505050565b34801561060b57600080fd5b5060025461025d565b7fb09aa5aeb3702cfd50b6b62bc4532604938f21248a27a1d5ca736082b6819cc161063e81610d20565b600061064e8989898989896108f2565b905061065a8184610d2d565b6000817f4cf4410cc57040e44862ef0f45f3dd5a5e02db8eb8add648d4b0e236f1d07dca8b8b8b8b8b8a60405161069696959493929190611942565b60405180910390a3505050505050505050565b60006001600160e01b03198216630271189760e51b14806106ce57506106ce82610e1c565b92915050565b7fd8aa0f3194971a2a116679f7c2090f6939c8d4e01a2a8d7e41d55e5351469e63610700816000610a83565b61070e5761070e8133610e51565b600061071e8888888888886108f2565b905061072a8185610eb5565b6107398160008a8a8a8a610f51565b61074281611065565b5050505050505050565b60008181526001602052604081205460018111801561076b5750428111155b9392505050565b60008281526020819052604090206001015461078d81610d20565b610797838361109e565b505050565b60008181526001602052604081205481905b1192915050565b6001600160a01b038116331461082a5760405162461bcd60e51b815260206004820152602f60248201527f416363657373436f6e74726f6c3a2063616e206f6e6c792072656e6f756e636560448201526e103937b632b9903337b91039b2b63360891b60648201526084015b60405180910390fd5b6108348282611122565b5050565b60008181526001602081905260408220546107ae565b3330146108b15760405162461bcd60e51b815260206004820152602b60248201527f54696d656c6f636b436f6e74726f6c6c65723a2063616c6c6572206d7573742060448201526a62652074696d656c6f636b60a81b6064820152608401610821565b60025460408051918252602082018390527f11c24f4ead16507c69ac467fbd5e4eed5fb5c699626d2cc6d66421df253886d5910160405180910390a1600255565b600086868686868660405160200161090f96959493929190611942565b6040516020818303038152906040528051906020012090509695505050505050565b7fb09aa5aeb3702cfd50b6b62bc4532604938f21248a27a1d5ca736082b6819cc161095b81610d20565b88871461097a5760405162461bcd60e51b81526004016108219061197f565b8885146109995760405162461bcd60e51b81526004016108219061197f565b60006109ab8b8b8b8b8b8b8b8b610aac565b90506109b78184610d2d565b60005b8a811015610a755780827f4cf4410cc57040e44862ef0f45f3dd5a5e02db8eb8add648d4b0e236f1d07dca8e8e858181106109f7576109f76119c2565b9050602002016020810190610a0c91906119d8565b8d8d86818110610a1e57610a1e6119c2565b905060200201358c8c87818110610a3757610a376119c2565b9050602002810190610a4991906119f3565b8c8b604051610a5d96959493929190611942565b60405180910390a3610a6e81611a4f565b90506109ba565b505050505050505050505050565b6000918252602082815260408084206001600160a01b0393909316845291905290205460ff1690565b60008888888888888888604051602001610acd989796959493929190611af9565b60405160208183030381529060405280519060200120905098975050505050505050565b7ffd643c72710c63c0180259aba6b2d05451e3591a24e58b62239378085726f783610b1b81610d20565b610b2482610838565b610b8a5760405162461bcd60e51b815260206004820152603160248201527f54696d656c6f636b436f6e74726f6c6c65723a206f7065726174696f6e2063616044820152701b9b9bdd0818994818d85b98d95b1b1959607a1b6064820152608401610821565b6000828152600160205260408082208290555183917fbaa1eb22f2a492ba1a5fea61b8df4d27c6c8b5f3971e63bb58fa14ff72eedb7091a25050565b600082815260208190526040902060010154610be181610d20565b6107978383611122565b7fd8aa0f3194971a2a116679f7c2090f6939c8d4e01a2a8d7e41d55e5351469e63610c17816000610a83565b610c2557610c258133610e51565b878614610c445760405162461bcd60e51b81526004016108219061197f565b878414610c635760405162461bcd60e51b81526004016108219061197f565b6000610c758a8a8a8a8a8a8a8a610aac565b9050610c818185610eb5565b60005b89811015610d0a57610cfa82828d8d85818110610ca357610ca36119c2565b9050602002016020810190610cb891906119d8565b8c8c86818110610cca57610cca6119c2565b905060200201358b8b87818110610ce357610ce36119c2565b9050602002810190610cf591906119f3565b610f51565b610d0381611a4f565b9050610c84565b50610d1481611065565b50505050505050505050565b610d2a8133610e51565b50565b610d368261079c565b15610d9b5760405162461bcd60e51b815260206004820152602f60248201527f54696d656c6f636b436f6e74726f6c6c65723a206f7065726174696f6e20616c60448201526e1c9958591e481cd8da19591d5b1959608a1b6064820152608401610821565b600254811015610dfc5760405162461bcd60e51b815260206004820152602660248201527f54696d656c6f636b436f6e74726f6c6c65723a20696e73756666696369656e746044820152652064656c617960d01b6064820152608401610821565b610e068142611ba4565b6000928352600160205260409092209190915550565b60006001600160e01b03198216637965db0b60e01b14806106ce57506301ffc9a760e01b6001600160e01b03198316146106ce565b610e5b8282610a83565b61083457610e73816001600160a01b03166014611187565b610e7e836020611187565b604051602001610e8f929190611bec565b60408051601f198184030181529082905262461bcd60e51b825261082191600401611c61565b610ebe8261074c565b610eda5760405162461bcd60e51b815260040161082190611c94565b801580610ef65750600081815260016020819052604090912054145b6108345760405162461bcd60e51b815260206004820152602660248201527f54696d656c6f636b436f6e74726f6c6c65723a206d697373696e6720646570656044820152656e64656e637960d01b6064820152608401610821565b6000846001600160a01b0316848484604051610f6e929190611cde565b60006040518083038185875af1925050503d8060008114610fab576040519150601f19603f3d011682016040523d82523d6000602084013e610fb0565b606091505b505090508061101d5760405162461bcd60e51b815260206004820152603360248201527f54696d656c6f636b436f6e74726f6c6c65723a20756e6465726c79696e6720746044820152721c985b9cd858dd1a5bdb881c995d995c9d1959606a1b6064820152608401610821565b85877fc2617efa69bab66782fa219543714338489c4e9e178271560a91b82c3f612b58878787876040516110549493929190611cee565b60405180910390a350505050505050565b61106e8161074c565b61108a5760405162461bcd60e51b815260040161082190611c94565b600090815260016020819052604090912055565b6110a88282610a83565b610834576000828152602081815260408083206001600160a01b03851684529091529020805460ff191660011790556110de3390565b6001600160a01b0316816001600160a01b0316837f2f8788117e7eff1d82e926ec794901d17c78024a50270940304540a733656f0d60405160405180910390a45050565b61112c8282610a83565b15610834576000828152602081815260408083206001600160a01b0385168085529252808320805460ff1916905551339285917ff6391f5c32d9c69d2a47ea670b442974b53935d1edc7fd64eb21e047a839171b9190a45050565b60606000611196836002611d20565b6111a1906002611ba4565b6001600160401b038111156111b8576111b86114a8565b6040519080825280601f01601f1916602001820160405280156111e2576020820181803683370190505b509050600360fc1b816000815181106111fd576111fd6119c2565b60200101906001600160f81b031916908160001a905350600f60fb1b8160018151811061122c5761122c6119c2565b60200101906001600160f81b031916908160001a9053506000611250846002611d20565b61125b906001611ba4565b90505b60018111156112d3576f181899199a1a9b1b9c1cb0b131b232b360811b85600f166010811061128f5761128f6119c2565b1a60f81b8282815181106112a5576112a56119c2565b60200101906001600160f81b031916908160001a90535060049490941c936112cc81611d3f565b905061125e565b50831561076b5760405162461bcd60e51b815260206004820181905260248201527f537472696e67733a20686578206c656e67746820696e73756666696369656e746044820152606401610821565b80356001600160a01b038116811461133957600080fd5b919050565b60008083601f84011261135057600080fd5b5081356001600160401b0381111561136757600080fd5b60208301915083602082850101111561137f57600080fd5b9250929050565b600080600080600080600060c0888a0312156113a157600080fd5b6113aa88611322565b96506020880135955060408801356001600160401b038111156113cc57600080fd5b6113d88a828b0161133e565b989b979a50986060810135976080820135975060a09091013595509350505050565b60006020828403121561140c57600080fd5b81356001600160e01b03198116811461076b57600080fd5b60008060008060008060a0878903121561143d57600080fd5b61144687611322565b95506020870135945060408701356001600160401b0381111561146857600080fd5b61147489828a0161133e565b979a9699509760608101359660809091013595509350505050565b6000602082840312156114a157600080fd5b5035919050565b634e487b7160e01b600052604160045260246000fd5b604051601f8201601f191681016001600160401b03811182821017156114e6576114e66114a8565b604052919050565b600082601f8301126114ff57600080fd5b81356001600160401b03811115611518576115186114a8565b61152b601f8201601f19166020016114be565b81815284602083860101111561154057600080fd5b816020850160208301376000918101602001919091529392505050565b6000806000806080858703121561157357600080fd5b61157c85611322565b935061158a60208601611322565b92506040850135915060608501356001600160401b038111156115ac57600080fd5b6115b8878288016114ee565b91505092959194509250565b600080604083850312156115d757600080fd5b823591506115e760208401611322565b90509250929050565b60008083601f84011261160257600080fd5b5081356001600160401b0381111561161957600080fd5b6020830191508360208260051b850101111561137f57600080fd5b600080600080600080600080600060c08a8c03121561165257600080fd5b89356001600160401b038082111561166957600080fd5b6116758d838e016115f0565b909b50995060208c013591508082111561168e57600080fd5b61169a8d838e016115f0565b909950975060408c01359150808211156116b357600080fd5b506116c08c828d016115f0565b9a9d999c50979a969997986060880135976080810135975060a0013595509350505050565b60008060008060008060008060a0898b03121561170157600080fd5b88356001600160401b038082111561171857600080fd5b6117248c838d016115f0565b909a50985060208b013591508082111561173d57600080fd5b6117498c838d016115f0565b909850965060408b013591508082111561176257600080fd5b5061176f8b828c016115f0565b999c989b509699959896976060870135966080013595509350505050565b600082601f83011261179e57600080fd5b813560206001600160401b038211156117b9576117b96114a8565b8160051b6117c88282016114be565b92835284810182019282810190878511156117e257600080fd5b83870192505b84831015611801578235825291830191908301906117e8565b979650505050505050565b600080600080600060a0868803121561182457600080fd5b61182d86611322565b945061183b60208701611322565b935060408601356001600160401b038082111561185757600080fd5b61186389838a0161178d565b9450606088013591508082111561187957600080fd5b61188589838a0161178d565b9350608088013591508082111561189b57600080fd5b506118a8888289016114ee565b9150509295509295909350565b600080600080600060a086880312156118cd57600080fd5b6118d686611322565b94506118e460208701611322565b9350604086013592506060860135915060808601356001600160401b0381111561190d57600080fd5b6118a8888289016114ee565b81835281816020850137506000828201602090810191909152601f909101601f19169091010190565b60018060a01b038716815285602082015260a06040820152600061196a60a083018688611919565b60608301949094525060800152949350505050565b60208082526023908201527f54696d656c6f636b436f6e74726f6c6c65723a206c656e677468206d69736d616040820152620e8c6d60eb1b606082015260800190565b634e487b7160e01b600052603260045260246000fd5b6000602082840312156119ea57600080fd5b61076b82611322565b6000808335601e19843603018112611a0a57600080fd5b8301803591506001600160401b03821115611a2457600080fd5b60200191503681900382131561137f57600080fd5b634e487b7160e01b600052601160045260246000fd5b600060018201611a6157611a61611a39565b5060010190565b81835260006020808501808196508560051b810191508460005b87811015611aec5782840389528135601e19883603018112611aa357600080fd5b870185810190356001600160401b03811115611abe57600080fd5b803603821315611acd57600080fd5b611ad8868284611919565b9a87019a9550505090840190600101611a82565b5091979650505050505050565b60a0808252810188905260008960c08301825b8b811015611b3a576001600160a01b03611b2584611322565b16825260209283019290910190600101611b0c565b5083810360208501528881526001600160fb1b03891115611b5a57600080fd5b8860051b9150818a602083013781810191505060208101600081526020848303016040850152611b8b81888a611a68565b6060850196909652505050608001529695505050505050565b60008219821115611bb757611bb7611a39565b500190565b60005b83811015611bd7578181015183820152602001611bbf565b83811115611be6576000848401525b50505050565b7f416363657373436f6e74726f6c3a206163636f756e7420000000000000000000815260008351611c24816017850160208801611bbc565b7001034b99036b4b9b9b4b733903937b6329607d1b6017918401918201528351611c55816028840160208801611bbc565b01602801949350505050565b6020815260008251806020840152611c80816040850160208701611bbc565b601f01601f19169190910160400192915050565b6020808252602a908201527f54696d656c6f636b436f6e74726f6c6c65723a206f7065726174696f6e206973604082015269206e6f7420726561647960b01b606082015260800190565b8183823760009101908152919050565b60018060a01b0385168152836020820152606060408201526000611d16606083018486611919565b9695505050505050565b6000816000190483118215151615611d3a57611d3a611a39565b500290565b600081611d4e57611d4e611a39565b50600019019056fea2646970667358221220e9f07767401c33a77c72bef58d4745797da1df602ced85cbc932a679b866380e64736f6c634300080e00335f58e3a2316349923ce3780f8d587db2d72378aed66a8261c916544fa6846ca5b09aa5aeb3702cfd50b6b62bc4532604938f21248a27a1d5ca736082b6819cc1d8aa0f3194971a2a116679f7c2090f6939c8d4e01a2a8d7e41d55e5351469e63fd643c72710c63c0180259aba6b2d05451e3591a24e58b62239378085726f783",
  "linkReferences": {},
  "deployedLinkReferences": {}
}