{
  "_format": "hh-sol-artifact-1",
  "contractName": "NudeNFT",
  "sourceName": "contracts/NudeNFT.sol",
  "abi": [
    {
      "inputs": [],
      "stateMutability": "nonpayable",
      "type": "constructor"
    },
    {
      "anonymous": false,
      "inputs": [
        {
          "indexed": true,
          "internalType": "address",
          "name": "owner",
          "type": "address"
        },
        {
          "indexed": true,
          "internalType": "address",
          "name": "approved",
          "type": "address"
        },
        {
          "indexed": true,
          "internalType": "uint256",
          "name": "tokenId",
          "type": "uint256"
        }
      ],
      "name": "Approval",
      "type": "event"
    },
    {
      "anonymous": false,
      "inputs": [
        {
          "indexed": true,
          "internalType": "address",
          "name": "owner",
          "type": "address"
        },
        {
          "indexed": true,
          "internalType": "address",
          "name": "operator",
          "type": "address"
        },
        {
          "indexed": false,
          "internalType": "bool",
          "name": "approved",
          "type": "bool"
        }
      ],
      "name": "ApprovalForAll",
      "type": "event"
    },
    {
      "anonymous": false,
      "inputs": [
        {
          "indexed": false,
          "internalType": "address",
          "name": "recipient",
          "type": "address"
        },
        {
          "indexed": false,
          "internalType": "uint256",
          "name": "tokenId",
          "type": "uint256"
        },
        {
          "indexed": false,
          "internalType": "string",
          "name": "tokenURI",
          "type": "string"
        }
      ],
      "name": "MintNFT",
      "type": "event"
    },
    {
      "anonymous": false,
      "inputs": [
        {
          "indexed": true,
          "internalType": "address",
          "name": "previousOwner",
          "type": "address"
        },
        {
          "indexed": true,
          "internalType": "address",
          "name": "newOwner",
          "type": "address"
        }
      ],
      "name": "OwnershipTransferred",
      "type": "event"
    },
    {
      "anonymous": false,
      "inputs": [
        {
          "indexed": true,
          "internalType": "address",
          "name": "from",
          "type": "address"
        },
        {
          "indexed": true,
          "internalType": "address",
          "name": "to",
          "type": "address"
        },
        {
          "indexed": true,
          "internalType": "uint256",
          "name": "tokenId",
          "type": "uint256"
        }
      ],
      "name": "Transfer",
      "type": "event"
    },
    {
      "inputs": [
        {
          "internalType": "address",
          "name": "to",
          "type": "address"
        },
        {
          "internalType": "uint256",
          "name": "tokenId",
          "type": "uint256"
        }
      ],
      "name": "approve",
      "outputs": [],
      "stateMutability": "nonpayable",
      "type": "function"
    },
    {
      "inputs": [
        {
          "internalType": "uint256",
          "name": "tokenId",
          "type": "uint256"
        },
        {
          "internalType": "uint256",
          "name": "price",
          "type": "uint256"
        }
      ],
      "name": "approveAndTransferToDEX",
      "outputs": [],
      "stateMutability": "nonpayable",
      "type": "function"
    },
    {
      "inputs": [
        {
          "internalType": "address",
          "name": "owner",
          "type": "address"
        }
      ],
      "name": "balanceOf",
      "outputs": [
        {
          "internalType": "uint256",
          "name": "",
          "type": "uint256"
        }
      ],
      "stateMutability": "view",
      "type": "function"
    },
    {
      "inputs": [
        {
          "internalType": "uint256",
          "name": "tokenId",
          "type": "uint256"
        }
      ],
      "name": "getApproved",
      "outputs": [
        {
          "internalType": "address",
          "name": "",
          "type": "address"
        }
      ],
      "stateMutability": "view",
      "type": "function"
    },
    {
      "inputs": [
        {
          "internalType": "address",
          "name": "owner",
          "type": "address"
        },
        {
          "internalType": "address",
          "name": "operator",
          "type": "address"
        }
      ],
      "name": "isApprovedForAll",
      "outputs": [
        {
          "internalType": "bool",
          "name": "",
          "type": "bool"
        }
      ],
      "stateMutability": "view",
      "type": "function"
    },
    {
      "inputs": [
        {
          "internalType": "address",
          "name": "recipient",
          "type": "address"
        },
        {
          "internalType": "string",
          "name": "tokenURI",
          "type": "string"
        }
      ],
      "name": "mintNFT",
      "outputs": [
        {
          "internalType": "uint256",
          "name": "",
          "type": "uint256"
        }
      ],
      "stateMutability": "nonpayable",
      "type": "function"
    },
    {
      "inputs": [],
      "name": "name",
      "outputs": [
        {
          "internalType": "string",
          "name": "",
          "type": "string"
        }
      ],
      "stateMutability": "view",
      "type": "function"
    },
    {
      "inputs": [],
      "name": "owner",
      "outputs": [
        {
          "internalType": "address",
          "name": "",
          "type": "address"
        }
      ],
      "stateMutability": "view",
      "type": "function"
    },
    {
      "inputs": [
        {
          "internalType": "uint256",
          "name": "tokenId",
          "type": "uint256"
        }
      ],
      "name": "ownerOf",
      "outputs": [
        {
          "internalType": "address",
          "name": "",
          "type": "address"
        }
      ],
      "stateMutability": "view",
      "type": "function"
    },
    {
      "inputs": [],
      "name": "renounceOwnership",
      "outputs": [],
      "stateMutability": "nonpayable",
      "type": "function"
    },
    {
      "inputs": [
        {
          "internalType": "address",
          "name": "from",
          "type": "address"
        },
        {
          "internalType": "address",
          "name": "to",
          "type": "address"
        },
        {
          "internalType": "uint256",
          "name": "tokenId",
          "type": "uint256"
        }
      ],
      "name": "safeTransferFrom",
      "outputs": [],
      "stateMutability": "nonpayable",
      "type": "function"
    },
    {
      "inputs": [
        {
          "internalType": "address",
          "name": "from",
          "type": "address"
        },
        {
          "internalType": "address",
          "name": "to",
          "type": "address"
        },
        {
          "internalType": "uint256",
          "name": "tokenId",
          "type": "uint256"
        },
        {
          "internalType": "bytes",
          "name": "_data",
          "type": "bytes"
        }
      ],
      "name": "safeTransferFrom",
      "outputs": [],
      "stateMutability": "nonpayable",
      "type": "function"
    },
    {
      "inputs": [
        {
          "internalType": "address",
          "name": "operator",
          "type": "address"
        },
        {
          "internalType": "bool",
          "name": "approved",
          "type": "bool"
        }
      ],
      "name": "setApprovalForAll",
      "outputs": [],
      "stateMutability": "nonpayable",
      "type": "function"
    },
    {
      "inputs": [
        {
          "internalType": "address",
          "name": "dexAddress",
          "type": "address"
        }
      ],
      "name": "setNudeDex",
      "outputs": [],
      "stateMutability": "nonpayable",
      "type": "function"
    },
    {
      "inputs": [
        {
          "internalType": "bytes4",
          "name": "interfaceId",
          "type": "bytes4"
        }
      ],
      "name": "supportsInterface",
      "outputs": [
        {
          "internalType": "bool",
          "name": "",
          "type": "bool"
        }
      ],
      "stateMutability": "view",
      "type": "function"
    },
    {
      "inputs": [],
      "name": "symbol",
      "outputs": [
        {
          "internalType": "string",
          "name": "",
          "type": "string"
        }
      ],
      "stateMutability": "view",
      "type": "function"
    },
    {
      "inputs": [
        {
          "internalType": "uint256",
          "name": "tokenId",
          "type": "uint256"
        }
      ],
      "name": "tokenURI",
      "outputs": [
        {
          "internalType": "string",
          "name": "",
          "type": "string"
        }
      ],
      "stateMutability": "view",
      "type": "function"
    },
    {
      "inputs": [
        {
          "internalType": "address",
          "name": "from",
          "type": "address"
        },
        {
          "internalType": "address",
          "name": "to",
          "type": "address"
        },
        {
          "internalType": "uint256",
          "name": "tokenId",
          "type": "uint256"
        }
      ],
      "name": "transferFrom",
      "outputs": [],
      "stateMutability": "nonpayable",
      "type": "function"
    },
    {
      "inputs": [
        {
          "internalType": "address",
          "name": "newOwner",
          "type": "address"
        }
      ],
      "name": "transferOwnership",
      "outputs": [],
      "stateMutability": "nonpayable",
      "type": "function"
    }
  ],
  "bytecode": "0x60806040523480156200001157600080fd5b506040518060400160405280600781526020017f4e7564654e4654000000000000000000000000000000000000000000000000008152506040518060400160405280600781526020017f4e5544454e465400000000000000000000000000000000000000000000000000815250816000908051906020019062000096929190620001e7565b508060019080519060200190620000af929190620001e7565b505050620000d2620000c66200011960201b60201c565b6200012160201b60201c565b33600960006101000a81548173ffffffffffffffffffffffffffffffffffffffff021916908373ffffffffffffffffffffffffffffffffffffffff160217905550620002fb565b600033905090565b6000600760009054906101000a900473ffffffffffffffffffffffffffffffffffffffff16905081600760006101000a81548173ffffffffffffffffffffffffffffffffffffffff021916908373ffffffffffffffffffffffffffffffffffffffff1602179055508173ffffffffffffffffffffffffffffffffffffffff168173ffffffffffffffffffffffffffffffffffffffff167f8be0079c531659141344cd1fd0a4f28419497f9722a3daafe3b4186f6b6457e060405160405180910390a35050565b828054620001f590620002c6565b90600052602060002090601f01602090048101928262000219576000855562000265565b82601f106200023457805160ff191683800117855562000265565b8280016001018555821562000265579182015b828111156200026457825182559160200191906001019062000247565b5b50905062000274919062000278565b5090565b5b808211156200029357600081600090555060010162000279565b5090565b7f4e487b7100000000000000000000000000000000000000000000000000000000600052602260045260246000fd5b60006002820490506001821680620002df57607f821691505b602082108103620002f557620002f462000297565b5b50919050565b6134b2806200030b6000396000f3fe608060405234801561001057600080fd5b50600436106101215760003560e01c80638da5cb5b116100ad578063c87b56dd11610071578063c87b56dd146102f2578063e8e4247514610322578063e985e9c51461033e578063eacabe141461036e578063f2fde38b1461039e57610121565b80638da5cb5b1461026257806395d89b4114610280578063a22cb4651461029e578063abe40791146102ba578063b88d4fde146102d657610121565b806323b872dd116100f457806323b872dd146101c057806342842e0e146101dc5780636352211e146101f857806370a0823114610228578063715018a61461025857610121565b806301ffc9a71461012657806306fdde0314610156578063081812fc14610174578063095ea7b3146101a4575b600080fd5b610140600480360381019061013b9190611f8b565b6103ba565b60405161014d9190611fd3565b60405180910390f35b61015e61049c565b60405161016b9190612087565b60405180910390f35b61018e600480360381019061018991906120df565b61052e565b60405161019b919061214d565b60405180910390f35b6101be60048036038101906101b99190612194565b6105b3565b005b6101da60048036038101906101d591906121d4565b6106ca565b005b6101f660048036038101906101f191906121d4565b61072a565b005b610212600480360381019061020d91906120df565b61074a565b60405161021f919061214d565b60405180910390f35b610242600480360381019061023d9190612227565b6107fb565b60405161024f9190612263565b60405180910390f35b6102606108b2565b005b61026a61093a565b604051610277919061214d565b60405180910390f35b610288610964565b6040516102959190612087565b60405180910390f35b6102b860048036038101906102b391906122aa565b6109f6565b005b6102d460048036038101906102cf91906122ea565b610a0c565b005b6102f060048036038101906102eb919061245f565b610bd4565b005b61030c600480360381019061030791906120df565b610c36565b6040516103199190612087565b60405180910390f35b61033c60048036038101906103379190612227565b610c48565b005b610358600480360381019061035391906124e2565b610d08565b6040516103659190611fd3565b60405180910390f35b610388600480360381019061038391906125c3565b610d9c565b6040516103959190612263565b60405180910390f35b6103b860048036038101906103b39190612227565b610e0f565b005b60007f80ac58cd000000000000000000000000000000000000000000000000000000007bffffffffffffffffffffffffffffffffffffffffffffffffffffffff1916827bffffffffffffffffffffffffffffffffffffffffffffffffffffffff1916148061048557507f5b5e139f000000000000000000000000000000000000000000000000000000007bffffffffffffffffffffffffffffffffffffffffffffffffffffffff1916827bffffffffffffffffffffffffffffffffffffffffffffffffffffffff1916145b80610495575061049482610f06565b5b9050919050565b6060600080546104ab9061264e565b80601f01602080910402602001604051908101604052809291908181526020018280546104d79061264e565b80156105245780601f106104f957610100808354040283529160200191610524565b820191906000526020600020905b81548152906001019060200180831161050757829003601f168201915b5050505050905090565b600061053982610f70565b610578576040517f08c379a000000000000000000000000000000000000000000000000000000000815260040161056f906126f1565b60405180910390fd5b6004600083815260200190815260200160002060009054906101000a900473ffffffffffffffffffffffffffffffffffffffff169050919050565b60006105be8261074a565b90508073ffffffffffffffffffffffffffffffffffffffff168373ffffffffffffffffffffffffffffffffffffffff160361062e576040517f08c379a000000000000000000000000000000000000000000000000000000000815260040161062590612783565b60405180910390fd5b8073ffffffffffffffffffffffffffffffffffffffff1661064d610fdc565b73ffffffffffffffffffffffffffffffffffffffff16148061067c575061067b81610676610fdc565b610d08565b5b6106bb576040517f08c379a00000000000000000000000000000000000000000000000000000000081526004016106b290612815565b60405180910390fd5b6106c58383610fe4565b505050565b6106db6106d5610fdc565b8261109d565b61071a576040517f08c379a0000000000000000000000000000000000000000000000000000000008152600401610711906128a7565b60405180910390fd5b61072583838361117b565b505050565b61074583838360405180602001604052806000815250610bd4565b505050565b6000806002600084815260200190815260200160002060009054906101000a900473ffffffffffffffffffffffffffffffffffffffff169050600073ffffffffffffffffffffffffffffffffffffffff168173ffffffffffffffffffffffffffffffffffffffff16036107f2576040517f08c379a00000000000000000000000000000000000000000000000000000000081526004016107e990612939565b60405180910390fd5b80915050919050565b60008073ffffffffffffffffffffffffffffffffffffffff168273ffffffffffffffffffffffffffffffffffffffff160361086b576040517f08c379a0000000000000000000000000000000000000000000000000000000008152600401610862906129cb565b60405180910390fd5b600360008373ffffffffffffffffffffffffffffffffffffffff1673ffffffffffffffffffffffffffffffffffffffff168152602001908152602001600020549050919050565b6108ba610fdc565b73ffffffffffffffffffffffffffffffffffffffff166108d861093a565b73ffffffffffffffffffffffffffffffffffffffff161461092e576040517f08c379a000000000000000000000000000000000000000000000000000000000815260040161092590612a37565b60405180910390fd5b61093860006113e1565b565b6000600760009054906101000a900473ffffffffffffffffffffffffffffffffffffffff16905090565b6060600180546109739061264e565b80601f016020809104026020016040519081016040528092919081815260200182805461099f9061264e565b80156109ec5780601f106109c1576101008083540402835291602001916109ec565b820191906000526020600020905b8154815290600101906020018083116109cf57829003601f168201915b5050505050905090565b610a08610a01610fdc565b83836114a7565b5050565b3373ffffffffffffffffffffffffffffffffffffffff16610a2c8361074a565b73ffffffffffffffffffffffffffffffffffffffff1614610a82576040517f08c379a0000000000000000000000000000000000000000000000000000000008152600401610a7990612aa3565b60405180910390fd5b600073ffffffffffffffffffffffffffffffffffffffff16600a60009054906101000a900473ffffffffffffffffffffffffffffffffffffffff1673ffffffffffffffffffffffffffffffffffffffff1603610b13576040517f08c379a0000000000000000000000000000000000000000000000000000000008152600401610b0a90612b0f565b60405180910390fd5b610b3f600a60009054906101000a900473ffffffffffffffffffffffffffffffffffffffff1683610fe4565b600a60009054906101000a900473ffffffffffffffffffffffffffffffffffffffff1673ffffffffffffffffffffffffffffffffffffffff166342dd6c598383336040518463ffffffff1660e01b8152600401610b9e93929190612b2f565b600060405180830381600087803b158015610bb857600080fd5b505af1158015610bcc573d6000803e3d6000fd5b505050505050565b610be5610bdf610fdc565b8361109d565b610c24576040517f08c379a0000000000000000000000000000000000000000000000000000000008152600401610c1b906128a7565b60405180910390fd5b610c3084848484611613565b50505050565b6060610c418261166f565b9050919050565b610c50610fdc565b73ffffffffffffffffffffffffffffffffffffffff16610c6e61093a565b73ffffffffffffffffffffffffffffffffffffffff1614610cc4576040517f08c379a0000000000000000000000000000000000000000000000000000000008152600401610cbb90612a37565b60405180910390fd5b80600a60006101000a81548173ffffffffffffffffffffffffffffffffffffffff021916908373ffffffffffffffffffffffffffffffffffffffff16021790555050565b6000600560008473ffffffffffffffffffffffffffffffffffffffff1673ffffffffffffffffffffffffffffffffffffffff16815260200190815260200160002060008373ffffffffffffffffffffffffffffffffffffffff1673ffffffffffffffffffffffffffffffffffffffff16815260200190815260200160002060009054906101000a900460ff16905092915050565b6000610da860086117c0565b6000610db460086117d6565b9050610dc084826117e4565b610dca8184611802565b7f86094769a8d8b54a575d56650097d483bd4ecdeb3c8dd7ac9ac20df1e0d5ae03848285604051610dfd93929190612b66565b60405180910390a18091505092915050565b610e17610fdc565b73ffffffffffffffffffffffffffffffffffffffff16610e3561093a565b73ffffffffffffffffffffffffffffffffffffffff1614610e8b576040517f08c379a0000000000000000000000000000000000000000000000000000000008152600401610e8290612a37565b60405180910390fd5b600073ffffffffffffffffffffffffffffffffffffffff168173ffffffffffffffffffffffffffffffffffffffff1603610efa576040517f08c379a0000000000000000000000000000000000000000000000000000000008152600401610ef190612c16565b60405180910390fd5b610f03816113e1565b50565b60007f01ffc9a7000000000000000000000000000000000000000000000000000000007bffffffffffffffffffffffffffffffffffffffffffffffffffffffff1916827bffffffffffffffffffffffffffffffffffffffffffffffffffffffff1916149050919050565b60008073ffffffffffffffffffffffffffffffffffffffff166002600084815260200190815260200160002060009054906101000a900473ffffffffffffffffffffffffffffffffffffffff1673ffffffffffffffffffffffffffffffffffffffff1614159050919050565b600033905090565b816004600083815260200190815260200160002060006101000a81548173ffffffffffffffffffffffffffffffffffffffff021916908373ffffffffffffffffffffffffffffffffffffffff160217905550808273ffffffffffffffffffffffffffffffffffffffff166110578361074a565b73ffffffffffffffffffffffffffffffffffffffff167f8c5be1e5ebec7d5bd14f71427d1e84f3dd0314c0f7b2291e5b200ac8c7c3b92560405160405180910390a45050565b60006110a882610f70565b6110e7576040517f08c379a00000000000000000000000000000000000000000000000000000000081526004016110de90612ca8565b60405180910390fd5b60006110f28361074a565b90508073ffffffffffffffffffffffffffffffffffffffff168473ffffffffffffffffffffffffffffffffffffffff16148061113457506111338185610d08565b5b8061117257508373ffffffffffffffffffffffffffffffffffffffff1661115a8461052e565b73ffffffffffffffffffffffffffffffffffffffff16145b91505092915050565b8273ffffffffffffffffffffffffffffffffffffffff1661119b8261074a565b73ffffffffffffffffffffffffffffffffffffffff16146111f1576040517f08c379a00000000000000000000000000000000000000000000000000000000081526004016111e890612d3a565b60405180910390fd5b600073ffffffffffffffffffffffffffffffffffffffff168273ffffffffffffffffffffffffffffffffffffffff1603611260576040517f08c379a000000000000000000000000000000000000000000000000000000000815260040161125790612dcc565b60405180910390fd5b61126b838383611876565b611276600082610fe4565b6001600360008573ffffffffffffffffffffffffffffffffffffffff1673ffffffffffffffffffffffffffffffffffffffff16815260200190815260200160002060008282546112c69190612e1b565b925050819055506001600360008473ffffffffffffffffffffffffffffffffffffffff1673ffffffffffffffffffffffffffffffffffffffff168152602001908152602001600020600082825461131d9190612e4f565b92505081905550816002600083815260200190815260200160002060006101000a81548173ffffffffffffffffffffffffffffffffffffffff021916908373ffffffffffffffffffffffffffffffffffffffff160217905550808273ffffffffffffffffffffffffffffffffffffffff168473ffffffffffffffffffffffffffffffffffffffff167fddf252ad1be2c89b69c2b068fc378daa952ba7f163c4a11628f55a4df523b3ef60405160405180910390a46113dc83838361187b565b505050565b6000600760009054906101000a900473ffffffffffffffffffffffffffffffffffffffff16905081600760006101000a81548173ffffffffffffffffffffffffffffffffffffffff021916908373ffffffffffffffffffffffffffffffffffffffff1602179055508173ffffffffffffffffffffffffffffffffffffffff168173ffffffffffffffffffffffffffffffffffffffff167f8be0079c531659141344cd1fd0a4f28419497f9722a3daafe3b4186f6b6457e060405160405180910390a35050565b8173ffffffffffffffffffffffffffffffffffffffff168373ffffffffffffffffffffffffffffffffffffffff1603611515576040517f08c379a000000000000000000000000000000000000000000000000000000000815260040161150c90612ef1565b60405180910390fd5b80600560008573ffffffffffffffffffffffffffffffffffffffff1673ffffffffffffffffffffffffffffffffffffffff16815260200190815260200160002060008473ffffffffffffffffffffffffffffffffffffffff1673ffffffffffffffffffffffffffffffffffffffff16815260200190815260200160002060006101000a81548160ff0219169083151502179055508173ffffffffffffffffffffffffffffffffffffffff168373ffffffffffffffffffffffffffffffffffffffff167f17307eab39ab6107e8899845ad3d59bd9653f200f220920489ca2b5937696c31836040516116069190611fd3565b60405180910390a3505050565b61161e84848461117b565b61162a84848484611880565b611669576040517f08c379a000000000000000000000000000000000000000000000000000000000815260040161166090612f83565b60405180910390fd5b50505050565b606061167a82610f70565b6116b9576040517f08c379a00000000000000000000000000000000000000000000000000000000081526004016116b090613015565b60405180910390fd5b60006006600084815260200190815260200160002080546116d99061264e565b80601f01602080910402602001604051908101604052809291908181526020018280546117059061264e565b80156117525780601f1061172757610100808354040283529160200191611752565b820191906000526020600020905b81548152906001019060200180831161173557829003601f168201915b505050505090506000611763611a07565b905060008151036117785781925050506117bb565b6000825111156117ad578082604051602001611795929190613071565b604051602081830303815290604052925050506117bb565b6117b684611a1e565b925050505b919050565b6001816000016000828254019250508190555050565b600081600001549050919050565b6117fe828260405180602001604052806000815250611ac5565b5050565b61180b82610f70565b61184a576040517f08c379a000000000000000000000000000000000000000000000000000000000815260040161184190613107565b60405180910390fd5b80600660008481526020019081526020016000209080519060200190611871929190611e7c565b505050565b505050565b505050565b60006118a18473ffffffffffffffffffffffffffffffffffffffff16611b20565b156119fa578373ffffffffffffffffffffffffffffffffffffffff1663150b7a026118ca610fdc565b8786866040518563ffffffff1660e01b81526004016118ec949392919061317c565b6020604051808303816000875af192505050801561192857506040513d601f19601f8201168201806040525081019061192591906131dd565b60015b6119aa573d8060008114611958576040519150601f19603f3d011682016040523d82523d6000602084013e61195d565b606091505b5060008151036119a2576040517f08c379a000000000000000000000000000000000000000000000000000000000815260040161199990612f83565b60405180910390fd5b805181602001fd5b63150b7a0260e01b7bffffffffffffffffffffffffffffffffffffffffffffffffffffffff1916817bffffffffffffffffffffffffffffffffffffffffffffffffffffffff1916149150506119ff565b600190505b949350505050565b606060405180602001604052806000815250905090565b6060611a2982610f70565b611a68576040517f08c379a0000000000000000000000000000000000000000000000000000000008152600401611a5f9061327c565b60405180910390fd5b6000611a72611a07565b90506000815111611a925760405180602001604052806000815250611abd565b80611a9c84611b43565b604051602001611aad929190613071565b6040516020818303038152906040525b915050919050565b611acf8383611ca3565b611adc6000848484611880565b611b1b576040517f08c379a0000000000000000000000000000000000000000000000000000000008152600401611b1290612f83565b60405180910390fd5b505050565b6000808273ffffffffffffffffffffffffffffffffffffffff163b119050919050565b606060008203611b8a576040518060400160405280600181526020017f30000000000000000000000000000000000000000000000000000000000000008152509050611c9e565b600082905060005b60008214611bbc578080611ba59061329c565b915050600a82611bb59190613313565b9150611b92565b60008167ffffffffffffffff811115611bd857611bd7612334565b5b6040519080825280601f01601f191660200182016040528015611c0a5781602001600182028036833780820191505090505b5090505b60008514611c9757600182611c239190612e1b565b9150600a85611c329190613344565b6030611c3e9190612e4f565b60f81b818381518110611c5457611c53613375565b5b60200101907effffffffffffffffffffffffffffffffffffffffffffffffffffffffffffff1916908160001a905350600a85611c909190613313565b9450611c0e565b8093505050505b919050565b600073ffffffffffffffffffffffffffffffffffffffff168273ffffffffffffffffffffffffffffffffffffffff1603611d12576040517f08c379a0000000000000000000000000000000000000000000000000000000008152600401611d09906133f0565b60405180910390fd5b611d1b81610f70565b15611d5b576040517f08c379a0000000000000000000000000000000000000000000000000000000008152600401611d529061345c565b60405180910390fd5b611d6760008383611876565b6001600360008473ffffffffffffffffffffffffffffffffffffffff1673ffffffffffffffffffffffffffffffffffffffff1681526020019081526020016000206000828254611db79190612e4f565b92505081905550816002600083815260200190815260200160002060006101000a81548173ffffffffffffffffffffffffffffffffffffffff021916908373ffffffffffffffffffffffffffffffffffffffff160217905550808273ffffffffffffffffffffffffffffffffffffffff16600073ffffffffffffffffffffffffffffffffffffffff167fddf252ad1be2c89b69c2b068fc378daa952ba7f163c4a11628f55a4df523b3ef60405160405180910390a4611e786000838361187b565b5050565b828054611e889061264e565b90600052602060002090601f016020900481019282611eaa5760008555611ef1565b82601f10611ec357805160ff1916838001178555611ef1565b82800160010185558215611ef1579182015b82811115611ef0578251825591602001919060010190611ed5565b5b509050611efe9190611f02565b5090565b5b80821115611f1b576000816000905550600101611f03565b5090565b6000604051905090565b600080fd5b600080fd5b60007fffffffff0000000000000000000000000000000000000000000000000000000082169050919050565b611f6881611f33565b8114611f7357600080fd5b50565b600081359050611f8581611f5f565b92915050565b600060208284031215611fa157611fa0611f29565b5b6000611faf84828501611f76565b91505092915050565b60008115159050919050565b611fcd81611fb8565b82525050565b6000602082019050611fe86000830184611fc4565b92915050565b600081519050919050565b600082825260208201905092915050565b60005b8381101561202857808201518184015260208101905061200d565b83811115612037576000848401525b50505050565b6000601f19601f8301169050919050565b600061205982611fee565b6120638185611ff9565b935061207381856020860161200a565b61207c8161203d565b840191505092915050565b600060208201905081810360008301526120a1818461204e565b905092915050565b6000819050919050565b6120bc816120a9565b81146120c757600080fd5b50565b6000813590506120d9816120b3565b92915050565b6000602082840312156120f5576120f4611f29565b5b6000612103848285016120ca565b91505092915050565b600073ffffffffffffffffffffffffffffffffffffffff82169050919050565b60006121378261210c565b9050919050565b6121478161212c565b82525050565b6000602082019050612162600083018461213e565b92915050565b6121718161212c565b811461217c57600080fd5b50565b60008135905061218e81612168565b92915050565b600080604083850312156121ab576121aa611f29565b5b60006121b98582860161217f565b92505060206121ca858286016120ca565b9150509250929050565b6000806000606084860312156121ed576121ec611f29565b5b60006121fb8682870161217f565b935050602061220c8682870161217f565b925050604061221d868287016120ca565b9150509250925092565b60006020828403121561223d5761223c611f29565b5b600061224b8482850161217f565b91505092915050565b61225d816120a9565b82525050565b60006020820190506122786000830184612254565b92915050565b61228781611fb8565b811461229257600080fd5b50565b6000813590506122a48161227e565b92915050565b600080604083850312156122c1576122c0611f29565b5b60006122cf8582860161217f565b92505060206122e085828601612295565b9150509250929050565b6000806040838503121561230157612300611f29565b5b600061230f858286016120ca565b9250506020612320858286016120ca565b9150509250929050565b600080fd5b600080fd5b7f4e487b7100000000000000000000000000000000000000000000000000000000600052604160045260246000fd5b61236c8261203d565b810181811067ffffffffffffffff8211171561238b5761238a612334565b5b80604052505050565b600061239e611f1f565b90506123aa8282612363565b919050565b600067ffffffffffffffff8211156123ca576123c9612334565b5b6123d38261203d565b9050602081019050919050565b82818337600083830152505050565b60006124026123fd846123af565b612394565b90508281526020810184848401111561241e5761241d61232f565b5b6124298482856123e0565b509392505050565b600082601f8301126124465761244561232a565b5b81356124568482602086016123ef565b91505092915050565b6000806000806080858703121561247957612478611f29565b5b60006124878782880161217f565b94505060206124988782880161217f565b93505060406124a9878288016120ca565b925050606085013567ffffffffffffffff8111156124ca576124c9611f2e565b5b6124d687828801612431565b91505092959194509250565b600080604083850312156124f9576124f8611f29565b5b60006125078582860161217f565b92505060206125188582860161217f565b9150509250929050565b600067ffffffffffffffff82111561253d5761253c612334565b5b6125468261203d565b9050602081019050919050565b600061256661256184612522565b612394565b9050828152602081018484840111156125825761258161232f565b5b61258d8482856123e0565b509392505050565b600082601f8301126125aa576125a961232a565b5b81356125ba848260208601612553565b91505092915050565b600080604083850312156125da576125d9611f29565b5b60006125e88582860161217f565b925050602083013567ffffffffffffffff81111561260957612608611f2e565b5b61261585828601612595565b9150509250929050565b7f4e487b7100000000000000000000000000000000000000000000000000000000600052602260045260246000fd5b6000600282049050600182168061266657607f821691505b6020821081036126795761267861261f565b5b50919050565b7f4552433732313a20617070726f76656420717565727920666f72206e6f6e657860008201527f697374656e7420746f6b656e0000000000000000000000000000000000000000602082015250565b60006126db602c83611ff9565b91506126e68261267f565b604082019050919050565b6000602082019050818103600083015261270a816126ce565b9050919050565b7f4552433732313a20617070726f76616c20746f2063757272656e74206f776e6560008201527f7200000000000000000000000000000000000000000000000000000000000000602082015250565b600061276d602183611ff9565b915061277882612711565b604082019050919050565b6000602082019050818103600083015261279c81612760565b9050919050565b7f4552433732313a20617070726f76652063616c6c6572206973206e6f74206f7760008201527f6e6572206e6f7220617070726f76656420666f7220616c6c0000000000000000602082015250565b60006127ff603883611ff9565b915061280a826127a3565b604082019050919050565b6000602082019050818103600083015261282e816127f2565b9050919050565b7f4552433732313a207472616e736665722063616c6c6572206973206e6f74206f60008201527f776e6572206e6f7220617070726f766564000000000000000000000000000000602082015250565b6000612891603183611ff9565b915061289c82612835565b604082019050919050565b600060208201905081810360008301526128c081612884565b9050919050565b7f4552433732313a206f776e657220717565727920666f72206e6f6e657869737460008201527f656e7420746f6b656e0000000000000000000000000000000000000000000000602082015250565b6000612923602983611ff9565b915061292e826128c7565b604082019050919050565b6000602082019050818103600083015261295281612916565b9050919050565b7f4552433732313a2062616c616e636520717565727920666f7220746865207a6560008201527f726f206164647265737300000000000000000000000000000000000000000000602082015250565b60006129b5602a83611ff9565b91506129c082612959565b604082019050919050565b600060208201905081810360008301526129e4816129a8565b9050919050565b7f4f776e61626c653a2063616c6c6572206973206e6f7420746865206f776e6572600082015250565b6000612a21602083611ff9565b9150612a2c826129eb565b602082019050919050565b60006020820190508181036000830152612a5081612a14565b9050919050565b7f6e6f7420796f7572206e66740000000000000000000000000000000000000000600082015250565b6000612a8d600c83611ff9565b9150612a9882612a57565b602082019050919050565b60006020820190508181036000830152612abc81612a80565b9050919050565b7f646578206e6f7420736574757020796574000000000000000000000000000000600082015250565b6000612af9601183611ff9565b9150612b0482612ac3565b602082019050919050565b60006020820190508181036000830152612b2881612aec565b9050919050565b6000606082019050612b446000830186612254565b612b516020830185612254565b612b5e604083018461213e565b949350505050565b6000606082019050612b7b600083018661213e565b612b886020830185612254565b8181036040830152612b9a818461204e565b9050949350505050565b7f4f776e61626c653a206e6577206f776e657220697320746865207a65726f206160008201527f6464726573730000000000000000000000000000000000000000000000000000602082015250565b6000612c00602683611ff9565b9150612c0b82612ba4565b604082019050919050565b60006020820190508181036000830152612c2f81612bf3565b9050919050565b7f4552433732313a206f70657261746f7220717565727920666f72206e6f6e657860008201527f697374656e7420746f6b656e0000000000000000000000000000000000000000602082015250565b6000612c92602c83611ff9565b9150612c9d82612c36565b604082019050919050565b60006020820190508181036000830152612cc181612c85565b9050919050565b7f4552433732313a207472616e736665722066726f6d20696e636f72726563742060008201527f6f776e6572000000000000000000000000000000000000000000000000000000602082015250565b6000612d24602583611ff9565b9150612d2f82612cc8565b604082019050919050565b60006020820190508181036000830152612d5381612d17565b9050919050565b7f4552433732313a207472616e7366657220746f20746865207a65726f2061646460008201527f7265737300000000000000000000000000000000000000000000000000000000602082015250565b6000612db6602483611ff9565b9150612dc182612d5a565b604082019050919050565b60006020820190508181036000830152612de581612da9565b9050919050565b7f4e487b7100000000000000000000000000000000000000000000000000000000600052601160045260246000fd5b6000612e26826120a9565b9150612e31836120a9565b925082821015612e4457612e43612dec565b5b828203905092915050565b6000612e5a826120a9565b9150612e65836120a9565b9250827fffffffffffffffffffffffffffffffffffffffffffffffffffffffffffffffff03821115612e9a57612e99612dec565b5b828201905092915050565b7f4552433732313a20617070726f766520746f2063616c6c657200000000000000600082015250565b6000612edb601983611ff9565b9150612ee682612ea5565b602082019050919050565b60006020820190508181036000830152612f0a81612ece565b9050919050565b7f4552433732313a207472616e7366657220746f206e6f6e20455243373231526560008201527f63656976657220696d706c656d656e7465720000000000000000000000000000602082015250565b6000612f6d603283611ff9565b9150612f7882612f11565b604082019050919050565b60006020820190508181036000830152612f9c81612f60565b9050919050565b7f45524337323155524953746f726167653a2055524920717565727920666f722060008201527f6e6f6e6578697374656e7420746f6b656e000000000000000000000000000000602082015250565b6000612fff603183611ff9565b915061300a82612fa3565b604082019050919050565b6000602082019050818103600083015261302e81612ff2565b9050919050565b600081905092915050565b600061304b82611fee565b6130558185613035565b935061306581856020860161200a565b80840191505092915050565b600061307d8285613040565b91506130898284613040565b91508190509392505050565b7f45524337323155524953746f726167653a2055524920736574206f66206e6f6e60008201527f6578697374656e7420746f6b656e000000000000000000000000000000000000602082015250565b60006130f1602e83611ff9565b91506130fc82613095565b604082019050919050565b60006020820190508181036000830152613120816130e4565b9050919050565b600081519050919050565b600082825260208201905092915050565b600061314e82613127565b6131588185613132565b935061316881856020860161200a565b6131718161203d565b840191505092915050565b6000608082019050613191600083018761213e565b61319e602083018661213e565b6131ab6040830185612254565b81810360608301526131bd8184613143565b905095945050505050565b6000815190506131d781611f5f565b92915050565b6000602082840312156131f3576131f2611f29565b5b6000613201848285016131c8565b91505092915050565b7f4552433732314d657461646174613a2055524920717565727920666f72206e6f60008201527f6e6578697374656e7420746f6b656e0000000000000000000000000000000000602082015250565b6000613266602f83611ff9565b91506132718261320a565b604082019050919050565b6000602082019050818103600083015261329581613259565b9050919050565b60006132a7826120a9565b91507fffffffffffffffffffffffffffffffffffffffffffffffffffffffffffffffff82036132d9576132d8612dec565b5b600182019050919050565b7f4e487b7100000000000000000000000000000000000000000000000000000000600052601260045260246000fd5b600061331e826120a9565b9150613329836120a9565b925082613339576133386132e4565b5b828204905092915050565b600061334f826120a9565b915061335a836120a9565b92508261336a576133696132e4565b5b828206905092915050565b7f4e487b7100000000000000000000000000000000000000000000000000000000600052603260045260246000fd5b7f4552433732313a206d696e7420746f20746865207a65726f2061646472657373600082015250565b60006133da602083611ff9565b91506133e5826133a4565b602082019050919050565b60006020820190508181036000830152613409816133cd565b9050919050565b7f4552433732313a20746f6b656e20616c7265616479206d696e74656400000000600082015250565b6000613446601c83611ff9565b915061345182613410565b602082019050919050565b6000602082019050818103600083015261347581613439565b905091905056fea2646970667358221220a3285b889c02632833362c2e50895e61d212e42b8f6ad62813859b95e939feb764736f6c634300080e0033",
  "linkReferences": {},
  "deployedLinkReferences": {}
}