{
  "_format": "hh-sol-artifact-1",
  "contractName": "NudeDEX",
  "sourceName": "contracts/NudeDEX.sol",
  "abi": [
    {
      "inputs": [
        {
          "internalType": "address",
          "name": "_nude",
          "type": "address"
        },
        {
          "internalType": "address",
          "name": "_nudeNFT",
          "type": "address"
        }
      ],
      "stateMutability": "nonpayable",
      "type": "constructor"
    },
    {
      "anonymous": false,
      "inputs": [
        {
          "indexed": false,
          "internalType": "address",
          "name": "owner",
          "type": "address"
        },
        {
          "indexed": false,
          "internalType": "uint256",
          "name": "tokenId",
          "type": "uint256"
        },
        {
          "indexed": false,
          "internalType": "uint256",
          "name": "price",
          "type": "uint256"
        }
      ],
      "name": "OnSaleNFT",
      "type": "event"
    },
    {
      "anonymous": false,
      "inputs": [
        {
          "indexed": true,
          "internalType": "address",
          "name": "previousOwner",
          "type": "address"
        },
        {
          "indexed": true,
          "internalType": "address",
          "name": "newOwner",
          "type": "address"
        }
      ],
      "name": "OwnershipTransferred",
      "type": "event"
    },
    {
      "anonymous": false,
      "inputs": [
        {
          "indexed": false,
          "internalType": "address",
          "name": "owner",
          "type": "address"
        },
        {
          "indexed": false,
          "internalType": "uint256",
          "name": "tokenId",
          "type": "uint256"
        }
      ],
      "name": "TakeDownNFT",
      "type": "event"
    },
    {
      "anonymous": false,
      "inputs": [
        {
          "indexed": false,
          "internalType": "address",
          "name": "buyer",
          "type": "address"
        },
        {
          "indexed": false,
          "internalType": "address",
          "name": "seller",
          "type": "address"
        },
        {
          "indexed": false,
          "internalType": "uint256",
          "name": "tokenId",
          "type": "uint256"
        },
        {
          "indexed": false,
          "internalType": "uint256",
          "name": "price",
          "type": "uint256"
        }
      ],
      "name": "Trade",
      "type": "event"
    },
    {
      "inputs": [
        {
          "internalType": "uint256",
          "name": "tokenId",
          "type": "uint256"
        }
      ],
      "name": "getLastTradePrice",
      "outputs": [
        {
          "internalType": "uint256",
          "name": "",
          "type": "uint256"
        }
      ],
      "stateMutability": "view",
      "type": "function"
    },
    {
      "inputs": [
        {
          "internalType": "uint256",
          "name": "tokenId",
          "type": "uint256"
        }
      ],
      "name": "getPrice",
      "outputs": [
        {
          "internalType": "uint256",
          "name": "",
          "type": "uint256"
        }
      ],
      "stateMutability": "view",
      "type": "function"
    },
    {
      "inputs": [
        {
          "internalType": "address",
          "name": "",
          "type": "address"
        },
        {
          "internalType": "address",
          "name": "",
          "type": "address"
        },
        {
          "internalType": "uint256",
          "name": "",
          "type": "uint256"
        },
        {
          "internalType": "bytes",
          "name": "",
          "type": "bytes"
        }
      ],
      "name": "onERC721Received",
      "outputs": [
        {
          "internalType": "bytes4",
          "name": "",
          "type": "bytes4"
        }
      ],
      "stateMutability": "pure",
      "type": "function"
    },
    {
      "inputs": [
        {
          "internalType": "uint256",
          "name": "tokenId",
          "type": "uint256"
        },
        {
          "internalType": "uint256",
          "name": "price",
          "type": "uint256"
        },
        {
          "internalType": "address",
          "name": "seller",
          "type": "address"
        }
      ],
      "name": "onSale",
      "outputs": [],
      "stateMutability": "nonpayable",
      "type": "function"
    },
    {
      "inputs": [],
      "name": "owner",
      "outputs": [
        {
          "internalType": "address",
          "name": "",
          "type": "address"
        }
      ],
      "stateMutability": "view",
      "type": "function"
    },
    {
      "inputs": [],
      "name": "renounceOwnership",
      "outputs": [],
      "stateMutability": "nonpayable",
      "type": "function"
    },
    {
      "inputs": [
        {
          "internalType": "address",
          "name": "_nudeNFT",
          "type": "address"
        }
      ],
      "name": "setNudeNFTAddress",
      "outputs": [],
      "stateMutability": "nonpayable",
      "type": "function"
    },
    {
      "inputs": [
        {
          "internalType": "address",
          "name": "_nude",
          "type": "address"
        }
      ],
      "name": "setNudeTokenAddress",
      "outputs": [],
      "stateMutability": "nonpayable",
      "type": "function"
    },
    {
      "inputs": [
        {
          "internalType": "uint256",
          "name": "tokenId",
          "type": "uint256"
        }
      ],
      "name": "takeDown",
      "outputs": [],
      "stateMutability": "nonpayable",
      "type": "function"
    },
    {
      "inputs": [],
      "name": "tax",
      "outputs": [
        {
          "internalType": "uint8",
          "name": "",
          "type": "uint8"
        }
      ],
      "stateMutability": "view",
      "type": "function"
    },
    {
      "inputs": [
        {
          "internalType": "uint256",
          "name": "tokenId",
          "type": "uint256"
        },
        {
          "internalType": "address",
          "name": "buyer",
          "type": "address"
        }
      ],
      "name": "trade",
      "outputs": [],
      "stateMutability": "nonpayable",
      "type": "function"
    },
    {
      "inputs": [
        {
          "internalType": "address",
          "name": "newOwner",
          "type": "address"
        }
      ],
      "name": "transferOwnership",
      "outputs": [],
      "stateMutability": "nonpayable",
      "type": "function"
    },
    {
      "inputs": [
        {
          "internalType": "uint256",
          "name": "amount",
          "type": "uint256"
        }
      ],
      "name": "withdraw",
      "outputs": [],
      "stateMutability": "nonpayable",
      "type": "function"
    }
  ],
  "bytecode": "0x6080604052600a600260146101000a81548160ff021916908360ff1602179055503480156200002d57600080fd5b506040516200238f3803806200238f833981810160405281019062000053919062000233565b6200007362000067620000fd60201b60201c565b6200010560201b60201c565b81600160006101000a81548173ffffffffffffffffffffffffffffffffffffffff021916908373ffffffffffffffffffffffffffffffffffffffff16021790555080600260006101000a81548173ffffffffffffffffffffffffffffffffffffffff021916908373ffffffffffffffffffffffffffffffffffffffff16021790555050506200027a565b600033905090565b60008060009054906101000a900473ffffffffffffffffffffffffffffffffffffffff169050816000806101000a81548173ffffffffffffffffffffffffffffffffffffffff021916908373ffffffffffffffffffffffffffffffffffffffff1602179055508173ffffffffffffffffffffffffffffffffffffffff168173ffffffffffffffffffffffffffffffffffffffff167f8be0079c531659141344cd1fd0a4f28419497f9722a3daafe3b4186f6b6457e060405160405180910390a35050565b600080fd5b600073ffffffffffffffffffffffffffffffffffffffff82169050919050565b6000620001fb82620001ce565b9050919050565b6200020d81620001ee565b81146200021957600080fd5b50565b6000815190506200022d8162000202565b92915050565b600080604083850312156200024d576200024c620001c9565b5b60006200025d858286016200021c565b925050602062000270858286016200021c565b9150509250929050565b612105806200028a6000396000f3fe608060405234801561001057600080fd5b50600436106100cf5760003560e01c80638da5cb5b1161008c578063b96cfa6811610066578063b96cfa68146101d6578063e0a0cf7414610206578063e757223014610222578063f2fde38b14610252576100cf565b80638da5cb5b1461017e57806399c8d5561461019c578063ad1443f0146101ba576100cf565b8063150b7a02146100d45780632e1a7d4d14610104578063352ccd521461012057806342dd6c591461013c578063715018a61461015857806386e6345014610162575b600080fd5b6100ee60048036038101906100e99190611725565b61026e565b6040516100fb91906117e8565b60405180910390f35b61011e60048036038101906101199190611803565b61029c565b005b61013a60048036038101906101359190611830565b610549565b005b6101566004803603810190610151919061185d565b610609565b005b610160610890565b005b61017c60048036038101906101779190611803565b610918565b005b610186610c24565b60405161019391906118bf565b60405180910390f35b6101a4610c4d565b6040516101b191906118f6565b60405180910390f35b6101d460048036038101906101cf9190611830565b610c60565b005b6101f060048036038101906101eb9190611803565b610d20565b6040516101fd9190611920565b60405180910390f35b610220600480360381019061021b919061193b565b610d92565b005b61023c60048036038101906102379190611803565b6113ed565b6040516102499190611920565b60405180910390f35b61026c60048036038101906102679190611830565b61145f565b005b60007f150b7a023d4804d13e8c85fb27262cb750cf6ba9f9dd3bb30d90f482ceeb4b1f905095945050505050565b6102a4611556565b73ffffffffffffffffffffffffffffffffffffffff166102c2610c24565b73ffffffffffffffffffffffffffffffffffffffff1614610318576040517f08c379a000000000000000000000000000000000000000000000000000000000815260040161030f906119d8565b60405180910390fd5b80600160009054906101000a900473ffffffffffffffffffffffffffffffffffffffff1673ffffffffffffffffffffffffffffffffffffffff166370a08231306040518263ffffffff1660e01b815260040161037491906118bf565b602060405180830381865afa158015610391573d6000803e3d6000fd5b505050506040513d601f19601f820116820180604052508101906103b59190611a0d565b10156103f6576040517f08c379a00000000000000000000000000000000000000000000000000000000081526004016103ed90611a86565b60405180910390fd5b600160009054906101000a900473ffffffffffffffffffffffffffffffffffffffff1673ffffffffffffffffffffffffffffffffffffffff1663095ea7b361043c610c24565b836040518363ffffffff1660e01b815260040161045a929190611aa6565b6020604051808303816000875af1158015610479573d6000803e3d6000fd5b505050506040513d601f19601f8201168201806040525081019061049d9190611b07565b50600160009054906101000a900473ffffffffffffffffffffffffffffffffffffffff1673ffffffffffffffffffffffffffffffffffffffff1663a9059cbb6104e4610c24565b836040518363ffffffff1660e01b8152600401610502929190611aa6565b6020604051808303816000875af1158015610521573d6000803e3d6000fd5b505050506040513d601f19601f820116820180604052508101906105459190611b07565b5050565b610551611556565b73ffffffffffffffffffffffffffffffffffffffff1661056f610c24565b73ffffffffffffffffffffffffffffffffffffffff16146105c5576040517f08c379a00000000000000000000000000000000000000000000000000000000081526004016105bc906119d8565b60405180910390fd5b80600160006101000a81548173ffffffffffffffffffffffffffffffffffffffff021916908373ffffffffffffffffffffffffffffffffffffffff16021790555050565b6000821161064c576040517f08c379a000000000000000000000000000000000000000000000000000000000815260040161064390611b80565b60405180910390fd5b8073ffffffffffffffffffffffffffffffffffffffff16600260009054906101000a900473ffffffffffffffffffffffffffffffffffffffff1673ffffffffffffffffffffffffffffffffffffffff16636352211e856040518263ffffffff1660e01b81526004016106be9190611920565b602060405180830381865afa1580156106db573d6000803e3d6000fd5b505050506040513d601f19601f820116820180604052508101906106ff9190611bb5565b73ffffffffffffffffffffffffffffffffffffffff1614610755576040517f08c379a000000000000000000000000000000000000000000000000000000000815260040161074c90611c2e565b60405180910390fd5b600260009054906101000a900473ffffffffffffffffffffffffffffffffffffffff1673ffffffffffffffffffffffffffffffffffffffff166342842e0e8230866040518463ffffffff1660e01b81526004016107b493929190611c4e565b600060405180830381600087803b1580156107ce57600080fd5b505af11580156107e2573d6000803e3d6000fd5b50505050806005600085815260200190815260200160002060006101000a81548173ffffffffffffffffffffffffffffffffffffffff021916908373ffffffffffffffffffffffffffffffffffffffff1602179055508160046000858152602001908152602001600020819055507fc0d0f63528062762033cd269b4370cf3f5fbd4e76a6f28c4b8d86bec493556b281848460405161088393929190611c85565b60405180910390a1505050565b610898611556565b73ffffffffffffffffffffffffffffffffffffffff166108b6610c24565b73ffffffffffffffffffffffffffffffffffffffff161461090c576040517f08c379a0000000000000000000000000000000000000000000000000000000008152600401610903906119d8565b60405180910390fd5b610916600061155e565b565b600073ffffffffffffffffffffffffffffffffffffffff166005600083815260200190815260200160002060009054906101000a900473ffffffffffffffffffffffffffffffffffffffff1673ffffffffffffffffffffffffffffffffffffffff161415801561099b575060006004600083815260200190815260200160002054115b6109da576040517f08c379a00000000000000000000000000000000000000000000000000000000081526004016109d190611d08565b60405180910390fd5b3373ffffffffffffffffffffffffffffffffffffffff166005600083815260200190815260200160002060009054906101000a900473ffffffffffffffffffffffffffffffffffffffff1673ffffffffffffffffffffffffffffffffffffffff1614610a7b576040517f08c379a0000000000000000000000000000000000000000000000000000000008152600401610a7290611c2e565b60405180910390fd5b600260009054906101000a900473ffffffffffffffffffffffffffffffffffffffff1673ffffffffffffffffffffffffffffffffffffffff1663095ea7b333836040518363ffffffff1660e01b8152600401610ad8929190611aa6565b600060405180830381600087803b158015610af257600080fd5b505af1158015610b06573d6000803e3d6000fd5b50505050600260009054906101000a900473ffffffffffffffffffffffffffffffffffffffff1673ffffffffffffffffffffffffffffffffffffffff166342842e0e3033846040518463ffffffff1660e01b8152600401610b6993929190611c4e565b600060405180830381600087803b158015610b8357600080fd5b505af1158015610b97573d6000803e3d6000fd5b505050506005600082815260200190815260200160002060006101000a81549073ffffffffffffffffffffffffffffffffffffffff021916905560046000828152602001908152602001600020600090557f7860a08244f8005093c4ef6d0fcc0af1c7f589ccdc00d56c31afa9c6501d2ccb3382604051610c19929190611aa6565b60405180910390a150565b60008060009054906101000a900473ffffffffffffffffffffffffffffffffffffffff16905090565b600260149054906101000a900460ff1681565b610c68611556565b73ffffffffffffffffffffffffffffffffffffffff16610c86610c24565b73ffffffffffffffffffffffffffffffffffffffff1614610cdc576040517f08c379a0000000000000000000000000000000000000000000000000000000008152600401610cd3906119d8565b60405180910390fd5b80600260006101000a81548173ffffffffffffffffffffffffffffffffffffffff021916908373ffffffffffffffffffffffffffffffffffffffff16021790555050565b600080600360008481526020019081526020016000205403610d77576040517f08c379a0000000000000000000000000000000000000000000000000000000008152600401610d6e90611d74565b60405180910390fd5b60036000838152602001908152602001600020549050919050565b600073ffffffffffffffffffffffffffffffffffffffff166005600084815260200190815260200160002060009054906101000a900473ffffffffffffffffffffffffffffffffffffffff1673ffffffffffffffffffffffffffffffffffffffff1614158015610e15575060006004600084815260200190815260200160002054115b610e54576040517f08c379a0000000000000000000000000000000000000000000000000000000008152600401610e4b90611d08565b60405180910390fd5b6000600460008481526020019081526020016000205490506005600084815260200190815260200160002060009054906101000a900473ffffffffffffffffffffffffffffffffffffffff1673ffffffffffffffffffffffffffffffffffffffff168273ffffffffffffffffffffffffffffffffffffffff1603610f0d576040517f08c379a0000000000000000000000000000000000000000000000000000000008152600401610f0490611de0565b60405180910390fd5b6064600260149054906101000a900460ff166064610f2b9190611e2f565b60ff1682610f399190611e66565b610f439190611eef565b600160009054906101000a900473ffffffffffffffffffffffffffffffffffffffff1673ffffffffffffffffffffffffffffffffffffffff166370a08231846040518263ffffffff1660e01b8152600401610f9e91906118bf565b602060405180830381865afa158015610fbb573d6000803e3d6000fd5b505050506040513d601f19601f82011682018060405250810190610fdf9190611a0d565b1015611020576040517f08c379a000000000000000000000000000000000000000000000000000000000815260040161101790611f6c565b60405180910390fd5b600160009054906101000a900473ffffffffffffffffffffffffffffffffffffffff1673ffffffffffffffffffffffffffffffffffffffff166323b872dd83306064600260149054906101000a900460ff16606461107e9190611e2f565b60ff168661108c9190611e66565b6110969190611eef565b6040518463ffffffff1660e01b81526004016110b493929190611c4e565b6020604051808303816000875af11580156110d3573d6000803e3d6000fd5b505050506040513d601f19601f820116820180604052508101906110f79190611b07565b5060006005600085815260200190815260200160002060009054906101000a900473ffffffffffffffffffffffffffffffffffffffff169050600160009054906101000a900473ffffffffffffffffffffffffffffffffffffffff1673ffffffffffffffffffffffffffffffffffffffff1663095ea7b382846040518363ffffffff1660e01b815260040161118d929190611aa6565b6020604051808303816000875af11580156111ac573d6000803e3d6000fd5b505050506040513d601f19601f820116820180604052508101906111d09190611b07565b50600160009054906101000a900473ffffffffffffffffffffffffffffffffffffffff1673ffffffffffffffffffffffffffffffffffffffff1663a9059cbb82846040518363ffffffff1660e01b815260040161122e929190611aa6565b6020604051808303816000875af115801561124d573d6000803e3d6000fd5b505050506040513d601f19601f820116820180604052508101906112719190611b07565b50600260009054906101000a900473ffffffffffffffffffffffffffffffffffffffff1673ffffffffffffffffffffffffffffffffffffffff1663095ea7b384866040518363ffffffff1660e01b81526004016112cf929190611aa6565b600060405180830381600087803b1580156112e957600080fd5b505af11580156112fd573d6000803e3d6000fd5b50505050600260009054906101000a900473ffffffffffffffffffffffffffffffffffffffff1673ffffffffffffffffffffffffffffffffffffffff166342842e0e3085876040518463ffffffff1660e01b815260040161136093929190611c4e565b600060405180830381600087803b15801561137a57600080fd5b505af115801561138e573d6000803e3d6000fd5b505050508160036000868152602001908152602001600020819055507f4b5796113f074ebf8f11d5bcdeb6349b2fbe47abed78419cdcdbbc15c6fcf845838286856040516113df9493929190611f8c565b60405180910390a150505050565b600080600460008481526020019081526020016000205403611444576040517f08c379a000000000000000000000000000000000000000000000000000000000815260040161143b9061201d565b60405180910390fd5b60046000838152602001908152602001600020549050919050565b611467611556565b73ffffffffffffffffffffffffffffffffffffffff16611485610c24565b73ffffffffffffffffffffffffffffffffffffffff16146114db576040517f08c379a00000000000000000000000000000000000000000000000000000000081526004016114d2906119d8565b60405180910390fd5b600073ffffffffffffffffffffffffffffffffffffffff168173ffffffffffffffffffffffffffffffffffffffff160361154a576040517f08c379a0000000000000000000000000000000000000000000000000000000008152600401611541906120af565b60405180910390fd5b6115538161155e565b50565b600033905090565b60008060009054906101000a900473ffffffffffffffffffffffffffffffffffffffff169050816000806101000a81548173ffffffffffffffffffffffffffffffffffffffff021916908373ffffffffffffffffffffffffffffffffffffffff1602179055508173ffffffffffffffffffffffffffffffffffffffff168173ffffffffffffffffffffffffffffffffffffffff167f8be0079c531659141344cd1fd0a4f28419497f9722a3daafe3b4186f6b6457e060405160405180910390a35050565b600080fd5b600080fd5b600073ffffffffffffffffffffffffffffffffffffffff82169050919050565b60006116578261162c565b9050919050565b6116678161164c565b811461167257600080fd5b50565b6000813590506116848161165e565b92915050565b6000819050919050565b61169d8161168a565b81146116a857600080fd5b50565b6000813590506116ba81611694565b92915050565b600080fd5b600080fd5b600080fd5b60008083601f8401126116e5576116e46116c0565b5b8235905067ffffffffffffffff811115611702576117016116c5565b5b60208301915083600182028301111561171e5761171d6116ca565b5b9250929050565b60008060008060006080868803121561174157611740611622565b5b600061174f88828901611675565b955050602061176088828901611675565b9450506040611771888289016116ab565b935050606086013567ffffffffffffffff81111561179257611791611627565b5b61179e888289016116cf565b92509250509295509295909350565b60007fffffffff0000000000000000000000000000000000000000000000000000000082169050919050565b6117e2816117ad565b82525050565b60006020820190506117fd60008301846117d9565b92915050565b60006020828403121561181957611818611622565b5b6000611827848285016116ab565b91505092915050565b60006020828403121561184657611845611622565b5b600061185484828501611675565b91505092915050565b60008060006060848603121561187657611875611622565b5b6000611884868287016116ab565b9350506020611895868287016116ab565b92505060406118a686828701611675565b9150509250925092565b6118b98161164c565b82525050565b60006020820190506118d460008301846118b0565b92915050565b600060ff82169050919050565b6118f0816118da565b82525050565b600060208201905061190b60008301846118e7565b92915050565b61191a8161168a565b82525050565b60006020820190506119356000830184611911565b92915050565b6000806040838503121561195257611951611622565b5b6000611960858286016116ab565b925050602061197185828601611675565b9150509250929050565b600082825260208201905092915050565b7f4f776e61626c653a2063616c6c6572206973206e6f7420746865206f776e6572600082015250565b60006119c260208361197b565b91506119cd8261198c565b602082019050919050565b600060208201905081810360008301526119f1816119b5565b9050919050565b600081519050611a0781611694565b92915050565b600060208284031215611a2357611a22611622565b5b6000611a31848285016119f8565b91505092915050565b7f4e6f7420656e6f75676820746f6b656e7320746f207769746864726177000000600082015250565b6000611a70601d8361197b565b9150611a7b82611a3a565b602082019050919050565b60006020820190508181036000830152611a9f81611a63565b9050919050565b6000604082019050611abb60008301856118b0565b611ac86020830184611911565b9392505050565b60008115159050919050565b611ae481611acf565b8114611aef57600080fd5b50565b600081519050611b0181611adb565b92915050565b600060208284031215611b1d57611b1c611622565b5b6000611b2b84828501611af2565b91505092915050565b7f5072696365206d7573742062652067726561746572207468616e203000000000600082015250565b6000611b6a601c8361197b565b9150611b7582611b34565b602082019050919050565b60006020820190508181036000830152611b9981611b5d565b9050919050565b600081519050611baf8161165e565b92915050565b600060208284031215611bcb57611bca611622565b5b6000611bd984828501611ba0565b91505092915050565b7f4e6f7420796f7572204e46540000000000000000000000000000000000000000600082015250565b6000611c18600c8361197b565b9150611c2382611be2565b602082019050919050565b60006020820190508181036000830152611c4781611c0b565b9050919050565b6000606082019050611c6360008301866118b0565b611c7060208301856118b0565b611c7d6040830184611911565b949350505050565b6000606082019050611c9a60008301866118b0565b611ca76020830185611911565b611cb46040830184611911565b949350505050565b7f4e4654206e6f74206f6e2073616c650000000000000000000000000000000000600082015250565b6000611cf2600f8361197b565b9150611cfd82611cbc565b602082019050919050565b60006020820190508181036000830152611d2181611ce5565b9050919050565b7f4c61737420747261646520707269636520646f6573206e6f7420657869737400600082015250565b6000611d5e601f8361197b565b9150611d6982611d28565b602082019050919050565b60006020820190508181036000830152611d8d81611d51565b9050919050565b7f596f752063616e27742062757920796f7572206f776e204e4654000000000000600082015250565b6000611dca601a8361197b565b9150611dd582611d94565b602082019050919050565b60006020820190508181036000830152611df981611dbd565b9050919050565b7f4e487b7100000000000000000000000000000000000000000000000000000000600052601160045260246000fd5b6000611e3a826118da565b9150611e45836118da565b92508260ff03821115611e5b57611e5a611e00565b5b828201905092915050565b6000611e718261168a565b9150611e7c8361168a565b9250817fffffffffffffffffffffffffffffffffffffffffffffffffffffffffffffffff0483118215151615611eb557611eb4611e00565b5b828202905092915050565b7f4e487b7100000000000000000000000000000000000000000000000000000000600052601260045260246000fd5b6000611efa8261168a565b9150611f058361168a565b925082611f1557611f14611ec0565b5b828204905092915050565b7f4e6f7420656e6f75676820746f6b656e7320746f20627579206e667400000000600082015250565b6000611f56601c8361197b565b9150611f6182611f20565b602082019050919050565b60006020820190508181036000830152611f8581611f49565b9050919050565b6000608082019050611fa160008301876118b0565b611fae60208301866118b0565b611fbb6040830185611911565b611fc86060830184611911565b95945050505050565b7f4e465420707269636520646f6573206e6f742065786973740000000000000000600082015250565b600061200760188361197b565b915061201282611fd1565b602082019050919050565b6000602082019050818103600083015261203681611ffa565b9050919050565b7f4f776e61626c653a206e6577206f776e657220697320746865207a65726f206160008201527f6464726573730000000000000000000000000000000000000000000000000000602082015250565b600061209960268361197b565b91506120a48261203d565b604082019050919050565b600060208201905081810360008301526120c88161208c565b905091905056fea2646970667358221220f920f0cc2f9aec17289131ebb2952215cb939411930d7854d34bc09815eda6b364736f6c634300080e0033",
  "linkReferences": {},
  "deployedLinkReferences": {}
}