{
  "_format": "hh-sol-artifact-1",
  "contractName": "Nude",
  "sourceName": "contracts/Nude.sol",
  "abi": [
    {
      "inputs": [],
      "stateMutability": "nonpayable",
      "type": "constructor"
    },
    {
      "anonymous": false,
      "inputs": [
        {
          "indexed": true,
          "internalType": "address",
          "name": "owner",
          "type": "address"
        },
        {
          "indexed": true,
          "internalType": "address",
          "name": "spender",
          "type": "address"
        },
        {
          "indexed": false,
          "internalType": "uint256",
          "name": "value",
          "type": "uint256"
        }
      ],
      "name": "Approval",
      "type": "event"
    },
    {
      "anonymous": false,
      "inputs": [
        {
          "indexed": true,
          "internalType": "address",
          "name": "previousOwner",
          "type": "address"
        },
        {
          "indexed": true,
          "internalType": "address",
          "name": "newOwner",
          "type": "address"
        }
      ],
      "name": "OwnershipTransferred",
      "type": "event"
    },
    {
      "anonymous": false,
      "inputs": [
        {
          "indexed": false,
          "internalType": "address",
          "name": "_buyer",
          "type": "address"
        },
        {
          "indexed": false,
          "internalType": "uint256",
          "name": "_amount",
          "type": "uint256"
        }
      ],
      "name": "Sell",
      "type": "event"
    },
    {
      "anonymous": false,
      "inputs": [
        {
          "indexed": true,
          "internalType": "address",
          "name": "from",
          "type": "address"
        },
        {
          "indexed": true,
          "internalType": "address",
          "name": "to",
          "type": "address"
        },
        {
          "indexed": false,
          "internalType": "uint256",
          "name": "value",
          "type": "uint256"
        }
      ],
      "name": "Transfer",
      "type": "event"
    },
    {
      "inputs": [
        {
          "internalType": "address",
          "name": "owner",
          "type": "address"
        },
        {
          "internalType": "address",
          "name": "spender",
          "type": "address"
        }
      ],
      "name": "allowance",
      "outputs": [
        {
          "internalType": "uint256",
          "name": "",
          "type": "uint256"
        }
      ],
      "stateMutability": "view",
      "type": "function"
    },
    {
      "inputs": [
        {
          "internalType": "address",
          "name": "spender",
          "type": "address"
        },
        {
          "internalType": "uint256",
          "name": "amount",
          "type": "uint256"
        }
      ],
      "name": "approve",
      "outputs": [
        {
          "internalType": "bool",
          "name": "",
          "type": "bool"
        }
      ],
      "stateMutability": "nonpayable",
      "type": "function"
    },
    {
      "inputs": [
        {
          "internalType": "uint256",
          "name": "tokenId",
          "type": "uint256"
        }
      ],
      "name": "approveAndBuyNFT",
      "outputs": [],
      "stateMutability": "nonpayable",
      "type": "function"
    },
    {
      "inputs": [
        {
          "internalType": "address",
          "name": "account",
          "type": "address"
        }
      ],
      "name": "balanceOf",
      "outputs": [
        {
          "internalType": "uint256",
          "name": "",
          "type": "uint256"
        }
      ],
      "stateMutability": "view",
      "type": "function"
    },
    {
      "inputs": [
        {
          "internalType": "uint256",
          "name": "_numberOfTokens",
          "type": "uint256"
        }
      ],
      "name": "buyTokens",
      "outputs": [],
      "stateMutability": "payable",
      "type": "function"
    },
    {
      "inputs": [],
      "name": "decimals",
      "outputs": [
        {
          "internalType": "uint8",
          "name": "",
          "type": "uint8"
        }
      ],
      "stateMutability": "view",
      "type": "function"
    },
    {
      "inputs": [
        {
          "internalType": "address",
          "name": "spender",
          "type": "address"
        },
        {
          "internalType": "uint256",
          "name": "subtractedValue",
          "type": "uint256"
        }
      ],
      "name": "decreaseAllowance",
      "outputs": [
        {
          "internalType": "bool",
          "name": "",
          "type": "bool"
        }
      ],
      "stateMutability": "nonpayable",
      "type": "function"
    },
    {
      "inputs": [],
      "name": "getTokenRate",
      "outputs": [
        {
          "internalType": "uint256",
          "name": "",
          "type": "uint256"
        }
      ],
      "stateMutability": "view",
      "type": "function"
    },
    {
      "inputs": [
        {
          "internalType": "address",
          "name": "spender",
          "type": "address"
        },
        {
          "internalType": "uint256",
          "name": "addedValue",
          "type": "uint256"
        }
      ],
      "name": "increaseAllowance",
      "outputs": [
        {
          "internalType": "bool",
          "name": "",
          "type": "bool"
        }
      ],
      "stateMutability": "nonpayable",
      "type": "function"
    },
    {
      "inputs": [],
      "name": "initialSupply",
      "outputs": [
        {
          "internalType": "uint256",
          "name": "",
          "type": "uint256"
        }
      ],
      "stateMutability": "view",
      "type": "function"
    },
    {
      "inputs": [],
      "name": "name",
      "outputs": [
        {
          "internalType": "string",
          "name": "",
          "type": "string"
        }
      ],
      "stateMutability": "view",
      "type": "function"
    },
    {
      "inputs": [],
      "name": "owner",
      "outputs": [
        {
          "internalType": "address",
          "name": "",
          "type": "address"
        }
      ],
      "stateMutability": "view",
      "type": "function"
    },
    {
      "inputs": [],
      "name": "renounceOwnership",
      "outputs": [],
      "stateMutability": "nonpayable",
      "type": "function"
    },
    {
      "inputs": [
        {
          "internalType": "address",
          "name": "dexAddress",
          "type": "address"
        }
      ],
      "name": "setNudeDex",
      "outputs": [],
      "stateMutability": "nonpayable",
      "type": "function"
    },
    {
      "inputs": [
        {
          "internalType": "uint256",
          "name": "_rate",
          "type": "uint256"
        }
      ],
      "name": "setTokenRate",
      "outputs": [],
      "stateMutability": "nonpayable",
      "type": "function"
    },
    {
      "inputs": [],
      "name": "symbol",
      "outputs": [
        {
          "internalType": "string",
          "name": "",
          "type": "string"
        }
      ],
      "stateMutability": "view",
      "type": "function"
    },
    {
      "inputs": [],
      "name": "tokensSold",
      "outputs": [
        {
          "internalType": "uint256",
          "name": "",
          "type": "uint256"
        }
      ],
      "stateMutability": "view",
      "type": "function"
    },
    {
      "inputs": [],
      "name": "totalSupply",
      "outputs": [
        {
          "internalType": "uint256",
          "name": "",
          "type": "uint256"
        }
      ],
      "stateMutability": "view",
      "type": "function"
    },
    {
      "inputs": [
        {
          "internalType": "address",
          "name": "to",
          "type": "address"
        },
        {
          "internalType": "uint256",
          "name": "amount",
          "type": "uint256"
        }
      ],
      "name": "transfer",
      "outputs": [
        {
          "internalType": "bool",
          "name": "",
          "type": "bool"
        }
      ],
      "stateMutability": "nonpayable",
      "type": "function"
    },
    {
      "inputs": [
        {
          "internalType": "address",
          "name": "from",
          "type": "address"
        },
        {
          "internalType": "address",
          "name": "to",
          "type": "address"
        },
        {
          "internalType": "uint256",
          "name": "amount",
          "type": "uint256"
        }
      ],
      "name": "transferFrom",
      "outputs": [
        {
          "internalType": "bool",
          "name": "",
          "type": "bool"
        }
      ],
      "stateMutability": "nonpayable",
      "type": "function"
    },
    {
      "inputs": [
        {
          "internalType": "address",
          "name": "newOwner",
          "type": "address"
        }
      ],
      "name": "transferOwnership",
      "outputs": [],
      "stateMutability": "nonpayable",
      "type": "function"
    },
    {
      "inputs": [
        {
          "internalType": "address",
          "name": "from",
          "type": "address"
        },
        {
          "internalType": "address",
          "name": "to",
          "type": "address"
        },
        {
          "internalType": "uint256",
          "name": "amount",
          "type": "uint256"
        }
      ],
      "name": "transferTokens",
      "outputs": [],
      "stateMutability": "nonpayable",
      "type": "function"
    }
  ],
  "bytecode": "0x60806040526304277dc9600655600a6008553480156200001e57600080fd5b506040518060400160405280600481526020017f4e756465000000000000000000000000000000000000000000000000000000008152506040518060400160405280600481526020017f4e554445000000000000000000000000000000000000000000000000000000008152508160039080519060200190620000a39291906200037c565b508060049080519060200190620000bc9291906200037c565b505050620000df620000d36200012360201b60201c565b6200012b60201b60201c565b6200011d33620000f4620001f160201b60201c565b600a620001029190620005c6565b60065462000111919062000617565b620001fa60201b60201c565b620007ea565b600033905090565b6000600560009054906101000a900473ffffffffffffffffffffffffffffffffffffffff16905081600560006101000a81548173ffffffffffffffffffffffffffffffffffffffff021916908373ffffffffffffffffffffffffffffffffffffffff1602179055508173ffffffffffffffffffffffffffffffffffffffff168173ffffffffffffffffffffffffffffffffffffffff167f8be0079c531659141344cd1fd0a4f28419497f9722a3daafe3b4186f6b6457e060405160405180910390a35050565b60006012905090565b600073ffffffffffffffffffffffffffffffffffffffff168273ffffffffffffffffffffffffffffffffffffffff16036200026c576040517f08c379a00000000000000000000000000000000000000000000000000000000081526004016200026390620006d9565b60405180910390fd5b62000280600083836200037260201b60201c565b8060026000828254620002949190620006fb565b92505081905550806000808473ffffffffffffffffffffffffffffffffffffffff1673ffffffffffffffffffffffffffffffffffffffff1681526020019081526020016000206000828254620002eb9190620006fb565b925050819055508173ffffffffffffffffffffffffffffffffffffffff16600073ffffffffffffffffffffffffffffffffffffffff167fddf252ad1be2c89b69c2b068fc378daa952ba7f163c4a11628f55a4df523b3ef8360405162000352919062000769565b60405180910390a36200036e600083836200037760201b60201c565b5050565b505050565b505050565b8280546200038a90620007b5565b90600052602060002090601f016020900481019282620003ae5760008555620003fa565b82601f10620003c957805160ff1916838001178555620003fa565b82800160010185558215620003fa579182015b82811115620003f9578251825591602001919060010190620003dc565b5b5090506200040991906200040d565b5090565b5b80821115620004285760008160009055506001016200040e565b5090565b7f4e487b7100000000000000000000000000000000000000000000000000000000600052601160045260246000fd5b60008160011c9050919050565b6000808291508390505b6001851115620004ba578086048111156200049257620004916200042c565b5b6001851615620004a25780820291505b8081029050620004b2856200045b565b945062000472565b94509492505050565b600082620004d55760019050620005a8565b81620004e55760009050620005a8565b8160018114620004fe576002811462000509576200053f565b6001915050620005a8565b60ff8411156200051e576200051d6200042c565b5b8360020a9150848211156200053857620005376200042c565b5b50620005a8565b5060208310610133831016604e8410600b8410161715620005795782820a9050838111156200057357620005726200042c565b5b620005a8565b62000588848484600162000468565b92509050818404811115620005a257620005a16200042c565b5b81810290505b9392505050565b6000819050919050565b600060ff82169050919050565b6000620005d382620005af565b9150620005e083620005b9565b92506200060f7fffffffffffffffffffffffffffffffffffffffffffffffffffffffffffffffff8484620004c3565b905092915050565b60006200062482620005af565b91506200063183620005af565b9250817fffffffffffffffffffffffffffffffffffffffffffffffffffffffffffffffff04831182151516156200066d576200066c6200042c565b5b828202905092915050565b600082825260208201905092915050565b7f45524332303a206d696e7420746f20746865207a65726f206164647265737300600082015250565b6000620006c1601f8362000678565b9150620006ce8262000689565b602082019050919050565b60006020820190508181036000830152620006f481620006b2565b9050919050565b60006200070882620005af565b91506200071583620005af565b9250827fffffffffffffffffffffffffffffffffffffffffffffffffffffffffffffffff038211156200074d576200074c6200042c565b5b828201905092915050565b6200076381620005af565b82525050565b600060208201905062000780600083018462000758565b92915050565b7f4e487b7100000000000000000000000000000000000000000000000000000000600052602260045260246000fd5b60006002820490506001821680620007ce57607f821691505b602082108103620007e457620007e362000786565b5b50919050565b61206f80620007fa6000396000f3fe6080604052600436106101355760003560e01c806361241c28116100ab578063a457c2d71161006f578063a457c2d71461040b578063a64b6e5f14610448578063a9059cbb14610471578063dd62ed3e146104ae578063e8e42475146104eb578063f2fde38b1461051457610135565b806361241c281461033857806370a0823114610361578063715018a61461039e5780638da5cb5b146103b557806395d89b41146103e057610135565b80633610724e116100fd5780633610724e14610235578063378dc3dc1461025157806338ece2a61461027c57806339509351146102a55780633e2d7004146102e2578063518ab2a81461030d57610135565b806306fdde031461013a578063095ea7b31461016557806318160ddd146101a257806323b872dd146101cd578063313ce5671461020a575b600080fd5b34801561014657600080fd5b5061014f61053d565b60405161015c9190611491565b60405180910390f35b34801561017157600080fd5b5061018c6004803603810190610187919061154c565b6105cf565b60405161019991906115a7565b60405180910390f35b3480156101ae57600080fd5b506101b76105f2565b6040516101c491906115d1565b60405180910390f35b3480156101d957600080fd5b506101f460048036038101906101ef91906115ec565b6105fc565b60405161020191906115a7565b60405180910390f35b34801561021657600080fd5b5061021f61062b565b60405161022c919061165b565b60405180910390f35b61024f600480360381019061024a9190611676565b610634565b005b34801561025d57600080fd5b5061026661075a565b60405161027391906115d1565b60405180910390f35b34801561028857600080fd5b506102a3600480360381019061029e9190611676565b610760565b005b3480156102b157600080fd5b506102cc60048036038101906102c7919061154c565b6108c0565b6040516102d991906115a7565b60405180910390f35b3480156102ee57600080fd5b506102f76108f7565b60405161030491906115d1565b60405180910390f35b34801561031957600080fd5b50610322610901565b60405161032f91906115d1565b60405180910390f35b34801561034457600080fd5b5061035f600480360381019061035a9190611676565b610907565b005b34801561036d57600080fd5b50610388600480360381019061038391906116a3565b61098d565b60405161039591906115d1565b60405180910390f35b3480156103aa57600080fd5b506103b36109d5565b005b3480156103c157600080fd5b506103ca610a5d565b6040516103d791906116df565b60405180910390f35b3480156103ec57600080fd5b506103f5610a87565b6040516104029190611491565b60405180910390f35b34801561041757600080fd5b50610432600480360381019061042d919061154c565b610b19565b60405161043f91906115a7565b60405180910390f35b34801561045457600080fd5b5061046f600480360381019061046a91906115ec565b610b90565b005b34801561047d57600080fd5b506104986004803603810190610493919061154c565b610beb565b6040516104a591906115a7565b60405180910390f35b3480156104ba57600080fd5b506104d560048036038101906104d091906116fa565b610c0e565b6040516104e291906115d1565b60405180910390f35b3480156104f757600080fd5b50610512600480360381019061050d91906116a3565b610c95565b005b34801561052057600080fd5b5061053b600480360381019061053691906116a3565b610d55565b005b60606003805461054c90611769565b80601f016020809104026020016040519081016040528092919081815260200182805461057890611769565b80156105c55780601f1061059a576101008083540402835291602001916105c5565b820191906000526020600020905b8154815290600101906020018083116105a857829003601f168201915b5050505050905090565b6000806105da610e4c565b90506105e7818585610e54565b600191505092915050565b6000600254905090565b600080610607610e4c565b905061061485828561101d565b61061f8585856110a9565b60019150509392505050565b60006012905090565b61063c61062b565b600a61064891906118fc565b816106539190611947565b600854346106619190611947565b146106a1576040517f08c379a0000000000000000000000000000000000000000000000000000000008152600401610698906119ed565b60405180910390fd5b806106b26106ad610a5d565b61098d565b10156106f3576040517f08c379a00000000000000000000000000000000000000000000000000000000081526004016106ea90611a59565b60405180910390fd5b6107056106fe610a5d565b33836110a9565b80600760008282546107179190611a79565b925050819055507f5e5e995ce3133561afceaa51a9a154d5db228cd7525d34df5185582c18d3df09338260405161074f929190611acf565b60405180910390a150565b60065481565b6000600960009054906101000a900473ffffffffffffffffffffffffffffffffffffffff1673ffffffffffffffffffffffffffffffffffffffff1663e7572230836040518263ffffffff1660e01b81526004016107bd91906115d1565b602060405180830381865afa1580156107da573d6000803e3d6000fd5b505050506040513d601f19601f820116820180604052508101906107fe9190611b0d565b905061082c600960009054906101000a900473ffffffffffffffffffffffffffffffffffffffff16826105cf565b50600960009054906101000a900473ffffffffffffffffffffffffffffffffffffffff1673ffffffffffffffffffffffffffffffffffffffff1663e0a0cf7483336040518363ffffffff1660e01b815260040161088a929190611b3a565b600060405180830381600087803b1580156108a457600080fd5b505af11580156108b8573d6000803e3d6000fd5b505050505050565b6000806108cb610e4c565b90506108ec8185856108dd8589610c0e565b6108e79190611a79565b610e54565b600191505092915050565b6000600854905090565b60075481565b61090f610e4c565b73ffffffffffffffffffffffffffffffffffffffff1661092d610a5d565b73ffffffffffffffffffffffffffffffffffffffff1614610983576040517f08c379a000000000000000000000000000000000000000000000000000000000815260040161097a90611baf565b60405180910390fd5b8060088190555050565b60008060008373ffffffffffffffffffffffffffffffffffffffff1673ffffffffffffffffffffffffffffffffffffffff168152602001908152602001600020549050919050565b6109dd610e4c565b73ffffffffffffffffffffffffffffffffffffffff166109fb610a5d565b73ffffffffffffffffffffffffffffffffffffffff1614610a51576040517f08c379a0000000000000000000000000000000000000000000000000000000008152600401610a4890611baf565b60405180910390fd5b610a5b6000611328565b565b6000600560009054906101000a900473ffffffffffffffffffffffffffffffffffffffff16905090565b606060048054610a9690611769565b80601f0160208091040260200160405190810160405280929190818152602001828054610ac290611769565b8015610b0f5780601f10610ae457610100808354040283529160200191610b0f565b820191906000526020600020905b815481529060010190602001808311610af257829003601f168201915b5050505050905090565b600080610b24610e4c565b90506000610b328286610c0e565b905083811015610b77576040517f08c379a0000000000000000000000000000000000000000000000000000000008152600401610b6e90611c41565b60405180910390fd5b610b848286868403610e54565b60019250505092915050565b80610b9a8461098d565b1015610bdb576040517f08c379a0000000000000000000000000000000000000000000000000000000008152600401610bd290611a59565b60405180910390fd5b610be68383836110a9565b505050565b600080610bf6610e4c565b9050610c038185856110a9565b600191505092915050565b6000600160008473ffffffffffffffffffffffffffffffffffffffff1673ffffffffffffffffffffffffffffffffffffffff16815260200190815260200160002060008373ffffffffffffffffffffffffffffffffffffffff1673ffffffffffffffffffffffffffffffffffffffff16815260200190815260200160002054905092915050565b610c9d610e4c565b73ffffffffffffffffffffffffffffffffffffffff16610cbb610a5d565b73ffffffffffffffffffffffffffffffffffffffff1614610d11576040517f08c379a0000000000000000000000000000000000000000000000000000000008152600401610d0890611baf565b60405180910390fd5b80600960006101000a81548173ffffffffffffffffffffffffffffffffffffffff021916908373ffffffffffffffffffffffffffffffffffffffff16021790555050565b610d5d610e4c565b73ffffffffffffffffffffffffffffffffffffffff16610d7b610a5d565b73ffffffffffffffffffffffffffffffffffffffff1614610dd1576040517f08c379a0000000000000000000000000000000000000000000000000000000008152600401610dc890611baf565b60405180910390fd5b600073ffffffffffffffffffffffffffffffffffffffff168173ffffffffffffffffffffffffffffffffffffffff1603610e40576040517f08c379a0000000000000000000000000000000000000000000000000000000008152600401610e3790611cd3565b60405180910390fd5b610e4981611328565b50565b600033905090565b600073ffffffffffffffffffffffffffffffffffffffff168373ffffffffffffffffffffffffffffffffffffffff1603610ec3576040517f08c379a0000000000000000000000000000000000000000000000000000000008152600401610eba90611d65565b60405180910390fd5b600073ffffffffffffffffffffffffffffffffffffffff168273ffffffffffffffffffffffffffffffffffffffff1603610f32576040517f08c379a0000000000000000000000000000000000000000000000000000000008152600401610f2990611df7565b60405180910390fd5b80600160008573ffffffffffffffffffffffffffffffffffffffff1673ffffffffffffffffffffffffffffffffffffffff16815260200190815260200160002060008473ffffffffffffffffffffffffffffffffffffffff1673ffffffffffffffffffffffffffffffffffffffff168152602001908152602001600020819055508173ffffffffffffffffffffffffffffffffffffffff168373ffffffffffffffffffffffffffffffffffffffff167f8c5be1e5ebec7d5bd14f71427d1e84f3dd0314c0f7b2291e5b200ac8c7c3b9258360405161101091906115d1565b60405180910390a3505050565b60006110298484610c0e565b90507fffffffffffffffffffffffffffffffffffffffffffffffffffffffffffffffff81146110a35781811015611095576040517f08c379a000000000000000000000000000000000000000000000000000000000815260040161108c90611e63565b60405180910390fd5b6110a28484848403610e54565b5b50505050565b600073ffffffffffffffffffffffffffffffffffffffff168373ffffffffffffffffffffffffffffffffffffffff1603611118576040517f08c379a000000000000000000000000000000000000000000000000000000000815260040161110f90611ef5565b60405180910390fd5b600073ffffffffffffffffffffffffffffffffffffffff168273ffffffffffffffffffffffffffffffffffffffff1603611187576040517f08c379a000000000000000000000000000000000000000000000000000000000815260040161117e90611f87565b60405180910390fd5b6111928383836113ee565b60008060008573ffffffffffffffffffffffffffffffffffffffff1673ffffffffffffffffffffffffffffffffffffffff16815260200190815260200160002054905081811015611218576040517f08c379a000000000000000000000000000000000000000000000000000000000815260040161120f90612019565b60405180910390fd5b8181036000808673ffffffffffffffffffffffffffffffffffffffff1673ffffffffffffffffffffffffffffffffffffffff16815260200190815260200160002081905550816000808573ffffffffffffffffffffffffffffffffffffffff1673ffffffffffffffffffffffffffffffffffffffff16815260200190815260200160002060008282546112ab9190611a79565b925050819055508273ffffffffffffffffffffffffffffffffffffffff168473ffffffffffffffffffffffffffffffffffffffff167fddf252ad1be2c89b69c2b068fc378daa952ba7f163c4a11628f55a4df523b3ef8460405161130f91906115d1565b60405180910390a36113228484846113f3565b50505050565b6000600560009054906101000a900473ffffffffffffffffffffffffffffffffffffffff16905081600560006101000a81548173ffffffffffffffffffffffffffffffffffffffff021916908373ffffffffffffffffffffffffffffffffffffffff1602179055508173ffffffffffffffffffffffffffffffffffffffff168173ffffffffffffffffffffffffffffffffffffffff167f8be0079c531659141344cd1fd0a4f28419497f9722a3daafe3b4186f6b6457e060405160405180910390a35050565b505050565b505050565b600081519050919050565b600082825260208201905092915050565b60005b83811015611432578082015181840152602081019050611417565b83811115611441576000848401525b50505050565b6000601f19601f8301169050919050565b6000611463826113f8565b61146d8185611403565b935061147d818560208601611414565b61148681611447565b840191505092915050565b600060208201905081810360008301526114ab8184611458565b905092915050565b600080fd5b600073ffffffffffffffffffffffffffffffffffffffff82169050919050565b60006114e3826114b8565b9050919050565b6114f3816114d8565b81146114fe57600080fd5b50565b600081359050611510816114ea565b92915050565b6000819050919050565b61152981611516565b811461153457600080fd5b50565b60008135905061154681611520565b92915050565b60008060408385031215611563576115626114b3565b5b600061157185828601611501565b925050602061158285828601611537565b9150509250929050565b60008115159050919050565b6115a18161158c565b82525050565b60006020820190506115bc6000830184611598565b92915050565b6115cb81611516565b82525050565b60006020820190506115e660008301846115c2565b92915050565b600080600060608486031215611605576116046114b3565b5b600061161386828701611501565b935050602061162486828701611501565b925050604061163586828701611537565b9150509250925092565b600060ff82169050919050565b6116558161163f565b82525050565b6000602082019050611670600083018461164c565b92915050565b60006020828403121561168c5761168b6114b3565b5b600061169a84828501611537565b91505092915050565b6000602082840312156116b9576116b86114b3565b5b60006116c784828501611501565b91505092915050565b6116d9816114d8565b82525050565b60006020820190506116f460008301846116d0565b92915050565b60008060408385031215611711576117106114b3565b5b600061171f85828601611501565b925050602061173085828601611501565b9150509250929050565b7f4e487b7100000000000000000000000000000000000000000000000000000000600052602260045260246000fd5b6000600282049050600182168061178157607f821691505b6020821081036117945761179361173a565b5b50919050565b7f4e487b7100000000000000000000000000000000000000000000000000000000600052601160045260246000fd5b60008160011c9050919050565b6000808291508390505b6001851115611820578086048111156117fc576117fb61179a565b5b600185161561180b5780820291505b8081029050611819856117c9565b94506117e0565b94509492505050565b60008261183957600190506118f5565b8161184757600090506118f5565b816001811461185d576002811461186757611896565b60019150506118f5565b60ff8411156118795761187861179a565b5b8360020a9150848211156118905761188f61179a565b5b506118f5565b5060208310610133831016604e8410600b84101617156118cb5782820a9050838111156118c6576118c561179a565b5b6118f5565b6118d884848460016117d6565b925090508184048111156118ef576118ee61179a565b5b81810290505b9392505050565b600061190782611516565b91506119128361163f565b925061193f7fffffffffffffffffffffffffffffffffffffffffffffffffffffffffffffffff8484611829565b905092915050565b600061195282611516565b915061195d83611516565b9250817fffffffffffffffffffffffffffffffffffffffffffffffffffffffffffffffff04831182151516156119965761199561179a565b5b828202905092915050565b7f4e6f7420657861637420616d6f756e7400000000000000000000000000000000600082015250565b60006119d7601083611403565b91506119e2826119a1565b602082019050919050565b60006020820190508181036000830152611a06816119ca565b9050919050565b7f4e6f7420656e6f75676820746f6b656e73000000000000000000000000000000600082015250565b6000611a43601183611403565b9150611a4e82611a0d565b602082019050919050565b60006020820190508181036000830152611a7281611a36565b9050919050565b6000611a8482611516565b9150611a8f83611516565b9250827fffffffffffffffffffffffffffffffffffffffffffffffffffffffffffffffff03821115611ac457611ac361179a565b5b828201905092915050565b6000604082019050611ae460008301856116d0565b611af160208301846115c2565b9392505050565b600081519050611b0781611520565b92915050565b600060208284031215611b2357611b226114b3565b5b6000611b3184828501611af8565b91505092915050565b6000604082019050611b4f60008301856115c2565b611b5c60208301846116d0565b9392505050565b7f4f776e61626c653a2063616c6c6572206973206e6f7420746865206f776e6572600082015250565b6000611b99602083611403565b9150611ba482611b63565b602082019050919050565b60006020820190508181036000830152611bc881611b8c565b9050919050565b7f45524332303a2064656372656173656420616c6c6f77616e63652062656c6f7760008201527f207a65726f000000000000000000000000000000000000000000000000000000602082015250565b6000611c2b602583611403565b9150611c3682611bcf565b604082019050919050565b60006020820190508181036000830152611c5a81611c1e565b9050919050565b7f4f776e61626c653a206e6577206f776e657220697320746865207a65726f206160008201527f6464726573730000000000000000000000000000000000000000000000000000602082015250565b6000611cbd602683611403565b9150611cc882611c61565b604082019050919050565b60006020820190508181036000830152611cec81611cb0565b9050919050565b7f45524332303a20617070726f76652066726f6d20746865207a65726f2061646460008201527f7265737300000000000000000000000000000000000000000000000000000000602082015250565b6000611d4f602483611403565b9150611d5a82611cf3565b604082019050919050565b60006020820190508181036000830152611d7e81611d42565b9050919050565b7f45524332303a20617070726f766520746f20746865207a65726f20616464726560008201527f7373000000000000000000000000000000000000000000000000000000000000602082015250565b6000611de1602283611403565b9150611dec82611d85565b604082019050919050565b60006020820190508181036000830152611e1081611dd4565b9050919050565b7f45524332303a20696e73756666696369656e7420616c6c6f77616e6365000000600082015250565b6000611e4d601d83611403565b9150611e5882611e17565b602082019050919050565b60006020820190508181036000830152611e7c81611e40565b9050919050565b7f45524332303a207472616e736665722066726f6d20746865207a65726f20616460008201527f6472657373000000000000000000000000000000000000000000000000000000602082015250565b6000611edf602583611403565b9150611eea82611e83565b604082019050919050565b60006020820190508181036000830152611f0e81611ed2565b9050919050565b7f45524332303a207472616e7366657220746f20746865207a65726f206164647260008201527f6573730000000000000000000000000000000000000000000000000000000000602082015250565b6000611f71602383611403565b9150611f7c82611f15565b604082019050919050565b60006020820190508181036000830152611fa081611f64565b9050919050565b7f45524332303a207472616e7366657220616d6f756e742065786365656473206260008201527f616c616e63650000000000000000000000000000000000000000000000000000602082015250565b6000612003602683611403565b915061200e82611fa7565b604082019050919050565b6000602082019050818103600083015261203281611ff6565b905091905056fea2646970667358221220914a3027ea182140194c40ef7998cf41c5cd3f1b8616feb7df3710e60d0f185b64736f6c634300080e0033",
  "linkReferences": {},
  "deployedLinkReferences": {}
}