{
    "_format": "hh-sol-artifact-1",
    "contractName": "Nude",
    "sourceName": "contracts/Nude.sol",
    "abi": [
        {
            "inputs": [],
            "stateMutability": "nonpayable",
            "type": "constructor"
        },
        {
            "anonymous": false,
            "inputs": [
                {
                    "indexed": true,
                    "internalType": "address",
                    "name": "owner",
                    "type": "address"
                },
                {
                    "indexed": true,
                    "internalType": "address",
                    "name": "spender",
                    "type": "address"
                },
                {
                    "indexed": false,
                    "internalType": "uint256",
                    "name": "value",
                    "type": "uint256"
                }
            ],
            "name": "Approval",
            "type": "event"
        },
        {
            "anonymous": false,
            "inputs": [
                {
                    "indexed": true,
                    "internalType": "address",
                    "name": "from",
                    "type": "address"
                },
                {
                    "indexed": true,
                    "internalType": "address",
                    "name": "to",
                    "type": "address"
                },
                {
                    "indexed": false,
                    "internalType": "uint256",
                    "name": "value",
                    "type": "uint256"
                }
            ],
            "name": "Transfer",
            "type": "event"
        },
        {
            "inputs": [
                {
                    "internalType": "address",
                    "name": "owner",
                    "type": "address"
                },
                {
                    "internalType": "address",
                    "name": "spender",
                    "type": "address"
                }
            ],
            "name": "allowance",
            "outputs": [
                {
                    "internalType": "uint256",
                    "name": "",
                    "type": "uint256"
                }
            ],
            "stateMutability": "view",
            "type": "function"
        },
        {
            "inputs": [
                {
                    "internalType": "address",
                    "name": "spender",
                    "type": "address"
                },
                {
                    "internalType": "uint256",
                    "name": "amount",
                    "type": "uint256"
                }
            ],
            "name": "approve",
            "outputs": [
                {
                    "internalType": "bool",
                    "name": "",
                    "type": "bool"
                }
            ],
            "stateMutability": "nonpayable",
            "type": "function"
        },
        {
            "inputs": [
                {
                    "internalType": "address",
                    "name": "account",
                    "type": "address"
                }
            ],
            "name": "balanceOf",
            "outputs": [
                {
                    "internalType": "uint256",
                    "name": "",
                    "type": "uint256"
                }
            ],
            "stateMutability": "view",
            "type": "function"
        },
        {
            "inputs": [],
            "name": "decimals",
            "outputs": [
                {
                    "internalType": "uint8",
                    "name": "",
                    "type": "uint8"
                }
            ],
            "stateMutability": "view",
            "type": "function"
        },
        {
            "inputs": [
                {
                    "internalType": "address",
                    "name": "spender",
                    "type": "address"
                },
                {
                    "internalType": "uint256",
                    "name": "subtractedValue",
                    "type": "uint256"
                }
            ],
            "name": "decreaseAllowance",
            "outputs": [
                {
                    "internalType": "bool",
                    "name": "",
                    "type": "bool"
                }
            ],
            "stateMutability": "nonpayable",
            "type": "function"
        },
        {
            "inputs": [
                {
                    "internalType": "address",
                    "name": "spender",
                    "type": "address"
                },
                {
                    "internalType": "uint256",
                    "name": "addedValue",
                    "type": "uint256"
                }
            ],
            "name": "increaseAllowance",
            "outputs": [
                {
                    "internalType": "bool",
                    "name": "",
                    "type": "bool"
                }
            ],
            "stateMutability": "nonpayable",
            "type": "function"
        },
        {
            "inputs": [],
            "name": "initialSupply",
            "outputs": [
                {
                    "internalType": "uint256",
                    "name": "",
                    "type": "uint256"
                }
            ],
            "stateMutability": "view",
            "type": "function"
        },
        {
            "inputs": [],
            "name": "name",
            "outputs": [
                {
                    "internalType": "string",
                    "name": "",
                    "type": "string"
                }
            ],
            "stateMutability": "view",
            "type": "function"
        },
        {
            "inputs": [],
            "name": "symbol",
            "outputs": [
                {
                    "internalType": "string",
                    "name": "",
                    "type": "string"
                }
            ],
            "stateMutability": "view",
            "type": "function"
        },
        {
            "inputs": [],
            "name": "totalSupply",
            "outputs": [
                {
                    "internalType": "uint256",
                    "name": "",
                    "type": "uint256"
                }
            ],
            "stateMutability": "view",
            "type": "function"
        },
        {
            "inputs": [
                {
                    "internalType": "address",
                    "name": "to",
                    "type": "address"
                },
                {
                    "internalType": "uint256",
                    "name": "amount",
                    "type": "uint256"
                }
            ],
            "name": "transfer",
            "outputs": [
                {
                    "internalType": "bool",
                    "name": "",
                    "type": "bool"
                }
            ],
            "stateMutability": "nonpayable",
            "type": "function"
        },
        {
            "inputs": [
                {
                    "internalType": "address",
                    "name": "from",
                    "type": "address"
                },
                {
                    "internalType": "address",
                    "name": "to",
                    "type": "address"
                },
                {
                    "internalType": "uint256",
                    "name": "amount",
                    "type": "uint256"
                }
            ],
            "name": "transferFrom",
            "outputs": [
                {
                    "internalType": "bool",
                    "name": "",
                    "type": "bool"
                }
            ],
            "stateMutability": "nonpayable",
            "type": "function"
        }
    ],
    "bytecode": "0x60806040526304277dc96006553480156200001957600080fd5b506040518060400160405280600481526020017f4e756465000000000000000000000000000000000000000000000000000000008152506040518060400160405280600481526020017f4e5544450000000000000000000000000000000000000000000000000000000081525081600390805190602001906200009e929190620002cb565b508060049080519060200190620000b7929190620002cb565b505050620000f833620000cf6200013f60201b60201c565b600a620000dd919062000515565b600654620000ec919062000566565b6200014860201b60201c565b33600560006101000a81548173ffffffffffffffffffffffffffffffffffffffff021916908373ffffffffffffffffffffffffffffffffffffffff1602179055506200073a565b60006012905090565b600073ffffffffffffffffffffffffffffffffffffffff168273ffffffffffffffffffffffffffffffffffffffff161415620001bb576040517f08c379a0000000000000000000000000000000000000000000000000000000008152600401620001b29062000628565b60405180910390fd5b620001cf60008383620002c160201b60201c565b8060026000828254620001e391906200064a565b92505081905550806000808473ffffffffffffffffffffffffffffffffffffffff1673ffffffffffffffffffffffffffffffffffffffff16815260200190815260200160002060008282546200023a91906200064a565b925050819055508173ffffffffffffffffffffffffffffffffffffffff16600073ffffffffffffffffffffffffffffffffffffffff167fddf252ad1be2c89b69c2b068fc378daa952ba7f163c4a11628f55a4df523b3ef83604051620002a19190620006b8565b60405180910390a3620002bd60008383620002c660201b60201c565b5050565b505050565b505050565b828054620002d99062000704565b90600052602060002090601f016020900481019282620002fd576000855562000349565b82601f106200031857805160ff191683800117855562000349565b8280016001018555821562000349579182015b82811115620003485782518255916020019190600101906200032b565b5b5090506200035891906200035c565b5090565b5b80821115620003775760008160009055506001016200035d565b5090565b7f4e487b7100000000000000000000000000000000000000000000000000000000600052601160045260246000fd5b60008160011c9050919050565b6000808291508390505b60018511156200040957808604811115620003e157620003e06200037b565b5b6001851615620003f15780820291505b80810290506200040185620003aa565b9450620003c1565b94509492505050565b600082620004245760019050620004f7565b81620004345760009050620004f7565b81600181146200044d576002811462000458576200048e565b6001915050620004f7565b60ff8411156200046d576200046c6200037b565b5b8360020a9150848211156200048757620004866200037b565b5b50620004f7565b5060208310610133831016604e8410600b8410161715620004c85782820a905083811115620004c257620004c16200037b565b5b620004f7565b620004d78484846001620003b7565b92509050818404811115620004f157620004f06200037b565b5b81810290505b9392505050565b6000819050919050565b600060ff82169050919050565b60006200052282620004fe565b91506200052f8362000508565b92506200055e7fffffffffffffffffffffffffffffffffffffffffffffffffffffffffffffffff848462000412565b905092915050565b60006200057382620004fe565b91506200058083620004fe565b9250817fffffffffffffffffffffffffffffffffffffffffffffffffffffffffffffffff0483118215151615620005bc57620005bb6200037b565b5b828202905092915050565b600082825260208201905092915050565b7f45524332303a206d696e7420746f20746865207a65726f206164647265737300600082015250565b600062000610601f83620005c7565b91506200061d82620005d8565b602082019050919050565b60006020820190508181036000830152620006438162000601565b9050919050565b60006200065782620004fe565b91506200066483620004fe565b9250827fffffffffffffffffffffffffffffffffffffffffffffffffffffffffffffffff038211156200069c576200069b6200037b565b5b828201905092915050565b620006b281620004fe565b82525050565b6000602082019050620006cf6000830184620006a7565b92915050565b7f4e487b7100000000000000000000000000000000000000000000000000000000600052602260045260246000fd5b600060028204905060018216806200071d57607f821691505b60208210811415620007345762000733620006d5565b5b50919050565b61137d806200074a6000396000f3fe608060405234801561001057600080fd5b50600436106100b45760003560e01c80633950935111610071578063395093511461019157806370a08231146101c157806395d89b41146101f1578063a457c2d71461020f578063a9059cbb1461023f578063dd62ed3e1461026f576100b4565b806306fdde03146100b9578063095ea7b3146100d757806318160ddd1461010757806323b872dd14610125578063313ce56714610155578063378dc3dc14610173575b600080fd5b6100c161029f565b6040516100ce9190610c37565b60405180910390f35b6100f160048036038101906100ec9190610cf2565b610331565b6040516100fe9190610d4d565b60405180910390f35b61010f610354565b60405161011c9190610d77565b60405180910390f35b61013f600480360381019061013a9190610d92565b61035e565b60405161014c9190610d4d565b60405180910390f35b61015d61038d565b60405161016a9190610e01565b60405180910390f35b61017b610396565b6040516101889190610d77565b60405180910390f35b6101ab60048036038101906101a69190610cf2565b61039c565b6040516101b89190610d4d565b60405180910390f35b6101db60048036038101906101d69190610e1c565b610446565b6040516101e89190610d77565b60405180910390f35b6101f961048e565b6040516102069190610c37565b60405180910390f35b61022960048036038101906102249190610cf2565b610520565b6040516102369190610d4d565b60405180910390f35b61025960048036038101906102549190610cf2565b61060a565b6040516102669190610d4d565b60405180910390f35b61028960048036038101906102849190610e49565b61062d565b6040516102969190610d77565b60405180910390f35b6060600380546102ae90610eb8565b80601f01602080910402602001604051908101604052809291908181526020018280546102da90610eb8565b80156103275780601f106102fc57610100808354040283529160200191610327565b820191906000526020600020905b81548152906001019060200180831161030a57829003601f168201915b5050505050905090565b60008061033c6106b4565b90506103498185856106bc565b600191505092915050565b6000600254905090565b6000806103696106b4565b9050610376858285610887565b610381858585610913565b60019150509392505050565b60006012905090565b60065481565b6000806103a76106b4565b905061043b818585600160008673ffffffffffffffffffffffffffffffffffffffff1673ffffffffffffffffffffffffffffffffffffffff16815260200190815260200160002060008973ffffffffffffffffffffffffffffffffffffffff1673ffffffffffffffffffffffffffffffffffffffff168152602001908152602001600020546104369190610f19565b6106bc565b600191505092915050565b60008060008373ffffffffffffffffffffffffffffffffffffffff1673ffffffffffffffffffffffffffffffffffffffff168152602001908152602001600020549050919050565b60606004805461049d90610eb8565b80601f01602080910402602001604051908101604052809291908181526020018280546104c990610eb8565b80156105165780601f106104eb57610100808354040283529160200191610516565b820191906000526020600020905b8154815290600101906020018083116104f957829003601f168201915b5050505050905090565b60008061052b6106b4565b90506000600160008373ffffffffffffffffffffffffffffffffffffffff1673ffffffffffffffffffffffffffffffffffffffff16815260200190815260200160002060008673ffffffffffffffffffffffffffffffffffffffff1673ffffffffffffffffffffffffffffffffffffffff168152602001908152602001600020549050838110156105f1576040517f08c379a00000000000000000000000000000000000000000000000000000000081526004016105e890610fe1565b60405180910390fd5b6105fe82868684036106bc565b60019250505092915050565b6000806106156106b4565b9050610622818585610913565b600191505092915050565b6000600160008473ffffffffffffffffffffffffffffffffffffffff1673ffffffffffffffffffffffffffffffffffffffff16815260200190815260200160002060008373ffffffffffffffffffffffffffffffffffffffff1673ffffffffffffffffffffffffffffffffffffffff16815260200190815260200160002054905092915050565b600033905090565b600073ffffffffffffffffffffffffffffffffffffffff168373ffffffffffffffffffffffffffffffffffffffff16141561072c576040517f08c379a000000000000000000000000000000000000000000000000000000000815260040161072390611073565b60405180910390fd5b600073ffffffffffffffffffffffffffffffffffffffff168273ffffffffffffffffffffffffffffffffffffffff16141561079c576040517f08c379a000000000000000000000000000000000000000000000000000000000815260040161079390611105565b60405180910390fd5b80600160008573ffffffffffffffffffffffffffffffffffffffff1673ffffffffffffffffffffffffffffffffffffffff16815260200190815260200160002060008473ffffffffffffffffffffffffffffffffffffffff1673ffffffffffffffffffffffffffffffffffffffff168152602001908152602001600020819055508173ffffffffffffffffffffffffffffffffffffffff168373ffffffffffffffffffffffffffffffffffffffff167f8c5be1e5ebec7d5bd14f71427d1e84f3dd0314c0f7b2291e5b200ac8c7c3b9258360405161087a9190610d77565b60405180910390a3505050565b6000610893848461062d565b90507fffffffffffffffffffffffffffffffffffffffffffffffffffffffffffffffff811461090d57818110156108ff576040517f08c379a00000000000000000000000000000000000000000000000000000000081526004016108f690611171565b60405180910390fd5b61090c84848484036106bc565b5b50505050565b600073ffffffffffffffffffffffffffffffffffffffff168373ffffffffffffffffffffffffffffffffffffffff161415610983576040517f08c379a000000000000000000000000000000000000000000000000000000000815260040161097a90611203565b60405180910390fd5b600073ffffffffffffffffffffffffffffffffffffffff168273ffffffffffffffffffffffffffffffffffffffff1614156109f3576040517f08c379a00000000000000000000000000000000000000000000000000000000081526004016109ea90611295565b60405180910390fd5b6109fe838383610b94565b60008060008573ffffffffffffffffffffffffffffffffffffffff1673ffffffffffffffffffffffffffffffffffffffff16815260200190815260200160002054905081811015610a84576040517f08c379a0000000000000000000000000000000000000000000000000000000008152600401610a7b90611327565b60405180910390fd5b8181036000808673ffffffffffffffffffffffffffffffffffffffff1673ffffffffffffffffffffffffffffffffffffffff16815260200190815260200160002081905550816000808573ffffffffffffffffffffffffffffffffffffffff1673ffffffffffffffffffffffffffffffffffffffff1681526020019081526020016000206000828254610b179190610f19565b925050819055508273ffffffffffffffffffffffffffffffffffffffff168473ffffffffffffffffffffffffffffffffffffffff167fddf252ad1be2c89b69c2b068fc378daa952ba7f163c4a11628f55a4df523b3ef84604051610b7b9190610d77565b60405180910390a3610b8e848484610b99565b50505050565b505050565b505050565b600081519050919050565b600082825260208201905092915050565b60005b83811015610bd8578082015181840152602081019050610bbd565b83811115610be7576000848401525b50505050565b6000601f19601f8301169050919050565b6000610c0982610b9e565b610c138185610ba9565b9350610c23818560208601610bba565b610c2c81610bed565b840191505092915050565b60006020820190508181036000830152610c518184610bfe565b905092915050565b600080fd5b600073ffffffffffffffffffffffffffffffffffffffff82169050919050565b6000610c8982610c5e565b9050919050565b610c9981610c7e565b8114610ca457600080fd5b50565b600081359050610cb681610c90565b92915050565b6000819050919050565b610ccf81610cbc565b8114610cda57600080fd5b50565b600081359050610cec81610cc6565b92915050565b60008060408385031215610d0957610d08610c59565b5b6000610d1785828601610ca7565b9250506020610d2885828601610cdd565b9150509250929050565b60008115159050919050565b610d4781610d32565b82525050565b6000602082019050610d626000830184610d3e565b92915050565b610d7181610cbc565b82525050565b6000602082019050610d8c6000830184610d68565b92915050565b600080600060608486031215610dab57610daa610c59565b5b6000610db986828701610ca7565b9350506020610dca86828701610ca7565b9250506040610ddb86828701610cdd565b9150509250925092565b600060ff82169050919050565b610dfb81610de5565b82525050565b6000602082019050610e166000830184610df2565b92915050565b600060208284031215610e3257610e31610c59565b5b6000610e4084828501610ca7565b91505092915050565b60008060408385031215610e6057610e5f610c59565b5b6000610e6e85828601610ca7565b9250506020610e7f85828601610ca7565b9150509250929050565b7f4e487b7100000000000000000000000000000000000000000000000000000000600052602260045260246000fd5b60006002820490506001821680610ed057607f821691505b60208210811415610ee457610ee3610e89565b5b50919050565b7f4e487b7100000000000000000000000000000000000000000000000000000000600052601160045260246000fd5b6000610f2482610cbc565b9150610f2f83610cbc565b9250827fffffffffffffffffffffffffffffffffffffffffffffffffffffffffffffffff03821115610f6457610f63610eea565b5b828201905092915050565b7f45524332303a2064656372656173656420616c6c6f77616e63652062656c6f7760008201527f207a65726f000000000000000000000000000000000000000000000000000000602082015250565b6000610fcb602583610ba9565b9150610fd682610f6f565b604082019050919050565b60006020820190508181036000830152610ffa81610fbe565b9050919050565b7f45524332303a20617070726f76652066726f6d20746865207a65726f2061646460008201527f7265737300000000000000000000000000000000000000000000000000000000602082015250565b600061105d602483610ba9565b915061106882611001565b604082019050919050565b6000602082019050818103600083015261108c81611050565b9050919050565b7f45524332303a20617070726f766520746f20746865207a65726f20616464726560008201527f7373000000000000000000000000000000000000000000000000000000000000602082015250565b60006110ef602283610ba9565b91506110fa82611093565b604082019050919050565b6000602082019050818103600083015261111e816110e2565b9050919050565b7f45524332303a20696e73756666696369656e7420616c6c6f77616e6365000000600082015250565b600061115b601d83610ba9565b915061116682611125565b602082019050919050565b6000602082019050818103600083015261118a8161114e565b9050919050565b7f45524332303a207472616e736665722066726f6d20746865207a65726f20616460008201527f6472657373000000000000000000000000000000000000000000000000000000602082015250565b60006111ed602583610ba9565b91506111f882611191565b604082019050919050565b6000602082019050818103600083015261121c816111e0565b9050919050565b7f45524332303a207472616e7366657220746f20746865207a65726f206164647260008201527f6573730000000000000000000000000000000000000000000000000000000000602082015250565b600061127f602383610ba9565b915061128a82611223565b604082019050919050565b600060208201905081810360008301526112ae81611272565b9050919050565b7f45524332303a207472616e7366657220616d6f756e742065786365656473206260008201527f616c616e63650000000000000000000000000000000000000000000000000000602082015250565b6000611311602683610ba9565b915061131c826112b5565b604082019050919050565b6000602082019050818103600083015261134081611304565b905091905056fea2646970667358221220faf75681aad65a62bc52a2bfc5fda0bba869c600c414f641d07c7b053737f16764736f6c634300080b0033",
    "linkReferences": {},
    "deployedLinkReferences": {}
}