{
  "_format": "hh-sol-artifact-1",
  "contractName": "NudeDEX",
  "sourceName": "contracts/NudeDEX.sol",
  "abi": [
    {
      "inputs": [
        {
          "internalType": "address",
          "name": "_nude",
          "type": "address"
        },
        {
          "internalType": "address",
          "name": "_nudeNFT",
          "type": "address"
        }
      ],
      "stateMutability": "nonpayable",
      "type": "constructor"
    },
    {
      "anonymous": false,
      "inputs": [
        {
          "indexed": false,
          "internalType": "address",
          "name": "owner",
          "type": "address"
        },
        {
          "indexed": false,
          "internalType": "uint256",
          "name": "tokenId",
          "type": "uint256"
        },
        {
          "indexed": false,
          "internalType": "uint256",
          "name": "price",
          "type": "uint256"
        }
      ],
      "name": "OnSaleNFT",
      "type": "event"
    },
    {
      "anonymous": false,
      "inputs": [
        {
          "indexed": true,
          "internalType": "address",
          "name": "previousOwner",
          "type": "address"
        },
        {
          "indexed": true,
          "internalType": "address",
          "name": "newOwner",
          "type": "address"
        }
      ],
      "name": "OwnershipTransferred",
      "type": "event"
    },
    {
      "anonymous": false,
      "inputs": [
        {
          "indexed": false,
          "internalType": "address",
          "name": "owner",
          "type": "address"
        },
        {
          "indexed": false,
          "internalType": "uint256",
          "name": "tokenId",
          "type": "uint256"
        }
      ],
      "name": "TakeDownNFT",
      "type": "event"
    },
    {
      "anonymous": false,
      "inputs": [
        {
          "indexed": false,
          "internalType": "address",
          "name": "buyer",
          "type": "address"
        },
        {
          "indexed": false,
          "internalType": "address",
          "name": "seller",
          "type": "address"
        },
        {
          "indexed": false,
          "internalType": "uint256",
          "name": "tokenId",
          "type": "uint256"
        },
        {
          "indexed": false,
          "internalType": "uint256",
          "name": "price",
          "type": "uint256"
        }
      ],
      "name": "Trade",
      "type": "event"
    },
    {
      "inputs": [
        {
          "internalType": "uint256",
          "name": "tokenId",
          "type": "uint256"
        }
      ],
      "name": "getLastTradePrice",
      "outputs": [
        {
          "internalType": "uint256",
          "name": "",
          "type": "uint256"
        }
      ],
      "stateMutability": "view",
      "type": "function"
    },
    {
      "inputs": [
        {
          "internalType": "uint256",
          "name": "tokenId",
          "type": "uint256"
        }
      ],
      "name": "getPrice",
      "outputs": [
        {
          "internalType": "uint256",
          "name": "",
          "type": "uint256"
        }
      ],
      "stateMutability": "view",
      "type": "function"
    },
    {
      "inputs": [
        {
          "internalType": "address",
          "name": "",
          "type": "address"
        },
        {
          "internalType": "address",
          "name": "",
          "type": "address"
        },
        {
          "internalType": "uint256",
          "name": "",
          "type": "uint256"
        },
        {
          "internalType": "bytes",
          "name": "",
          "type": "bytes"
        }
      ],
      "name": "onERC721Received",
      "outputs": [
        {
          "internalType": "bytes4",
          "name": "",
          "type": "bytes4"
        }
      ],
      "stateMutability": "pure",
      "type": "function"
    },
    {
      "inputs": [
        {
          "internalType": "uint256",
          "name": "tokenId",
          "type": "uint256"
        },
        {
          "internalType": "uint256",
          "name": "price",
          "type": "uint256"
        }
      ],
      "name": "onSale",
      "outputs": [],
      "stateMutability": "nonpayable",
      "type": "function"
    },
    {
      "inputs": [],
      "name": "owner",
      "outputs": [
        {
          "internalType": "address",
          "name": "",
          "type": "address"
        }
      ],
      "stateMutability": "view",
      "type": "function"
    },
    {
      "inputs": [],
      "name": "renounceOwnership",
      "outputs": [],
      "stateMutability": "nonpayable",
      "type": "function"
    },
    {
      "inputs": [
        {
          "internalType": "address",
          "name": "_nudeNFT",
          "type": "address"
        }
      ],
      "name": "setNudeNFTAddress",
      "outputs": [],
      "stateMutability": "nonpayable",
      "type": "function"
    },
    {
      "inputs": [
        {
          "internalType": "address",
          "name": "_nude",
          "type": "address"
        }
      ],
      "name": "setNudeTokenAddress",
      "outputs": [],
      "stateMutability": "nonpayable",
      "type": "function"
    },
    {
      "inputs": [
        {
          "internalType": "uint256",
          "name": "tokenId",
          "type": "uint256"
        }
      ],
      "name": "takeDown",
      "outputs": [],
      "stateMutability": "nonpayable",
      "type": "function"
    },
    {
      "inputs": [],
      "name": "tax",
      "outputs": [
        {
          "internalType": "uint8",
          "name": "",
          "type": "uint8"
        }
      ],
      "stateMutability": "view",
      "type": "function"
    },
    {
      "inputs": [
        {
          "internalType": "uint256",
          "name": "tokenId",
          "type": "uint256"
        }
      ],
      "name": "trade",
      "outputs": [],
      "stateMutability": "nonpayable",
      "type": "function"
    },
    {
      "inputs": [
        {
          "internalType": "address",
          "name": "newOwner",
          "type": "address"
        }
      ],
      "name": "transferOwnership",
      "outputs": [],
      "stateMutability": "nonpayable",
      "type": "function"
    },
    {
      "inputs": [
        {
          "internalType": "uint256",
          "name": "amount",
          "type": "uint256"
        }
      ],
      "name": "withdraw",
      "outputs": [],
      "stateMutability": "nonpayable",
      "type": "function"
    }
  ],
  "bytecode": "0x6080604052600a600260146101000a81548160ff021916908360ff1602179055503480156200002d57600080fd5b506040516200257f3803806200257f833981810160405281019062000053919062000233565b6200007362000067620000fd60201b60201c565b6200010560201b60201c565b81600160006101000a81548173ffffffffffffffffffffffffffffffffffffffff021916908373ffffffffffffffffffffffffffffffffffffffff16021790555080600260006101000a81548173ffffffffffffffffffffffffffffffffffffffff021916908373ffffffffffffffffffffffffffffffffffffffff16021790555050506200027a565b600033905090565b60008060009054906101000a900473ffffffffffffffffffffffffffffffffffffffff169050816000806101000a81548173ffffffffffffffffffffffffffffffffffffffff021916908373ffffffffffffffffffffffffffffffffffffffff1602179055508173ffffffffffffffffffffffffffffffffffffffff168173ffffffffffffffffffffffffffffffffffffffff167f8be0079c531659141344cd1fd0a4f28419497f9722a3daafe3b4186f6b6457e060405160405180910390a35050565b600080fd5b600073ffffffffffffffffffffffffffffffffffffffff82169050919050565b6000620001fb82620001ce565b9050919050565b6200020d81620001ee565b81146200021957600080fd5b50565b6000815190506200022d8162000202565b92915050565b600080604083850312156200024d576200024c620001c9565b5b60006200025d858286016200021c565b925050602062000270858286016200021c565b9150509250929050565b6122f5806200028a6000396000f3fe608060405234801561001057600080fd5b50600436106100cf5760003560e01c80638da5cb5b1161008c578063b96cfa6811610066578063b96cfa68146101d6578063df1dd82614610206578063e757223014610222578063f2fde38b14610252576100cf565b80638da5cb5b1461017e57806399c8d5561461019c578063ad1443f0146101ba576100cf565b8063150b7a02146100d45780632e1a7d4d14610104578063352ccd52146101205780636c6a64811461013c578063715018a61461015857806386e6345014610162575b600080fd5b6100ee60048036038101906100e991906118fc565b61026e565b6040516100fb91906119bf565b60405180910390f35b61011e600480360381019061011991906119da565b61029c565b005b61013a60048036038101906101359190611a07565b610549565b005b61015660048036038101906101519190611a34565b610609565b005b610160610a62565b005b61017c600480360381019061017791906119da565b610aea565b005b610186610df6565b6040516101939190611a83565b60405180910390f35b6101a4610e1f565b6040516101b19190611aba565b60405180910390f35b6101d460048036038101906101cf9190611a07565b610e32565b005b6101f060048036038101906101eb91906119da565b610ef2565b6040516101fd9190611ae4565b60405180910390f35b610220600480360381019061021b91906119da565b610f64565b005b61023c600480360381019061023791906119da565b6115c4565b6040516102499190611ae4565b60405180910390f35b61026c60048036038101906102679190611a07565b611636565b005b60007f150b7a023d4804d13e8c85fb27262cb750cf6ba9f9dd3bb30d90f482ceeb4b1f905095945050505050565b6102a461172d565b73ffffffffffffffffffffffffffffffffffffffff166102c2610df6565b73ffffffffffffffffffffffffffffffffffffffff1614610318576040517f08c379a000000000000000000000000000000000000000000000000000000000815260040161030f90611b5c565b60405180910390fd5b80600160009054906101000a900473ffffffffffffffffffffffffffffffffffffffff1673ffffffffffffffffffffffffffffffffffffffff166370a08231306040518263ffffffff1660e01b81526004016103749190611a83565b602060405180830381865afa158015610391573d6000803e3d6000fd5b505050506040513d601f19601f820116820180604052508101906103b59190611b91565b10156103f6576040517f08c379a00000000000000000000000000000000000000000000000000000000081526004016103ed90611c0a565b60405180910390fd5b600160009054906101000a900473ffffffffffffffffffffffffffffffffffffffff1673ffffffffffffffffffffffffffffffffffffffff1663095ea7b361043c610df6565b836040518363ffffffff1660e01b815260040161045a929190611c2a565b6020604051808303816000875af1158015610479573d6000803e3d6000fd5b505050506040513d601f19601f8201168201806040525081019061049d9190611c8b565b50600160009054906101000a900473ffffffffffffffffffffffffffffffffffffffff1673ffffffffffffffffffffffffffffffffffffffff1663a9059cbb6104e4610df6565b836040518363ffffffff1660e01b8152600401610502929190611c2a565b6020604051808303816000875af1158015610521573d6000803e3d6000fd5b505050506040513d601f19601f820116820180604052508101906105459190611c8b565b5050565b61055161172d565b73ffffffffffffffffffffffffffffffffffffffff1661056f610df6565b73ffffffffffffffffffffffffffffffffffffffff16146105c5576040517f08c379a00000000000000000000000000000000000000000000000000000000081526004016105bc90611b5c565b60405180910390fd5b80600160006101000a81548173ffffffffffffffffffffffffffffffffffffffff021916908373ffffffffffffffffffffffffffffffffffffffff16021790555050565b6000811161064c576040517f08c379a000000000000000000000000000000000000000000000000000000000815260040161064390611d04565b60405180910390fd5b3373ffffffffffffffffffffffffffffffffffffffff16600260009054906101000a900473ffffffffffffffffffffffffffffffffffffffff1673ffffffffffffffffffffffffffffffffffffffff16636352211e846040518263ffffffff1660e01b81526004016106be9190611ae4565b602060405180830381865afa1580156106db573d6000803e3d6000fd5b505050506040513d601f19601f820116820180604052508101906106ff9190611d39565b73ffffffffffffffffffffffffffffffffffffffff1614610755576040517f08c379a000000000000000000000000000000000000000000000000000000000815260040161074c90611db2565b60405180910390fd5b6064600260149054906101000a900460ff1660ff16826107759190611e01565b61077f9190611e8a565b600160009054906101000a900473ffffffffffffffffffffffffffffffffffffffff1673ffffffffffffffffffffffffffffffffffffffff166370a08231336040518263ffffffff1660e01b81526004016107da9190611a83565b602060405180830381865afa1580156107f7573d6000803e3d6000fd5b505050506040513d601f19601f8201168201806040525081019061081b9190611b91565b101561085c576040517f08c379a000000000000000000000000000000000000000000000000000000000815260040161085390611f07565b60405180910390fd5b600160009054906101000a900473ffffffffffffffffffffffffffffffffffffffff1673ffffffffffffffffffffffffffffffffffffffff166323b872dd33306064600260149054906101000a900460ff1660ff16866108bc9190611e01565b6108c69190611e8a565b6040518463ffffffff1660e01b81526004016108e493929190611f27565b6020604051808303816000875af1158015610903573d6000803e3d6000fd5b505050506040513d601f19601f820116820180604052508101906109279190611c8b565b50600260009054906101000a900473ffffffffffffffffffffffffffffffffffffffff1673ffffffffffffffffffffffffffffffffffffffff166342842e0e3330856040518463ffffffff1660e01b815260040161098793929190611f27565b600060405180830381600087803b1580156109a157600080fd5b505af11580156109b5573d6000803e3d6000fd5b50505050336005600084815260200190815260200160002060006101000a81548173ffffffffffffffffffffffffffffffffffffffff021916908373ffffffffffffffffffffffffffffffffffffffff1602179055508060046000848152602001908152602001600020819055507fc0d0f63528062762033cd269b4370cf3f5fbd4e76a6f28c4b8d86bec493556b2338383604051610a5693929190611f5e565b60405180910390a15050565b610a6a61172d565b73ffffffffffffffffffffffffffffffffffffffff16610a88610df6565b73ffffffffffffffffffffffffffffffffffffffff1614610ade576040517f08c379a0000000000000000000000000000000000000000000000000000000008152600401610ad590611b5c565b60405180910390fd5b610ae86000611735565b565b600073ffffffffffffffffffffffffffffffffffffffff166005600083815260200190815260200160002060009054906101000a900473ffffffffffffffffffffffffffffffffffffffff1673ffffffffffffffffffffffffffffffffffffffff1614158015610b6d575060006004600083815260200190815260200160002054115b610bac576040517f08c379a0000000000000000000000000000000000000000000000000000000008152600401610ba390611fe1565b60405180910390fd5b3373ffffffffffffffffffffffffffffffffffffffff166005600083815260200190815260200160002060009054906101000a900473ffffffffffffffffffffffffffffffffffffffff1673ffffffffffffffffffffffffffffffffffffffff1614610c4d576040517f08c379a0000000000000000000000000000000000000000000000000000000008152600401610c4490611db2565b60405180910390fd5b600260009054906101000a900473ffffffffffffffffffffffffffffffffffffffff1673ffffffffffffffffffffffffffffffffffffffff1663095ea7b333836040518363ffffffff1660e01b8152600401610caa929190611c2a565b600060405180830381600087803b158015610cc457600080fd5b505af1158015610cd8573d6000803e3d6000fd5b50505050600260009054906101000a900473ffffffffffffffffffffffffffffffffffffffff1673ffffffffffffffffffffffffffffffffffffffff166342842e0e3033846040518463ffffffff1660e01b8152600401610d3b93929190611f27565b600060405180830381600087803b158015610d5557600080fd5b505af1158015610d69573d6000803e3d6000fd5b505050506005600082815260200190815260200160002060006101000a81549073ffffffffffffffffffffffffffffffffffffffff021916905560046000828152602001908152602001600020600090557f7860a08244f8005093c4ef6d0fcc0af1c7f589ccdc00d56c31afa9c6501d2ccb3382604051610deb929190611c2a565b60405180910390a150565b60008060009054906101000a900473ffffffffffffffffffffffffffffffffffffffff16905090565b600260149054906101000a900460ff1681565b610e3a61172d565b73ffffffffffffffffffffffffffffffffffffffff16610e58610df6565b73ffffffffffffffffffffffffffffffffffffffff1614610eae576040517f08c379a0000000000000000000000000000000000000000000000000000000008152600401610ea590611b5c565b60405180910390fd5b80600260006101000a81548173ffffffffffffffffffffffffffffffffffffffff021916908373ffffffffffffffffffffffffffffffffffffffff16021790555050565b600080600360008481526020019081526020016000205403610f49576040517f08c379a0000000000000000000000000000000000000000000000000000000008152600401610f409061204d565b60405180910390fd5b60036000838152602001908152602001600020549050919050565b600073ffffffffffffffffffffffffffffffffffffffff166005600083815260200190815260200160002060009054906101000a900473ffffffffffffffffffffffffffffffffffffffff1673ffffffffffffffffffffffffffffffffffffffff1614158015610fe7575060006004600083815260200190815260200160002054115b611026576040517f08c379a000000000000000000000000000000000000000000000000000000000815260040161101d90611fe1565b60405180910390fd5b60006004600083815260200190815260200160002054905060003390506005600084815260200190815260200160002060009054906101000a900473ffffffffffffffffffffffffffffffffffffffff1673ffffffffffffffffffffffffffffffffffffffff168173ffffffffffffffffffffffffffffffffffffffff16036110e4576040517f08c379a00000000000000000000000000000000000000000000000000000000081526004016110db906120b9565b60405180910390fd5b6064600260149054906101000a900460ff16606461110291906120d9565b60ff16836111109190611e01565b61111a9190611e8a565b600160009054906101000a900473ffffffffffffffffffffffffffffffffffffffff1673ffffffffffffffffffffffffffffffffffffffff166370a08231836040518263ffffffff1660e01b81526004016111759190611a83565b602060405180830381865afa158015611192573d6000803e3d6000fd5b505050506040513d601f19601f820116820180604052508101906111b69190611b91565b10156111f7576040517f08c379a00000000000000000000000000000000000000000000000000000000081526004016111ee9061215c565b60405180910390fd5b600160009054906101000a900473ffffffffffffffffffffffffffffffffffffffff1673ffffffffffffffffffffffffffffffffffffffff166323b872dd82306064600260149054906101000a900460ff16606461125591906120d9565b60ff16876112639190611e01565b61126d9190611e8a565b6040518463ffffffff1660e01b815260040161128b93929190611f27565b6020604051808303816000875af11580156112aa573d6000803e3d6000fd5b505050506040513d601f19601f820116820180604052508101906112ce9190611c8b565b5060006005600085815260200190815260200160002060009054906101000a900473ffffffffffffffffffffffffffffffffffffffff169050600160009054906101000a900473ffffffffffffffffffffffffffffffffffffffff1673ffffffffffffffffffffffffffffffffffffffff1663095ea7b382856040518363ffffffff1660e01b8152600401611364929190611c2a565b6020604051808303816000875af1158015611383573d6000803e3d6000fd5b505050506040513d601f19601f820116820180604052508101906113a79190611c8b565b50600160009054906101000a900473ffffffffffffffffffffffffffffffffffffffff1673ffffffffffffffffffffffffffffffffffffffff1663a9059cbb82856040518363ffffffff1660e01b8152600401611405929190611c2a565b6020604051808303816000875af1158015611424573d6000803e3d6000fd5b505050506040513d601f19601f820116820180604052508101906114489190611c8b565b50600260009054906101000a900473ffffffffffffffffffffffffffffffffffffffff1673ffffffffffffffffffffffffffffffffffffffff1663095ea7b383866040518363ffffffff1660e01b81526004016114a6929190611c2a565b600060405180830381600087803b1580156114c057600080fd5b505af11580156114d4573d6000803e3d6000fd5b50505050600260009054906101000a900473ffffffffffffffffffffffffffffffffffffffff1673ffffffffffffffffffffffffffffffffffffffff166342842e0e3084876040518463ffffffff1660e01b815260040161153793929190611f27565b600060405180830381600087803b15801561155157600080fd5b505af1158015611565573d6000803e3d6000fd5b505050508260036000868152602001908152602001600020819055507f4b5796113f074ebf8f11d5bcdeb6349b2fbe47abed78419cdcdbbc15c6fcf845828286866040516115b6949392919061217c565b60405180910390a150505050565b60008060046000848152602001908152602001600020540361161b576040517f08c379a00000000000000000000000000000000000000000000000000000000081526004016116129061220d565b60405180910390fd5b60046000838152602001908152602001600020549050919050565b61163e61172d565b73ffffffffffffffffffffffffffffffffffffffff1661165c610df6565b73ffffffffffffffffffffffffffffffffffffffff16146116b2576040517f08c379a00000000000000000000000000000000000000000000000000000000081526004016116a990611b5c565b60405180910390fd5b600073ffffffffffffffffffffffffffffffffffffffff168173ffffffffffffffffffffffffffffffffffffffff1603611721576040517f08c379a00000000000000000000000000000000000000000000000000000000081526004016117189061229f565b60405180910390fd5b61172a81611735565b50565b600033905090565b60008060009054906101000a900473ffffffffffffffffffffffffffffffffffffffff169050816000806101000a81548173ffffffffffffffffffffffffffffffffffffffff021916908373ffffffffffffffffffffffffffffffffffffffff1602179055508173ffffffffffffffffffffffffffffffffffffffff168173ffffffffffffffffffffffffffffffffffffffff167f8be0079c531659141344cd1fd0a4f28419497f9722a3daafe3b4186f6b6457e060405160405180910390a35050565b600080fd5b600080fd5b600073ffffffffffffffffffffffffffffffffffffffff82169050919050565b600061182e82611803565b9050919050565b61183e81611823565b811461184957600080fd5b50565b60008135905061185b81611835565b92915050565b6000819050919050565b61187481611861565b811461187f57600080fd5b50565b6000813590506118918161186b565b92915050565b600080fd5b600080fd5b600080fd5b60008083601f8401126118bc576118bb611897565b5b8235905067ffffffffffffffff8111156118d9576118d861189c565b5b6020830191508360018202830111156118f5576118f46118a1565b5b9250929050565b600080600080600060808688031215611918576119176117f9565b5b60006119268882890161184c565b95505060206119378882890161184c565b945050604061194888828901611882565b935050606086013567ffffffffffffffff811115611969576119686117fe565b5b611975888289016118a6565b92509250509295509295909350565b60007fffffffff0000000000000000000000000000000000000000000000000000000082169050919050565b6119b981611984565b82525050565b60006020820190506119d460008301846119b0565b92915050565b6000602082840312156119f0576119ef6117f9565b5b60006119fe84828501611882565b91505092915050565b600060208284031215611a1d57611a1c6117f9565b5b6000611a2b8482850161184c565b91505092915050565b60008060408385031215611a4b57611a4a6117f9565b5b6000611a5985828601611882565b9250506020611a6a85828601611882565b9150509250929050565b611a7d81611823565b82525050565b6000602082019050611a986000830184611a74565b92915050565b600060ff82169050919050565b611ab481611a9e565b82525050565b6000602082019050611acf6000830184611aab565b92915050565b611ade81611861565b82525050565b6000602082019050611af96000830184611ad5565b92915050565b600082825260208201905092915050565b7f4f776e61626c653a2063616c6c6572206973206e6f7420746865206f776e6572600082015250565b6000611b46602083611aff565b9150611b5182611b10565b602082019050919050565b60006020820190508181036000830152611b7581611b39565b9050919050565b600081519050611b8b8161186b565b92915050565b600060208284031215611ba757611ba66117f9565b5b6000611bb584828501611b7c565b91505092915050565b7f4e6f7420656e6f75676820746f6b656e7320746f207769746864726177000000600082015250565b6000611bf4601d83611aff565b9150611bff82611bbe565b602082019050919050565b60006020820190508181036000830152611c2381611be7565b9050919050565b6000604082019050611c3f6000830185611a74565b611c4c6020830184611ad5565b9392505050565b60008115159050919050565b611c6881611c53565b8114611c7357600080fd5b50565b600081519050611c8581611c5f565b92915050565b600060208284031215611ca157611ca06117f9565b5b6000611caf84828501611c76565b91505092915050565b7f5072696365206d7573742062652067726561746572207468616e203000000000600082015250565b6000611cee601c83611aff565b9150611cf982611cb8565b602082019050919050565b60006020820190508181036000830152611d1d81611ce1565b9050919050565b600081519050611d3381611835565b92915050565b600060208284031215611d4f57611d4e6117f9565b5b6000611d5d84828501611d24565b91505092915050565b7f4e6f7420796f7572204e46540000000000000000000000000000000000000000600082015250565b6000611d9c600c83611aff565b9150611da782611d66565b602082019050919050565b60006020820190508181036000830152611dcb81611d8f565b9050919050565b7f4e487b7100000000000000000000000000000000000000000000000000000000600052601160045260246000fd5b6000611e0c82611861565b9150611e1783611861565b9250817fffffffffffffffffffffffffffffffffffffffffffffffffffffffffffffffff0483118215151615611e5057611e4f611dd2565b5b828202905092915050565b7f4e487b7100000000000000000000000000000000000000000000000000000000600052601260045260246000fd5b6000611e9582611861565b9150611ea083611861565b925082611eb057611eaf611e5b565b5b828204905092915050565b7f4e6f7420656e6f75676820746f6b656e7320666f722074617800000000000000600082015250565b6000611ef1601983611aff565b9150611efc82611ebb565b602082019050919050565b60006020820190508181036000830152611f2081611ee4565b9050919050565b6000606082019050611f3c6000830186611a74565b611f496020830185611a74565b611f566040830184611ad5565b949350505050565b6000606082019050611f736000830186611a74565b611f806020830185611ad5565b611f8d6040830184611ad5565b949350505050565b7f4e4654206e6f74206f6e2073616c650000000000000000000000000000000000600082015250565b6000611fcb600f83611aff565b9150611fd682611f95565b602082019050919050565b60006020820190508181036000830152611ffa81611fbe565b9050919050565b7f4c61737420747261646520707269636520646f6573206e6f7420657869737400600082015250565b6000612037601f83611aff565b915061204282612001565b602082019050919050565b600060208201905081810360008301526120668161202a565b9050919050565b7f596f752063616e27742062757920796f7572206f776e204e4654000000000000600082015250565b60006120a3601a83611aff565b91506120ae8261206d565b602082019050919050565b600060208201905081810360008301526120d281612096565b9050919050565b60006120e482611a9e565b91506120ef83611a9e565b92508260ff0382111561210557612104611dd2565b5b828201905092915050565b7f4e6f7420656e6f75676820746f6b656e7320746f20627579206e667400000000600082015250565b6000612146601c83611aff565b915061215182612110565b602082019050919050565b6000602082019050818103600083015261217581612139565b9050919050565b60006080820190506121916000830187611a74565b61219e6020830186611a74565b6121ab6040830185611ad5565b6121b86060830184611ad5565b95945050505050565b7f4e465420707269636520646f6573206e6f742065786973740000000000000000600082015250565b60006121f7601883611aff565b9150612202826121c1565b602082019050919050565b60006020820190508181036000830152612226816121ea565b9050919050565b7f4f776e61626c653a206e6577206f776e657220697320746865207a65726f206160008201527f6464726573730000000000000000000000000000000000000000000000000000602082015250565b6000612289602683611aff565b91506122948261222d565b604082019050919050565b600060208201905081810360008301526122b88161227c565b905091905056fea26469706673582212207109dc1d12cfc8d929c75f57463c0c477bf7aa2713b984a0e6574745b91867f264736f6c634300080e0033",
  "linkReferences": {},
  "deployedLinkReferences": {}
}