{
  "_format": "hh-sol-artifact-1",
  "contractName": "Nude",
  "sourceName": "contracts/Nude.sol",
  "abi": [
    {
      "inputs": [],
      "stateMutability": "nonpayable",
      "type": "constructor"
    },
    {
      "anonymous": false,
      "inputs": [
        {
          "indexed": true,
          "internalType": "address",
          "name": "owner",
          "type": "address"
        },
        {
          "indexed": true,
          "internalType": "address",
          "name": "spender",
          "type": "address"
        },
        {
          "indexed": false,
          "internalType": "uint256",
          "name": "value",
          "type": "uint256"
        }
      ],
      "name": "Approval",
      "type": "event"
    },
    {
      "anonymous": false,
      "inputs": [
        {
          "indexed": true,
          "internalType": "address",
          "name": "previousOwner",
          "type": "address"
        },
        {
          "indexed": true,
          "internalType": "address",
          "name": "newOwner",
          "type": "address"
        }
      ],
      "name": "OwnershipTransferred",
      "type": "event"
    },
    {
      "anonymous": false,
      "inputs": [
        {
          "indexed": false,
          "internalType": "address",
          "name": "_buyer",
          "type": "address"
        },
        {
          "indexed": false,
          "internalType": "uint256",
          "name": "_amount",
          "type": "uint256"
        }
      ],
      "name": "Sell",
      "type": "event"
    },
    {
      "anonymous": false,
      "inputs": [
        {
          "indexed": true,
          "internalType": "address",
          "name": "from",
          "type": "address"
        },
        {
          "indexed": true,
          "internalType": "address",
          "name": "to",
          "type": "address"
        },
        {
          "indexed": false,
          "internalType": "uint256",
          "name": "value",
          "type": "uint256"
        }
      ],
      "name": "Transfer",
      "type": "event"
    },
    {
      "inputs": [
        {
          "internalType": "address",
          "name": "owner",
          "type": "address"
        },
        {
          "internalType": "address",
          "name": "spender",
          "type": "address"
        }
      ],
      "name": "allowance",
      "outputs": [
        {
          "internalType": "uint256",
          "name": "",
          "type": "uint256"
        }
      ],
      "stateMutability": "view",
      "type": "function"
    },
    {
      "inputs": [
        {
          "internalType": "address",
          "name": "spender",
          "type": "address"
        },
        {
          "internalType": "uint256",
          "name": "amount",
          "type": "uint256"
        }
      ],
      "name": "approve",
      "outputs": [
        {
          "internalType": "bool",
          "name": "",
          "type": "bool"
        }
      ],
      "stateMutability": "nonpayable",
      "type": "function"
    },
    {
      "inputs": [
        {
          "internalType": "uint256",
          "name": "tokenId",
          "type": "uint256"
        }
      ],
      "name": "approveAndBuyNFT",
      "outputs": [],
      "stateMutability": "nonpayable",
      "type": "function"
    },
    {
      "inputs": [
        {
          "internalType": "address",
          "name": "account",
          "type": "address"
        }
      ],
      "name": "balanceOf",
      "outputs": [
        {
          "internalType": "uint256",
          "name": "",
          "type": "uint256"
        }
      ],
      "stateMutability": "view",
      "type": "function"
    },
    {
      "inputs": [
        {
          "internalType": "uint256",
          "name": "_numberOfTokens",
          "type": "uint256"
        }
      ],
      "name": "buyTokens",
      "outputs": [],
      "stateMutability": "payable",
      "type": "function"
    },
    {
      "inputs": [],
      "name": "decimals",
      "outputs": [
        {
          "internalType": "uint8",
          "name": "",
          "type": "uint8"
        }
      ],
      "stateMutability": "view",
      "type": "function"
    },
    {
      "inputs": [
        {
          "internalType": "address",
          "name": "spender",
          "type": "address"
        },
        {
          "internalType": "uint256",
          "name": "subtractedValue",
          "type": "uint256"
        }
      ],
      "name": "decreaseAllowance",
      "outputs": [
        {
          "internalType": "bool",
          "name": "",
          "type": "bool"
        }
      ],
      "stateMutability": "nonpayable",
      "type": "function"
    },
    {
      "inputs": [],
      "name": "getTokenRate",
      "outputs": [
        {
          "internalType": "uint256",
          "name": "",
          "type": "uint256"
        }
      ],
      "stateMutability": "view",
      "type": "function"
    },
    {
      "inputs": [
        {
          "internalType": "address",
          "name": "spender",
          "type": "address"
        },
        {
          "internalType": "uint256",
          "name": "addedValue",
          "type": "uint256"
        }
      ],
      "name": "increaseAllowance",
      "outputs": [
        {
          "internalType": "bool",
          "name": "",
          "type": "bool"
        }
      ],
      "stateMutability": "nonpayable",
      "type": "function"
    },
    {
      "inputs": [],
      "name": "initialSupply",
      "outputs": [
        {
          "internalType": "uint256",
          "name": "",
          "type": "uint256"
        }
      ],
      "stateMutability": "view",
      "type": "function"
    },
    {
      "inputs": [],
      "name": "name",
      "outputs": [
        {
          "internalType": "string",
          "name": "",
          "type": "string"
        }
      ],
      "stateMutability": "view",
      "type": "function"
    },
    {
      "inputs": [],
      "name": "owner",
      "outputs": [
        {
          "internalType": "address",
          "name": "",
          "type": "address"
        }
      ],
      "stateMutability": "view",
      "type": "function"
    },
    {
      "inputs": [],
      "name": "renounceOwnership",
      "outputs": [],
      "stateMutability": "nonpayable",
      "type": "function"
    },
    {
      "inputs": [
        {
          "internalType": "address",
          "name": "dexAddress",
          "type": "address"
        }
      ],
      "name": "setNudeDex",
      "outputs": [],
      "stateMutability": "nonpayable",
      "type": "function"
    },
    {
      "inputs": [
        {
          "internalType": "uint256",
          "name": "_rate",
          "type": "uint256"
        }
      ],
      "name": "setTokenRate",
      "outputs": [],
      "stateMutability": "nonpayable",
      "type": "function"
    },
    {
      "inputs": [],
      "name": "symbol",
      "outputs": [
        {
          "internalType": "string",
          "name": "",
          "type": "string"
        }
      ],
      "stateMutability": "view",
      "type": "function"
    },
    {
      "inputs": [],
      "name": "tax",
      "outputs": [
        {
          "internalType": "uint8",
          "name": "",
          "type": "uint8"
        }
      ],
      "stateMutability": "view",
      "type": "function"
    },
    {
      "inputs": [],
      "name": "tokensSold",
      "outputs": [
        {
          "internalType": "uint256",
          "name": "",
          "type": "uint256"
        }
      ],
      "stateMutability": "view",
      "type": "function"
    },
    {
      "inputs": [],
      "name": "totalSupply",
      "outputs": [
        {
          "internalType": "uint256",
          "name": "",
          "type": "uint256"
        }
      ],
      "stateMutability": "view",
      "type": "function"
    },
    {
      "inputs": [
        {
          "internalType": "address",
          "name": "to",
          "type": "address"
        },
        {
          "internalType": "uint256",
          "name": "amount",
          "type": "uint256"
        }
      ],
      "name": "transfer",
      "outputs": [
        {
          "internalType": "bool",
          "name": "",
          "type": "bool"
        }
      ],
      "stateMutability": "nonpayable",
      "type": "function"
    },
    {
      "inputs": [
        {
          "internalType": "address",
          "name": "from",
          "type": "address"
        },
        {
          "internalType": "address",
          "name": "to",
          "type": "address"
        },
        {
          "internalType": "uint256",
          "name": "amount",
          "type": "uint256"
        }
      ],
      "name": "transferFrom",
      "outputs": [
        {
          "internalType": "bool",
          "name": "",
          "type": "bool"
        }
      ],
      "stateMutability": "nonpayable",
      "type": "function"
    },
    {
      "inputs": [
        {
          "internalType": "address",
          "name": "newOwner",
          "type": "address"
        }
      ],
      "name": "transferOwnership",
      "outputs": [],
      "stateMutability": "nonpayable",
      "type": "function"
    },
    {
      "inputs": [
        {
          "internalType": "address",
          "name": "from",
          "type": "address"
        },
        {
          "internalType": "address",
          "name": "to",
          "type": "address"
        },
        {
          "internalType": "uint256",
          "name": "amount",
          "type": "uint256"
        }
      ],
      "name": "transferTokens",
      "outputs": [],
      "stateMutability": "nonpayable",
      "type": "function"
    }
  ],
  "bytecode": "0x60806040526304277dc9600655600a600855600a600960146101000a81548160ff021916908360ff1602179055503480156200003a57600080fd5b506040518060400160405280600481526020017f4e756465000000000000000000000000000000000000000000000000000000008152506040518060400160405280600481526020017f4e554445000000000000000000000000000000000000000000000000000000008152508160039080519060200190620000bf92919062000398565b508060049080519060200190620000d892919062000398565b505050620000fb620000ef6200013f60201b60201c565b6200014760201b60201c565b6200013933620001106200020d60201b60201c565b600a6200011e9190620005e2565b6006546200012d919062000633565b6200021660201b60201c565b62000806565b600033905090565b6000600560009054906101000a900473ffffffffffffffffffffffffffffffffffffffff16905081600560006101000a81548173ffffffffffffffffffffffffffffffffffffffff021916908373ffffffffffffffffffffffffffffffffffffffff1602179055508173ffffffffffffffffffffffffffffffffffffffff168173ffffffffffffffffffffffffffffffffffffffff167f8be0079c531659141344cd1fd0a4f28419497f9722a3daafe3b4186f6b6457e060405160405180910390a35050565b60006012905090565b600073ffffffffffffffffffffffffffffffffffffffff168273ffffffffffffffffffffffffffffffffffffffff160362000288576040517f08c379a00000000000000000000000000000000000000000000000000000000081526004016200027f90620006f5565b60405180910390fd5b6200029c600083836200038e60201b60201c565b8060026000828254620002b0919062000717565b92505081905550806000808473ffffffffffffffffffffffffffffffffffffffff1673ffffffffffffffffffffffffffffffffffffffff168152602001908152602001600020600082825462000307919062000717565b925050819055508173ffffffffffffffffffffffffffffffffffffffff16600073ffffffffffffffffffffffffffffffffffffffff167fddf252ad1be2c89b69c2b068fc378daa952ba7f163c4a11628f55a4df523b3ef836040516200036e919062000785565b60405180910390a36200038a600083836200039360201b60201c565b5050565b505050565b505050565b828054620003a690620007d1565b90600052602060002090601f016020900481019282620003ca576000855562000416565b82601f10620003e557805160ff191683800117855562000416565b8280016001018555821562000416579182015b8281111562000415578251825591602001919060010190620003f8565b5b50905062000425919062000429565b5090565b5b80821115620004445760008160009055506001016200042a565b5090565b7f4e487b7100000000000000000000000000000000000000000000000000000000600052601160045260246000fd5b60008160011c9050919050565b6000808291508390505b6001851115620004d657808604811115620004ae57620004ad62000448565b5b6001851615620004be5780820291505b8081029050620004ce8562000477565b94506200048e565b94509492505050565b600082620004f15760019050620005c4565b81620005015760009050620005c4565b81600181146200051a576002811462000525576200055b565b6001915050620005c4565b60ff8411156200053a576200053962000448565b5b8360020a91508482111562000554576200055362000448565b5b50620005c4565b5060208310610133831016604e8410600b8410161715620005955782820a9050838111156200058f576200058e62000448565b5b620005c4565b620005a4848484600162000484565b92509050818404811115620005be57620005bd62000448565b5b81810290505b9392505050565b6000819050919050565b600060ff82169050919050565b6000620005ef82620005cb565b9150620005fc83620005d5565b92506200062b7fffffffffffffffffffffffffffffffffffffffffffffffffffffffffffffffff8484620004df565b905092915050565b60006200064082620005cb565b91506200064d83620005cb565b9250817fffffffffffffffffffffffffffffffffffffffffffffffffffffffffffffffff048311821515161562000689576200068862000448565b5b828202905092915050565b600082825260208201905092915050565b7f45524332303a206d696e7420746f20746865207a65726f206164647265737300600082015250565b6000620006dd601f8362000694565b9150620006ea82620006a5565b602082019050919050565b600060208201905081810360008301526200071081620006ce565b9050919050565b60006200072482620005cb565b91506200073183620005cb565b9250827fffffffffffffffffffffffffffffffffffffffffffffffffffffffffffffffff0382111562000769576200076862000448565b5b828201905092915050565b6200077f81620005cb565b82525050565b60006020820190506200079c600083018462000774565b92915050565b7f4e487b7100000000000000000000000000000000000000000000000000000000600052602260045260246000fd5b60006002820490506001821680620007ea57607f821691505b6020821081036200080057620007ff620007a2565b5b50919050565b61226a80620008166000396000f3fe6080604052600436106101405760003560e01c806361241c28116100b6578063a457c2d71161006f578063a457c2d714610441578063a64b6e5f1461047e578063a9059cbb146104a7578063dd62ed3e146104e4578063e8e4247514610521578063f2fde38b1461054a57610140565b806361241c281461034357806370a082311461036c578063715018a6146103a95780638da5cb5b146103c057806395d89b41146103eb57806399c8d5561461041657610140565b80633610724e116101085780633610724e14610240578063378dc3dc1461025c57806338ece2a61461028757806339509351146102b05780633e2d7004146102ed578063518ab2a81461031857610140565b806306fdde0314610145578063095ea7b31461017057806318160ddd146101ad57806323b872dd146101d8578063313ce56714610215575b600080fd5b34801561015157600080fd5b5061015a610573565b60405161016791906115f5565b60405180910390f35b34801561017c57600080fd5b50610197600480360381019061019291906116b0565b610605565b6040516101a4919061170b565b60405180910390f35b3480156101b957600080fd5b506101c2610628565b6040516101cf9190611735565b60405180910390f35b3480156101e457600080fd5b506101ff60048036038101906101fa9190611750565b610632565b60405161020c919061170b565b60405180910390f35b34801561022157600080fd5b5061022a610661565b60405161023791906117bf565b60405180910390f35b61025a600480360381019061025591906117da565b61066a565b005b34801561026857600080fd5b50610271610790565b60405161027e9190611735565b60405180910390f35b34801561029357600080fd5b506102ae60048036038101906102a991906117da565b610796565b005b3480156102bc57600080fd5b506102d760048036038101906102d291906116b0565b61092b565b6040516102e4919061170b565b60405180910390f35b3480156102f957600080fd5b506103026109d5565b60405161030f9190611735565b60405180910390f35b34801561032457600080fd5b5061032d6109df565b60405161033a9190611735565b60405180910390f35b34801561034f57600080fd5b5061036a600480360381019061036591906117da565b6109e5565b005b34801561037857600080fd5b50610393600480360381019061038e9190611807565b610a6b565b6040516103a09190611735565b60405180910390f35b3480156103b557600080fd5b506103be610ab3565b005b3480156103cc57600080fd5b506103d5610b3b565b6040516103e29190611843565b60405180910390f35b3480156103f757600080fd5b50610400610b65565b60405161040d91906115f5565b60405180910390f35b34801561042257600080fd5b5061042b610bf7565b60405161043891906117bf565b60405180910390f35b34801561044d57600080fd5b50610468600480360381019061046391906116b0565b610c0a565b604051610475919061170b565b60405180910390f35b34801561048a57600080fd5b506104a560048036038101906104a09190611750565b610cf4565b005b3480156104b357600080fd5b506104ce60048036038101906104c991906116b0565b610d4f565b6040516104db919061170b565b60405180910390f35b3480156104f057600080fd5b5061050b6004803603810190610506919061185e565b610d72565b6040516105189190611735565b60405180910390f35b34801561052d57600080fd5b5061054860048036038101906105439190611807565b610df9565b005b34801561055657600080fd5b50610571600480360381019061056c9190611807565b610eb9565b005b606060038054610582906118cd565b80601f01602080910402602001604051908101604052809291908181526020018280546105ae906118cd565b80156105fb5780601f106105d0576101008083540402835291602001916105fb565b820191906000526020600020905b8154815290600101906020018083116105de57829003601f168201915b5050505050905090565b600080610610610fb0565b905061061d818585610fb8565b600191505092915050565b6000600254905090565b60008061063d610fb0565b905061064a858285611181565b61065585858561120d565b60019150509392505050565b60006012905090565b610672610661565b600a61067e9190611a60565b816106899190611aab565b600854346106979190611aab565b146106d7576040517f08c379a00000000000000000000000000000000000000000000000000000000081526004016106ce90611b51565b60405180910390fd5b806106e86106e3610b3b565b610a6b565b1015610729576040517f08c379a000000000000000000000000000000000000000000000000000000000815260040161072090611bbd565b60405180910390fd5b61073b610734610b3b565b338361120d565b806007600082825461074d9190611bdd565b925050819055507f5e5e995ce3133561afceaa51a9a154d5db228cd7525d34df5185582c18d3df093382604051610785929190611c33565b60405180910390a150565b60065481565b6000600960009054906101000a900473ffffffffffffffffffffffffffffffffffffffff1673ffffffffffffffffffffffffffffffffffffffff1663e7572230836040518263ffffffff1660e01b81526004016107f39190611735565b602060405180830381865afa158015610810573d6000803e3d6000fd5b505050506040513d601f19601f820116820180604052508101906108349190611c71565b9050610897600960009054906101000a900473ffffffffffffffffffffffffffffffffffffffff166064600960149054906101000a900460ff16606461087a9190611c9e565b60ff16846108889190611aab565b6108929190611d04565b610605565b50600960009054906101000a900473ffffffffffffffffffffffffffffffffffffffff1673ffffffffffffffffffffffffffffffffffffffff1663e0a0cf7483336040518363ffffffff1660e01b81526004016108f5929190611d35565b600060405180830381600087803b15801561090f57600080fd5b505af1158015610923573d6000803e3d6000fd5b505050505050565b600080610936610fb0565b90506109ca818585600160008673ffffffffffffffffffffffffffffffffffffffff1673ffffffffffffffffffffffffffffffffffffffff16815260200190815260200160002060008973ffffffffffffffffffffffffffffffffffffffff1673ffffffffffffffffffffffffffffffffffffffff168152602001908152602001600020546109c59190611bdd565b610fb8565b600191505092915050565b6000600854905090565b60075481565b6109ed610fb0565b73ffffffffffffffffffffffffffffffffffffffff16610a0b610b3b565b73ffffffffffffffffffffffffffffffffffffffff1614610a61576040517f08c379a0000000000000000000000000000000000000000000000000000000008152600401610a5890611daa565b60405180910390fd5b8060088190555050565b60008060008373ffffffffffffffffffffffffffffffffffffffff1673ffffffffffffffffffffffffffffffffffffffff168152602001908152602001600020549050919050565b610abb610fb0565b73ffffffffffffffffffffffffffffffffffffffff16610ad9610b3b565b73ffffffffffffffffffffffffffffffffffffffff1614610b2f576040517f08c379a0000000000000000000000000000000000000000000000000000000008152600401610b2690611daa565b60405180910390fd5b610b39600061148c565b565b6000600560009054906101000a900473ffffffffffffffffffffffffffffffffffffffff16905090565b606060048054610b74906118cd565b80601f0160208091040260200160405190810160405280929190818152602001828054610ba0906118cd565b8015610bed5780601f10610bc257610100808354040283529160200191610bed565b820191906000526020600020905b815481529060010190602001808311610bd057829003601f168201915b5050505050905090565b600960149054906101000a900460ff1681565b600080610c15610fb0565b90506000600160008373ffffffffffffffffffffffffffffffffffffffff1673ffffffffffffffffffffffffffffffffffffffff16815260200190815260200160002060008673ffffffffffffffffffffffffffffffffffffffff1673ffffffffffffffffffffffffffffffffffffffff16815260200190815260200160002054905083811015610cdb576040517f08c379a0000000000000000000000000000000000000000000000000000000008152600401610cd290611e3c565b60405180910390fd5b610ce88286868403610fb8565b60019250505092915050565b80610cfe84610a6b565b1015610d3f576040517f08c379a0000000000000000000000000000000000000000000000000000000008152600401610d3690611bbd565b60405180910390fd5b610d4a83838361120d565b505050565b600080610d5a610fb0565b9050610d6781858561120d565b600191505092915050565b6000600160008473ffffffffffffffffffffffffffffffffffffffff1673ffffffffffffffffffffffffffffffffffffffff16815260200190815260200160002060008373ffffffffffffffffffffffffffffffffffffffff1673ffffffffffffffffffffffffffffffffffffffff16815260200190815260200160002054905092915050565b610e01610fb0565b73ffffffffffffffffffffffffffffffffffffffff16610e1f610b3b565b73ffffffffffffffffffffffffffffffffffffffff1614610e75576040517f08c379a0000000000000000000000000000000000000000000000000000000008152600401610e6c90611daa565b60405180910390fd5b80600960006101000a81548173ffffffffffffffffffffffffffffffffffffffff021916908373ffffffffffffffffffffffffffffffffffffffff16021790555050565b610ec1610fb0565b73ffffffffffffffffffffffffffffffffffffffff16610edf610b3b565b73ffffffffffffffffffffffffffffffffffffffff1614610f35576040517f08c379a0000000000000000000000000000000000000000000000000000000008152600401610f2c90611daa565b60405180910390fd5b600073ffffffffffffffffffffffffffffffffffffffff168173ffffffffffffffffffffffffffffffffffffffff1603610fa4576040517f08c379a0000000000000000000000000000000000000000000000000000000008152600401610f9b90611ece565b60405180910390fd5b610fad8161148c565b50565b600033905090565b600073ffffffffffffffffffffffffffffffffffffffff168373ffffffffffffffffffffffffffffffffffffffff1603611027576040517f08c379a000000000000000000000000000000000000000000000000000000000815260040161101e90611f60565b60405180910390fd5b600073ffffffffffffffffffffffffffffffffffffffff168273ffffffffffffffffffffffffffffffffffffffff1603611096576040517f08c379a000000000000000000000000000000000000000000000000000000000815260040161108d90611ff2565b60405180910390fd5b80600160008573ffffffffffffffffffffffffffffffffffffffff1673ffffffffffffffffffffffffffffffffffffffff16815260200190815260200160002060008473ffffffffffffffffffffffffffffffffffffffff1673ffffffffffffffffffffffffffffffffffffffff168152602001908152602001600020819055508173ffffffffffffffffffffffffffffffffffffffff168373ffffffffffffffffffffffffffffffffffffffff167f8c5be1e5ebec7d5bd14f71427d1e84f3dd0314c0f7b2291e5b200ac8c7c3b925836040516111749190611735565b60405180910390a3505050565b600061118d8484610d72565b90507fffffffffffffffffffffffffffffffffffffffffffffffffffffffffffffffff811461120757818110156111f9576040517f08c379a00000000000000000000000000000000000000000000000000000000081526004016111f09061205e565b60405180910390fd5b6112068484848403610fb8565b5b50505050565b600073ffffffffffffffffffffffffffffffffffffffff168373ffffffffffffffffffffffffffffffffffffffff160361127c576040517f08c379a0000000000000000000000000000000000000000000000000000000008152600401611273906120f0565b60405180910390fd5b600073ffffffffffffffffffffffffffffffffffffffff168273ffffffffffffffffffffffffffffffffffffffff16036112eb576040517f08c379a00000000000000000000000000000000000000000000000000000000081526004016112e290612182565b60405180910390fd5b6112f6838383611552565b60008060008573ffffffffffffffffffffffffffffffffffffffff1673ffffffffffffffffffffffffffffffffffffffff1681526020019081526020016000205490508181101561137c576040517f08c379a000000000000000000000000000000000000000000000000000000000815260040161137390612214565b60405180910390fd5b8181036000808673ffffffffffffffffffffffffffffffffffffffff1673ffffffffffffffffffffffffffffffffffffffff16815260200190815260200160002081905550816000808573ffffffffffffffffffffffffffffffffffffffff1673ffffffffffffffffffffffffffffffffffffffff168152602001908152602001600020600082825461140f9190611bdd565b925050819055508273ffffffffffffffffffffffffffffffffffffffff168473ffffffffffffffffffffffffffffffffffffffff167fddf252ad1be2c89b69c2b068fc378daa952ba7f163c4a11628f55a4df523b3ef846040516114739190611735565b60405180910390a3611486848484611557565b50505050565b6000600560009054906101000a900473ffffffffffffffffffffffffffffffffffffffff16905081600560006101000a81548173ffffffffffffffffffffffffffffffffffffffff021916908373ffffffffffffffffffffffffffffffffffffffff1602179055508173ffffffffffffffffffffffffffffffffffffffff168173ffffffffffffffffffffffffffffffffffffffff167f8be0079c531659141344cd1fd0a4f28419497f9722a3daafe3b4186f6b6457e060405160405180910390a35050565b505050565b505050565b600081519050919050565b600082825260208201905092915050565b60005b8381101561159657808201518184015260208101905061157b565b838111156115a5576000848401525b50505050565b6000601f19601f8301169050919050565b60006115c78261155c565b6115d18185611567565b93506115e1818560208601611578565b6115ea816115ab565b840191505092915050565b6000602082019050818103600083015261160f81846115bc565b905092915050565b600080fd5b600073ffffffffffffffffffffffffffffffffffffffff82169050919050565b60006116478261161c565b9050919050565b6116578161163c565b811461166257600080fd5b50565b6000813590506116748161164e565b92915050565b6000819050919050565b61168d8161167a565b811461169857600080fd5b50565b6000813590506116aa81611684565b92915050565b600080604083850312156116c7576116c6611617565b5b60006116d585828601611665565b92505060206116e68582860161169b565b9150509250929050565b60008115159050919050565b611705816116f0565b82525050565b600060208201905061172060008301846116fc565b92915050565b61172f8161167a565b82525050565b600060208201905061174a6000830184611726565b92915050565b60008060006060848603121561176957611768611617565b5b600061177786828701611665565b935050602061178886828701611665565b92505060406117998682870161169b565b9150509250925092565b600060ff82169050919050565b6117b9816117a3565b82525050565b60006020820190506117d460008301846117b0565b92915050565b6000602082840312156117f0576117ef611617565b5b60006117fe8482850161169b565b91505092915050565b60006020828403121561181d5761181c611617565b5b600061182b84828501611665565b91505092915050565b61183d8161163c565b82525050565b60006020820190506118586000830184611834565b92915050565b6000806040838503121561187557611874611617565b5b600061188385828601611665565b925050602061189485828601611665565b9150509250929050565b7f4e487b7100000000000000000000000000000000000000000000000000000000600052602260045260246000fd5b600060028204905060018216806118e557607f821691505b6020821081036118f8576118f761189e565b5b50919050565b7f4e487b7100000000000000000000000000000000000000000000000000000000600052601160045260246000fd5b60008160011c9050919050565b6000808291508390505b6001851115611984578086048111156119605761195f6118fe565b5b600185161561196f5780820291505b808102905061197d8561192d565b9450611944565b94509492505050565b60008261199d5760019050611a59565b816119ab5760009050611a59565b81600181146119c157600281146119cb576119fa565b6001915050611a59565b60ff8411156119dd576119dc6118fe565b5b8360020a9150848211156119f4576119f36118fe565b5b50611a59565b5060208310610133831016604e8410600b8410161715611a2f5782820a905083811115611a2a57611a296118fe565b5b611a59565b611a3c848484600161193a565b92509050818404811115611a5357611a526118fe565b5b81810290505b9392505050565b6000611a6b8261167a565b9150611a76836117a3565b9250611aa37fffffffffffffffffffffffffffffffffffffffffffffffffffffffffffffffff848461198d565b905092915050565b6000611ab68261167a565b9150611ac18361167a565b9250817fffffffffffffffffffffffffffffffffffffffffffffffffffffffffffffffff0483118215151615611afa57611af96118fe565b5b828202905092915050565b7f4e6f7420657861637420616d6f756e7400000000000000000000000000000000600082015250565b6000611b3b601083611567565b9150611b4682611b05565b602082019050919050565b60006020820190508181036000830152611b6a81611b2e565b9050919050565b7f4e6f7420656e6f75676820746f6b656e73000000000000000000000000000000600082015250565b6000611ba7601183611567565b9150611bb282611b71565b602082019050919050565b60006020820190508181036000830152611bd681611b9a565b9050919050565b6000611be88261167a565b9150611bf38361167a565b9250827fffffffffffffffffffffffffffffffffffffffffffffffffffffffffffffffff03821115611c2857611c276118fe565b5b828201905092915050565b6000604082019050611c486000830185611834565b611c556020830184611726565b9392505050565b600081519050611c6b81611684565b92915050565b600060208284031215611c8757611c86611617565b5b6000611c9584828501611c5c565b91505092915050565b6000611ca9826117a3565b9150611cb4836117a3565b92508260ff03821115611cca57611cc96118fe565b5b828201905092915050565b7f4e487b7100000000000000000000000000000000000000000000000000000000600052601260045260246000fd5b6000611d0f8261167a565b9150611d1a8361167a565b925082611d2a57611d29611cd5565b5b828204905092915050565b6000604082019050611d4a6000830185611726565b611d576020830184611834565b9392505050565b7f4f776e61626c653a2063616c6c6572206973206e6f7420746865206f776e6572600082015250565b6000611d94602083611567565b9150611d9f82611d5e565b602082019050919050565b60006020820190508181036000830152611dc381611d87565b9050919050565b7f45524332303a2064656372656173656420616c6c6f77616e63652062656c6f7760008201527f207a65726f000000000000000000000000000000000000000000000000000000602082015250565b6000611e26602583611567565b9150611e3182611dca565b604082019050919050565b60006020820190508181036000830152611e5581611e19565b9050919050565b7f4f776e61626c653a206e6577206f776e657220697320746865207a65726f206160008201527f6464726573730000000000000000000000000000000000000000000000000000602082015250565b6000611eb8602683611567565b9150611ec382611e5c565b604082019050919050565b60006020820190508181036000830152611ee781611eab565b9050919050565b7f45524332303a20617070726f76652066726f6d20746865207a65726f2061646460008201527f7265737300000000000000000000000000000000000000000000000000000000602082015250565b6000611f4a602483611567565b9150611f5582611eee565b604082019050919050565b60006020820190508181036000830152611f7981611f3d565b9050919050565b7f45524332303a20617070726f766520746f20746865207a65726f20616464726560008201527f7373000000000000000000000000000000000000000000000000000000000000602082015250565b6000611fdc602283611567565b9150611fe782611f80565b604082019050919050565b6000602082019050818103600083015261200b81611fcf565b9050919050565b7f45524332303a20696e73756666696369656e7420616c6c6f77616e6365000000600082015250565b6000612048601d83611567565b915061205382612012565b602082019050919050565b600060208201905081810360008301526120778161203b565b9050919050565b7f45524332303a207472616e736665722066726f6d20746865207a65726f20616460008201527f6472657373000000000000000000000000000000000000000000000000000000602082015250565b60006120da602583611567565b91506120e58261207e565b604082019050919050565b60006020820190508181036000830152612109816120cd565b9050919050565b7f45524332303a207472616e7366657220746f20746865207a65726f206164647260008201527f6573730000000000000000000000000000000000000000000000000000000000602082015250565b600061216c602383611567565b915061217782612110565b604082019050919050565b6000602082019050818103600083015261219b8161215f565b9050919050565b7f45524332303a207472616e7366657220616d6f756e742065786365656473206260008201527f616c616e63650000000000000000000000000000000000000000000000000000602082015250565b60006121fe602683611567565b9150612209826121a2565b604082019050919050565b6000602082019050818103600083015261222d816121f1565b905091905056fea2646970667358221220ab5be6cecab2b369a8336a1c65ba2ceb72e635b1a0e2b9482ddc877eb4e6b8e164736f6c634300080e0033",
  "linkReferences": {},
  "deployedLinkReferences": {}
}