{
  "_format": "hh-sol-artifact-1",
  "contractName": "Nude",
  "sourceName": "contracts/Nude.sol",
  "abi": [
    {
      "inputs": [],
      "stateMutability": "nonpayable",
      "type": "constructor"
    },
    {
      "anonymous": false,
      "inputs": [
        {
          "indexed": true,
          "internalType": "address",
          "name": "owner",
          "type": "address"
        },
        {
          "indexed": true,
          "internalType": "address",
          "name": "spender",
          "type": "address"
        },
        {
          "indexed": false,
          "internalType": "uint256",
          "name": "value",
          "type": "uint256"
        }
      ],
      "name": "Approval",
      "type": "event"
    },
    {
      "anonymous": false,
      "inputs": [
        {
          "indexed": true,
          "internalType": "address",
          "name": "previousOwner",
          "type": "address"
        },
        {
          "indexed": true,
          "internalType": "address",
          "name": "newOwner",
          "type": "address"
        }
      ],
      "name": "OwnershipTransferred",
      "type": "event"
    },
    {
      "anonymous": false,
      "inputs": [
        {
          "indexed": false,
          "internalType": "address",
          "name": "_buyer",
          "type": "address"
        },
        {
          "indexed": false,
          "internalType": "uint256",
          "name": "_amount",
          "type": "uint256"
        }
      ],
      "name": "Sell",
      "type": "event"
    },
    {
      "anonymous": false,
      "inputs": [
        {
          "indexed": true,
          "internalType": "address",
          "name": "from",
          "type": "address"
        },
        {
          "indexed": true,
          "internalType": "address",
          "name": "to",
          "type": "address"
        },
        {
          "indexed": false,
          "internalType": "uint256",
          "name": "value",
          "type": "uint256"
        }
      ],
      "name": "Transfer",
      "type": "event"
    },
    {
      "inputs": [
        {
          "internalType": "address",
          "name": "owner",
          "type": "address"
        },
        {
          "internalType": "address",
          "name": "spender",
          "type": "address"
        }
      ],
      "name": "allowance",
      "outputs": [
        {
          "internalType": "uint256",
          "name": "",
          "type": "uint256"
        }
      ],
      "stateMutability": "view",
      "type": "function"
    },
    {
      "inputs": [
        {
          "internalType": "address",
          "name": "spender",
          "type": "address"
        },
        {
          "internalType": "uint256",
          "name": "amount",
          "type": "uint256"
        }
      ],
      "name": "approve",
      "outputs": [
        {
          "internalType": "bool",
          "name": "",
          "type": "bool"
        }
      ],
      "stateMutability": "nonpayable",
      "type": "function"
    },
    {
      "inputs": [
        {
          "internalType": "address",
          "name": "account",
          "type": "address"
        }
      ],
      "name": "balanceOf",
      "outputs": [
        {
          "internalType": "uint256",
          "name": "",
          "type": "uint256"
        }
      ],
      "stateMutability": "view",
      "type": "function"
    },
    {
      "inputs": [
        {
          "internalType": "uint256",
          "name": "_numberOfTokens",
          "type": "uint256"
        }
      ],
      "name": "buyTokens",
      "outputs": [],
      "stateMutability": "payable",
      "type": "function"
    },
    {
      "inputs": [],
      "name": "decimals",
      "outputs": [
        {
          "internalType": "uint8",
          "name": "",
          "type": "uint8"
        }
      ],
      "stateMutability": "view",
      "type": "function"
    },
    {
      "inputs": [
        {
          "internalType": "address",
          "name": "spender",
          "type": "address"
        },
        {
          "internalType": "uint256",
          "name": "subtractedValue",
          "type": "uint256"
        }
      ],
      "name": "decreaseAllowance",
      "outputs": [
        {
          "internalType": "bool",
          "name": "",
          "type": "bool"
        }
      ],
      "stateMutability": "nonpayable",
      "type": "function"
    },
    {
      "inputs": [
        {
          "internalType": "address",
          "name": "spender",
          "type": "address"
        },
        {
          "internalType": "uint256",
          "name": "addedValue",
          "type": "uint256"
        }
      ],
      "name": "increaseAllowance",
      "outputs": [
        {
          "internalType": "bool",
          "name": "",
          "type": "bool"
        }
      ],
      "stateMutability": "nonpayable",
      "type": "function"
    },
    {
      "inputs": [],
      "name": "initialSupply",
      "outputs": [
        {
          "internalType": "uint256",
          "name": "",
          "type": "uint256"
        }
      ],
      "stateMutability": "view",
      "type": "function"
    },
    {
      "inputs": [],
      "name": "name",
      "outputs": [
        {
          "internalType": "string",
          "name": "",
          "type": "string"
        }
      ],
      "stateMutability": "view",
      "type": "function"
    },
    {
      "inputs": [],
      "name": "owner",
      "outputs": [
        {
          "internalType": "address",
          "name": "",
          "type": "address"
        }
      ],
      "stateMutability": "view",
      "type": "function"
    },
    {
      "inputs": [],
      "name": "renounceOwnership",
      "outputs": [],
      "stateMutability": "nonpayable",
      "type": "function"
    },
    {
      "inputs": [
        {
          "internalType": "uint256",
          "name": "_rate",
          "type": "uint256"
        }
      ],
      "name": "setTokenRate",
      "outputs": [],
      "stateMutability": "nonpayable",
      "type": "function"
    },
    {
      "inputs": [],
      "name": "symbol",
      "outputs": [
        {
          "internalType": "string",
          "name": "",
          "type": "string"
        }
      ],
      "stateMutability": "view",
      "type": "function"
    },
    {
      "inputs": [],
      "name": "tokensSold",
      "outputs": [
        {
          "internalType": "uint256",
          "name": "",
          "type": "uint256"
        }
      ],
      "stateMutability": "view",
      "type": "function"
    },
    {
      "inputs": [],
      "name": "totalSupply",
      "outputs": [
        {
          "internalType": "uint256",
          "name": "",
          "type": "uint256"
        }
      ],
      "stateMutability": "view",
      "type": "function"
    },
    {
      "inputs": [
        {
          "internalType": "address",
          "name": "to",
          "type": "address"
        },
        {
          "internalType": "uint256",
          "name": "amount",
          "type": "uint256"
        }
      ],
      "name": "transfer",
      "outputs": [
        {
          "internalType": "bool",
          "name": "",
          "type": "bool"
        }
      ],
      "stateMutability": "nonpayable",
      "type": "function"
    },
    {
      "inputs": [
        {
          "internalType": "address",
          "name": "from",
          "type": "address"
        },
        {
          "internalType": "address",
          "name": "to",
          "type": "address"
        },
        {
          "internalType": "uint256",
          "name": "amount",
          "type": "uint256"
        }
      ],
      "name": "transferFrom",
      "outputs": [
        {
          "internalType": "bool",
          "name": "",
          "type": "bool"
        }
      ],
      "stateMutability": "nonpayable",
      "type": "function"
    },
    {
      "inputs": [
        {
          "internalType": "address",
          "name": "newOwner",
          "type": "address"
        }
      ],
      "name": "transferOwnership",
      "outputs": [],
      "stateMutability": "nonpayable",
      "type": "function"
    },
    {
      "inputs": [
        {
          "internalType": "address",
          "name": "from",
          "type": "address"
        },
        {
          "internalType": "address",
          "name": "to",
          "type": "address"
        },
        {
          "internalType": "uint256",
          "name": "amount",
          "type": "uint256"
        }
      ],
      "name": "transferTokens",
      "outputs": [],
      "stateMutability": "nonpayable",
      "type": "function"
    }
  ],
  "bytecode": "0x60806040526304277dc9600655600a6008553480156200001e57600080fd5b506040518060400160405280600481526020017f4e756465000000000000000000000000000000000000000000000000000000008152506040518060400160405280600481526020017f4e554445000000000000000000000000000000000000000000000000000000008152508160039080519060200190620000a39291906200037c565b508060049080519060200190620000bc9291906200037c565b505050620000df620000d36200012360201b60201c565b6200012b60201b60201c565b6200011d33620000f4620001f160201b60201c565b600a620001029190620005c6565b60065462000111919062000617565b620001fa60201b60201c565b620007ea565b600033905090565b6000600560009054906101000a900473ffffffffffffffffffffffffffffffffffffffff16905081600560006101000a81548173ffffffffffffffffffffffffffffffffffffffff021916908373ffffffffffffffffffffffffffffffffffffffff1602179055508173ffffffffffffffffffffffffffffffffffffffff168173ffffffffffffffffffffffffffffffffffffffff167f8be0079c531659141344cd1fd0a4f28419497f9722a3daafe3b4186f6b6457e060405160405180910390a35050565b60006012905090565b600073ffffffffffffffffffffffffffffffffffffffff168273ffffffffffffffffffffffffffffffffffffffff16036200026c576040517f08c379a00000000000000000000000000000000000000000000000000000000081526004016200026390620006d9565b60405180910390fd5b62000280600083836200037260201b60201c565b8060026000828254620002949190620006fb565b92505081905550806000808473ffffffffffffffffffffffffffffffffffffffff1673ffffffffffffffffffffffffffffffffffffffff1681526020019081526020016000206000828254620002eb9190620006fb565b925050819055508173ffffffffffffffffffffffffffffffffffffffff16600073ffffffffffffffffffffffffffffffffffffffff167fddf252ad1be2c89b69c2b068fc378daa952ba7f163c4a11628f55a4df523b3ef8360405162000352919062000769565b60405180910390a36200036e600083836200037760201b60201c565b5050565b505050565b505050565b8280546200038a90620007b5565b90600052602060002090601f016020900481019282620003ae5760008555620003fa565b82601f10620003c957805160ff1916838001178555620003fa565b82800160010185558215620003fa579182015b82811115620003f9578251825591602001919060010190620003dc565b5b5090506200040991906200040d565b5090565b5b80821115620004285760008160009055506001016200040e565b5090565b7f4e487b7100000000000000000000000000000000000000000000000000000000600052601160045260246000fd5b60008160011c9050919050565b6000808291508390505b6001851115620004ba578086048111156200049257620004916200042c565b5b6001851615620004a25780820291505b8081029050620004b2856200045b565b945062000472565b94509492505050565b600082620004d55760019050620005a8565b81620004e55760009050620005a8565b8160018114620004fe576002811462000509576200053f565b6001915050620005a8565b60ff8411156200051e576200051d6200042c565b5b8360020a9150848211156200053857620005376200042c565b5b50620005a8565b5060208310610133831016604e8410600b8410161715620005795782820a9050838111156200057357620005726200042c565b5b620005a8565b62000588848484600162000468565b92509050818404811115620005a257620005a16200042c565b5b81810290505b9392505050565b6000819050919050565b600060ff82169050919050565b6000620005d382620005af565b9150620005e083620005b9565b92506200060f7fffffffffffffffffffffffffffffffffffffffffffffffffffffffffffffffff8484620004c3565b905092915050565b60006200062482620005af565b91506200063183620005af565b9250817fffffffffffffffffffffffffffffffffffffffffffffffffffffffffffffffff04831182151516156200066d576200066c6200042c565b5b828202905092915050565b600082825260208201905092915050565b7f45524332303a206d696e7420746f20746865207a65726f206164647265737300600082015250565b6000620006c1601f8362000678565b9150620006ce8262000689565b602082019050919050565b60006020820190508181036000830152620006f481620006b2565b9050919050565b60006200070882620005af565b91506200071583620005af565b9250827fffffffffffffffffffffffffffffffffffffffffffffffffffffffffffffffff038211156200074d576200074c6200042c565b5b828201905092915050565b6200076381620005af565b82525050565b600060208201905062000780600083018462000758565b92915050565b7f4e487b7100000000000000000000000000000000000000000000000000000000600052602260045260246000fd5b60006002820490506001821680620007ce57607f821691505b602082108103620007e457620007e362000786565b5b50919050565b611e2280620007fa6000396000f3fe6080604052600436106101145760003560e01c806361241c28116100a0578063a457c2d711610064578063a457c2d714610396578063a64b6e5f146103d3578063a9059cbb146103fc578063dd62ed3e14610439578063f2fde38b1461047657610114565b806361241c28146102c357806370a08231146102ec578063715018a6146103295780638da5cb5b1461034057806395d89b411461036b57610114565b8063313ce567116100e7578063313ce567146101e95780633610724e14610214578063378dc3dc14610230578063395093511461025b578063518ab2a81461029857610114565b806306fdde0314610119578063095ea7b31461014457806318160ddd1461018157806323b872dd146101ac575b600080fd5b34801561012557600080fd5b5061012e61049f565b60405161013b91906112af565b60405180910390f35b34801561015057600080fd5b5061016b6004803603810190610166919061136a565b610531565b60405161017891906113c5565b60405180910390f35b34801561018d57600080fd5b50610196610554565b6040516101a391906113ef565b60405180910390f35b3480156101b857600080fd5b506101d360048036038101906101ce919061140a565b61055e565b6040516101e091906113c5565b60405180910390f35b3480156101f557600080fd5b506101fe61058d565b60405161020b9190611479565b60405180910390f35b61022e60048036038101906102299190611494565b610596565b005b34801561023c57600080fd5b506102456106bc565b60405161025291906113ef565b60405180910390f35b34801561026757600080fd5b50610282600480360381019061027d919061136a565b6106c2565b60405161028f91906113c5565b60405180910390f35b3480156102a457600080fd5b506102ad61076c565b6040516102ba91906113ef565b60405180910390f35b3480156102cf57600080fd5b506102ea60048036038101906102e59190611494565b610772565b005b3480156102f857600080fd5b50610313600480360381019061030e91906114c1565b6107f8565b60405161032091906113ef565b60405180910390f35b34801561033557600080fd5b5061033e610840565b005b34801561034c57600080fd5b506103556108c8565b60405161036291906114fd565b60405180910390f35b34801561037757600080fd5b506103806108f2565b60405161038d91906112af565b60405180910390f35b3480156103a257600080fd5b506103bd60048036038101906103b8919061136a565b610984565b6040516103ca91906113c5565b60405180910390f35b3480156103df57600080fd5b506103fa60048036038101906103f5919061140a565b610a6e565b005b34801561040857600080fd5b50610423600480360381019061041e919061136a565b610ac9565b60405161043091906113c5565b60405180910390f35b34801561044557600080fd5b50610460600480360381019061045b9190611518565b610aec565b60405161046d91906113ef565b60405180910390f35b34801561048257600080fd5b5061049d600480360381019061049891906114c1565b610b73565b005b6060600380546104ae90611587565b80601f01602080910402602001604051908101604052809291908181526020018280546104da90611587565b80156105275780601f106104fc57610100808354040283529160200191610527565b820191906000526020600020905b81548152906001019060200180831161050a57829003601f168201915b5050505050905090565b60008061053c610c6a565b9050610549818585610c72565b600191505092915050565b6000600254905090565b600080610569610c6a565b9050610576858285610e3b565b610581858585610ec7565b60019150509392505050565b60006012905090565b61059e61058d565b600a6105aa919061171a565b816105b59190611765565b600854346105c39190611765565b14610603576040517f08c379a00000000000000000000000000000000000000000000000000000000081526004016105fa9061180b565b60405180910390fd5b8061061461060f6108c8565b6107f8565b1015610655576040517f08c379a000000000000000000000000000000000000000000000000000000000815260040161064c90611877565b60405180910390fd5b6106676106606108c8565b3383610ec7565b80600760008282546106799190611897565b925050819055507f5e5e995ce3133561afceaa51a9a154d5db228cd7525d34df5185582c18d3df0933826040516106b19291906118ed565b60405180910390a150565b60065481565b6000806106cd610c6a565b9050610761818585600160008673ffffffffffffffffffffffffffffffffffffffff1673ffffffffffffffffffffffffffffffffffffffff16815260200190815260200160002060008973ffffffffffffffffffffffffffffffffffffffff1673ffffffffffffffffffffffffffffffffffffffff1681526020019081526020016000205461075c9190611897565b610c72565b600191505092915050565b60075481565b61077a610c6a565b73ffffffffffffffffffffffffffffffffffffffff166107986108c8565b73ffffffffffffffffffffffffffffffffffffffff16146107ee576040517f08c379a00000000000000000000000000000000000000000000000000000000081526004016107e590611962565b60405180910390fd5b8060088190555050565b60008060008373ffffffffffffffffffffffffffffffffffffffff1673ffffffffffffffffffffffffffffffffffffffff168152602001908152602001600020549050919050565b610848610c6a565b73ffffffffffffffffffffffffffffffffffffffff166108666108c8565b73ffffffffffffffffffffffffffffffffffffffff16146108bc576040517f08c379a00000000000000000000000000000000000000000000000000000000081526004016108b390611962565b60405180910390fd5b6108c66000611146565b565b6000600560009054906101000a900473ffffffffffffffffffffffffffffffffffffffff16905090565b60606004805461090190611587565b80601f016020809104026020016040519081016040528092919081815260200182805461092d90611587565b801561097a5780601f1061094f5761010080835404028352916020019161097a565b820191906000526020600020905b81548152906001019060200180831161095d57829003601f168201915b5050505050905090565b60008061098f610c6a565b90506000600160008373ffffffffffffffffffffffffffffffffffffffff1673ffffffffffffffffffffffffffffffffffffffff16815260200190815260200160002060008673ffffffffffffffffffffffffffffffffffffffff1673ffffffffffffffffffffffffffffffffffffffff16815260200190815260200160002054905083811015610a55576040517f08c379a0000000000000000000000000000000000000000000000000000000008152600401610a4c906119f4565b60405180910390fd5b610a628286868403610c72565b60019250505092915050565b80610a78846107f8565b1015610ab9576040517f08c379a0000000000000000000000000000000000000000000000000000000008152600401610ab090611877565b60405180910390fd5b610ac4838383610ec7565b505050565b600080610ad4610c6a565b9050610ae1818585610ec7565b600191505092915050565b6000600160008473ffffffffffffffffffffffffffffffffffffffff1673ffffffffffffffffffffffffffffffffffffffff16815260200190815260200160002060008373ffffffffffffffffffffffffffffffffffffffff1673ffffffffffffffffffffffffffffffffffffffff16815260200190815260200160002054905092915050565b610b7b610c6a565b73ffffffffffffffffffffffffffffffffffffffff16610b996108c8565b73ffffffffffffffffffffffffffffffffffffffff1614610bef576040517f08c379a0000000000000000000000000000000000000000000000000000000008152600401610be690611962565b60405180910390fd5b600073ffffffffffffffffffffffffffffffffffffffff168173ffffffffffffffffffffffffffffffffffffffff1603610c5e576040517f08c379a0000000000000000000000000000000000000000000000000000000008152600401610c5590611a86565b60405180910390fd5b610c6781611146565b50565b600033905090565b600073ffffffffffffffffffffffffffffffffffffffff168373ffffffffffffffffffffffffffffffffffffffff1603610ce1576040517f08c379a0000000000000000000000000000000000000000000000000000000008152600401610cd890611b18565b60405180910390fd5b600073ffffffffffffffffffffffffffffffffffffffff168273ffffffffffffffffffffffffffffffffffffffff1603610d50576040517f08c379a0000000000000000000000000000000000000000000000000000000008152600401610d4790611baa565b60405180910390fd5b80600160008573ffffffffffffffffffffffffffffffffffffffff1673ffffffffffffffffffffffffffffffffffffffff16815260200190815260200160002060008473ffffffffffffffffffffffffffffffffffffffff1673ffffffffffffffffffffffffffffffffffffffff168152602001908152602001600020819055508173ffffffffffffffffffffffffffffffffffffffff168373ffffffffffffffffffffffffffffffffffffffff167f8c5be1e5ebec7d5bd14f71427d1e84f3dd0314c0f7b2291e5b200ac8c7c3b92583604051610e2e91906113ef565b60405180910390a3505050565b6000610e478484610aec565b90507fffffffffffffffffffffffffffffffffffffffffffffffffffffffffffffffff8114610ec15781811015610eb3576040517f08c379a0000000000000000000000000000000000000000000000000000000008152600401610eaa90611c16565b60405180910390fd5b610ec08484848403610c72565b5b50505050565b600073ffffffffffffffffffffffffffffffffffffffff168373ffffffffffffffffffffffffffffffffffffffff1603610f36576040517f08c379a0000000000000000000000000000000000000000000000000000000008152600401610f2d90611ca8565b60405180910390fd5b600073ffffffffffffffffffffffffffffffffffffffff168273ffffffffffffffffffffffffffffffffffffffff1603610fa5576040517f08c379a0000000000000000000000000000000000000000000000000000000008152600401610f9c90611d3a565b60405180910390fd5b610fb083838361120c565b60008060008573ffffffffffffffffffffffffffffffffffffffff1673ffffffffffffffffffffffffffffffffffffffff16815260200190815260200160002054905081811015611036576040517f08c379a000000000000000000000000000000000000000000000000000000000815260040161102d90611dcc565b60405180910390fd5b8181036000808673ffffffffffffffffffffffffffffffffffffffff1673ffffffffffffffffffffffffffffffffffffffff16815260200190815260200160002081905550816000808573ffffffffffffffffffffffffffffffffffffffff1673ffffffffffffffffffffffffffffffffffffffff16815260200190815260200160002060008282546110c99190611897565b925050819055508273ffffffffffffffffffffffffffffffffffffffff168473ffffffffffffffffffffffffffffffffffffffff167fddf252ad1be2c89b69c2b068fc378daa952ba7f163c4a11628f55a4df523b3ef8460405161112d91906113ef565b60405180910390a3611140848484611211565b50505050565b6000600560009054906101000a900473ffffffffffffffffffffffffffffffffffffffff16905081600560006101000a81548173ffffffffffffffffffffffffffffffffffffffff021916908373ffffffffffffffffffffffffffffffffffffffff1602179055508173ffffffffffffffffffffffffffffffffffffffff168173ffffffffffffffffffffffffffffffffffffffff167f8be0079c531659141344cd1fd0a4f28419497f9722a3daafe3b4186f6b6457e060405160405180910390a35050565b505050565b505050565b600081519050919050565b600082825260208201905092915050565b60005b83811015611250578082015181840152602081019050611235565b8381111561125f576000848401525b50505050565b6000601f19601f8301169050919050565b600061128182611216565b61128b8185611221565b935061129b818560208601611232565b6112a481611265565b840191505092915050565b600060208201905081810360008301526112c98184611276565b905092915050565b600080fd5b600073ffffffffffffffffffffffffffffffffffffffff82169050919050565b6000611301826112d6565b9050919050565b611311816112f6565b811461131c57600080fd5b50565b60008135905061132e81611308565b92915050565b6000819050919050565b61134781611334565b811461135257600080fd5b50565b6000813590506113648161133e565b92915050565b60008060408385031215611381576113806112d1565b5b600061138f8582860161131f565b92505060206113a085828601611355565b9150509250929050565b60008115159050919050565b6113bf816113aa565b82525050565b60006020820190506113da60008301846113b6565b92915050565b6113e981611334565b82525050565b600060208201905061140460008301846113e0565b92915050565b600080600060608486031215611423576114226112d1565b5b60006114318682870161131f565b93505060206114428682870161131f565b925050604061145386828701611355565b9150509250925092565b600060ff82169050919050565b6114738161145d565b82525050565b600060208201905061148e600083018461146a565b92915050565b6000602082840312156114aa576114a96112d1565b5b60006114b884828501611355565b91505092915050565b6000602082840312156114d7576114d66112d1565b5b60006114e58482850161131f565b91505092915050565b6114f7816112f6565b82525050565b600060208201905061151260008301846114ee565b92915050565b6000806040838503121561152f5761152e6112d1565b5b600061153d8582860161131f565b925050602061154e8582860161131f565b9150509250929050565b7f4e487b7100000000000000000000000000000000000000000000000000000000600052602260045260246000fd5b6000600282049050600182168061159f57607f821691505b6020821081036115b2576115b1611558565b5b50919050565b7f4e487b7100000000000000000000000000000000000000000000000000000000600052601160045260246000fd5b60008160011c9050919050565b6000808291508390505b600185111561163e5780860481111561161a576116196115b8565b5b60018516156116295780820291505b8081029050611637856115e7565b94506115fe565b94509492505050565b6000826116575760019050611713565b816116655760009050611713565b816001811461167b5760028114611685576116b4565b6001915050611713565b60ff841115611697576116966115b8565b5b8360020a9150848211156116ae576116ad6115b8565b5b50611713565b5060208310610133831016604e8410600b84101617156116e95782820a9050838111156116e4576116e36115b8565b5b611713565b6116f684848460016115f4565b9250905081840481111561170d5761170c6115b8565b5b81810290505b9392505050565b600061172582611334565b91506117308361145d565b925061175d7fffffffffffffffffffffffffffffffffffffffffffffffffffffffffffffffff8484611647565b905092915050565b600061177082611334565b915061177b83611334565b9250817fffffffffffffffffffffffffffffffffffffffffffffffffffffffffffffffff04831182151516156117b4576117b36115b8565b5b828202905092915050565b7f4e6f7420657861637420616d6f756e7400000000000000000000000000000000600082015250565b60006117f5601083611221565b9150611800826117bf565b602082019050919050565b60006020820190508181036000830152611824816117e8565b9050919050565b7f4e6f7420656e6f75676820746f6b656e73000000000000000000000000000000600082015250565b6000611861601183611221565b915061186c8261182b565b602082019050919050565b6000602082019050818103600083015261189081611854565b9050919050565b60006118a282611334565b91506118ad83611334565b9250827fffffffffffffffffffffffffffffffffffffffffffffffffffffffffffffffff038211156118e2576118e16115b8565b5b828201905092915050565b600060408201905061190260008301856114ee565b61190f60208301846113e0565b9392505050565b7f4f776e61626c653a2063616c6c6572206973206e6f7420746865206f776e6572600082015250565b600061194c602083611221565b915061195782611916565b602082019050919050565b6000602082019050818103600083015261197b8161193f565b9050919050565b7f45524332303a2064656372656173656420616c6c6f77616e63652062656c6f7760008201527f207a65726f000000000000000000000000000000000000000000000000000000602082015250565b60006119de602583611221565b91506119e982611982565b604082019050919050565b60006020820190508181036000830152611a0d816119d1565b9050919050565b7f4f776e61626c653a206e6577206f776e657220697320746865207a65726f206160008201527f6464726573730000000000000000000000000000000000000000000000000000602082015250565b6000611a70602683611221565b9150611a7b82611a14565b604082019050919050565b60006020820190508181036000830152611a9f81611a63565b9050919050565b7f45524332303a20617070726f76652066726f6d20746865207a65726f2061646460008201527f7265737300000000000000000000000000000000000000000000000000000000602082015250565b6000611b02602483611221565b9150611b0d82611aa6565b604082019050919050565b60006020820190508181036000830152611b3181611af5565b9050919050565b7f45524332303a20617070726f766520746f20746865207a65726f20616464726560008201527f7373000000000000000000000000000000000000000000000000000000000000602082015250565b6000611b94602283611221565b9150611b9f82611b38565b604082019050919050565b60006020820190508181036000830152611bc381611b87565b9050919050565b7f45524332303a20696e73756666696369656e7420616c6c6f77616e6365000000600082015250565b6000611c00601d83611221565b9150611c0b82611bca565b602082019050919050565b60006020820190508181036000830152611c2f81611bf3565b9050919050565b7f45524332303a207472616e736665722066726f6d20746865207a65726f20616460008201527f6472657373000000000000000000000000000000000000000000000000000000602082015250565b6000611c92602583611221565b9150611c9d82611c36565b604082019050919050565b60006020820190508181036000830152611cc181611c85565b9050919050565b7f45524332303a207472616e7366657220746f20746865207a65726f206164647260008201527f6573730000000000000000000000000000000000000000000000000000000000602082015250565b6000611d24602383611221565b9150611d2f82611cc8565b604082019050919050565b60006020820190508181036000830152611d5381611d17565b9050919050565b7f45524332303a207472616e7366657220616d6f756e742065786365656473206260008201527f616c616e63650000000000000000000000000000000000000000000000000000602082015250565b6000611db6602683611221565b9150611dc182611d5a565b604082019050919050565b60006020820190508181036000830152611de581611da9565b905091905056fea26469706673582212200471ce8882232d89b3240fa0cca5a7484a0b1329b7373920125ed3407cf1ff6f64736f6c634300080e0033",
  "linkReferences": {},
  "deployedLinkReferences": {}
}